{"contracts/PocPaymaster.sol":{"PocPaymaster":{"abi":[{"anonymous":false,"inputs":[{"indexed":true,"internalType":"address","name":"previousOwner","type":"address"},{"indexed":true,"internalType":"address","name":"newOwner","type":"address"}],"name":"OwnershipTransferred","type":"event"},{"anonymous":false,"inputs":[{"indexed":false,"internalType":"address","name":"oldTarget","type":"address"},{"indexed":false,"internalType":"address","name":"newTarget","type":"address"}],"name":"TargetChanged","type":"event"},{"inputs":[],"name":"CALLDATA_SIZE_LIMIT","outputs":[{"internalType":"uint256","name":"","type":"uint256"}],"stateMutability":"view","type":"function"},{"inputs":[],"name":"FORWARDER_HUB_OVERHEAD","outputs":[{"internalType":"uint256","name":"","type":"uint256"}],"stateMutability":"view","type":"function"},{"inputs":[],"name":"PAYMASTER_ACCEPTANCE_BUDGET","outputs":[{"internalType":"uint256","name":"","type":"uint256"}],"stateMutability":"view","type":"function"},{"inputs":[],"name":"POST_RELAYED_CALL_GAS_LIMIT","outputs":[{"internalType":"uint256","name":"","type":"uint256"}],"stateMutability":"view","type":"function"},{"inputs":[],"name":"PRE_RELAYED_CALL_GAS_LIMIT","outputs":[{"internalType":"uint256","name":"","type":"uint256"}],"stateMutability":"view","type":"function"},{"inputs":[],"name":"getGasAndDataLimits","outputs":[{"components":[{"internalType":"uint256","name":"acceptanceBudget","type":"uint256"},{"internalType":"uint256","name":"preRelayedCallGasLimit","type":"uint256"},{"internalType":"uint256","name":"postRelayedCallGasLimit","type":"uint256"},{"internalType":"uint256","name":"calldataSizeLimit","type":"uint256"}],"internalType":"struct IPaymaster.GasAndDataLimits","name":"limits","type":"tuple"}],"stateMutability":"view","type":"function"},{"inputs":[],"name":"getRelayHub","outputs":[{"internalType":"address","name":"","type":"address"}],"stateMutability":"view","type":"function"},{"inputs":[],"name":"getTrustedForwarder","outputs":[{"internalType":"address","name":"","type":"address"}],"stateMutability":"view","type":"function"},{"inputs":[],"name":"owner","outputs":[{"internalType":"address","name":"","type":"address"}],"stateMutability":"view","type":"function"},{"inputs":[{"internalType":"bytes","name":"context","type":"bytes"},{"internalType":"bool","name":"success","type":"bool"},{"internalType":"uint256","name":"gasUseWithoutPost","type":"uint256"},{"components":[{"internalType":"uint256","name":"maxFeePerGas","type":"uint256"},{"internalType":"uint256","name":"maxPriorityFeePerGas","type":"uint256"},{"internalType":"uint256","name":"transactionCalldataGasUsed","type":"uint256"},{"internalType":"address","name":"relayWorker","type":"address"},{"internalType":"address","name":"paymaster","type":"address"},{"internalType":"address","name":"forwarder","type":"address"},{"internalType":"bytes","name":"paymasterData","type":"bytes"},{"internalType":"uint256","name":"clientId","type":"uint256"}],"internalType":"struct GsnTypes.RelayData","name":"relayData","type":"tuple"}],"name":"postRelayedCall","outputs":[],"stateMutability":"nonpayable","type":"function"},{"inputs":[{"components":[{"components":[{"internalType":"address","name":"from","type":"address"},{"internalType":"address","name":"to","type":"address"},{"internalType":"uint256","name":"value","type":"uint256"},{"internalType":"uint256","name":"gas","type":"uint256"},{"internalType":"uint256","name":"nonce","type":"uint256"},{"internalType":"bytes","name":"data","type":"bytes"},{"internalType":"uint256","name":"validUntilTime","type":"uint256"}],"internalType":"struct IForwarder.ForwardRequest","name":"request","type":"tuple"},{"components":[{"internalType":"uint256","name":"maxFeePerGas","type":"uint256"},{"internalType":"uint256","name":"maxPriorityFeePerGas","type":"uint256"},{"internalType":"uint256","name":"transactionCalldataGasUsed","type":"uint256"},{"internalType":"address","name":"relayWorker","type":"address"},{"internalType":"address","name":"paymaster","type":"address"},{"internalType":"address","name":"forwarder","type":"address"},{"internalType":"bytes","name":"paymasterData","type":"bytes"},{"internalType":"uint256","name":"clientId","type":"uint256"}],"internalType":"struct GsnTypes.RelayData","name":"relayData","type":"tuple"}],"internalType":"struct GsnTypes.RelayRequest","name":"relayRequest","type":"tuple"},{"internalType":"bytes","name":"signature","type":"bytes"},{"internalType":"bytes","name":"approvalData","type":"bytes"},{"internalType":"uint256","name":"maxPossibleGas","type":"uint256"}],"name":"preRelayedCall","outputs":[{"internalType":"bytes","name":"","type":"bytes"},{"internalType":"bool","name":"","type":"bool"}],"stateMutability":"nonpayable","type":"function"},{"inputs":[],"name":"renounceOwnership","outputs":[],"stateMutability":"nonpayable","type":"function"},{"inputs":[{"internalType":"contract IRelayHub","name":"hub","type":"address"}],"name":"setRelayHub","outputs":[],"stateMutability":"nonpayable","type":"function"},{"inputs":[{"internalType":"address","name":"_target","type":"address"}],"name":"setTarget","outputs":[],"stateMutability":"nonpayable","type":"function"},{"inputs":[{"internalType":"address","name":"forwarder","type":"address"}],"name":"setTrustedForwarder","outputs":[],"stateMutability":"nonpayable","type":"function"},{"inputs":[{"internalType":"bytes4","name":"interfaceId","type":"bytes4"}],"name":"supportsInterface","outputs":[{"internalType":"bool","name":"","type":"bool"}],"stateMutability":"view","type":"function"},{"inputs":[],"name":"target","outputs":[{"internalType":"address","name":"","type":"address"}],"stateMutability":"view","type":"function"},{"inputs":[{"internalType":"address","name":"newOwner","type":"address"}],"name":"transferOwnership","outputs":[],"stateMutability":"nonpayable","type":"function"},{"inputs":[],"name":"versionPaymaster","outputs":[{"internalType":"string","name":"","type":"string"}],"stateMutability":"view","type":"function"},{"inputs":[{"internalType":"uint256","name":"amount","type":"uint256"},{"internalType":"address payable","name":"target","type":"address"}],"name":"withdrawRelayHubDepositTo","outputs":[],"stateMutability":"nonpayable","type":"function"},{"stateMutability":"payable","type":"receive"}],"evm":{"bytecode":{"linkReferences":{},"object":"608060405234801561001057600080fd5b5061002d61002261003260201b60201c565b61003a60201b60201c565b6100fe565b600033905090565b60008060009054906101000a900473ffffffffffffffffffffffffffffffffffffffff169050816000806101000a81548173ffffffffffffffffffffffffffffffffffffffff021916908373ffffffffffffffffffffffffffffffffffffffff1602179055508173ffffffffffffffffffffffffffffffffffffffff168173ffffffffffffffffffffffffffffffffffffffff167f8be0079c531659141344cd1fd0a4f28419497f9722a3daafe3b4186f6b6457e060405160405180910390a35050565b612322806200010e6000396000f3fe6080604052600436106101225760003560e01c8063921276ea116100a0578063d4b8399211610064578063d4b83992146104d6578063da74222814610501578063df463a661461052a578063f2fde38b14610555578063f9c002f71461057e57610243565b8063921276ea146103ff578063b039a88f1461042a578063b90b41cf14610455578063bbdaa3c914610480578063ce1b815f146104ab57610243565b806376fa01c3116100e757806376fa01c31461032e578063776d1a01146103575780637bb05264146103805780637bdf2ec7146103a95780638da5cb5b146103d457610243565b8062be5dd41461024857806301ffc9a7146102865780632d14c4b7146102c35780635c5e3db1146102ec578063715018a61461031757610243565b3661024357600073ffffffffffffffffffffffffffffffffffffffff16600160009054906101000a900473ffffffffffffffffffffffffffffffffffffffff1673ffffffffffffffffffffffffffffffffffffffff16036101b8576040517f08c379a00000000000000000000000000000000000000000000000000000000081526004016101af90611417565b60405180910390fd5b600160009054906101000a900473ffffffffffffffffffffffffffffffffffffffff1673ffffffffffffffffffffffffffffffffffffffff1663aa67c91934306040518363ffffffff1660e01b81526004016102149190611478565b6000604051808303818588803b15801561022d57600080fd5b505af1158015610241573d6000803e3d6000fd5b005b600080fd5b34801561025457600080fd5b5061026f600480360381019061026a919061155c565b6105a9565b60405161027d9291906116ca565b60405180910390f35b34801561029257600080fd5b506102ad60048036038101906102a89190611752565b6105f7565b6040516102ba919061177f565b60405180910390f35b3480156102cf57600080fd5b506102ea60048036038101906102e591906117d8565b6106d9565b005b3480156102f857600080fd5b50610301610774565b60405161030e9190611827565b60405180910390f35b34801561032357600080fd5b5061032c61077a565b005b34801561033a57600080fd5b506103556004803603810190610350919061188e565b61078e565b005b34801561036357600080fd5b5061037e6004803603810190610379919061195e565b6107aa565b005b34801561038c57600080fd5b506103a760048036038101906103a291906119c9565b610851565b005b3480156103b557600080fd5b506103be610925565b6040516103cb9190611478565b60405180910390f35b3480156103e057600080fd5b506103e961094f565b6040516103f69190611478565b60405180910390f35b34801561040b57600080fd5b50610414610978565b6040516104219190611a3a565b60405180910390f35b34801561043657600080fd5b5061043f610998565b60405161044c9190611ac0565b60405180910390f35b34801561046157600080fd5b5061046a6109de565b6040516104779190611827565b60405180910390f35b34801561048c57600080fd5b506104956109e4565b6040516104a29190611827565b60405180910390f35b3480156104b757600080fd5b506104c06109eb565b6040516104cd9190611478565b60405180910390f35b3480156104e257600080fd5b506104eb610a15565b6040516104f89190611478565b60405180910390f35b34801561050d57600080fd5b506105286004803603810190610523919061195e565b610a3b565b005b34801561053657600080fd5b5061053f610b0f565b60405161054c9190611827565b60405180910390f35b34801561056157600080fd5b5061057c6004803603810190610577919061195e565b610b23565b005b34801561058a57600080fd5b50610593610ba6565b6040516105a09190611827565b60405180910390f35b606060006105b5610bad565b6105be88610c24565b6105c788610cc6565b6105d088610d1f565b6105da8585610d85565b6105e8888888888888610dcf565b91509150965096945050505050565b60007fe1ab2dea000000000000000000000000000000000000000000000000000000007bffffffffffffffffffffffffffffffffffffffffffffffffffffffff1916827bffffffffffffffffffffffffffffffffffffffffffffffffffffffff191614806106c257507f0e083076000000000000000000000000000000000000000000000000000000007bffffffffffffffffffffffffffffffffffffffffffffffffffffffff1916827bffffffffffffffffffffffffffffffffffffffffffffffffffffffff1916145b806106d257506106d182610ea6565b5b9050919050565b6106e1610f10565b600160009054906101000a900473ffffffffffffffffffffffffffffffffffffffff1673ffffffffffffffffffffffffffffffffffffffff1663f3fef3a382846040518363ffffffff1660e01b815260040161073e929190611aea565b600060405180830381600087803b15801561075857600080fd5b505af115801561076c573d6000803e3d6000fd5b505050505050565b61290481565b610782610f10565b61078c6000610f8e565b565b610796610bad565b6107a38585858585611052565b5050505050565b6107b2610f10565b7f4d11d6210a5e807da812a693b5d341a870571b5fc31158172207a3d99c911ccd600360009054906101000a900473ffffffffffffffffffffffffffffffffffffffff1682604051610805929190611b13565b60405180910390a180600360006101000a81548173ffffffffffffffffffffffffffffffffffffffff021916908373ffffffffffffffffffffffffffffffffffffffff16021790555050565b610859610f10565b6108a27fe9fb30f7000000000000000000000000000000000000000000000000000000008273ffffffffffffffffffffffffffffffffffffffff1661105990919063ffffffff16565b6108e1576040517f08c379a00000000000000000000000000000000000000000000000000000000081526004016108d890611b88565b60405180910390fd5b80600160006101000a81548173ffffffffffffffffffffffffffffffffffffffff021916908373ffffffffffffffffffffffffffffffffffffffff16021790555050565b6000600160009054906101000a900473ffffffffffffffffffffffffffffffffffffffff16905090565b60008060009054906101000a900473ffffffffffffffffffffffffffffffffffffffff16905090565b60606040518060600160405280602981526020016122c460299139905090565b6109a0611392565b604051806080016040528061c350620186a06109bc9190611bd7565b8152602001620186a081526020016201adb08152602001612904815250905090565b61c35081565b6201adb081565b6000600260009054906101000a900473ffffffffffffffffffffffffffffffffffffffff16905090565b600360009054906101000a900473ffffffffffffffffffffffffffffffffffffffff1681565b610a43610f10565b610a8c7f25e23e64000000000000000000000000000000000000000000000000000000008273ffffffffffffffffffffffffffffffffffffffff1661105990919063ffffffff16565b610acb576040517f08c379a0000000000000000000000000000000000000000000000000000000008152600401610ac290611c57565b60405180910390fd5b80600260006101000a81548173ffffffffffffffffffffffffffffffffffffffff021916908373ffffffffffffffffffffffffffffffffffffffff16021790555050565b61c350620186a0610b209190611bd7565b81565b610b2b610f10565b600073ffffffffffffffffffffffffffffffffffffffff168173ffffffffffffffffffffffffffffffffffffffff1603610b9a576040517f08c379a0000000000000000000000000000000000000000000000000000000008152600401610b9190611ce9565b60405180910390fd5b610ba381610f8e565b50565b620186a081565b610bb5610925565b73ffffffffffffffffffffffffffffffffffffffff163373ffffffffffffffffffffffffffffffffffffffff1614610c22576040517f08c379a0000000000000000000000000000000000000000000000000000000008152600401610c1990611d55565b60405180910390fd5b565b808060200190610c349190611d84565b60a0016020810190610c46919061195e565b73ffffffffffffffffffffffffffffffffffffffff16610c646109eb565b73ffffffffffffffffffffffffffffffffffffffff1614610cba576040517f08c379a0000000000000000000000000000000000000000000000000000000008152600401610cb190611df9565b60405180910390fd5b610cc38161107e565b50565b6000818060000190610cd89190611e19565b6040013514610d1c576040517f08c379a0000000000000000000000000000000000000000000000000000000008152600401610d1390611e8d565b60405180910390fd5b50565b6000818060200190610d319190611d84565b8060c00190610d409190611ead565b905014610d82576040517f08c379a0000000000000000000000000000000000000000000000000000000008152600401610d7990611f5c565b60405180910390fd5b50565b60008282905014610dcb576040517f08c379a0000000000000000000000000000000000000000000000000000000008152600401610dc290611fc8565b60405180910390fd5b5050565b60606000600360009054906101000a900473ffffffffffffffffffffffffffffffffffffffff1673ffffffffffffffffffffffffffffffffffffffff16888060000190610e1c9190611e19565b6020016020810190610e2e919061195e565b73ffffffffffffffffffffffffffffffffffffffff1614610e84576040517f08c379a0000000000000000000000000000000000000000000000000000000008152600401610e7b90612034565b60405180910390fd5b6001604051806020016040528060008152509091509150965096945050505050565b60007f01ffc9a7000000000000000000000000000000000000000000000000000000007bffffffffffffffffffffffffffffffffffffffffffffffffffffffff1916827bffffffffffffffffffffffffffffffffffffffffffffffffffffffff1916149050919050565b610f1861127e565b73ffffffffffffffffffffffffffffffffffffffff16610f3661094f565b73ffffffffffffffffffffffffffffffffffffffff1614610f8c576040517f08c379a0000000000000000000000000000000000000000000000000000000008152600401610f83906120a0565b60405180910390fd5b565b60008060009054906101000a900473ffffffffffffffffffffffffffffffffffffffff169050816000806101000a81548173ffffffffffffffffffffffffffffffffffffffff021916908373ffffffffffffffffffffffffffffffffffffffff1602179055508173ffffffffffffffffffffffffffffffffffffffff168173ffffffffffffffffffffffffffffffffffffffff167f8be0079c531659141344cd1fd0a4f28419497f9722a3daafe3b4186f6b6457e060405160405180910390a35050565b5050505050565b600061106483611286565b8015611076575061107583836112d3565b5b905092915050565b6000808280600001906110919190611e19565b60200160208101906110a3919061195e565b73ffffffffffffffffffffffffffffffffffffffff1663572b6c0560e01b8480602001906110d19190611d84565b60a00160208101906110e3919061195e565b6040516024016110f39190611478565b604051602081830303815290604052907bffffffffffffffffffffffffffffffffffffffffffffffffffffffff19166020820180517bffffffffffffffffffffffffffffffffffffffffffffffffffffffff838183161783525050505060405161115d91906120fc565b600060405180830381855afa9150503d8060008114611198576040519150601f19603f3d011682016040523d82523d6000602084013e61119d565b606091505b5091509150816111e2576040517f08c379a00000000000000000000000000000000000000000000000000000000081526004016111d99061215f565b60405180910390fd5b6020815114611226576040517f08c379a000000000000000000000000000000000000000000000000000000000815260040161121d906121cb565b60405180910390fd5b8080602001905181019061123a9190612200565b611279576040517f08c379a000000000000000000000000000000000000000000000000000000000815260040161127090612279565b60405180910390fd5b505050565b600033905090565b60006112b2827f01ffc9a7000000000000000000000000000000000000000000000000000000006112d3565b80156112cc57506112ca8263ffffffff60e01b6112d3565b155b9050919050565b6000806301ffc9a760e01b836040516024016112ef91906122a8565b604051602081830303815290604052907bffffffffffffffffffffffffffffffffffffffffffffffffffffffff19166020820180517bffffffffffffffffffffffffffffffffffffffffffffffffffffffff838183161783525050505090506000806000602060008551602087018a617530fa92503d9150600051905082801561137a575060208210155b80156113865750600081115b94505050505092915050565b6040518060800160405280600081526020016000815260200160008152602001600081525090565b600082825260208201905092915050565b7f72656c6179206875622061646472657373206e6f742073657400000000000000600082015250565b60006114016019836113ba565b915061140c826113cb565b602082019050919050565b60006020820190508181036000830152611430816113f4565b9050919050565b600073ffffffffffffffffffffffffffffffffffffffff82169050919050565b600061146282611437565b9050919050565b61147281611457565b82525050565b600060208201905061148d6000830184611469565b92915050565b600080fd5b600080fd5b600080fd5b6000604082840312156114b8576114b761149d565b5b81905092915050565b600080fd5b600080fd5b600080fd5b60008083601f8401126114e6576114e56114c1565b5b8235905067ffffffffffffffff811115611503576115026114c6565b5b60208301915083600182028301111561151f5761151e6114cb565b5b9250929050565b6000819050919050565b61153981611526565b811461154457600080fd5b50565b60008135905061155681611530565b92915050565b6000806000806000806080878903121561157957611578611493565b5b600087013567ffffffffffffffff81111561159757611596611498565b5b6115a389828a016114a2565b965050602087013567ffffffffffffffff8111156115c4576115c3611498565b5b6115d089828a016114d0565b9550955050604087013567ffffffffffffffff8111156115f3576115f2611498565b5b6115ff89828a016114d0565b9350935050606061161289828a01611547565b9150509295509295509295565b600081519050919050565b600082825260208201905092915050565b60005b8381101561165957808201518184015260208101905061163e565b60008484015250505050565b6000601f19601f8301169050919050565b60006116818261161f565b61168b818561162a565b935061169b81856020860161163b565b6116a481611665565b840191505092915050565b60008115159050919050565b6116c4816116af565b82525050565b600060408201905081810360008301526116e48185611676565b90506116f360208301846116bb565b9392505050565b60007fffffffff0000000000000000000000000000000000000000000000000000000082169050919050565b61172f816116fa565b811461173a57600080fd5b50565b60008135905061174c81611726565b92915050565b60006020828403121561176857611767611493565b5b60006117768482850161173d565b91505092915050565b600060208201905061179460008301846116bb565b92915050565b60006117a582611437565b9050919050565b6117b58161179a565b81146117c057600080fd5b50565b6000813590506117d2816117ac565b92915050565b600080604083850312156117ef576117ee611493565b5b60006117fd85828601611547565b925050602061180e858286016117c3565b9150509250929050565b61182181611526565b82525050565b600060208201905061183c6000830184611818565b92915050565b61184b816116af565b811461185657600080fd5b50565b60008135905061186881611842565b92915050565b600061010082840312156118855761188461149d565b5b81905092915050565b6000806000806000608086880312156118aa576118a9611493565b5b600086013567ffffffffffffffff8111156118c8576118c7611498565b5b6118d4888289016114d0565b955095505060206118e788828901611859565b93505060406118f888828901611547565b925050606086013567ffffffffffffffff81111561191957611918611498565b5b6119258882890161186e565b9150509295509295909350565b61193b81611457565b811461194657600080fd5b50565b60008135905061195881611932565b92915050565b60006020828403121561197457611973611493565b5b600061198284828501611949565b91505092915050565b600061199682611457565b9050919050565b6119a68161198b565b81146119b157600080fd5b50565b6000813590506119c38161199d565b92915050565b6000602082840312156119df576119de611493565b5b60006119ed848285016119b4565b91505092915050565b600081519050919050565b6000611a0c826119f6565b611a1681856113ba565b9350611a2681856020860161163b565b611a2f81611665565b840191505092915050565b60006020820190508181036000830152611a548184611a01565b905092915050565b611a6581611526565b82525050565b608082016000820151611a816000850182611a5c565b506020820151611a946020850182611a5c565b506040820151611aa76040850182611a5c565b506060820151611aba6060850182611a5c565b50505050565b6000608082019050611ad56000830184611a6b565b92915050565b611ae48161179a565b82525050565b6000604082019050611aff6000830185611adb565b611b0c6020830184611818565b9392505050565b6000604082019050611b286000830185611469565b611b356020830184611469565b9392505050565b7f746172676574206973206e6f7420612076616c6964204952656c617948756200600082015250565b6000611b72601f836113ba565b9150611b7d82611b3c565b602082019050919050565b60006020820190508181036000830152611ba181611b65565b9050919050565b7f4e487b7100000000000000000000000000000000000000000000000000000000600052601160045260246000fd5b6000611be282611526565b9150611bed83611526565b9250828201905080821115611c0557611c04611ba8565b5b92915050565b7f746172676574206973206e6f7420612076616c69642049466f72776172646572600082015250565b6000611c416020836113ba565b9150611c4c82611c0b565b602082019050919050565b60006020820190508181036000830152611c7081611c34565b9050919050565b7f4f776e61626c653a206e6577206f776e657220697320746865207a65726f206160008201527f6464726573730000000000000000000000000000000000000000000000000000602082015250565b6000611cd36026836113ba565b9150611cde82611c77565b604082019050919050565b60006020820190508181036000830152611d0281611cc6565b9050919050565b7f63616e206f6e6c792062652063616c6c65642062792052656c61794875620000600082015250565b6000611d3f601e836113ba565b9150611d4a82611d09565b602082019050919050565b60006020820190508181036000830152611d6e81611d32565b9050919050565b600080fd5b600080fd5b600080fd5b60008235600161010003833603038112611da157611da0611d75565b5b80830191505092915050565b7f466f72776172646572206973206e6f7420747275737465640000000000000000600082015250565b6000611de36018836113ba565b9150611dee82611dad565b602082019050919050565b60006020820190508181036000830152611e1281611dd6565b9050919050565b60008235600160e003833603038112611e3557611e34611d75565b5b80830191505092915050565b7f76616c7565207472616e73666572206e6f7420737570706f7274656400000000600082015250565b6000611e77601c836113ba565b9150611e8282611e41565b602082019050919050565b60006020820190508181036000830152611ea681611e6a565b9050919050565b60008083356001602003843603038112611eca57611ec9611d75565b5b80840192508235915067ffffffffffffffff821115611eec57611eeb611d7a565b5b602083019250600182023603831315611f0857611f07611d7f565b5b509250929050565b7f73686f756c642068617665206e6f207061796d61737465724461746100000000600082015250565b6000611f46601c836113ba565b9150611f5182611f10565b602082019050919050565b60006020820190508181036000830152611f7581611f39565b9050919050565b7f73686f756c642068617665206e6f20617070726f76616c446174610000000000600082015250565b6000611fb2601b836113ba565b9150611fbd82611f7c565b602082019050919050565b60006020820190508181036000830152611fe181611fa5565b9050919050565b7f77726f6e67207461726765740000000000000000000000000000000000000000600082015250565b600061201e600c836113ba565b915061202982611fe8565b602082019050919050565b6000602082019050818103600083015261204d81612011565b9050919050565b7f4f776e61626c653a2063616c6c6572206973206e6f7420746865206f776e6572600082015250565b600061208a6020836113ba565b915061209582612054565b602082019050919050565b600060208201905081810360008301526120b98161207d565b9050919050565b600081905092915050565b60006120d68261161f565b6120e081856120c0565b93506120f081856020860161163b565b80840191505092915050565b600061210882846120cb565b915081905092915050565b7f697354727573746564466f727761726465723a20726576657274656400000000600082015250565b6000612149601c836113ba565b915061215482612113565b602082019050919050565b600060208201905081810360008301526121788161213c565b9050919050565b7f697354727573746564466f727761726465723a2062616420726573706f6e7365600082015250565b60006121b56020836113ba565b91506121c08261217f565b602082019050919050565b600060208201905081810360008301526121e4816121a8565b9050919050565b6000815190506121fa81611842565b92915050565b60006020828403121561221657612215611493565b5b6000612224848285016121eb565b91505092915050565b7f696e76616c696420666f7277617264657220666f7220726563697069656e7400600082015250565b6000612263601f836113ba565b915061226e8261222d565b602082019050919050565b6000602082019050818103600083015261229281612256565b9050919050565b6122a2816116fa565b82525050565b60006020820190506122bd6000830184612299565b9291505056fe332e302e302d626574612e332b6f70656e67736e2e726563697069656e742e697061796d6173746572a2646970667358221220577fbb94c0ebcf122d3aa2e6e565e776648e66b10257df5edf04a68efd8a1b5a64736f6c63430008130033","opcodes":"PUSH1 0x80 PUSH1 0x40 MSTORE CALLVALUE DUP1 ISZERO PUSH2 0x10 JUMPI PUSH1 0x0 DUP1 REVERT JUMPDEST POP PUSH2 0x2D PUSH2 0x22 PUSH2 0x32 PUSH1 0x20 SHL PUSH1 0x20 SHR JUMP JUMPDEST PUSH2 0x3A PUSH1 0x20 SHL PUSH1 0x20 SHR JUMP JUMPDEST PUSH2 0xFE JUMP JUMPDEST PUSH1 0x0 CALLER SWAP1 POP SWAP1 JUMP JUMPDEST PUSH1 0x0 DUP1 PUSH1 0x0 SWAP1 SLOAD SWAP1 PUSH2 0x100 EXP SWAP1 DIV PUSH20 0xFFFFFFFFFFFFFFFFFFFFFFFFFFFFFFFFFFFFFFFF AND SWAP1 POP DUP2 PUSH1 0x0 DUP1 PUSH2 0x100 EXP DUP2 SLOAD DUP2 PUSH20 0xFFFFFFFFFFFFFFFFFFFFFFFFFFFFFFFFFFFFFFFF MUL NOT AND SWAP1 DUP4 PUSH20 0xFFFFFFFFFFFFFFFFFFFFFFFFFFFFFFFFFFFFFFFF AND MUL OR SWAP1 SSTORE POP DUP2 PUSH20 0xFFFFFFFFFFFFFFFFFFFFFFFFFFFFFFFFFFFFFFFF AND DUP2 PUSH20 0xFFFFFFFFFFFFFFFFFFFFFFFFFFFFFFFFFFFFFFFF AND PUSH32 0x8BE0079C531659141344CD1FD0A4F28419497F9722A3DAAFE3B4186F6B6457E0 PUSH1 0x40 MLOAD PUSH1 0x40 MLOAD DUP1 SWAP2 SUB SWAP1 LOG3 POP POP JUMP JUMPDEST PUSH2 0x2322 DUP1 PUSH3 0x10E PUSH1 0x0 CODECOPY PUSH1 0x0 RETURN INVALID PUSH1 0x80 PUSH1 0x40 MSTORE PUSH1 0x4 CALLDATASIZE LT PUSH2 0x122 JUMPI PUSH1 0x0 CALLDATALOAD PUSH1 0xE0 SHR DUP1 PUSH4 0x921276EA GT PUSH2 0xA0 JUMPI DUP1 PUSH4 0xD4B83992 GT PUSH2 0x64 JUMPI DUP1 PUSH4 0xD4B83992 EQ PUSH2 0x4D6 JUMPI DUP1 PUSH4 0xDA742228 EQ PUSH2 0x501 JUMPI DUP1 PUSH4 0xDF463A66 EQ PUSH2 0x52A JUMPI DUP1 PUSH4 0xF2FDE38B EQ PUSH2 0x555 JUMPI DUP1 PUSH4 0xF9C002F7 EQ PUSH2 0x57E JUMPI PUSH2 0x243 JUMP JUMPDEST DUP1 PUSH4 0x921276EA EQ PUSH2 0x3FF JUMPI DUP1 PUSH4 0xB039A88F EQ PUSH2 0x42A JUMPI DUP1 PUSH4 0xB90B41CF EQ PUSH2 0x455 JUMPI DUP1 PUSH4 0xBBDAA3C9 EQ PUSH2 0x480 JUMPI DUP1 PUSH4 0xCE1B815F EQ PUSH2 0x4AB JUMPI PUSH2 0x243 JUMP JUMPDEST DUP1 PUSH4 0x76FA01C3 GT PUSH2 0xE7 JUMPI DUP1 PUSH4 0x76FA01C3 EQ PUSH2 0x32E JUMPI DUP1 PUSH4 0x776D1A01 EQ PUSH2 0x357 JUMPI DUP1 PUSH4 0x7BB05264 EQ PUSH2 0x380 JUMPI DUP1 PUSH4 0x7BDF2EC7 EQ PUSH2 0x3A9 JUMPI DUP1 PUSH4 0x8DA5CB5B EQ PUSH2 0x3D4 JUMPI PUSH2 0x243 JUMP JUMPDEST DUP1 PUSH3 0xBE5DD4 EQ PUSH2 0x248 JUMPI DUP1 PUSH4 0x1FFC9A7 EQ PUSH2 0x286 JUMPI DUP1 PUSH4 0x2D14C4B7 EQ PUSH2 0x2C3 JUMPI DUP1 PUSH4 0x5C5E3DB1 EQ PUSH2 0x2EC JUMPI DUP1 PUSH4 0x715018A6 EQ PUSH2 0x317 JUMPI PUSH2 0x243 JUMP JUMPDEST CALLDATASIZE PUSH2 0x243 JUMPI PUSH1 0x0 PUSH20 0xFFFFFFFFFFFFFFFFFFFFFFFFFFFFFFFFFFFFFFFF AND PUSH1 0x1 PUSH1 0x0 SWAP1 SLOAD SWAP1 PUSH2 0x100 EXP SWAP1 DIV PUSH20 0xFFFFFFFFFFFFFFFFFFFFFFFFFFFFFFFFFFFFFFFF AND PUSH20 0xFFFFFFFFFFFFFFFFFFFFFFFFFFFFFFFFFFFFFFFF AND SUB PUSH2 0x1B8 JUMPI PUSH1 0x40 MLOAD PUSH32 0x8C379A000000000000000000000000000000000000000000000000000000000 DUP2 MSTORE PUSH1 0x4 ADD PUSH2 0x1AF SWAP1 PUSH2 0x1417 JUMP JUMPDEST PUSH1 0x40 MLOAD DUP1 SWAP2 SUB SWAP1 REVERT JUMPDEST PUSH1 0x1 PUSH1 0x0 SWAP1 SLOAD SWAP1 PUSH2 0x100 EXP SWAP1 DIV PUSH20 0xFFFFFFFFFFFFFFFFFFFFFFFFFFFFFFFFFFFFFFFF AND PUSH20 0xFFFFFFFFFFFFFFFFFFFFFFFFFFFFFFFFFFFFFFFF AND PUSH4 0xAA67C919 CALLVALUE ADDRESS PUSH1 0x40 MLOAD DUP4 PUSH4 0xFFFFFFFF AND PUSH1 0xE0 SHL DUP2 MSTORE PUSH1 0x4 ADD PUSH2 0x214 SWAP2 SWAP1 PUSH2 0x1478 JUMP JUMPDEST PUSH1 0x0 PUSH1 0x40 MLOAD DUP1 DUP4 SUB DUP2 DUP6 DUP9 DUP1 EXTCODESIZE ISZERO DUP1 ISZERO PUSH2 0x22D JUMPI PUSH1 0x0 DUP1 REVERT JUMPDEST POP GAS CALL ISZERO DUP1 ISZERO PUSH2 0x241 JUMPI RETURNDATASIZE PUSH1 0x0 DUP1 RETURNDATACOPY RETURNDATASIZE PUSH1 0x0 REVERT JUMPDEST STOP JUMPDEST PUSH1 0x0 DUP1 REVERT JUMPDEST CALLVALUE DUP1 ISZERO PUSH2 0x254 JUMPI PUSH1 0x0 DUP1 REVERT JUMPDEST POP PUSH2 0x26F PUSH1 0x4 DUP1 CALLDATASIZE SUB DUP2 ADD SWAP1 PUSH2 0x26A SWAP2 SWAP1 PUSH2 0x155C JUMP JUMPDEST PUSH2 0x5A9 JUMP JUMPDEST PUSH1 0x40 MLOAD PUSH2 0x27D SWAP3 SWAP2 SWAP1 PUSH2 0x16CA JUMP JUMPDEST PUSH1 0x40 MLOAD DUP1 SWAP2 SUB SWAP1 RETURN JUMPDEST CALLVALUE DUP1 ISZERO PUSH2 0x292 JUMPI PUSH1 0x0 DUP1 REVERT JUMPDEST POP PUSH2 0x2AD PUSH1 0x4 DUP1 CALLDATASIZE SUB DUP2 ADD SWAP1 PUSH2 0x2A8 SWAP2 SWAP1 PUSH2 0x1752 JUMP JUMPDEST PUSH2 0x5F7 JUMP JUMPDEST PUSH1 0x40 MLOAD PUSH2 0x2BA SWAP2 SWAP1 PUSH2 0x177F JUMP JUMPDEST PUSH1 0x40 MLOAD DUP1 SWAP2 SUB SWAP1 RETURN JUMPDEST CALLVALUE DUP1 ISZERO PUSH2 0x2CF JUMPI PUSH1 0x0 DUP1 REVERT JUMPDEST POP PUSH2 0x2EA PUSH1 0x4 DUP1 CALLDATASIZE SUB DUP2 ADD SWAP1 PUSH2 0x2E5 SWAP2 SWAP1 PUSH2 0x17D8 JUMP JUMPDEST PUSH2 0x6D9 JUMP JUMPDEST STOP JUMPDEST CALLVALUE DUP1 ISZERO PUSH2 0x2F8 JUMPI PUSH1 0x0 DUP1 REVERT JUMPDEST POP PUSH2 0x301 PUSH2 0x774 JUMP JUMPDEST PUSH1 0x40 MLOAD PUSH2 0x30E SWAP2 SWAP1 PUSH2 0x1827 JUMP JUMPDEST PUSH1 0x40 MLOAD DUP1 SWAP2 SUB SWAP1 RETURN JUMPDEST CALLVALUE DUP1 ISZERO PUSH2 0x323 JUMPI PUSH1 0x0 DUP1 REVERT JUMPDEST POP PUSH2 0x32C PUSH2 0x77A JUMP JUMPDEST STOP JUMPDEST CALLVALUE DUP1 ISZERO PUSH2 0x33A JUMPI PUSH1 0x0 DUP1 REVERT JUMPDEST POP PUSH2 0x355 PUSH1 0x4 DUP1 CALLDATASIZE SUB DUP2 ADD SWAP1 PUSH2 0x350 SWAP2 SWAP1 PUSH2 0x188E JUMP JUMPDEST PUSH2 0x78E JUMP JUMPDEST STOP JUMPDEST CALLVALUE DUP1 ISZERO PUSH2 0x363 JUMPI PUSH1 0x0 DUP1 REVERT JUMPDEST POP PUSH2 0x37E PUSH1 0x4 DUP1 CALLDATASIZE SUB DUP2 ADD SWAP1 PUSH2 0x379 SWAP2 SWAP1 PUSH2 0x195E JUMP JUMPDEST PUSH2 0x7AA JUMP JUMPDEST STOP JUMPDEST CALLVALUE DUP1 ISZERO PUSH2 0x38C JUMPI PUSH1 0x0 DUP1 REVERT JUMPDEST POP PUSH2 0x3A7 PUSH1 0x4 DUP1 CALLDATASIZE SUB DUP2 ADD SWAP1 PUSH2 0x3A2 SWAP2 SWAP1 PUSH2 0x19C9 JUMP JUMPDEST PUSH2 0x851 JUMP JUMPDEST STOP JUMPDEST CALLVALUE DUP1 ISZERO PUSH2 0x3B5 JUMPI PUSH1 0x0 DUP1 REVERT JUMPDEST POP PUSH2 0x3BE PUSH2 0x925 JUMP JUMPDEST PUSH1 0x40 MLOAD PUSH2 0x3CB SWAP2 SWAP1 PUSH2 0x1478 JUMP JUMPDEST PUSH1 0x40 MLOAD DUP1 SWAP2 SUB SWAP1 RETURN JUMPDEST CALLVALUE DUP1 ISZERO PUSH2 0x3E0 JUMPI PUSH1 0x0 DUP1 REVERT JUMPDEST POP PUSH2 0x3E9 PUSH2 0x94F JUMP JUMPDEST PUSH1 0x40 MLOAD PUSH2 0x3F6 SWAP2 SWAP1 PUSH2 0x1478 JUMP JUMPDEST PUSH1 0x40 MLOAD DUP1 SWAP2 SUB SWAP1 RETURN JUMPDEST CALLVALUE DUP1 ISZERO PUSH2 0x40B JUMPI PUSH1 0x0 DUP1 REVERT JUMPDEST POP PUSH2 0x414 PUSH2 0x978 JUMP JUMPDEST PUSH1 0x40 MLOAD PUSH2 0x421 SWAP2 SWAP1 PUSH2 0x1A3A JUMP JUMPDEST PUSH1 0x40 MLOAD DUP1 SWAP2 SUB SWAP1 RETURN JUMPDEST CALLVALUE DUP1 ISZERO PUSH2 0x436 JUMPI PUSH1 0x0 DUP1 REVERT JUMPDEST POP PUSH2 0x43F PUSH2 0x998 JUMP JUMPDEST PUSH1 0x40 MLOAD PUSH2 0x44C SWAP2 SWAP1 PUSH2 0x1AC0 JUMP JUMPDEST PUSH1 0x40 MLOAD DUP1 SWAP2 SUB SWAP1 RETURN JUMPDEST CALLVALUE DUP1 ISZERO PUSH2 0x461 JUMPI PUSH1 0x0 DUP1 REVERT JUMPDEST POP PUSH2 0x46A PUSH2 0x9DE JUMP JUMPDEST PUSH1 0x40 MLOAD PUSH2 0x477 SWAP2 SWAP1 PUSH2 0x1827 JUMP JUMPDEST PUSH1 0x40 MLOAD DUP1 SWAP2 SUB SWAP1 RETURN JUMPDEST CALLVALUE DUP1 ISZERO PUSH2 0x48C JUMPI PUSH1 0x0 DUP1 REVERT JUMPDEST POP PUSH2 0x495 PUSH2 0x9E4 JUMP JUMPDEST PUSH1 0x40 MLOAD PUSH2 0x4A2 SWAP2 SWAP1 PUSH2 0x1827 JUMP JUMPDEST PUSH1 0x40 MLOAD DUP1 SWAP2 SUB SWAP1 RETURN JUMPDEST CALLVALUE DUP1 ISZERO PUSH2 0x4B7 JUMPI PUSH1 0x0 DUP1 REVERT JUMPDEST POP PUSH2 0x4C0 PUSH2 0x9EB JUMP JUMPDEST PUSH1 0x40 MLOAD PUSH2 0x4CD SWAP2 SWAP1 PUSH2 0x1478 JUMP JUMPDEST PUSH1 0x40 MLOAD DUP1 SWAP2 SUB SWAP1 RETURN JUMPDEST CALLVALUE DUP1 ISZERO PUSH2 0x4E2 JUMPI PUSH1 0x0 DUP1 REVERT JUMPDEST POP PUSH2 0x4EB PUSH2 0xA15 JUMP JUMPDEST PUSH1 0x40 MLOAD PUSH2 0x4F8 SWAP2 SWAP1 PUSH2 0x1478 JUMP JUMPDEST PUSH1 0x40 MLOAD DUP1 SWAP2 SUB SWAP1 RETURN JUMPDEST CALLVALUE DUP1 ISZERO PUSH2 0x50D JUMPI PUSH1 0x0 DUP1 REVERT JUMPDEST POP PUSH2 0x528 PUSH1 0x4 DUP1 CALLDATASIZE SUB DUP2 ADD SWAP1 PUSH2 0x523 SWAP2 SWAP1 PUSH2 0x195E JUMP JUMPDEST PUSH2 0xA3B JUMP JUMPDEST STOP JUMPDEST CALLVALUE DUP1 ISZERO PUSH2 0x536 JUMPI PUSH1 0x0 DUP1 REVERT JUMPDEST POP PUSH2 0x53F PUSH2 0xB0F JUMP JUMPDEST PUSH1 0x40 MLOAD PUSH2 0x54C SWAP2 SWAP1 PUSH2 0x1827 JUMP JUMPDEST PUSH1 0x40 MLOAD DUP1 SWAP2 SUB SWAP1 RETURN JUMPDEST CALLVALUE DUP1 ISZERO PUSH2 0x561 JUMPI PUSH1 0x0 DUP1 REVERT JUMPDEST POP PUSH2 0x57C PUSH1 0x4 DUP1 CALLDATASIZE SUB DUP2 ADD SWAP1 PUSH2 0x577 SWAP2 SWAP1 PUSH2 0x195E JUMP JUMPDEST PUSH2 0xB23 JUMP JUMPDEST STOP JUMPDEST CALLVALUE DUP1 ISZERO PUSH2 0x58A JUMPI PUSH1 0x0 DUP1 REVERT JUMPDEST POP PUSH2 0x593 PUSH2 0xBA6 JUMP JUMPDEST PUSH1 0x40 MLOAD PUSH2 0x5A0 SWAP2 SWAP1 PUSH2 0x1827 JUMP JUMPDEST PUSH1 0x40 MLOAD DUP1 SWAP2 SUB SWAP1 RETURN JUMPDEST PUSH1 0x60 PUSH1 0x0 PUSH2 0x5B5 PUSH2 0xBAD JUMP JUMPDEST PUSH2 0x5BE DUP9 PUSH2 0xC24 JUMP JUMPDEST PUSH2 0x5C7 DUP9 PUSH2 0xCC6 JUMP JUMPDEST PUSH2 0x5D0 DUP9 PUSH2 0xD1F JUMP JUMPDEST PUSH2 0x5DA DUP6 DUP6 PUSH2 0xD85 JUMP JUMPDEST PUSH2 0x5E8 DUP9 DUP9 DUP9 DUP9 DUP9 DUP9 PUSH2 0xDCF JUMP JUMPDEST SWAP2 POP SWAP2 POP SWAP7 POP SWAP7 SWAP5 POP POP POP POP POP JUMP JUMPDEST PUSH1 0x0 PUSH32 0xE1AB2DEA00000000000000000000000000000000000000000000000000000000 PUSH28 0xFFFFFFFFFFFFFFFFFFFFFFFFFFFFFFFFFFFFFFFFFFFFFFFFFFFFFFFF NOT AND DUP3 PUSH28 0xFFFFFFFFFFFFFFFFFFFFFFFFFFFFFFFFFFFFFFFFFFFFFFFFFFFFFFFF NOT AND EQ DUP1 PUSH2 0x6C2 JUMPI POP PUSH32 0xE08307600000000000000000000000000000000000000000000000000000000 PUSH28 0xFFFFFFFFFFFFFFFFFFFFFFFFFFFFFFFFFFFFFFFFFFFFFFFFFFFFFFFF NOT AND DUP3 PUSH28 0xFFFFFFFFFFFFFFFFFFFFFFFFFFFFFFFFFFFFFFFFFFFFFFFFFFFFFFFF NOT AND EQ JUMPDEST DUP1 PUSH2 0x6D2 JUMPI POP PUSH2 0x6D1 DUP3 PUSH2 0xEA6 JUMP JUMPDEST JUMPDEST SWAP1 POP SWAP2 SWAP1 POP JUMP JUMPDEST PUSH2 0x6E1 PUSH2 0xF10 JUMP JUMPDEST PUSH1 0x1 PUSH1 0x0 SWAP1 SLOAD SWAP1 PUSH2 0x100 EXP SWAP1 DIV PUSH20 0xFFFFFFFFFFFFFFFFFFFFFFFFFFFFFFFFFFFFFFFF AND PUSH20 0xFFFFFFFFFFFFFFFFFFFFFFFFFFFFFFFFFFFFFFFF AND PUSH4 0xF3FEF3A3 DUP3 DUP5 PUSH1 0x40 MLOAD DUP4 PUSH4 0xFFFFFFFF AND PUSH1 0xE0 SHL DUP2 MSTORE PUSH1 0x4 ADD PUSH2 0x73E SWAP3 SWAP2 SWAP1 PUSH2 0x1AEA JUMP JUMPDEST PUSH1 0x0 PUSH1 0x40 MLOAD DUP1 DUP4 SUB DUP2 PUSH1 0x0 DUP8 DUP1 EXTCODESIZE ISZERO DUP1 ISZERO PUSH2 0x758 JUMPI PUSH1 0x0 DUP1 REVERT JUMPDEST POP GAS CALL ISZERO DUP1 ISZERO PUSH2 0x76C JUMPI RETURNDATASIZE PUSH1 0x0 DUP1 RETURNDATACOPY RETURNDATASIZE PUSH1 0x0 REVERT JUMPDEST POP POP POP POP POP POP JUMP JUMPDEST PUSH2 0x2904 DUP2 JUMP JUMPDEST PUSH2 0x782 PUSH2 0xF10 JUMP JUMPDEST PUSH2 0x78C PUSH1 0x0 PUSH2 0xF8E JUMP JUMPDEST JUMP JUMPDEST PUSH2 0x796 PUSH2 0xBAD JUMP JUMPDEST PUSH2 0x7A3 DUP6 DUP6 DUP6 DUP6 DUP6 PUSH2 0x1052 JUMP JUMPDEST POP POP POP POP POP JUMP JUMPDEST PUSH2 0x7B2 PUSH2 0xF10 JUMP JUMPDEST PUSH32 0x4D11D6210A5E807DA812A693B5D341A870571B5FC31158172207A3D99C911CCD PUSH1 0x3 PUSH1 0x0 SWAP1 SLOAD SWAP1 PUSH2 0x100 EXP SWAP1 DIV PUSH20 0xFFFFFFFFFFFFFFFFFFFFFFFFFFFFFFFFFFFFFFFF AND DUP3 PUSH1 0x40 MLOAD PUSH2 0x805 SWAP3 SWAP2 SWAP1 PUSH2 0x1B13 JUMP JUMPDEST PUSH1 0x40 MLOAD DUP1 SWAP2 SUB SWAP1 LOG1 DUP1 PUSH1 0x3 PUSH1 0x0 PUSH2 0x100 EXP DUP2 SLOAD DUP2 PUSH20 0xFFFFFFFFFFFFFFFFFFFFFFFFFFFFFFFFFFFFFFFF MUL NOT AND SWAP1 DUP4 PUSH20 0xFFFFFFFFFFFFFFFFFFFFFFFFFFFFFFFFFFFFFFFF AND MUL OR SWAP1 SSTORE POP POP JUMP JUMPDEST PUSH2 0x859 PUSH2 0xF10 JUMP JUMPDEST PUSH2 0x8A2 PUSH32 0xE9FB30F700000000000000000000000000000000000000000000000000000000 DUP3 PUSH20 0xFFFFFFFFFFFFFFFFFFFFFFFFFFFFFFFFFFFFFFFF AND PUSH2 0x1059 SWAP1 SWAP2 SWAP1 PUSH4 0xFFFFFFFF AND JUMP JUMPDEST PUSH2 0x8E1 JUMPI PUSH1 0x40 MLOAD PUSH32 0x8C379A000000000000000000000000000000000000000000000000000000000 DUP2 MSTORE PUSH1 0x4 ADD PUSH2 0x8D8 SWAP1 PUSH2 0x1B88 JUMP JUMPDEST PUSH1 0x40 MLOAD DUP1 SWAP2 SUB SWAP1 REVERT JUMPDEST DUP1 PUSH1 0x1 PUSH1 0x0 PUSH2 0x100 EXP DUP2 SLOAD DUP2 PUSH20 0xFFFFFFFFFFFFFFFFFFFFFFFFFFFFFFFFFFFFFFFF MUL NOT AND SWAP1 DUP4 PUSH20 0xFFFFFFFFFFFFFFFFFFFFFFFFFFFFFFFFFFFFFFFF AND MUL OR SWAP1 SSTORE POP POP JUMP JUMPDEST PUSH1 0x0 PUSH1 0x1 PUSH1 0x0 SWAP1 SLOAD SWAP1 PUSH2 0x100 EXP SWAP1 DIV PUSH20 0xFFFFFFFFFFFFFFFFFFFFFFFFFFFFFFFFFFFFFFFF AND SWAP1 POP SWAP1 JUMP JUMPDEST PUSH1 0x0 DUP1 PUSH1 0x0 SWAP1 SLOAD SWAP1 PUSH2 0x100 EXP SWAP1 DIV PUSH20 0xFFFFFFFFFFFFFFFFFFFFFFFFFFFFFFFFFFFFFFFF AND SWAP1 POP SWAP1 JUMP JUMPDEST PUSH1 0x60 PUSH1 0x40 MLOAD DUP1 PUSH1 0x60 ADD PUSH1 0x40 MSTORE DUP1 PUSH1 0x29 DUP2 MSTORE PUSH1 0x20 ADD PUSH2 0x22C4 PUSH1 0x29 SWAP2 CODECOPY SWAP1 POP SWAP1 JUMP JUMPDEST PUSH2 0x9A0 PUSH2 0x1392 JUMP JUMPDEST PUSH1 0x40 MLOAD DUP1 PUSH1 0x80 ADD PUSH1 0x40 MSTORE DUP1 PUSH2 0xC350 PUSH3 0x186A0 PUSH2 0x9BC SWAP2 SWAP1 PUSH2 0x1BD7 JUMP JUMPDEST DUP2 MSTORE PUSH1 0x20 ADD PUSH3 0x186A0 DUP2 MSTORE PUSH1 0x20 ADD PUSH3 0x1ADB0 DUP2 MSTORE PUSH1 0x20 ADD PUSH2 0x2904 DUP2 MSTORE POP SWAP1 POP SWAP1 JUMP JUMPDEST PUSH2 0xC350 DUP2 JUMP JUMPDEST PUSH3 0x1ADB0 DUP2 JUMP JUMPDEST PUSH1 0x0 PUSH1 0x2 PUSH1 0x0 SWAP1 SLOAD SWAP1 PUSH2 0x100 EXP SWAP1 DIV PUSH20 0xFFFFFFFFFFFFFFFFFFFFFFFFFFFFFFFFFFFFFFFF AND SWAP1 POP SWAP1 JUMP JUMPDEST PUSH1 0x3 PUSH1 0x0 SWAP1 SLOAD SWAP1 PUSH2 0x100 EXP SWAP1 DIV PUSH20 0xFFFFFFFFFFFFFFFFFFFFFFFFFFFFFFFFFFFFFFFF AND DUP2 JUMP JUMPDEST PUSH2 0xA43 PUSH2 0xF10 JUMP JUMPDEST PUSH2 0xA8C PUSH32 0x25E23E6400000000000000000000000000000000000000000000000000000000 DUP3 PUSH20 0xFFFFFFFFFFFFFFFFFFFFFFFFFFFFFFFFFFFFFFFF AND PUSH2 0x1059 SWAP1 SWAP2 SWAP1 PUSH4 0xFFFFFFFF AND JUMP JUMPDEST PUSH2 0xACB JUMPI PUSH1 0x40 MLOAD PUSH32 0x8C379A000000000000000000000000000000000000000000000000000000000 DUP2 MSTORE PUSH1 0x4 ADD PUSH2 0xAC2 SWAP1 PUSH2 0x1C57 JUMP JUMPDEST PUSH1 0x40 MLOAD DUP1 SWAP2 SUB SWAP1 REVERT JUMPDEST DUP1 PUSH1 0x2 PUSH1 0x0 PUSH2 0x100 EXP DUP2 SLOAD DUP2 PUSH20 0xFFFFFFFFFFFFFFFFFFFFFFFFFFFFFFFFFFFFFFFF MUL NOT AND SWAP1 DUP4 PUSH20 0xFFFFFFFFFFFFFFFFFFFFFFFFFFFFFFFFFFFFFFFF AND MUL OR SWAP1 SSTORE POP POP JUMP JUMPDEST PUSH2 0xC350 PUSH3 0x186A0 PUSH2 0xB20 SWAP2 SWAP1 PUSH2 0x1BD7 JUMP JUMPDEST DUP2 JUMP JUMPDEST PUSH2 0xB2B PUSH2 0xF10 JUMP JUMPDEST PUSH1 0x0 PUSH20 0xFFFFFFFFFFFFFFFFFFFFFFFFFFFFFFFFFFFFFFFF AND DUP2 PUSH20 0xFFFFFFFFFFFFFFFFFFFFFFFFFFFFFFFFFFFFFFFF AND SUB PUSH2 0xB9A JUMPI PUSH1 0x40 MLOAD PUSH32 0x8C379A000000000000000000000000000000000000000000000000000000000 DUP2 MSTORE PUSH1 0x4 ADD PUSH2 0xB91 SWAP1 PUSH2 0x1CE9 JUMP JUMPDEST PUSH1 0x40 MLOAD DUP1 SWAP2 SUB SWAP1 REVERT JUMPDEST PUSH2 0xBA3 DUP2 PUSH2 0xF8E JUMP JUMPDEST POP JUMP JUMPDEST PUSH3 0x186A0 DUP2 JUMP JUMPDEST PUSH2 0xBB5 PUSH2 0x925 JUMP JUMPDEST PUSH20 0xFFFFFFFFFFFFFFFFFFFFFFFFFFFFFFFFFFFFFFFF AND CALLER PUSH20 0xFFFFFFFFFFFFFFFFFFFFFFFFFFFFFFFFFFFFFFFF AND EQ PUSH2 0xC22 JUMPI PUSH1 0x40 MLOAD PUSH32 0x8C379A000000000000000000000000000000000000000000000000000000000 DUP2 MSTORE PUSH1 0x4 ADD PUSH2 0xC19 SWAP1 PUSH2 0x1D55 JUMP JUMPDEST PUSH1 0x40 MLOAD DUP1 SWAP2 SUB SWAP1 REVERT JUMPDEST JUMP JUMPDEST DUP1 DUP1 PUSH1 0x20 ADD SWAP1 PUSH2 0xC34 SWAP2 SWAP1 PUSH2 0x1D84 JUMP JUMPDEST PUSH1 0xA0 ADD PUSH1 0x20 DUP2 ADD SWAP1 PUSH2 0xC46 SWAP2 SWAP1 PUSH2 0x195E JUMP JUMPDEST PUSH20 0xFFFFFFFFFFFFFFFFFFFFFFFFFFFFFFFFFFFFFFFF AND PUSH2 0xC64 PUSH2 0x9EB JUMP JUMPDEST PUSH20 0xFFFFFFFFFFFFFFFFFFFFFFFFFFFFFFFFFFFFFFFF AND EQ PUSH2 0xCBA JUMPI PUSH1 0x40 MLOAD PUSH32 0x8C379A000000000000000000000000000000000000000000000000000000000 DUP2 MSTORE PUSH1 0x4 ADD PUSH2 0xCB1 SWAP1 PUSH2 0x1DF9 JUMP JUMPDEST PUSH1 0x40 MLOAD DUP1 SWAP2 SUB SWAP1 REVERT JUMPDEST PUSH2 0xCC3 DUP2 PUSH2 0x107E JUMP JUMPDEST POP JUMP JUMPDEST PUSH1 0x0 DUP2 DUP1 PUSH1 0x0 ADD SWAP1 PUSH2 0xCD8 SWAP2 SWAP1 PUSH2 0x1E19 JUMP JUMPDEST PUSH1 0x40 ADD CALLDATALOAD EQ PUSH2 0xD1C JUMPI PUSH1 0x40 MLOAD PUSH32 0x8C379A000000000000000000000000000000000000000000000000000000000 DUP2 MSTORE PUSH1 0x4 ADD PUSH2 0xD13 SWAP1 PUSH2 0x1E8D JUMP JUMPDEST PUSH1 0x40 MLOAD DUP1 SWAP2 SUB SWAP1 REVERT JUMPDEST POP JUMP JUMPDEST PUSH1 0x0 DUP2 DUP1 PUSH1 0x20 ADD SWAP1 PUSH2 0xD31 SWAP2 SWAP1 PUSH2 0x1D84 JUMP JUMPDEST DUP1 PUSH1 0xC0 ADD SWAP1 PUSH2 0xD40 SWAP2 SWAP1 PUSH2 0x1EAD JUMP JUMPDEST SWAP1 POP EQ PUSH2 0xD82 JUMPI PUSH1 0x40 MLOAD PUSH32 0x8C379A000000000000000000000000000000000000000000000000000000000 DUP2 MSTORE PUSH1 0x4 ADD PUSH2 0xD79 SWAP1 PUSH2 0x1F5C JUMP JUMPDEST PUSH1 0x40 MLOAD DUP1 SWAP2 SUB SWAP1 REVERT JUMPDEST POP JUMP JUMPDEST PUSH1 0x0 DUP3 DUP3 SWAP1 POP EQ PUSH2 0xDCB JUMPI PUSH1 0x40 MLOAD PUSH32 0x8C379A000000000000000000000000000000000000000000000000000000000 DUP2 MSTORE PUSH1 0x4 ADD PUSH2 0xDC2 SWAP1 PUSH2 0x1FC8 JUMP JUMPDEST PUSH1 0x40 MLOAD DUP1 SWAP2 SUB SWAP1 REVERT JUMPDEST POP POP JUMP JUMPDEST PUSH1 0x60 PUSH1 0x0 PUSH1 0x3 PUSH1 0x0 SWAP1 SLOAD SWAP1 PUSH2 0x100 EXP SWAP1 DIV PUSH20 0xFFFFFFFFFFFFFFFFFFFFFFFFFFFFFFFFFFFFFFFF AND PUSH20 0xFFFFFFFFFFFFFFFFFFFFFFFFFFFFFFFFFFFFFFFF AND DUP9 DUP1 PUSH1 0x0 ADD SWAP1 PUSH2 0xE1C SWAP2 SWAP1 PUSH2 0x1E19 JUMP JUMPDEST PUSH1 0x20 ADD PUSH1 0x20 DUP2 ADD SWAP1 PUSH2 0xE2E SWAP2 SWAP1 PUSH2 0x195E JUMP JUMPDEST PUSH20 0xFFFFFFFFFFFFFFFFFFFFFFFFFFFFFFFFFFFFFFFF AND EQ PUSH2 0xE84 JUMPI PUSH1 0x40 MLOAD PUSH32 0x8C379A000000000000000000000000000000000000000000000000000000000 DUP2 MSTORE PUSH1 0x4 ADD PUSH2 0xE7B SWAP1 PUSH2 0x2034 JUMP JUMPDEST PUSH1 0x40 MLOAD DUP1 SWAP2 SUB SWAP1 REVERT JUMPDEST PUSH1 0x1 PUSH1 0x40 MLOAD DUP1 PUSH1 0x20 ADD PUSH1 0x40 MSTORE DUP1 PUSH1 0x0 DUP2 MSTORE POP SWAP1 SWAP2 POP SWAP2 POP SWAP7 POP SWAP7 SWAP5 POP POP POP POP POP JUMP JUMPDEST PUSH1 0x0 PUSH32 0x1FFC9A700000000000000000000000000000000000000000000000000000000 PUSH28 0xFFFFFFFFFFFFFFFFFFFFFFFFFFFFFFFFFFFFFFFFFFFFFFFFFFFFFFFF NOT AND DUP3 PUSH28 0xFFFFFFFFFFFFFFFFFFFFFFFFFFFFFFFFFFFFFFFFFFFFFFFFFFFFFFFF NOT AND EQ SWAP1 POP SWAP2 SWAP1 POP JUMP JUMPDEST PUSH2 0xF18 PUSH2 0x127E JUMP JUMPDEST PUSH20 0xFFFFFFFFFFFFFFFFFFFFFFFFFFFFFFFFFFFFFFFF AND PUSH2 0xF36 PUSH2 0x94F JUMP JUMPDEST PUSH20 0xFFFFFFFFFFFFFFFFFFFFFFFFFFFFFFFFFFFFFFFF AND EQ PUSH2 0xF8C JUMPI PUSH1 0x40 MLOAD PUSH32 0x8C379A000000000000000000000000000000000000000000000000000000000 DUP2 MSTORE PUSH1 0x4 ADD PUSH2 0xF83 SWAP1 PUSH2 0x20A0 JUMP JUMPDEST PUSH1 0x40 MLOAD DUP1 SWAP2 SUB SWAP1 REVERT JUMPDEST JUMP JUMPDEST PUSH1 0x0 DUP1 PUSH1 0x0 SWAP1 SLOAD SWAP1 PUSH2 0x100 EXP SWAP1 DIV PUSH20 0xFFFFFFFFFFFFFFFFFFFFFFFFFFFFFFFFFFFFFFFF AND SWAP1 POP DUP2 PUSH1 0x0 DUP1 PUSH2 0x100 EXP DUP2 SLOAD DUP2 PUSH20 0xFFFFFFFFFFFFFFFFFFFFFFFFFFFFFFFFFFFFFFFF MUL NOT AND SWAP1 DUP4 PUSH20 0xFFFFFFFFFFFFFFFFFFFFFFFFFFFFFFFFFFFFFFFF AND MUL OR SWAP1 SSTORE POP DUP2 PUSH20 0xFFFFFFFFFFFFFFFFFFFFFFFFFFFFFFFFFFFFFFFF AND DUP2 PUSH20 0xFFFFFFFFFFFFFFFFFFFFFFFFFFFFFFFFFFFFFFFF AND PUSH32 0x8BE0079C531659141344CD1FD0A4F28419497F9722A3DAAFE3B4186F6B6457E0 PUSH1 0x40 MLOAD PUSH1 0x40 MLOAD DUP1 SWAP2 SUB SWAP1 LOG3 POP POP JUMP JUMPDEST POP POP POP POP POP JUMP JUMPDEST PUSH1 0x0 PUSH2 0x1064 DUP4 PUSH2 0x1286 JUMP JUMPDEST DUP1 ISZERO PUSH2 0x1076 JUMPI POP PUSH2 0x1075 DUP4 DUP4 PUSH2 0x12D3 JUMP JUMPDEST JUMPDEST SWAP1 POP SWAP3 SWAP2 POP POP JUMP JUMPDEST PUSH1 0x0 DUP1 DUP3 DUP1 PUSH1 0x0 ADD SWAP1 PUSH2 0x1091 SWAP2 SWAP1 PUSH2 0x1E19 JUMP JUMPDEST PUSH1 0x20 ADD PUSH1 0x20 DUP2 ADD SWAP1 PUSH2 0x10A3 SWAP2 SWAP1 PUSH2 0x195E JUMP JUMPDEST PUSH20 0xFFFFFFFFFFFFFFFFFFFFFFFFFFFFFFFFFFFFFFFF AND PUSH4 0x572B6C05 PUSH1 0xE0 SHL DUP5 DUP1 PUSH1 0x20 ADD SWAP1 PUSH2 0x10D1 SWAP2 SWAP1 PUSH2 0x1D84 JUMP JUMPDEST PUSH1 0xA0 ADD PUSH1 0x20 DUP2 ADD SWAP1 PUSH2 0x10E3 SWAP2 SWAP1 PUSH2 0x195E JUMP JUMPDEST PUSH1 0x40 MLOAD PUSH1 0x24 ADD PUSH2 0x10F3 SWAP2 SWAP1 PUSH2 0x1478 JUMP JUMPDEST PUSH1 0x40 MLOAD PUSH1 0x20 DUP2 DUP4 SUB SUB DUP2 MSTORE SWAP1 PUSH1 0x40 MSTORE SWAP1 PUSH28 0xFFFFFFFFFFFFFFFFFFFFFFFFFFFFFFFFFFFFFFFFFFFFFFFFFFFFFFFF NOT AND PUSH1 0x20 DUP3 ADD DUP1 MLOAD PUSH28 0xFFFFFFFFFFFFFFFFFFFFFFFFFFFFFFFFFFFFFFFFFFFFFFFFFFFFFFFF DUP4 DUP2 DUP4 AND OR DUP4 MSTORE POP POP POP POP PUSH1 0x40 MLOAD PUSH2 0x115D SWAP2 SWAP1 PUSH2 0x20FC JUMP JUMPDEST PUSH1 0x0 PUSH1 0x40 MLOAD DUP1 DUP4 SUB DUP2 DUP6 GAS STATICCALL SWAP2 POP POP RETURNDATASIZE DUP1 PUSH1 0x0 DUP2 EQ PUSH2 0x1198 JUMPI PUSH1 0x40 MLOAD SWAP2 POP PUSH1 0x1F NOT PUSH1 0x3F RETURNDATASIZE ADD AND DUP3 ADD PUSH1 0x40 MSTORE RETURNDATASIZE DUP3 MSTORE RETURNDATASIZE PUSH1 0x0 PUSH1 0x20 DUP5 ADD RETURNDATACOPY PUSH2 0x119D JUMP JUMPDEST PUSH1 0x60 SWAP2 POP JUMPDEST POP SWAP2 POP SWAP2 POP DUP2 PUSH2 0x11E2 JUMPI PUSH1 0x40 MLOAD PUSH32 0x8C379A000000000000000000000000000000000000000000000000000000000 DUP2 MSTORE PUSH1 0x4 ADD PUSH2 0x11D9 SWAP1 PUSH2 0x215F JUMP JUMPDEST PUSH1 0x40 MLOAD DUP1 SWAP2 SUB SWAP1 REVERT JUMPDEST PUSH1 0x20 DUP2 MLOAD EQ PUSH2 0x1226 JUMPI PUSH1 0x40 MLOAD PUSH32 0x8C379A000000000000000000000000000000000000000000000000000000000 DUP2 MSTORE PUSH1 0x4 ADD PUSH2 0x121D SWAP1 PUSH2 0x21CB JUMP JUMPDEST PUSH1 0x40 MLOAD DUP1 SWAP2 SUB SWAP1 REVERT JUMPDEST DUP1 DUP1 PUSH1 0x20 ADD SWAP1 MLOAD DUP2 ADD SWAP1 PUSH2 0x123A SWAP2 SWAP1 PUSH2 0x2200 JUMP JUMPDEST PUSH2 0x1279 JUMPI PUSH1 0x40 MLOAD PUSH32 0x8C379A000000000000000000000000000000000000000000000000000000000 DUP2 MSTORE PUSH1 0x4 ADD PUSH2 0x1270 SWAP1 PUSH2 0x2279 JUMP JUMPDEST PUSH1 0x40 MLOAD DUP1 SWAP2 SUB SWAP1 REVERT JUMPDEST POP POP POP JUMP JUMPDEST PUSH1 0x0 CALLER SWAP1 POP SWAP1 JUMP JUMPDEST PUSH1 0x0 PUSH2 0x12B2 DUP3 PUSH32 0x1FFC9A700000000000000000000000000000000000000000000000000000000 PUSH2 0x12D3 JUMP JUMPDEST DUP1 ISZERO PUSH2 0x12CC JUMPI POP PUSH2 0x12CA DUP3 PUSH4 0xFFFFFFFF PUSH1 0xE0 SHL PUSH2 0x12D3 JUMP JUMPDEST ISZERO JUMPDEST SWAP1 POP SWAP2 SWAP1 POP JUMP JUMPDEST PUSH1 0x0 DUP1 PUSH4 0x1FFC9A7 PUSH1 0xE0 SHL DUP4 PUSH1 0x40 MLOAD PUSH1 0x24 ADD PUSH2 0x12EF SWAP2 SWAP1 PUSH2 0x22A8 JUMP JUMPDEST PUSH1 0x40 MLOAD PUSH1 0x20 DUP2 DUP4 SUB SUB DUP2 MSTORE SWAP1 PUSH1 0x40 MSTORE SWAP1 PUSH28 0xFFFFFFFFFFFFFFFFFFFFFFFFFFFFFFFFFFFFFFFFFFFFFFFFFFFFFFFF NOT AND PUSH1 0x20 DUP3 ADD DUP1 MLOAD PUSH28 0xFFFFFFFFFFFFFFFFFFFFFFFFFFFFFFFFFFFFFFFFFFFFFFFFFFFFFFFF DUP4 DUP2 DUP4 AND OR DUP4 MSTORE POP POP POP POP SWAP1 POP PUSH1 0x0 DUP1 PUSH1 0x0 PUSH1 0x20 PUSH1 0x0 DUP6 MLOAD PUSH1 0x20 DUP8 ADD DUP11 PUSH2 0x7530 STATICCALL SWAP3 POP RETURNDATASIZE SWAP2 POP PUSH1 0x0 MLOAD SWAP1 POP DUP3 DUP1 ISZERO PUSH2 0x137A JUMPI POP PUSH1 0x20 DUP3 LT ISZERO JUMPDEST DUP1 ISZERO PUSH2 0x1386 JUMPI POP PUSH1 0x0 DUP2 GT JUMPDEST SWAP5 POP POP POP POP POP SWAP3 SWAP2 POP POP JUMP JUMPDEST PUSH1 0x40 MLOAD DUP1 PUSH1 0x80 ADD PUSH1 0x40 MSTORE DUP1 PUSH1 0x0 DUP2 MSTORE PUSH1 0x20 ADD PUSH1 0x0 DUP2 MSTORE PUSH1 0x20 ADD PUSH1 0x0 DUP2 MSTORE PUSH1 0x20 ADD PUSH1 0x0 DUP2 MSTORE POP SWAP1 JUMP JUMPDEST PUSH1 0x0 DUP3 DUP3 MSTORE PUSH1 0x20 DUP3 ADD SWAP1 POP SWAP3 SWAP2 POP POP JUMP JUMPDEST PUSH32 0x72656C6179206875622061646472657373206E6F742073657400000000000000 PUSH1 0x0 DUP3 ADD MSTORE POP JUMP JUMPDEST PUSH1 0x0 PUSH2 0x1401 PUSH1 0x19 DUP4 PUSH2 0x13BA JUMP JUMPDEST SWAP2 POP PUSH2 0x140C DUP3 PUSH2 0x13CB JUMP JUMPDEST PUSH1 0x20 DUP3 ADD SWAP1 POP SWAP2 SWAP1 POP JUMP JUMPDEST PUSH1 0x0 PUSH1 0x20 DUP3 ADD SWAP1 POP DUP2 DUP2 SUB PUSH1 0x0 DUP4 ADD MSTORE PUSH2 0x1430 DUP2 PUSH2 0x13F4 JUMP JUMPDEST SWAP1 POP SWAP2 SWAP1 POP JUMP JUMPDEST PUSH1 0x0 PUSH20 0xFFFFFFFFFFFFFFFFFFFFFFFFFFFFFFFFFFFFFFFF DUP3 AND SWAP1 POP SWAP2 SWAP1 POP JUMP JUMPDEST PUSH1 0x0 PUSH2 0x1462 DUP3 PUSH2 0x1437 JUMP JUMPDEST SWAP1 POP SWAP2 SWAP1 POP JUMP JUMPDEST PUSH2 0x1472 DUP2 PUSH2 0x1457 JUMP JUMPDEST DUP3 MSTORE POP POP JUMP JUMPDEST PUSH1 0x0 PUSH1 0x20 DUP3 ADD SWAP1 POP PUSH2 0x148D PUSH1 0x0 DUP4 ADD DUP5 PUSH2 0x1469 JUMP JUMPDEST SWAP3 SWAP2 POP POP JUMP JUMPDEST PUSH1 0x0 DUP1 REVERT JUMPDEST PUSH1 0x0 DUP1 REVERT JUMPDEST PUSH1 0x0 DUP1 REVERT JUMPDEST PUSH1 0x0 PUSH1 0x40 DUP3 DUP5 SUB SLT ISZERO PUSH2 0x14B8 JUMPI PUSH2 0x14B7 PUSH2 0x149D JUMP JUMPDEST JUMPDEST DUP2 SWAP1 POP SWAP3 SWAP2 POP POP JUMP JUMPDEST PUSH1 0x0 DUP1 REVERT JUMPDEST PUSH1 0x0 DUP1 REVERT JUMPDEST PUSH1 0x0 DUP1 REVERT JUMPDEST PUSH1 0x0 DUP1 DUP4 PUSH1 0x1F DUP5 ADD SLT PUSH2 0x14E6 JUMPI PUSH2 0x14E5 PUSH2 0x14C1 JUMP JUMPDEST JUMPDEST DUP3 CALLDATALOAD SWAP1 POP PUSH8 0xFFFFFFFFFFFFFFFF DUP2 GT ISZERO PUSH2 0x1503 JUMPI PUSH2 0x1502 PUSH2 0x14C6 JUMP JUMPDEST JUMPDEST PUSH1 0x20 DUP4 ADD SWAP2 POP DUP4 PUSH1 0x1 DUP3 MUL DUP4 ADD GT ISZERO PUSH2 0x151F JUMPI PUSH2 0x151E PUSH2 0x14CB JUMP JUMPDEST JUMPDEST SWAP3 POP SWAP3 SWAP1 POP JUMP JUMPDEST PUSH1 0x0 DUP2 SWAP1 POP SWAP2 SWAP1 POP JUMP JUMPDEST PUSH2 0x1539 DUP2 PUSH2 0x1526 JUMP JUMPDEST DUP2 EQ PUSH2 0x1544 JUMPI PUSH1 0x0 DUP1 REVERT JUMPDEST POP JUMP JUMPDEST PUSH1 0x0 DUP2 CALLDATALOAD SWAP1 POP PUSH2 0x1556 DUP2 PUSH2 0x1530 JUMP JUMPDEST SWAP3 SWAP2 POP POP JUMP JUMPDEST PUSH1 0x0 DUP1 PUSH1 0x0 DUP1 PUSH1 0x0 DUP1 PUSH1 0x80 DUP8 DUP10 SUB SLT ISZERO PUSH2 0x1579 JUMPI PUSH2 0x1578 PUSH2 0x1493 JUMP JUMPDEST JUMPDEST PUSH1 0x0 DUP8 ADD CALLDATALOAD PUSH8 0xFFFFFFFFFFFFFFFF DUP2 GT ISZERO PUSH2 0x1597 JUMPI PUSH2 0x1596 PUSH2 0x1498 JUMP JUMPDEST JUMPDEST PUSH2 0x15A3 DUP10 DUP3 DUP11 ADD PUSH2 0x14A2 JUMP JUMPDEST SWAP7 POP POP PUSH1 0x20 DUP8 ADD CALLDATALOAD PUSH8 0xFFFFFFFFFFFFFFFF DUP2 GT ISZERO PUSH2 0x15C4 JUMPI PUSH2 0x15C3 PUSH2 0x1498 JUMP JUMPDEST JUMPDEST PUSH2 0x15D0 DUP10 DUP3 DUP11 ADD PUSH2 0x14D0 JUMP JUMPDEST SWAP6 POP SWAP6 POP POP PUSH1 0x40 DUP8 ADD CALLDATALOAD PUSH8 0xFFFFFFFFFFFFFFFF DUP2 GT ISZERO PUSH2 0x15F3 JUMPI PUSH2 0x15F2 PUSH2 0x1498 JUMP JUMPDEST JUMPDEST PUSH2 0x15FF DUP10 DUP3 DUP11 ADD PUSH2 0x14D0 JUMP JUMPDEST SWAP4 POP SWAP4 POP POP PUSH1 0x60 PUSH2 0x1612 DUP10 DUP3 DUP11 ADD PUSH2 0x1547 JUMP JUMPDEST SWAP2 POP POP SWAP3 SWAP6 POP SWAP3 SWAP6 POP SWAP3 SWAP6 JUMP JUMPDEST PUSH1 0x0 DUP2 MLOAD SWAP1 POP SWAP2 SWAP1 POP JUMP JUMPDEST PUSH1 0x0 DUP3 DUP3 MSTORE PUSH1 0x20 DUP3 ADD SWAP1 POP SWAP3 SWAP2 POP POP JUMP JUMPDEST PUSH1 0x0 JUMPDEST DUP4 DUP2 LT ISZERO PUSH2 0x1659 JUMPI DUP1 DUP3 ADD MLOAD DUP2 DUP5 ADD MSTORE PUSH1 0x20 DUP2 ADD SWAP1 POP PUSH2 0x163E JUMP JUMPDEST PUSH1 0x0 DUP5 DUP5 ADD MSTORE POP POP POP POP JUMP JUMPDEST PUSH1 0x0 PUSH1 0x1F NOT PUSH1 0x1F DUP4 ADD AND SWAP1 POP SWAP2 SWAP1 POP JUMP JUMPDEST PUSH1 0x0 PUSH2 0x1681 DUP3 PUSH2 0x161F JUMP JUMPDEST PUSH2 0x168B DUP2 DUP6 PUSH2 0x162A JUMP JUMPDEST SWAP4 POP PUSH2 0x169B DUP2 DUP6 PUSH1 0x20 DUP7 ADD PUSH2 0x163B JUMP JUMPDEST PUSH2 0x16A4 DUP2 PUSH2 0x1665 JUMP JUMPDEST DUP5 ADD SWAP2 POP POP SWAP3 SWAP2 POP POP JUMP JUMPDEST PUSH1 0x0 DUP2 ISZERO ISZERO SWAP1 POP SWAP2 SWAP1 POP JUMP JUMPDEST PUSH2 0x16C4 DUP2 PUSH2 0x16AF JUMP JUMPDEST DUP3 MSTORE POP POP JUMP JUMPDEST PUSH1 0x0 PUSH1 0x40 DUP3 ADD SWAP1 POP DUP2 DUP2 SUB PUSH1 0x0 DUP4 ADD MSTORE PUSH2 0x16E4 DUP2 DUP6 PUSH2 0x1676 JUMP JUMPDEST SWAP1 POP PUSH2 0x16F3 PUSH1 0x20 DUP4 ADD DUP5 PUSH2 0x16BB JUMP JUMPDEST SWAP4 SWAP3 POP POP POP JUMP JUMPDEST PUSH1 0x0 PUSH32 0xFFFFFFFF00000000000000000000000000000000000000000000000000000000 DUP3 AND SWAP1 POP SWAP2 SWAP1 POP JUMP JUMPDEST PUSH2 0x172F DUP2 PUSH2 0x16FA JUMP JUMPDEST DUP2 EQ PUSH2 0x173A JUMPI PUSH1 0x0 DUP1 REVERT JUMPDEST POP JUMP JUMPDEST PUSH1 0x0 DUP2 CALLDATALOAD SWAP1 POP PUSH2 0x174C DUP2 PUSH2 0x1726 JUMP JUMPDEST SWAP3 SWAP2 POP POP JUMP JUMPDEST PUSH1 0x0 PUSH1 0x20 DUP3 DUP5 SUB SLT ISZERO PUSH2 0x1768 JUMPI PUSH2 0x1767 PUSH2 0x1493 JUMP JUMPDEST JUMPDEST PUSH1 0x0 PUSH2 0x1776 DUP5 DUP3 DUP6 ADD PUSH2 0x173D JUMP JUMPDEST SWAP2 POP POP SWAP3 SWAP2 POP POP JUMP JUMPDEST PUSH1 0x0 PUSH1 0x20 DUP3 ADD SWAP1 POP PUSH2 0x1794 PUSH1 0x0 DUP4 ADD DUP5 PUSH2 0x16BB JUMP JUMPDEST SWAP3 SWAP2 POP POP JUMP JUMPDEST PUSH1 0x0 PUSH2 0x17A5 DUP3 PUSH2 0x1437 JUMP JUMPDEST SWAP1 POP SWAP2 SWAP1 POP JUMP JUMPDEST PUSH2 0x17B5 DUP2 PUSH2 0x179A JUMP JUMPDEST DUP2 EQ PUSH2 0x17C0 JUMPI PUSH1 0x0 DUP1 REVERT JUMPDEST POP JUMP JUMPDEST PUSH1 0x0 DUP2 CALLDATALOAD SWAP1 POP PUSH2 0x17D2 DUP2 PUSH2 0x17AC JUMP JUMPDEST SWAP3 SWAP2 POP POP JUMP JUMPDEST PUSH1 0x0 DUP1 PUSH1 0x40 DUP4 DUP6 SUB SLT ISZERO PUSH2 0x17EF JUMPI PUSH2 0x17EE PUSH2 0x1493 JUMP JUMPDEST JUMPDEST PUSH1 0x0 PUSH2 0x17FD DUP6 DUP3 DUP7 ADD PUSH2 0x1547 JUMP JUMPDEST SWAP3 POP POP PUSH1 0x20 PUSH2 0x180E DUP6 DUP3 DUP7 ADD PUSH2 0x17C3 JUMP JUMPDEST SWAP2 POP POP SWAP3 POP SWAP3 SWAP1 POP JUMP JUMPDEST PUSH2 0x1821 DUP2 PUSH2 0x1526 JUMP JUMPDEST DUP3 MSTORE POP POP JUMP JUMPDEST PUSH1 0x0 PUSH1 0x20 DUP3 ADD SWAP1 POP PUSH2 0x183C PUSH1 0x0 DUP4 ADD DUP5 PUSH2 0x1818 JUMP JUMPDEST SWAP3 SWAP2 POP POP JUMP JUMPDEST PUSH2 0x184B DUP2 PUSH2 0x16AF JUMP JUMPDEST DUP2 EQ PUSH2 0x1856 JUMPI PUSH1 0x0 DUP1 REVERT JUMPDEST POP JUMP JUMPDEST PUSH1 0x0 DUP2 CALLDATALOAD SWAP1 POP PUSH2 0x1868 DUP2 PUSH2 0x1842 JUMP JUMPDEST SWAP3 SWAP2 POP POP JUMP JUMPDEST PUSH1 0x0 PUSH2 0x100 DUP3 DUP5 SUB SLT ISZERO PUSH2 0x1885 JUMPI PUSH2 0x1884 PUSH2 0x149D JUMP JUMPDEST JUMPDEST DUP2 SWAP1 POP SWAP3 SWAP2 POP POP JUMP JUMPDEST PUSH1 0x0 DUP1 PUSH1 0x0 DUP1 PUSH1 0x0 PUSH1 0x80 DUP7 DUP9 SUB SLT ISZERO PUSH2 0x18AA JUMPI PUSH2 0x18A9 PUSH2 0x1493 JUMP JUMPDEST JUMPDEST PUSH1 0x0 DUP7 ADD CALLDATALOAD PUSH8 0xFFFFFFFFFFFFFFFF DUP2 GT ISZERO PUSH2 0x18C8 JUMPI PUSH2 0x18C7 PUSH2 0x1498 JUMP JUMPDEST JUMPDEST PUSH2 0x18D4 DUP9 DUP3 DUP10 ADD PUSH2 0x14D0 JUMP JUMPDEST SWAP6 POP SWAP6 POP POP PUSH1 0x20 PUSH2 0x18E7 DUP9 DUP3 DUP10 ADD PUSH2 0x1859 JUMP JUMPDEST SWAP4 POP POP PUSH1 0x40 PUSH2 0x18F8 DUP9 DUP3 DUP10 ADD PUSH2 0x1547 JUMP JUMPDEST SWAP3 POP POP PUSH1 0x60 DUP7 ADD CALLDATALOAD PUSH8 0xFFFFFFFFFFFFFFFF DUP2 GT ISZERO PUSH2 0x1919 JUMPI PUSH2 0x1918 PUSH2 0x1498 JUMP JUMPDEST JUMPDEST PUSH2 0x1925 DUP9 DUP3 DUP10 ADD PUSH2 0x186E JUMP JUMPDEST SWAP2 POP POP SWAP3 SWAP6 POP SWAP3 SWAP6 SWAP1 SWAP4 POP JUMP JUMPDEST PUSH2 0x193B DUP2 PUSH2 0x1457 JUMP JUMPDEST DUP2 EQ PUSH2 0x1946 JUMPI PUSH1 0x0 DUP1 REVERT JUMPDEST POP JUMP JUMPDEST PUSH1 0x0 DUP2 CALLDATALOAD SWAP1 POP PUSH2 0x1958 DUP2 PUSH2 0x1932 JUMP JUMPDEST SWAP3 SWAP2 POP POP JUMP JUMPDEST PUSH1 0x0 PUSH1 0x20 DUP3 DUP5 SUB SLT ISZERO PUSH2 0x1974 JUMPI PUSH2 0x1973 PUSH2 0x1493 JUMP JUMPDEST JUMPDEST PUSH1 0x0 PUSH2 0x1982 DUP5 DUP3 DUP6 ADD PUSH2 0x1949 JUMP JUMPDEST SWAP2 POP POP SWAP3 SWAP2 POP POP JUMP JUMPDEST PUSH1 0x0 PUSH2 0x1996 DUP3 PUSH2 0x1457 JUMP JUMPDEST SWAP1 POP SWAP2 SWAP1 POP JUMP JUMPDEST PUSH2 0x19A6 DUP2 PUSH2 0x198B JUMP JUMPDEST DUP2 EQ PUSH2 0x19B1 JUMPI PUSH1 0x0 DUP1 REVERT JUMPDEST POP JUMP JUMPDEST PUSH1 0x0 DUP2 CALLDATALOAD SWAP1 POP PUSH2 0x19C3 DUP2 PUSH2 0x199D JUMP JUMPDEST SWAP3 SWAP2 POP POP JUMP JUMPDEST PUSH1 0x0 PUSH1 0x20 DUP3 DUP5 SUB SLT ISZERO PUSH2 0x19DF JUMPI PUSH2 0x19DE PUSH2 0x1493 JUMP JUMPDEST JUMPDEST PUSH1 0x0 PUSH2 0x19ED DUP5 DUP3 DUP6 ADD PUSH2 0x19B4 JUMP JUMPDEST SWAP2 POP POP SWAP3 SWAP2 POP POP JUMP JUMPDEST PUSH1 0x0 DUP2 MLOAD SWAP1 POP SWAP2 SWAP1 POP JUMP JUMPDEST PUSH1 0x0 PUSH2 0x1A0C DUP3 PUSH2 0x19F6 JUMP JUMPDEST PUSH2 0x1A16 DUP2 DUP6 PUSH2 0x13BA JUMP JUMPDEST SWAP4 POP PUSH2 0x1A26 DUP2 DUP6 PUSH1 0x20 DUP7 ADD PUSH2 0x163B JUMP JUMPDEST PUSH2 0x1A2F DUP2 PUSH2 0x1665 JUMP JUMPDEST DUP5 ADD SWAP2 POP POP SWAP3 SWAP2 POP POP JUMP JUMPDEST PUSH1 0x0 PUSH1 0x20 DUP3 ADD SWAP1 POP DUP2 DUP2 SUB PUSH1 0x0 DUP4 ADD MSTORE PUSH2 0x1A54 DUP2 DUP5 PUSH2 0x1A01 JUMP JUMPDEST SWAP1 POP SWAP3 SWAP2 POP POP JUMP JUMPDEST PUSH2 0x1A65 DUP2 PUSH2 0x1526 JUMP JUMPDEST DUP3 MSTORE POP POP JUMP JUMPDEST PUSH1 0x80 DUP3 ADD PUSH1 0x0 DUP3 ADD MLOAD PUSH2 0x1A81 PUSH1 0x0 DUP6 ADD DUP3 PUSH2 0x1A5C JUMP JUMPDEST POP PUSH1 0x20 DUP3 ADD MLOAD PUSH2 0x1A94 PUSH1 0x20 DUP6 ADD DUP3 PUSH2 0x1A5C JUMP JUMPDEST POP PUSH1 0x40 DUP3 ADD MLOAD PUSH2 0x1AA7 PUSH1 0x40 DUP6 ADD DUP3 PUSH2 0x1A5C JUMP JUMPDEST POP PUSH1 0x60 DUP3 ADD MLOAD PUSH2 0x1ABA PUSH1 0x60 DUP6 ADD DUP3 PUSH2 0x1A5C JUMP JUMPDEST POP POP POP POP JUMP JUMPDEST PUSH1 0x0 PUSH1 0x80 DUP3 ADD SWAP1 POP PUSH2 0x1AD5 PUSH1 0x0 DUP4 ADD DUP5 PUSH2 0x1A6B JUMP JUMPDEST SWAP3 SWAP2 POP POP JUMP JUMPDEST PUSH2 0x1AE4 DUP2 PUSH2 0x179A JUMP JUMPDEST DUP3 MSTORE POP POP JUMP JUMPDEST PUSH1 0x0 PUSH1 0x40 DUP3 ADD SWAP1 POP PUSH2 0x1AFF PUSH1 0x0 DUP4 ADD DUP6 PUSH2 0x1ADB JUMP JUMPDEST PUSH2 0x1B0C PUSH1 0x20 DUP4 ADD DUP5 PUSH2 0x1818 JUMP JUMPDEST SWAP4 SWAP3 POP POP POP JUMP JUMPDEST PUSH1 0x0 PUSH1 0x40 DUP3 ADD SWAP1 POP PUSH2 0x1B28 PUSH1 0x0 DUP4 ADD DUP6 PUSH2 0x1469 JUMP JUMPDEST PUSH2 0x1B35 PUSH1 0x20 DUP4 ADD DUP5 PUSH2 0x1469 JUMP JUMPDEST SWAP4 SWAP3 POP POP POP JUMP JUMPDEST PUSH32 0x746172676574206973206E6F7420612076616C6964204952656C617948756200 PUSH1 0x0 DUP3 ADD MSTORE POP JUMP JUMPDEST PUSH1 0x0 PUSH2 0x1B72 PUSH1 0x1F DUP4 PUSH2 0x13BA JUMP JUMPDEST SWAP2 POP PUSH2 0x1B7D DUP3 PUSH2 0x1B3C JUMP JUMPDEST PUSH1 0x20 DUP3 ADD SWAP1 POP SWAP2 SWAP1 POP JUMP JUMPDEST PUSH1 0x0 PUSH1 0x20 DUP3 ADD SWAP1 POP DUP2 DUP2 SUB PUSH1 0x0 DUP4 ADD MSTORE PUSH2 0x1BA1 DUP2 PUSH2 0x1B65 JUMP JUMPDEST SWAP1 POP SWAP2 SWAP1 POP JUMP JUMPDEST PUSH32 0x4E487B7100000000000000000000000000000000000000000000000000000000 PUSH1 0x0 MSTORE PUSH1 0x11 PUSH1 0x4 MSTORE PUSH1 0x24 PUSH1 0x0 REVERT JUMPDEST PUSH1 0x0 PUSH2 0x1BE2 DUP3 PUSH2 0x1526 JUMP JUMPDEST SWAP2 POP PUSH2 0x1BED DUP4 PUSH2 0x1526 JUMP JUMPDEST SWAP3 POP DUP3 DUP3 ADD SWAP1 POP DUP1 DUP3 GT ISZERO PUSH2 0x1C05 JUMPI PUSH2 0x1C04 PUSH2 0x1BA8 JUMP JUMPDEST JUMPDEST SWAP3 SWAP2 POP POP JUMP JUMPDEST PUSH32 0x746172676574206973206E6F7420612076616C69642049466F72776172646572 PUSH1 0x0 DUP3 ADD MSTORE POP JUMP JUMPDEST PUSH1 0x0 PUSH2 0x1C41 PUSH1 0x20 DUP4 PUSH2 0x13BA JUMP JUMPDEST SWAP2 POP PUSH2 0x1C4C DUP3 PUSH2 0x1C0B JUMP JUMPDEST PUSH1 0x20 DUP3 ADD SWAP1 POP SWAP2 SWAP1 POP JUMP JUMPDEST PUSH1 0x0 PUSH1 0x20 DUP3 ADD SWAP1 POP DUP2 DUP2 SUB PUSH1 0x0 DUP4 ADD MSTORE PUSH2 0x1C70 DUP2 PUSH2 0x1C34 JUMP JUMPDEST SWAP1 POP SWAP2 SWAP1 POP JUMP JUMPDEST PUSH32 0x4F776E61626C653A206E6577206F776E657220697320746865207A65726F2061 PUSH1 0x0 DUP3 ADD MSTORE PUSH32 0x6464726573730000000000000000000000000000000000000000000000000000 PUSH1 0x20 DUP3 ADD MSTORE POP JUMP JUMPDEST PUSH1 0x0 PUSH2 0x1CD3 PUSH1 0x26 DUP4 PUSH2 0x13BA JUMP JUMPDEST SWAP2 POP PUSH2 0x1CDE DUP3 PUSH2 0x1C77 JUMP JUMPDEST PUSH1 0x40 DUP3 ADD SWAP1 POP SWAP2 SWAP1 POP JUMP JUMPDEST PUSH1 0x0 PUSH1 0x20 DUP3 ADD SWAP1 POP DUP2 DUP2 SUB PUSH1 0x0 DUP4 ADD MSTORE PUSH2 0x1D02 DUP2 PUSH2 0x1CC6 JUMP JUMPDEST SWAP1 POP SWAP2 SWAP1 POP JUMP JUMPDEST PUSH32 0x63616E206F6E6C792062652063616C6C65642062792052656C61794875620000 PUSH1 0x0 DUP3 ADD MSTORE POP JUMP JUMPDEST PUSH1 0x0 PUSH2 0x1D3F PUSH1 0x1E DUP4 PUSH2 0x13BA JUMP JUMPDEST SWAP2 POP PUSH2 0x1D4A DUP3 PUSH2 0x1D09 JUMP JUMPDEST PUSH1 0x20 DUP3 ADD SWAP1 POP SWAP2 SWAP1 POP JUMP JUMPDEST PUSH1 0x0 PUSH1 0x20 DUP3 ADD SWAP1 POP DUP2 DUP2 SUB PUSH1 0x0 DUP4 ADD MSTORE PUSH2 0x1D6E DUP2 PUSH2 0x1D32 JUMP JUMPDEST SWAP1 POP SWAP2 SWAP1 POP JUMP JUMPDEST PUSH1 0x0 DUP1 REVERT JUMPDEST PUSH1 0x0 DUP1 REVERT JUMPDEST PUSH1 0x0 DUP1 REVERT JUMPDEST PUSH1 0x0 DUP3 CALLDATALOAD PUSH1 0x1 PUSH2 0x100 SUB DUP4 CALLDATASIZE SUB SUB DUP2 SLT PUSH2 0x1DA1 JUMPI PUSH2 0x1DA0 PUSH2 0x1D75 JUMP JUMPDEST JUMPDEST DUP1 DUP4 ADD SWAP2 POP POP SWAP3 SWAP2 POP POP JUMP JUMPDEST PUSH32 0x466F72776172646572206973206E6F7420747275737465640000000000000000 PUSH1 0x0 DUP3 ADD MSTORE POP JUMP JUMPDEST PUSH1 0x0 PUSH2 0x1DE3 PUSH1 0x18 DUP4 PUSH2 0x13BA JUMP JUMPDEST SWAP2 POP PUSH2 0x1DEE DUP3 PUSH2 0x1DAD JUMP JUMPDEST PUSH1 0x20 DUP3 ADD SWAP1 POP SWAP2 SWAP1 POP JUMP JUMPDEST PUSH1 0x0 PUSH1 0x20 DUP3 ADD SWAP1 POP DUP2 DUP2 SUB PUSH1 0x0 DUP4 ADD MSTORE PUSH2 0x1E12 DUP2 PUSH2 0x1DD6 JUMP JUMPDEST SWAP1 POP SWAP2 SWAP1 POP JUMP JUMPDEST PUSH1 0x0 DUP3 CALLDATALOAD PUSH1 0x1 PUSH1 0xE0 SUB DUP4 CALLDATASIZE SUB SUB DUP2 SLT PUSH2 0x1E35 JUMPI PUSH2 0x1E34 PUSH2 0x1D75 JUMP JUMPDEST JUMPDEST DUP1 DUP4 ADD SWAP2 POP POP SWAP3 SWAP2 POP POP JUMP JUMPDEST PUSH32 0x76616C7565207472616E73666572206E6F7420737570706F7274656400000000 PUSH1 0x0 DUP3 ADD MSTORE POP JUMP JUMPDEST PUSH1 0x0 PUSH2 0x1E77 PUSH1 0x1C DUP4 PUSH2 0x13BA JUMP JUMPDEST SWAP2 POP PUSH2 0x1E82 DUP3 PUSH2 0x1E41 JUMP JUMPDEST PUSH1 0x20 DUP3 ADD SWAP1 POP SWAP2 SWAP1 POP JUMP JUMPDEST PUSH1 0x0 PUSH1 0x20 DUP3 ADD SWAP1 POP DUP2 DUP2 SUB PUSH1 0x0 DUP4 ADD MSTORE PUSH2 0x1EA6 DUP2 PUSH2 0x1E6A JUMP JUMPDEST SWAP1 POP SWAP2 SWAP1 POP JUMP JUMPDEST PUSH1 0x0 DUP1 DUP4 CALLDATALOAD PUSH1 0x1 PUSH1 0x20 SUB DUP5 CALLDATASIZE SUB SUB DUP2 SLT PUSH2 0x1ECA JUMPI PUSH2 0x1EC9 PUSH2 0x1D75 JUMP JUMPDEST JUMPDEST DUP1 DUP5 ADD SWAP3 POP DUP3 CALLDATALOAD SWAP2 POP PUSH8 0xFFFFFFFFFFFFFFFF DUP3 GT ISZERO PUSH2 0x1EEC JUMPI PUSH2 0x1EEB PUSH2 0x1D7A JUMP JUMPDEST JUMPDEST PUSH1 0x20 DUP4 ADD SWAP3 POP PUSH1 0x1 DUP3 MUL CALLDATASIZE SUB DUP4 SGT ISZERO PUSH2 0x1F08 JUMPI PUSH2 0x1F07 PUSH2 0x1D7F JUMP JUMPDEST JUMPDEST POP SWAP3 POP SWAP3 SWAP1 POP JUMP JUMPDEST PUSH32 0x73686F756C642068617665206E6F207061796D61737465724461746100000000 PUSH1 0x0 DUP3 ADD MSTORE POP JUMP JUMPDEST PUSH1 0x0 PUSH2 0x1F46 PUSH1 0x1C DUP4 PUSH2 0x13BA JUMP JUMPDEST SWAP2 POP PUSH2 0x1F51 DUP3 PUSH2 0x1F10 JUMP JUMPDEST PUSH1 0x20 DUP3 ADD SWAP1 POP SWAP2 SWAP1 POP JUMP JUMPDEST PUSH1 0x0 PUSH1 0x20 DUP3 ADD SWAP1 POP DUP2 DUP2 SUB PUSH1 0x0 DUP4 ADD MSTORE PUSH2 0x1F75 DUP2 PUSH2 0x1F39 JUMP JUMPDEST SWAP1 POP SWAP2 SWAP1 POP JUMP JUMPDEST PUSH32 0x73686F756C642068617665206E6F20617070726F76616C446174610000000000 PUSH1 0x0 DUP3 ADD MSTORE POP JUMP JUMPDEST PUSH1 0x0 PUSH2 0x1FB2 PUSH1 0x1B DUP4 PUSH2 0x13BA JUMP JUMPDEST SWAP2 POP PUSH2 0x1FBD DUP3 PUSH2 0x1F7C JUMP JUMPDEST PUSH1 0x20 DUP3 ADD SWAP1 POP SWAP2 SWAP1 POP JUMP JUMPDEST PUSH1 0x0 PUSH1 0x20 DUP3 ADD SWAP1 POP DUP2 DUP2 SUB PUSH1 0x0 DUP4 ADD MSTORE PUSH2 0x1FE1 DUP2 PUSH2 0x1FA5 JUMP JUMPDEST SWAP1 POP SWAP2 SWAP1 POP JUMP JUMPDEST PUSH32 0x77726F6E67207461726765740000000000000000000000000000000000000000 PUSH1 0x0 DUP3 ADD MSTORE POP JUMP JUMPDEST PUSH1 0x0 PUSH2 0x201E PUSH1 0xC DUP4 PUSH2 0x13BA JUMP JUMPDEST SWAP2 POP PUSH2 0x2029 DUP3 PUSH2 0x1FE8 JUMP JUMPDEST PUSH1 0x20 DUP3 ADD SWAP1 POP SWAP2 SWAP1 POP JUMP JUMPDEST PUSH1 0x0 PUSH1 0x20 DUP3 ADD SWAP1 POP DUP2 DUP2 SUB PUSH1 0x0 DUP4 ADD MSTORE PUSH2 0x204D DUP2 PUSH2 0x2011 JUMP JUMPDEST SWAP1 POP SWAP2 SWAP1 POP JUMP JUMPDEST PUSH32 0x4F776E61626C653A2063616C6C6572206973206E6F7420746865206F776E6572 PUSH1 0x0 DUP3 ADD MSTORE POP JUMP JUMPDEST PUSH1 0x0 PUSH2 0x208A PUSH1 0x20 DUP4 PUSH2 0x13BA JUMP JUMPDEST SWAP2 POP PUSH2 0x2095 DUP3 PUSH2 0x2054 JUMP JUMPDEST PUSH1 0x20 DUP3 ADD SWAP1 POP SWAP2 SWAP1 POP JUMP JUMPDEST PUSH1 0x0 PUSH1 0x20 DUP3 ADD SWAP1 POP DUP2 DUP2 SUB PUSH1 0x0 DUP4 ADD MSTORE PUSH2 0x20B9 DUP2 PUSH2 0x207D JUMP JUMPDEST SWAP1 POP SWAP2 SWAP1 POP JUMP JUMPDEST PUSH1 0x0 DUP2 SWAP1 POP SWAP3 SWAP2 POP POP JUMP JUMPDEST PUSH1 0x0 PUSH2 0x20D6 DUP3 PUSH2 0x161F JUMP JUMPDEST PUSH2 0x20E0 DUP2 DUP6 PUSH2 0x20C0 JUMP JUMPDEST SWAP4 POP PUSH2 0x20F0 DUP2 DUP6 PUSH1 0x20 DUP7 ADD PUSH2 0x163B JUMP JUMPDEST DUP1 DUP5 ADD SWAP2 POP POP SWAP3 SWAP2 POP POP JUMP JUMPDEST PUSH1 0x0 PUSH2 0x2108 DUP3 DUP5 PUSH2 0x20CB JUMP JUMPDEST SWAP2 POP DUP2 SWAP1 POP SWAP3 SWAP2 POP POP JUMP JUMPDEST PUSH32 0x697354727573746564466F727761726465723A20726576657274656400000000 PUSH1 0x0 DUP3 ADD MSTORE POP JUMP JUMPDEST PUSH1 0x0 PUSH2 0x2149 PUSH1 0x1C DUP4 PUSH2 0x13BA JUMP JUMPDEST SWAP2 POP PUSH2 0x2154 DUP3 PUSH2 0x2113 JUMP JUMPDEST PUSH1 0x20 DUP3 ADD SWAP1 POP SWAP2 SWAP1 POP JUMP JUMPDEST PUSH1 0x0 PUSH1 0x20 DUP3 ADD SWAP1 POP DUP2 DUP2 SUB PUSH1 0x0 DUP4 ADD MSTORE PUSH2 0x2178 DUP2 PUSH2 0x213C JUMP JUMPDEST SWAP1 POP SWAP2 SWAP1 POP JUMP JUMPDEST PUSH32 0x697354727573746564466F727761726465723A2062616420726573706F6E7365 PUSH1 0x0 DUP3 ADD MSTORE POP JUMP JUMPDEST PUSH1 0x0 PUSH2 0x21B5 PUSH1 0x20 DUP4 PUSH2 0x13BA JUMP JUMPDEST SWAP2 POP PUSH2 0x21C0 DUP3 PUSH2 0x217F JUMP JUMPDEST PUSH1 0x20 DUP3 ADD SWAP1 POP SWAP2 SWAP1 POP JUMP JUMPDEST PUSH1 0x0 PUSH1 0x20 DUP3 ADD SWAP1 POP DUP2 DUP2 SUB PUSH1 0x0 DUP4 ADD MSTORE PUSH2 0x21E4 DUP2 PUSH2 0x21A8 JUMP JUMPDEST SWAP1 POP SWAP2 SWAP1 POP JUMP JUMPDEST PUSH1 0x0 DUP2 MLOAD SWAP1 POP PUSH2 0x21FA DUP2 PUSH2 0x1842 JUMP JUMPDEST SWAP3 SWAP2 POP POP JUMP JUMPDEST PUSH1 0x0 PUSH1 0x20 DUP3 DUP5 SUB SLT ISZERO PUSH2 0x2216 JUMPI PUSH2 0x2215 PUSH2 0x1493 JUMP JUMPDEST JUMPDEST PUSH1 0x0 PUSH2 0x2224 DUP5 DUP3 DUP6 ADD PUSH2 0x21EB JUMP JUMPDEST SWAP2 POP POP SWAP3 SWAP2 POP POP JUMP JUMPDEST PUSH32 0x696E76616C696420666F7277617264657220666F7220726563697069656E7400 PUSH1 0x0 DUP3 ADD MSTORE POP JUMP JUMPDEST PUSH1 0x0 PUSH2 0x2263 PUSH1 0x1F DUP4 PUSH2 0x13BA JUMP JUMPDEST SWAP2 POP PUSH2 0x226E DUP3 PUSH2 0x222D JUMP JUMPDEST PUSH1 0x20 DUP3 ADD SWAP1 POP SWAP2 SWAP1 POP JUMP JUMPDEST PUSH1 0x0 PUSH1 0x20 DUP3 ADD SWAP1 POP DUP2 DUP2 SUB PUSH1 0x0 DUP4 ADD MSTORE PUSH2 0x2292 DUP2 PUSH2 0x2256 JUMP JUMPDEST SWAP1 POP SWAP2 SWAP1 POP JUMP JUMPDEST PUSH2 0x22A2 DUP2 PUSH2 0x16FA JUMP JUMPDEST DUP3 MSTORE POP POP JUMP JUMPDEST PUSH1 0x0 PUSH1 0x20 DUP3 ADD SWAP1 POP PUSH2 0x22BD PUSH1 0x0 DUP4 ADD DUP5 PUSH2 0x2299 JUMP JUMPDEST SWAP3 SWAP2 POP POP JUMP INVALID CALLER 0x2E ADDRESS 0x2E ADDRESS 0x2D PUSH3 0x657461 0x2E CALLER 0x2B PUSH16 0x70656E67736E2E726563697069656E74 0x2E PUSH10 0x7061796D6173746572A2 PUSH5 0x6970667358 0x22 SLT KECCAK256 JUMPI PUSH32 0xBB94C0EBCF122D3AA2E6E565E776648E66B10257DF5EDF04A68EFD8A1B5A6473 PUSH16 0x6C634300081300330000000000000000 "},"methodIdentifiers":{"CALLDATA_SIZE_LIMIT()":"5c5e3db1","FORWARDER_HUB_OVERHEAD()":"b90b41cf","PAYMASTER_ACCEPTANCE_BUDGET()":"df463a66","POST_RELAYED_CALL_GAS_LIMIT()":"bbdaa3c9","PRE_RELAYED_CALL_GAS_LIMIT()":"f9c002f7","getGasAndDataLimits()":"b039a88f","getRelayHub()":"7bdf2ec7","getTrustedForwarder()":"ce1b815f","owner()":"8da5cb5b","postRelayedCall(bytes,bool,uint256,(uint256,uint256,uint256,address,address,address,bytes,uint256))":"76fa01c3","preRelayedCall(((address,address,uint256,uint256,uint256,bytes,uint256),(uint256,uint256,uint256,address,address,address,bytes,uint256)),bytes,bytes,uint256)":"00be5dd4","renounceOwnership()":"715018a6","setRelayHub(address)":"7bb05264","setTarget(address)":"776d1a01","setTrustedForwarder(address)":"da742228","supportsInterface(bytes4)":"01ffc9a7","target()":"d4b83992","transferOwnership(address)":"f2fde38b","versionPaymaster()":"921276ea","withdrawRelayHubDepositTo(uint256,address)":"2d14c4b7"}}}}}