{"contracts/PocToken.sol":{"PocToken":{"abi":[{"inputs":[{"internalType":"string","name":"_uri","type":"string"},{"internalType":"address","name":"_forwarder","type":"address"}],"stateMutability":"nonpayable","type":"constructor"},{"anonymous":false,"inputs":[{"indexed":false,"internalType":"address","name":"sender","type":"address"},{"indexed":false,"internalType":"address","name":"from","type":"address"},{"indexed":false,"internalType":"address","name":"to","type":"address"},{"indexed":false,"internalType":"uint256","name":"id","type":"uint256"},{"indexed":false,"internalType":"uint256","name":"amount","type":"uint256"}],"name":"AdminTransferred","type":"event"},{"anonymous":false,"inputs":[{"indexed":true,"internalType":"address","name":"account","type":"address"},{"indexed":true,"internalType":"address","name":"operator","type":"address"},{"indexed":false,"internalType":"bool","name":"approved","type":"bool"}],"name":"ApprovalForAll","type":"event"},{"anonymous":false,"inputs":[{"indexed":false,"internalType":"address","name":"sender","type":"address"},{"indexed":false,"internalType":"address","name":"account","type":"address"},{"indexed":false,"internalType":"uint256[]","name":"ids","type":"uint256[]"},{"indexed":false,"internalType":"uint256[]","name":"amounts","type":"uint256[]"}],"name":"BurnBatched","type":"event"},{"anonymous":false,"inputs":[{"indexed":false,"internalType":"address","name":"sender","type":"address"},{"indexed":false,"internalType":"address","name":"account","type":"address"},{"indexed":false,"internalType":"uint256","name":"id","type":"uint256"},{"indexed":false,"internalType":"uint256","name":"amount","type":"uint256"}],"name":"Burned","type":"event"},{"anonymous":false,"inputs":[{"indexed":false,"internalType":"address","name":"sender","type":"address"},{"indexed":false,"internalType":"address","name":"account","type":"address"},{"indexed":false,"internalType":"uint256[]","name":"ids","type":"uint256[]"},{"indexed":false,"internalType":"uint256[]","name":"amounts","type":"uint256[]"}],"name":"MintBatched","type":"event"},{"anonymous":false,"inputs":[{"indexed":false,"internalType":"address","name":"sender","type":"address"},{"indexed":false,"internalType":"address","name":"account","type":"address"},{"indexed":false,"internalType":"uint256","name":"id","type":"uint256"},{"indexed":false,"internalType":"uint256","name":"amount","type":"uint256"}],"name":"Minted","type":"event"},{"anonymous":false,"inputs":[{"indexed":true,"internalType":"address","name":"previousOwner","type":"address"},{"indexed":true,"internalType":"address","name":"newOwner","type":"address"}],"name":"OwnershipTransferred","type":"event"},{"anonymous":false,"inputs":[{"indexed":false,"internalType":"address","name":"account","type":"address"}],"name":"Paused","type":"event"},{"anonymous":false,"inputs":[{"indexed":true,"internalType":"bytes32","name":"role","type":"bytes32"},{"indexed":true,"internalType":"bytes32","name":"previousAdminRole","type":"bytes32"},{"indexed":true,"internalType":"bytes32","name":"newAdminRole","type":"bytes32"}],"name":"RoleAdminChanged","type":"event"},{"anonymous":false,"inputs":[{"indexed":true,"internalType":"bytes32","name":"role","type":"bytes32"},{"indexed":true,"internalType":"address","name":"account","type":"address"},{"indexed":true,"internalType":"address","name":"sender","type":"address"}],"name":"RoleGranted","type":"event"},{"anonymous":false,"inputs":[{"indexed":true,"internalType":"bytes32","name":"role","type":"bytes32"},{"indexed":true,"internalType":"address","name":"account","type":"address"},{"indexed":true,"internalType":"address","name":"sender","type":"address"}],"name":"RoleRevoked","type":"event"},{"anonymous":false,"inputs":[{"indexed":true,"internalType":"address","name":"operator","type":"address"},{"indexed":true,"internalType":"address","name":"from","type":"address"},{"indexed":true,"internalType":"address","name":"to","type":"address"},{"indexed":false,"internalType":"uint256[]","name":"ids","type":"uint256[]"},{"indexed":false,"internalType":"uint256[]","name":"values","type":"uint256[]"}],"name":"TransferBatch","type":"event"},{"anonymous":false,"inputs":[{"indexed":true,"internalType":"address","name":"operator","type":"address"},{"indexed":true,"internalType":"address","name":"from","type":"address"},{"indexed":true,"internalType":"address","name":"to","type":"address"},{"indexed":false,"internalType":"uint256","name":"id","type":"uint256"},{"indexed":false,"internalType":"uint256","name":"value","type":"uint256"}],"name":"TransferSingle","type":"event"},{"anonymous":false,"inputs":[{"indexed":false,"internalType":"string","name":"value","type":"string"},{"indexed":true,"internalType":"uint256","name":"id","type":"uint256"}],"name":"URI","type":"event"},{"anonymous":false,"inputs":[{"indexed":false,"internalType":"address","name":"account","type":"address"}],"name":"Unpaused","type":"event"},{"inputs":[],"name":"BURNER_ROLE","outputs":[{"internalType":"bytes32","name":"","type":"bytes32"}],"stateMutability":"view","type":"function"},{"inputs":[],"name":"DEFAULT_ADMIN_ROLE","outputs":[{"internalType":"bytes32","name":"","type":"bytes32"}],"stateMutability":"view","type":"function"},{"inputs":[],"name":"MINTER_ROLE","outputs":[{"internalType":"bytes32","name":"","type":"bytes32"}],"stateMutability":"view","type":"function"},{"inputs":[{"internalType":"address","name":"account","type":"address"},{"internalType":"uint256","name":"id","type":"uint256"}],"name":"balanceOf","outputs":[{"internalType":"uint256","name":"","type":"uint256"}],"stateMutability":"view","type":"function"},{"inputs":[{"internalType":"address[]","name":"accounts","type":"address[]"},{"internalType":"uint256[]","name":"ids","type":"uint256[]"}],"name":"balanceOfBatch","outputs":[{"internalType":"uint256[]","name":"","type":"uint256[]"}],"stateMutability":"view","type":"function"},{"inputs":[{"internalType":"address","name":"_account","type":"address"},{"internalType":"uint256","name":"_id","type":"uint256"},{"internalType":"uint256","name":"_amount","type":"uint256"}],"name":"burn","outputs":[],"stateMutability":"nonpayable","type":"function"},{"inputs":[{"internalType":"address","name":"_account","type":"address"},{"internalType":"uint256[]","name":"_ids","type":"uint256[]"},{"internalType":"uint256[]","name":"_amounts","type":"uint256[]"}],"name":"burnBatch","outputs":[],"stateMutability":"nonpayable","type":"function"},{"inputs":[],"name":"contractURI","outputs":[{"internalType":"string","name":"","type":"string"}],"stateMutability":"view","type":"function"},{"inputs":[{"internalType":"uint256","name":"_id","type":"uint256"}],"name":"exists","outputs":[{"internalType":"bool","name":"","type":"bool"}],"stateMutability":"view","type":"function"},{"inputs":[{"internalType":"bytes32","name":"role","type":"bytes32"}],"name":"getRoleAdmin","outputs":[{"internalType":"bytes32","name":"","type":"bytes32"}],"stateMutability":"view","type":"function"},{"inputs":[],"name":"getTrustedForwarder","outputs":[{"internalType":"address","name":"forwarder","type":"address"}],"stateMutability":"view","type":"function"},{"inputs":[{"internalType":"bytes32","name":"role","type":"bytes32"},{"internalType":"address","name":"account","type":"address"}],"name":"grantRole","outputs":[],"stateMutability":"nonpayable","type":"function"},{"inputs":[{"internalType":"bytes32","name":"role","type":"bytes32"},{"internalType":"address","name":"account","type":"address"}],"name":"hasRole","outputs":[{"internalType":"bool","name":"","type":"bool"}],"stateMutability":"view","type":"function"},{"inputs":[{"internalType":"address","name":"account","type":"address"},{"internalType":"address","name":"operator","type":"address"}],"name":"isApprovedForAll","outputs":[{"internalType":"bool","name":"","type":"bool"}],"stateMutability":"view","type":"function"},{"inputs":[{"internalType":"address","name":"forwarder","type":"address"}],"name":"isTrustedForwarder","outputs":[{"internalType":"bool","name":"","type":"bool"}],"stateMutability":"view","type":"function"},{"inputs":[{"internalType":"address","name":"_account","type":"address"},{"internalType":"uint256","name":"_id","type":"uint256"},{"internalType":"uint256","name":"_amount","type":"uint256"}],"name":"mint","outputs":[],"stateMutability":"nonpayable","type":"function"},{"inputs":[{"internalType":"address","name":"_account","type":"address"},{"internalType":"uint256[]","name":"_ids","type":"uint256[]"},{"internalType":"uint256[]","name":"_amounts","type":"uint256[]"}],"name":"mintBatch","outputs":[],"stateMutability":"nonpayable","type":"function"},{"inputs":[],"name":"owner","outputs":[{"internalType":"address","name":"","type":"address"}],"stateMutability":"view","type":"function"},{"inputs":[],"name":"pause","outputs":[],"stateMutability":"nonpayable","type":"function"},{"inputs":[],"name":"paused","outputs":[{"internalType":"bool","name":"","type":"bool"}],"stateMutability":"view","type":"function"},{"inputs":[],"name":"renounceOwnership","outputs":[],"stateMutability":"nonpayable","type":"function"},{"inputs":[{"internalType":"bytes32","name":"role","type":"bytes32"},{"internalType":"address","name":"account","type":"address"}],"name":"renounceRole","outputs":[],"stateMutability":"nonpayable","type":"function"},{"inputs":[{"internalType":"bytes32","name":"role","type":"bytes32"},{"internalType":"address","name":"account","type":"address"}],"name":"revokeRole","outputs":[],"stateMutability":"nonpayable","type":"function"},{"inputs":[{"internalType":"address","name":"from","type":"address"},{"internalType":"address","name":"to","type":"address"},{"internalType":"uint256[]","name":"ids","type":"uint256[]"},{"internalType":"uint256[]","name":"amounts","type":"uint256[]"},{"internalType":"bytes","name":"data","type":"bytes"}],"name":"safeBatchTransferFrom","outputs":[],"stateMutability":"nonpayable","type":"function"},{"inputs":[{"internalType":"address","name":"from","type":"address"},{"internalType":"address","name":"to","type":"address"},{"internalType":"uint256","name":"id","type":"uint256"},{"internalType":"uint256","name":"amount","type":"uint256"},{"internalType":"bytes","name":"data","type":"bytes"}],"name":"safeTransferFrom","outputs":[],"stateMutability":"nonpayable","type":"function"},{"inputs":[{"internalType":"address","name":"operator","type":"address"},{"internalType":"bool","name":"approved","type":"bool"}],"name":"setApprovalForAll","outputs":[],"stateMutability":"nonpayable","type":"function"},{"inputs":[{"internalType":"string","name":"_baseURI","type":"string"}],"name":"setBaseTokenURI","outputs":[],"stateMutability":"nonpayable","type":"function"},{"inputs":[{"internalType":"string","name":"_contractUri","type":"string"}],"name":"setContractURI","outputs":[],"stateMutability":"nonpayable","type":"function"},{"inputs":[{"internalType":"uint256","name":"_tokenId","type":"uint256"},{"internalType":"string","name":"_tokenURI","type":"string"}],"name":"setTokenURI","outputs":[],"stateMutability":"nonpayable","type":"function"},{"inputs":[{"internalType":"bytes4","name":"_interfaceId","type":"bytes4"}],"name":"supportsInterface","outputs":[{"internalType":"bool","name":"","type":"bool"}],"stateMutability":"view","type":"function"},{"inputs":[{"internalType":"uint256","name":"_id","type":"uint256"}],"name":"totalSupply","outputs":[{"internalType":"uint256","name":"","type":"uint256"}],"stateMutability":"view","type":"function"},{"inputs":[{"internalType":"address","name":"_to","type":"address"},{"internalType":"uint256","name":"_id","type":"uint256"},{"internalType":"uint256","name":"_amount","type":"uint256"}],"name":"transfer","outputs":[],"stateMutability":"nonpayable","type":"function"},{"inputs":[{"internalType":"address","name":"newOwner","type":"address"}],"name":"transferOwnership","outputs":[],"stateMutability":"nonpayable","type":"function"},{"inputs":[],"name":"unpause","outputs":[],"stateMutability":"nonpayable","type":"function"},{"inputs":[{"internalType":"uint256","name":"tokenId","type":"uint256"}],"name":"uri","outputs":[{"internalType":"string","name":"","type":"string"}],"stateMutability":"view","type":"function"}],"evm":{"bytecode":{"linkReferences":{},"object":"6080604052604051806020016040528060008152506004908162000024919062000722565b503480156200003257600080fd5b506040516200642b3803806200642b8339818101604052810190620000589190620009d2565b816200006a816200016560201b60201c565b506000600660006101000a81548160ff021916908315150217905550620000a66200009a6200017a60201b60201c565b6200019160201b60201c565b620000ca6000801b620000be6200017a60201b60201c565b6200025760201b60201c565b6200010b7f3c11d16cbaffd01df69ce1c404f6340ee057498f5f00246190ea54220576a848620000ff6200017a60201b60201c565b6200025760201b60201c565b6200014c7f9f2df0fed2c77648de5860a4cc508cd0818c85b8b8a1ab4ceeef8d981c8956a6620001406200017a60201b60201c565b6200025760201b60201c565b6200015d816200026d60201b60201c565b505062000a38565b806003908162000176919062000722565b5050565b60006200018c620002b060201b60201c565b905090565b6000600860009054906101000a900473ffffffffffffffffffffffffffffffffffffffff16905081600860006101000a81548173ffffffffffffffffffffffffffffffffffffffff021916908373ffffffffffffffffffffffffffffffffffffffff1602179055508173ffffffffffffffffffffffffffffffffffffffff168173ffffffffffffffffffffffffffffffffffffffff167f8be0079c531659141344cd1fd0a4f28419497f9722a3daafe3b4186f6b6457e060405160405180910390a35050565b620002698282620002f260201b60201c565b5050565b806000806101000a81548173ffffffffffffffffffffffffffffffffffffffff021916908373ffffffffffffffffffffffffffffffffffffffff16021790555050565b60006014600036905010158015620002d55750620002d433620003e460201b60201c565b5b15620002eb57601436033560601c9050620002ef565b3390505b90565b6200030482826200043d60201b60201c565b620003e05760016007600084815260200190815260200160002060000160008373ffffffffffffffffffffffffffffffffffffffff1673ffffffffffffffffffffffffffffffffffffffff16815260200190815260200160002060006101000a81548160ff021916908315150217905550620003856200017a60201b60201c565b73ffffffffffffffffffffffffffffffffffffffff168173ffffffffffffffffffffffffffffffffffffffff16837f2f8788117e7eff1d82e926ec794901d17c78024a50270940304540a733656f0d60405160405180910390a45b5050565b60008060009054906101000a900473ffffffffffffffffffffffffffffffffffffffff1673ffffffffffffffffffffffffffffffffffffffff168273ffffffffffffffffffffffffffffffffffffffff16149050919050565b60006007600084815260200190815260200160002060000160008373ffffffffffffffffffffffffffffffffffffffff1673ffffffffffffffffffffffffffffffffffffffff16815260200190815260200160002060009054906101000a900460ff16905092915050565b600081519050919050565b7f4e487b7100000000000000000000000000000000000000000000000000000000600052604160045260246000fd5b7f4e487b7100000000000000000000000000000000000000000000000000000000600052602260045260246000fd5b600060028204905060018216806200052a57607f821691505b60208210810362000540576200053f620004e2565b5b50919050565b60008190508160005260206000209050919050565b60006020601f8301049050919050565b600082821b905092915050565b600060088302620005aa7fffffffffffffffffffffffffffffffffffffffffffffffffffffffffffffffff826200056b565b620005b686836200056b565b95508019841693508086168417925050509392505050565b6000819050919050565b6000819050919050565b600062000603620005fd620005f784620005ce565b620005d8565b620005ce565b9050919050565b6000819050919050565b6200061f83620005e2565b620006376200062e826200060a565b84845462000578565b825550505050565b600090565b6200064e6200063f565b6200065b81848462000614565b505050565b5b8181101562000683576200067760008262000644565b60018101905062000661565b5050565b601f821115620006d2576200069c8162000546565b620006a7846200055b565b81016020851015620006b7578190505b620006cf620006c6856200055b565b83018262000660565b50505b505050565b600082821c905092915050565b6000620006f760001984600802620006d7565b1980831691505092915050565b6000620007128383620006e4565b9150826002028217905092915050565b6200072d82620004a8565b67ffffffffffffffff811115620007495762000748620004b3565b5b62000755825462000511565b6200076282828562000687565b600060209050601f8311600181146200079a576000841562000785578287015190505b62000791858262000704565b86555062000801565b601f198416620007aa8662000546565b60005b82811015620007d457848901518255600182019150602085019450602081019050620007ad565b86831015620007f45784890151620007f0601f891682620006e4565b8355505b6001600288020188555050505b505050505050565b6000604051905090565b600080fd5b600080fd5b600080fd5b600080fd5b6000601f19601f8301169050919050565b620008438262000827565b810181811067ffffffffffffffff82111715620008655762000864620004b3565b5b80604052505050565b60006200087a62000809565b905062000888828262000838565b919050565b600067ffffffffffffffff821115620008ab57620008aa620004b3565b5b620008b68262000827565b9050602081019050919050565b60005b83811015620008e3578082015181840152602081019050620008c6565b60008484015250505050565b60006200090662000900846200088d565b6200086e565b90508281526020810184848401111562000925576200092462000822565b5b62000932848285620008c3565b509392505050565b600082601f8301126200095257620009516200081d565b5b815162000964848260208601620008ef565b91505092915050565b600073ffffffffffffffffffffffffffffffffffffffff82169050919050565b60006200099a826200096d565b9050919050565b620009ac816200098d565b8114620009b857600080fd5b50565b600081519050620009cc81620009a1565b92915050565b60008060408385031215620009ec57620009eb62000813565b5b600083015167ffffffffffffffff81111562000a0d5762000a0c62000818565b5b62000a1b858286016200093a565b925050602062000a2e85828601620009bb565b9150509250929050565b6159e38062000a486000396000f3fe608060405234801561001057600080fd5b50600436106102105760003560e01c80636b20c45411610125578063ce1b815f116100ad578063e8a3d4851161007c578063e8a3d485146105e7578063e985e9c514610605578063f242432a14610635578063f2fde38b14610651578063f5298aca1461066d57610210565b8063ce1b815f14610573578063d539139314610591578063d547741f146105af578063d81d0a15146105cb57610210565b806391d14854116100f457806391d14854146104bd578063938e3d7b146104ed578063a217fddf14610509578063a22cb46514610527578063bd85b0391461054357610210565b80636b20c4541461046f578063715018a61461048b5780638456cb59146104955780638da5cb5b1461049f57610210565b80632eb2c2d6116101a85780633f4ba83a116101775780633f4ba83a146103b75780634e1273f4146103c15780634f558e79146103f1578063572b6c05146104215780635c975abb1461045157610210565b80632eb2c2d6146103475780632f2ff15d1461036357806330176e131461037f57806336568abe1461039b57610210565b8063156e29f6116101e4578063156e29f6146102c1578063162094c4146102dd578063248a9ca3146102f9578063282c51f31461032957610210565b8062fdd58e1461021557806301ffc9a714610245578063095bcdb6146102755780630e89341c14610291575b600080fd5b61022f600480360381019061022a91906136ab565b610689565b60405161023c91906136fa565b60405180910390f35b61025f600480360381019061025a919061376d565b610752565b60405161026c91906137b5565b60405180910390f35b61028f600480360381019061028a91906137d0565b610764565b005b6102ab60048036038101906102a69190613823565b6107cd565b6040516102b891906138e0565b60405180910390f35b6102db60048036038101906102d691906137d0565b6108b2565b005b6102f760048036038101906102f29190613a37565b61098e565b005b610313600480360381019061030e9190613ac9565b6109ef565b6040516103209190613b05565b60405180910390f35b610331610a0f565b60405161033e9190613b05565b60405180910390f35b610361600480360381019061035c9190613c89565b610a33565b005b61037d60048036038101906103789190613d58565b610ad4565b005b61039960048036038101906103949190613d98565b610af5565b005b6103b560048036038101906103b09190613d58565b610b54565b005b6103bf610bd7565b005b6103db60048036038101906103d69190613ea4565b610c3c565b6040516103e89190613fda565b60405180910390f35b61040b60048036038101906104069190613823565b610d55565b60405161041891906137b5565b60405180910390f35b61043b60048036038101906104369190613ffc565b610d69565b60405161044891906137b5565b60405180910390f35b610459610dc2565b60405161046691906137b5565b60405180910390f35b61048960048036038101906104849190614029565b610dd9565b005b610493610ea5565b005b61049d610eb9565b005b6104a7610f1e565b6040516104b491906140c3565b60405180910390f35b6104d760048036038101906104d29190613d58565b610f48565b6040516104e491906137b5565b60405180910390f35b61050760048036038101906105029190613d98565b610fb3565b005b610511611018565b60405161051e9190613b05565b60405180910390f35b610541600480360381019061053c919061410a565b61101f565b005b61055d60048036038101906105589190613823565b611035565b60405161056a91906136fa565b60405180910390f35b61057b611052565b60405161058891906140c3565b60405180910390f35b61059961107b565b6040516105a69190613b05565b60405180910390f35b6105c960048036038101906105c49190613d58565b61109f565b005b6105e560048036038101906105e091906141a5565b6110c0565b005b6105ef611224565b6040516105fc91906138e0565b60405180910390f35b61061f600480360381019061061a919061423a565b6112b6565b60405161062c91906137b5565b60405180910390f35b61064f600480360381019061064a919061427a565b61134a565b005b61066b60048036038101906106669190613ffc565b6113eb565b005b610687600480360381019061068291906137d0565b61146e565b005b60008073ffffffffffffffffffffffffffffffffffffffff168373ffffffffffffffffffffffffffffffffffffffff16036106f9576040517f08c379a00000000000000000000000000000000000000000000000000000000081526004016106f090614383565b60405180910390fd5b6001600083815260200190815260200160002060008473ffffffffffffffffffffffffffffffffffffffff1673ffffffffffffffffffffffffffffffffffffffff16815260200190815260200160002054905092915050565b600061075d8261153a565b9050919050565b606061077a6107716115b4565b858585856115c3565b7f77f47dd954d0ce02fc992a77a1808ac0a8de2fe04e61a44d8136adad2d11b7ec6107a36115b4565b6107ab6115b4565b8686866040516107bf9594939291906143a3565b60405180910390a150505050565b606060006005600084815260200190815260200160002080546107ef90614425565b80601f016020809104026020016040519081016040528092919081815260200182805461081b90614425565b80156108685780601f1061083d57610100808354040283529160200191610868565b820191906000526020600020905b81548152906001019060200180831161084b57829003601f168201915b5050505050905060008151116108865761088183611861565b6108aa565b60048160405160200161089a92919061452a565b6040516020818303038152906040525b915050919050565b6108ba6118f5565b6108eb7f9f2df0fed2c77648de5860a4cc508cd0818c85b8b8a1ab4ceeef8d981c8956a66108e66115b4565b610f48565b61092a576040517f08c379a00000000000000000000000000000000000000000000000000000000081526004016109219061459a565b60405180910390fd5b6109458383836040518060200160405280600081525061193f565b7f03f17d66ad3bf18e9412eb06582908831508cdb9b8da9cddb1431f645a5b863261096e6115b4565b84848460405161098194939291906145ba565b60405180910390a1505050565b6109a26000801b61099d6115b4565b610f48565b6109e1576040517f08c379a00000000000000000000000000000000000000000000000000000000081526004016109d89061464b565b60405180910390fd5b6109eb8282611af0565b5050565b600060076000838152602001908152602001600020600101549050919050565b7f3c11d16cbaffd01df69ce1c404f6340ee057498f5f00246190ea54220576a84881565b610a3b6115b4565b73ffffffffffffffffffffffffffffffffffffffff168573ffffffffffffffffffffffffffffffffffffffff161480610a815750610a8085610a7b6115b4565b6112b6565b5b610ac0576040517f08c379a0000000000000000000000000000000000000000000000000000000008152600401610ab7906146dd565b60405180910390fd5b610acd8585858585611b55565b5050505050565b610add826109ef565b610ae681611e79565b610af08383611e8d565b505050565b610b096000801b610b046115b4565b610f48565b610b48576040517f08c379a0000000000000000000000000000000000000000000000000000000008152600401610b3f9061464b565b60405180910390fd5b610b5181611f6e565b50565b610b5c6115b4565b73ffffffffffffffffffffffffffffffffffffffff168173ffffffffffffffffffffffffffffffffffffffff1614610bc9576040517f08c379a0000000000000000000000000000000000000000000000000000000008152600401610bc09061476f565b60405180910390fd5b610bd38282611f81565b5050565b610bdf612063565b610bf36000801b610bee6115b4565b610f48565b610c32576040517f08c379a0000000000000000000000000000000000000000000000000000000008152600401610c299061464b565b60405180910390fd5b610c3a6120ac565b565b60608151835114610c82576040517f08c379a0000000000000000000000000000000000000000000000000000000008152600401610c7990614801565b60405180910390fd5b6000835167ffffffffffffffff811115610c9f57610c9e61390c565b5b604051908082528060200260200182016040528015610ccd5781602001602082028036833780820191505090505b50905060005b8451811015610d4a57610d1a858281518110610cf257610cf1614821565b5b6020026020010151858381518110610d0d57610d0c614821565b5b6020026020010151610689565b828281518110610d2d57610d2c614821565b5b60200260200101818152505080610d439061487f565b9050610cd3565b508091505092915050565b600080610d6183611035565b119050919050565b60008060009054906101000a900473ffffffffffffffffffffffffffffffffffffffff1673ffffffffffffffffffffffffffffffffffffffff168273ffffffffffffffffffffffffffffffffffffffff16149050919050565b6000600660009054906101000a900460ff16905090565b610de16118f5565b610e127f3c11d16cbaffd01df69ce1c404f6340ee057498f5f00246190ea54220576a848610e0d6115b4565b610f48565b610e51576040517f08c379a0000000000000000000000000000000000000000000000000000000008152600401610e4890614913565b60405180910390fd5b610e5c83838361210f565b7f2d733e8161fe4ccd0a3d4047a11a32419a7b2583ee907a5f5eeb06db08a2aec4610e856115b4565b848484604051610e989493929190614933565b60405180910390a1505050565b610ead6123df565b610eb7600061245d565b565b610ec16118f5565b610ed56000801b610ed06115b4565b610f48565b610f14576040517f08c379a0000000000000000000000000000000000000000000000000000000008152600401610f0b9061464b565b60405180910390fd5b610f1c612523565b565b6000600860009054906101000a900473ffffffffffffffffffffffffffffffffffffffff16905090565b60006007600084815260200190815260200160002060000160008373ffffffffffffffffffffffffffffffffffffffff1673ffffffffffffffffffffffffffffffffffffffff16815260200190815260200160002060009054906101000a900460ff16905092915050565b6000801b610fc081611e79565b6000825111611004576040517f08c379a0000000000000000000000000000000000000000000000000000000008152600401610ffb906149d2565b60405180910390fd5b81600a90816110139190614b89565b505050565b6000801b81565b61103161102a6115b4565b8383612586565b5050565b600060096000838152602001908152602001600020549050919050565b60008060009054906101000a900473ffffffffffffffffffffffffffffffffffffffff16905090565b7f9f2df0fed2c77648de5860a4cc508cd0818c85b8b8a1ab4ceeef8d981c8956a681565b6110a8826109ef565b6110b181611e79565b6110bb8383611f81565b505050565b6110c86118f5565b6110f97f9f2df0fed2c77648de5860a4cc508cd0818c85b8b8a1ab4ceeef8d981c8956a66110f46115b4565b610f48565b611138576040517f08c379a000000000000000000000000000000000000000000000000000000000815260040161112f90614ca7565b60405180910390fd5b6111d585858580806020026020016040519081016040528093929190818152602001838360200280828437600081840152601f19601f82011690508083019250505050505050848480806020026020016040519081016040528093929190818152602001838360200280828437600081840152601f19601f82011690508083019250505050505050604051806020016040528060008152506126f2565b7f2d85368ce5d64f46c151c0714668c85530f639e57e2fd309337867467c5cdeb86111fe6115b4565b868686868660405161121596959493929190614d31565b60405180910390a15050505050565b6060600a805461123390614425565b80601f016020809104026020016040519081016040528092919081815260200182805461125f90614425565b80156112ac5780601f10611281576101008083540402835291602001916112ac565b820191906000526020600020905b81548152906001019060200180831161128f57829003601f168201915b5050505050905090565b6000600260008473ffffffffffffffffffffffffffffffffffffffff1673ffffffffffffffffffffffffffffffffffffffff16815260200190815260200160002060008373ffffffffffffffffffffffffffffffffffffffff1673ffffffffffffffffffffffffffffffffffffffff16815260200190815260200160002060009054906101000a900460ff16905092915050565b6113526115b4565b73ffffffffffffffffffffffffffffffffffffffff168573ffffffffffffffffffffffffffffffffffffffff1614806113985750611397856113926115b4565b6112b6565b5b6113d7576040517f08c379a00000000000000000000000000000000000000000000000000000000081526004016113ce906146dd565b60405180910390fd5b6113e485858585856115c3565b5050505050565b6113f36123df565b600073ffffffffffffffffffffffffffffffffffffffff168173ffffffffffffffffffffffffffffffffffffffff1603611462576040517f08c379a000000000000000000000000000000000000000000000000000000000815260040161145990614dfa565b60405180910390fd5b61146b8161245d565b50565b6114766118f5565b6114a77f3c11d16cbaffd01df69ce1c404f6340ee057498f5f00246190ea54220576a8486114a26115b4565b610f48565b6114e6576040517f08c379a00000000000000000000000000000000000000000000000000000000081526004016114dd90614e66565b60405180910390fd5b6114f183838361291f565b7f8cbfdd0f15f678ea4039ef0f30ce1494d591556082bee7c244bfd664efad36c761151a6115b4565b84848460405161152d94939291906145ba565b60405180910390a1505050565b60007f7965db0b000000000000000000000000000000000000000000000000000000007bffffffffffffffffffffffffffffffffffffffffffffffffffffffff1916827bffffffffffffffffffffffffffffffffffffffffffffffffffffffff191614806115ad57506115ac82612b67565b5b9050919050565b60006115be612c49565b905090565b600073ffffffffffffffffffffffffffffffffffffffff168473ffffffffffffffffffffffffffffffffffffffff1603611632576040517f08c379a000000000000000000000000000000000000000000000000000000000815260040161162990614ef8565b60405180910390fd5b600061163c6115b4565b9050600061164985612c80565b9050600061165685612c80565b9050611666838989858589612cfa565b60006001600088815260200190815260200160002060008a73ffffffffffffffffffffffffffffffffffffffff1673ffffffffffffffffffffffffffffffffffffffff168152602001908152602001600020549050858110156116fe576040517f08c379a00000000000000000000000000000000000000000000000000000000081526004016116f590614f8a565b60405180910390fd5b8581036001600089815260200190815260200160002060008b73ffffffffffffffffffffffffffffffffffffffff1673ffffffffffffffffffffffffffffffffffffffff16815260200190815260200160002081905550856001600089815260200190815260200160002060008a73ffffffffffffffffffffffffffffffffffffffff1673ffffffffffffffffffffffffffffffffffffffff16815260200190815260200160002060008282546117b59190614faa565b925050819055508773ffffffffffffffffffffffffffffffffffffffff168973ffffffffffffffffffffffffffffffffffffffff168573ffffffffffffffffffffffffffffffffffffffff167fc3d58168c5ae7397731d063d5bbf3d657854427343f4c083240f7aacaa2d0f628a8a604051611832929190614fde565b60405180910390a4611848848a8a86868a612eca565b611856848a8a8a8a8a612ed2565b505050505050505050565b60606003805461187090614425565b80601f016020809104026020016040519081016040528092919081815260200182805461189c90614425565b80156118e95780601f106118be576101008083540402835291602001916118e9565b820191906000526020600020905b8154815290600101906020018083116118cc57829003601f168201915b50505050509050919050565b6118fd610dc2565b1561193d576040517f08c379a000000000000000000000000000000000000000000000000000000000815260040161193490615053565b60405180910390fd5b565b600073ffffffffffffffffffffffffffffffffffffffff168473ffffffffffffffffffffffffffffffffffffffff16036119ae576040517f08c379a00000000000000000000000000000000000000000000000000000000081526004016119a5906150e5565b60405180910390fd5b60006119b86115b4565b905060006119c585612c80565b905060006119d285612c80565b90506119e383600089858589612cfa565b846001600088815260200190815260200160002060008973ffffffffffffffffffffffffffffffffffffffff1673ffffffffffffffffffffffffffffffffffffffff1681526020019081526020016000206000828254611a439190614faa565b925050819055508673ffffffffffffffffffffffffffffffffffffffff16600073ffffffffffffffffffffffffffffffffffffffff168473ffffffffffffffffffffffffffffffffffffffff167fc3d58168c5ae7397731d063d5bbf3d657854427343f4c083240f7aacaa2d0f628989604051611ac1929190614fde565b60405180910390a4611ad883600089858589612eca565b611ae783600089898989612ed2565b50505050505050565b80600560008481526020019081526020016000209081611b109190614b89565b50817f6bb7ff708619ba0610cba295a58592e0451dee2622938c8755667688daf3529b611b3c846107cd565b604051611b4991906138e0565b60405180910390a25050565b8151835114611b99576040517f08c379a0000000000000000000000000000000000000000000000000000000008152600401611b9090615177565b60405180910390fd5b600073ffffffffffffffffffffffffffffffffffffffff168473ffffffffffffffffffffffffffffffffffffffff1603611c08576040517f08c379a0000000000000000000000000000000000000000000000000000000008152600401611bff90614ef8565b60405180910390fd5b6000611c126115b4565b9050611c22818787878787612cfa565b60005b8451811015611dd6576000858281518110611c4357611c42614821565b5b602002602001015190506000858381518110611c6257611c61614821565b5b6020026020010151905060006001600084815260200190815260200160002060008b73ffffffffffffffffffffffffffffffffffffffff1673ffffffffffffffffffffffffffffffffffffffff16815260200190815260200160002054905081811015611d04576040517f08c379a0000000000000000000000000000000000000000000000000000000008152600401611cfb90614f8a565b60405180910390fd5b8181036001600085815260200190815260200160002060008c73ffffffffffffffffffffffffffffffffffffffff1673ffffffffffffffffffffffffffffffffffffffff16815260200190815260200160002081905550816001600085815260200190815260200160002060008b73ffffffffffffffffffffffffffffffffffffffff1673ffffffffffffffffffffffffffffffffffffffff1681526020019081526020016000206000828254611dbb9190614faa565b9250508190555050505080611dcf9061487f565b9050611c25565b508473ffffffffffffffffffffffffffffffffffffffff168673ffffffffffffffffffffffffffffffffffffffff168273ffffffffffffffffffffffffffffffffffffffff167f4a39dc06d4c0dbc64b70af90fd698a233a518aa5d07e595d983b8c0526c8f7fb8787604051611e4d929190615197565b60405180910390a4611e63818787878787612eca565b611e718187878787876130a9565b505050505050565b611e8a81611e856115b4565b613280565b50565b611e978282610f48565b611f6a5760016007600084815260200190815260200160002060000160008373ffffffffffffffffffffffffffffffffffffffff1673ffffffffffffffffffffffffffffffffffffffff16815260200190815260200160002060006101000a81548160ff021916908315150217905550611f0f6115b4565b73ffffffffffffffffffffffffffffffffffffffff168173ffffffffffffffffffffffffffffffffffffffff16837f2f8788117e7eff1d82e926ec794901d17c78024a50270940304540a733656f0d60405160405180910390a45b5050565b8060049081611f7d9190614b89565b5050565b611f8b8282610f48565b1561205f5760006007600084815260200190815260200160002060000160008373ffffffffffffffffffffffffffffffffffffffff1673ffffffffffffffffffffffffffffffffffffffff16815260200190815260200160002060006101000a81548160ff0219169083151502179055506120046115b4565b73ffffffffffffffffffffffffffffffffffffffff168173ffffffffffffffffffffffffffffffffffffffff16837ff6391f5c32d9c69d2a47ea670b442974b53935d1edc7fd64eb21e047a839171b60405160405180910390a45b5050565b61206b610dc2565b6120aa576040517f08c379a00000000000000000000000000000000000000000000000000000000081526004016120a19061521a565b60405180910390fd5b565b6120b4612063565b6000600660006101000a81548160ff0219169083151502179055507f5db9ee0a495bf2e6ff9c91a7834c1ba4fdd244a5e8aa4e537bd38aeae4b073aa6120f86115b4565b60405161210591906140c3565b60405180910390a1565b600073ffffffffffffffffffffffffffffffffffffffff168373ffffffffffffffffffffffffffffffffffffffff160361217e576040517f08c379a0000000000000000000000000000000000000000000000000000000008152600401612175906152ac565b60405180910390fd5b80518251146121c2576040517f08c379a00000000000000000000000000000000000000000000000000000000081526004016121b990615177565b60405180910390fd5b60006121cc6115b4565b90506121ec81856000868660405180602001604052806000815250612cfa565b60005b835181101561233b57600084828151811061220d5761220c614821565b5b60200260200101519050600084838151811061222c5761222b614821565b5b6020026020010151905060006001600084815260200190815260200160002060008973ffffffffffffffffffffffffffffffffffffffff1673ffffffffffffffffffffffffffffffffffffffff168152602001908152602001600020549050818110156122ce576040517f08c379a00000000000000000000000000000000000000000000000000000000081526004016122c59061533e565b60405180910390fd5b8181036001600085815260200190815260200160002060008a73ffffffffffffffffffffffffffffffffffffffff1673ffffffffffffffffffffffffffffffffffffffff1681526020019081526020016000208190555050505080806123339061487f565b9150506121ef565b50600073ffffffffffffffffffffffffffffffffffffffff168473ffffffffffffffffffffffffffffffffffffffff168273ffffffffffffffffffffffffffffffffffffffff167f4a39dc06d4c0dbc64b70af90fd698a233a518aa5d07e595d983b8c0526c8f7fb86866040516123b3929190615197565b60405180910390a46123d981856000868660405180602001604052806000815250612eca565b50505050565b6123e76115b4565b73ffffffffffffffffffffffffffffffffffffffff16612405610f1e565b73ffffffffffffffffffffffffffffffffffffffff161461245b576040517f08c379a0000000000000000000000000000000000000000000000000000000008152600401612452906153aa565b60405180910390fd5b565b6000600860009054906101000a900473ffffffffffffffffffffffffffffffffffffffff16905081600860006101000a81548173ffffffffffffffffffffffffffffffffffffffff021916908373ffffffffffffffffffffffffffffffffffffffff1602179055508173ffffffffffffffffffffffffffffffffffffffff168173ffffffffffffffffffffffffffffffffffffffff167f8be0079c531659141344cd1fd0a4f28419497f9722a3daafe3b4186f6b6457e060405160405180910390a35050565b61252b6118f5565b6001600660006101000a81548160ff0219169083151502179055507f62e78cea01bee320cd4e420270b5ea74000d11b0c9f74754ebdbfc544b05a25861256f6115b4565b60405161257c91906140c3565b60405180910390a1565b8173ffffffffffffffffffffffffffffffffffffffff168373ffffffffffffffffffffffffffffffffffffffff16036125f4576040517f08c379a00000000000000000000000000000000000000000000000000000000081526004016125eb9061543c565b60405180910390fd5b80600260008573ffffffffffffffffffffffffffffffffffffffff1673ffffffffffffffffffffffffffffffffffffffff16815260200190815260200160002060008473ffffffffffffffffffffffffffffffffffffffff1673ffffffffffffffffffffffffffffffffffffffff16815260200190815260200160002060006101000a81548160ff0219169083151502179055508173ffffffffffffffffffffffffffffffffffffffff168373ffffffffffffffffffffffffffffffffffffffff167f17307eab39ab6107e8899845ad3d59bd9653f200f220920489ca2b5937696c31836040516126e591906137b5565b60405180910390a3505050565b600073ffffffffffffffffffffffffffffffffffffffff168473ffffffffffffffffffffffffffffffffffffffff1603612761576040517f08c379a0000000000000000000000000000000000000000000000000000000008152600401612758906150e5565b60405180910390fd5b81518351146127a5576040517f08c379a000000000000000000000000000000000000000000000000000000000815260040161279c90615177565b60405180910390fd5b60006127af6115b4565b90506127c081600087878787612cfa565b60005b845181101561287a578381815181106127df576127de614821565b5b6020026020010151600160008784815181106127fe576127fd614821565b5b6020026020010151815260200190815260200160002060008873ffffffffffffffffffffffffffffffffffffffff1673ffffffffffffffffffffffffffffffffffffffff16815260200190815260200160002060008282546128609190614faa565b9250508190555080806128729061487f565b9150506127c3565b508473ffffffffffffffffffffffffffffffffffffffff16600073ffffffffffffffffffffffffffffffffffffffff168273ffffffffffffffffffffffffffffffffffffffff167f4a39dc06d4c0dbc64b70af90fd698a233a518aa5d07e595d983b8c0526c8f7fb87876040516128f2929190615197565b60405180910390a461290981600087878787612eca565b612918816000878787876130a9565b5050505050565b600073ffffffffffffffffffffffffffffffffffffffff168373ffffffffffffffffffffffffffffffffffffffff160361298e576040517f08c379a0000000000000000000000000000000000000000000000000000000008152600401612985906152ac565b60405180910390fd5b60006129986115b4565b905060006129a584612c80565b905060006129b284612c80565b90506129d283876000858560405180602001604052806000815250612cfa565b60006001600087815260200190815260200160002060008873ffffffffffffffffffffffffffffffffffffffff1673ffffffffffffffffffffffffffffffffffffffff16815260200190815260200160002054905084811015612a6a576040517f08c379a0000000000000000000000000000000000000000000000000000000008152600401612a619061533e565b60405180910390fd5b8481036001600088815260200190815260200160002060008973ffffffffffffffffffffffffffffffffffffffff1673ffffffffffffffffffffffffffffffffffffffff16815260200190815260200160002081905550600073ffffffffffffffffffffffffffffffffffffffff168773ffffffffffffffffffffffffffffffffffffffff168573ffffffffffffffffffffffffffffffffffffffff167fc3d58168c5ae7397731d063d5bbf3d657854427343f4c083240f7aacaa2d0f628989604051612b38929190614fde565b60405180910390a4612b5e84886000868660405180602001604052806000815250612eca565b50505050505050565b60007fd9b67a26000000000000000000000000000000000000000000000000000000007bffffffffffffffffffffffffffffffffffffffffffffffffffffffff1916827bffffffffffffffffffffffffffffffffffffffffffffffffffffffff19161480612c3257507f0e89341c000000000000000000000000000000000000000000000000000000007bffffffffffffffffffffffffffffffffffffffffffffffffffffffff1916827bffffffffffffffffffffffffffffffffffffffffffffffffffffffff1916145b80612c425750612c4182613305565b5b9050919050565b60006014600036905010158015612c655750612c6433610d69565b5b15612c7957601436033560601c9050612c7d565b3390505b90565b60606000600167ffffffffffffffff811115612c9f57612c9e61390c565b5b604051908082528060200260200182016040528015612ccd5781602001602082028036833780820191505090505b5090508281600081518110612ce557612ce4614821565b5b60200260200101818152505080915050919050565b612d0886868686868661336f565b600073ffffffffffffffffffffffffffffffffffffffff168573ffffffffffffffffffffffffffffffffffffffff1603612db95760005b8351811015612db757828181518110612d5b57612d5a614821565b5b602002602001015160096000868481518110612d7a57612d79614821565b5b602002602001015181526020019081526020016000206000828254612d9f9190614faa565b9250508190555080612db09061487f565b9050612d3f565b505b600073ffffffffffffffffffffffffffffffffffffffff168473ffffffffffffffffffffffffffffffffffffffff1603612ec25760005b8351811015612ec0576000848281518110612e0e57612e0d614821565b5b602002602001015190506000848381518110612e2d57612e2c614821565b5b6020026020010151905060006009600084815260200190815260200160002054905081811015612e92576040517f08c379a0000000000000000000000000000000000000000000000000000000008152600401612e89906154a8565b60405180910390fd5b818103600960008581526020019081526020016000208190555050505080612eb99061487f565b9050612df0565b505b505050505050565b505050505050565b612ef18473ffffffffffffffffffffffffffffffffffffffff16613377565b156130a1578373ffffffffffffffffffffffffffffffffffffffff1663f23a6e6187878686866040518663ffffffff1660e01b8152600401612f3795949392919061551d565b6020604051808303816000875af1925050508015612f7357506040513d601f19601f82011682018060405250810190612f70919061558c565b60015b61301857612f7f6155c6565b806308c379a003612fdb5750612f936155e8565b80612f9e5750612fdd565b806040517f08c379a0000000000000000000000000000000000000000000000000000000008152600401612fd291906138e0565b60405180910390fd5b505b6040517f08c379a000000000000000000000000000000000000000000000000000000000815260040161300f906156ea565b60405180910390fd5b63f23a6e6160e01b7bffffffffffffffffffffffffffffffffffffffffffffffffffffffff1916817bffffffffffffffffffffffffffffffffffffffffffffffffffffffff19161461309f576040517f08c379a00000000000000000000000000000000000000000000000000000000081526004016130969061577c565b60405180910390fd5b505b505050505050565b6130c88473ffffffffffffffffffffffffffffffffffffffff16613377565b15613278578373ffffffffffffffffffffffffffffffffffffffff1663bc197c8187878686866040518663ffffffff1660e01b815260040161310e95949392919061579c565b6020604051808303816000875af192505050801561314a57506040513d601f19601f82011682018060405250810190613147919061558c565b60015b6131ef576131566155c6565b806308c379a0036131b2575061316a6155e8565b8061317557506131b4565b806040517f08c379a00000000000000000000000000000000000000000000000000000000081526004016131a991906138e0565b60405180910390fd5b505b6040517f08c379a00000000000000000000000000000000000000000000000000000000081526004016131e6906156ea565b60405180910390fd5b63bc197c8160e01b7bffffffffffffffffffffffffffffffffffffffffffffffffffffffff1916817bffffffffffffffffffffffffffffffffffffffffffffffffffffffff191614613276576040517f08c379a000000000000000000000000000000000000000000000000000000000815260040161326d9061577c565b60405180910390fd5b505b505050505050565b61328a8282610f48565b613301576132978161339a565b6132a58360001c60206133c7565b6040516020016132b692919061589c565b6040516020818303038152906040526040517f08c379a00000000000000000000000000000000000000000000000000000000081526004016132f891906138e0565b60405180910390fd5b5050565b60007f01ffc9a7000000000000000000000000000000000000000000000000000000007bffffffffffffffffffffffffffffffffffffffffffffffffffffffff1916827bffffffffffffffffffffffffffffffffffffffffffffffffffffffff1916149050919050565b505050505050565b6000808273ffffffffffffffffffffffffffffffffffffffff163b119050919050565b60606133c08273ffffffffffffffffffffffffffffffffffffffff16601460ff166133c7565b9050919050565b6060600060028360026133da91906158d6565b6133e49190614faa565b67ffffffffffffffff8111156133fd576133fc61390c565b5b6040519080825280601f01601f19166020018201604052801561342f5781602001600182028036833780820191505090505b5090507f30000000000000000000000000000000000000000000000000000000000000008160008151811061346757613466614821565b5b60200101907effffffffffffffffffffffffffffffffffffffffffffffffffffffffffffff1916908160001a9053507f7800000000000000000000000000000000000000000000000000000000000000816001815181106134cb576134ca614821565b5b60200101907effffffffffffffffffffffffffffffffffffffffffffffffffffffffffffff1916908160001a9053506000600184600261350b91906158d6565b6135159190614faa565b90505b60018111156135b5577f3031323334353637383961626364656600000000000000000000000000000000600f86166010811061355757613556614821565b5b1a60f81b82828151811061356e5761356d614821565b5b60200101907effffffffffffffffffffffffffffffffffffffffffffffffffffffffffffff1916908160001a905350600485901c9450806135ae90615918565b9050613518565b50600084146135f9576040517f08c379a00000000000000000000000000000000000000000000000000000000081526004016135f09061598d565b60405180910390fd5b8091505092915050565b6000604051905090565b600080fd5b600080fd5b600073ffffffffffffffffffffffffffffffffffffffff82169050919050565b600061364282613617565b9050919050565b61365281613637565b811461365d57600080fd5b50565b60008135905061366f81613649565b92915050565b6000819050919050565b61368881613675565b811461369357600080fd5b50565b6000813590506136a58161367f565b92915050565b600080604083850312156136c2576136c161360d565b5b60006136d085828601613660565b92505060206136e185828601613696565b9150509250929050565b6136f481613675565b82525050565b600060208201905061370f60008301846136eb565b92915050565b60007fffffffff0000000000000000000000000000000000000000000000000000000082169050919050565b61374a81613715565b811461375557600080fd5b50565b60008135905061376781613741565b92915050565b6000602082840312156137835761378261360d565b5b600061379184828501613758565b91505092915050565b60008115159050919050565b6137af8161379a565b82525050565b60006020820190506137ca60008301846137a6565b92915050565b6000806000606084860312156137e9576137e861360d565b5b60006137f786828701613660565b935050602061380886828701613696565b925050604061381986828701613696565b9150509250925092565b6000602082840312156138395761383861360d565b5b600061384784828501613696565b91505092915050565b600081519050919050565b600082825260208201905092915050565b60005b8381101561388a57808201518184015260208101905061386f565b60008484015250505050565b6000601f19601f8301169050919050565b60006138b282613850565b6138bc818561385b565b93506138cc81856020860161386c565b6138d581613896565b840191505092915050565b600060208201905081810360008301526138fa81846138a7565b905092915050565b600080fd5b600080fd5b7f4e487b7100000000000000000000000000000000000000000000000000000000600052604160045260246000fd5b61394482613896565b810181811067ffffffffffffffff821117156139635761396261390c565b5b80604052505050565b6000613976613603565b9050613982828261393b565b919050565b600067ffffffffffffffff8211156139a2576139a161390c565b5b6139ab82613896565b9050602081019050919050565b82818337600083830152505050565b60006139da6139d584613987565b61396c565b9050828152602081018484840111156139f6576139f5613907565b5b613a018482856139b8565b509392505050565b600082601f830112613a1e57613a1d613902565b5b8135613a2e8482602086016139c7565b91505092915050565b60008060408385031215613a4e57613a4d61360d565b5b6000613a5c85828601613696565b925050602083013567ffffffffffffffff811115613a7d57613a7c613612565b5b613a8985828601613a09565b9150509250929050565b6000819050919050565b613aa681613a93565b8114613ab157600080fd5b50565b600081359050613ac381613a9d565b92915050565b600060208284031215613adf57613ade61360d565b5b6000613aed84828501613ab4565b91505092915050565b613aff81613a93565b82525050565b6000602082019050613b1a6000830184613af6565b92915050565b600067ffffffffffffffff821115613b3b57613b3a61390c565b5b602082029050602081019050919050565b600080fd5b6000613b64613b5f84613b20565b61396c565b90508083825260208201905060208402830185811115613b8757613b86613b4c565b5b835b81811015613bb05780613b9c8882613696565b845260208401935050602081019050613b89565b5050509392505050565b600082601f830112613bcf57613bce613902565b5b8135613bdf848260208601613b51565b91505092915050565b600067ffffffffffffffff821115613c0357613c0261390c565b5b613c0c82613896565b9050602081019050919050565b6000613c2c613c2784613be8565b61396c565b905082815260208101848484011115613c4857613c47613907565b5b613c538482856139b8565b509392505050565b600082601f830112613c7057613c6f613902565b5b8135613c80848260208601613c19565b91505092915050565b600080600080600060a08688031215613ca557613ca461360d565b5b6000613cb388828901613660565b9550506020613cc488828901613660565b945050604086013567ffffffffffffffff811115613ce557613ce4613612565b5b613cf188828901613bba565b935050606086013567ffffffffffffffff811115613d1257613d11613612565b5b613d1e88828901613bba565b925050608086013567ffffffffffffffff811115613d3f57613d3e613612565b5b613d4b88828901613c5b565b9150509295509295909350565b60008060408385031215613d6f57613d6e61360d565b5b6000613d7d85828601613ab4565b9250506020613d8e85828601613660565b9150509250929050565b600060208284031215613dae57613dad61360d565b5b600082013567ffffffffffffffff811115613dcc57613dcb613612565b5b613dd884828501613a09565b91505092915050565b600067ffffffffffffffff821115613dfc57613dfb61390c565b5b602082029050602081019050919050565b6000613e20613e1b84613de1565b61396c565b90508083825260208201905060208402830185811115613e4357613e42613b4c565b5b835b81811015613e6c5780613e588882613660565b845260208401935050602081019050613e45565b5050509392505050565b600082601f830112613e8b57613e8a613902565b5b8135613e9b848260208601613e0d565b91505092915050565b60008060408385031215613ebb57613eba61360d565b5b600083013567ffffffffffffffff811115613ed957613ed8613612565b5b613ee585828601613e76565b925050602083013567ffffffffffffffff811115613f0657613f05613612565b5b613f1285828601613bba565b9150509250929050565b600081519050919050565b600082825260208201905092915050565b6000819050602082019050919050565b613f5181613675565b82525050565b6000613f638383613f48565b60208301905092915050565b6000602082019050919050565b6000613f8782613f1c565b613f918185613f27565b9350613f9c83613f38565b8060005b83811015613fcd578151613fb48882613f57565b9750613fbf83613f6f565b925050600181019050613fa0565b5085935050505092915050565b60006020820190508181036000830152613ff48184613f7c565b905092915050565b6000602082840312156140125761401161360d565b5b600061402084828501613660565b91505092915050565b6000806000606084860312156140425761404161360d565b5b600061405086828701613660565b935050602084013567ffffffffffffffff81111561407157614070613612565b5b61407d86828701613bba565b925050604084013567ffffffffffffffff81111561409e5761409d613612565b5b6140aa86828701613bba565b9150509250925092565b6140bd81613637565b82525050565b60006020820190506140d860008301846140b4565b92915050565b6140e78161379a565b81146140f257600080fd5b50565b600081359050614104816140de565b92915050565b600080604083850312156141215761412061360d565b5b600061412f85828601613660565b9250506020614140858286016140f5565b9150509250929050565b600080fd5b60008083601f84011261416557614164613902565b5b8235905067ffffffffffffffff8111156141825761418161414a565b5b60208301915083602082028301111561419e5761419d613b4c565b5b9250929050565b6000806000806000606086880312156141c1576141c061360d565b5b60006141cf88828901613660565b955050602086013567ffffffffffffffff8111156141f0576141ef613612565b5b6141fc8882890161414f565b9450945050604086013567ffffffffffffffff81111561421f5761421e613612565b5b61422b8882890161414f565b92509250509295509295909350565b600080604083850312156142515761425061360d565b5b600061425f85828601613660565b925050602061427085828601613660565b9150509250929050565b600080600080600060a086880312156142965761429561360d565b5b60006142a488828901613660565b95505060206142b588828901613660565b94505060406142c688828901613696565b93505060606142d788828901613696565b925050608086013567ffffffffffffffff8111156142f8576142f7613612565b5b61430488828901613c5b565b9150509295509295909350565b7f455243313135353a2061646472657373207a65726f206973206e6f742061207660008201527f616c6964206f776e657200000000000000000000000000000000000000000000602082015250565b600061436d602a8361385b565b915061437882614311565b604082019050919050565b6000602082019050818103600083015261439c81614360565b9050919050565b600060a0820190506143b860008301886140b4565b6143c560208301876140b4565b6143d260408301866140b4565b6143df60608301856136eb565b6143ec60808301846136eb565b9695505050505050565b7f4e487b7100000000000000000000000000000000000000000000000000000000600052602260045260246000fd5b6000600282049050600182168061443d57607f821691505b6020821081036144505761444f6143f6565b5b50919050565b600081905092915050565b60008190508160005260206000209050919050565b6000815461448381614425565b61448d8186614456565b945060018216600081146144a857600181146144bd576144f0565b60ff19831686528115158202860193506144f0565b6144c685614461565b60005b838110156144e8578154818901526001820191506020810190506144c9565b838801955050505b50505092915050565b600061450482613850565b61450e8185614456565b935061451e81856020860161386c565b80840191505092915050565b60006145368285614476565b915061454282846144f9565b91508190509392505050565b7f4d7573742068617665206d696e74657220726f6c6520746f206d696e74000000600082015250565b6000614584601d8361385b565b915061458f8261454e565b602082019050919050565b600060208201905081810360008301526145b381614577565b9050919050565b60006080820190506145cf60008301876140b4565b6145dc60208301866140b4565b6145e960408301856136eb565b6145f660608301846136eb565b95945050505050565b7f4d75737420686176652061646d696e20726f6c65000000000000000000000000600082015250565b600061463560148361385b565b9150614640826145ff565b602082019050919050565b6000602082019050818103600083015261466481614628565b9050919050565b7f455243313135353a2063616c6c6572206973206e6f7420746f6b656e206f776e60008201527f6572206f7220617070726f766564000000000000000000000000000000000000602082015250565b60006146c7602e8361385b565b91506146d28261466b565b604082019050919050565b600060208201905081810360008301526146f6816146ba565b9050919050565b7f416363657373436f6e74726f6c3a2063616e206f6e6c792072656e6f756e636560008201527f20726f6c657320666f722073656c660000000000000000000000000000000000602082015250565b6000614759602f8361385b565b9150614764826146fd565b604082019050919050565b600060208201905081810360008301526147888161474c565b9050919050565b7f455243313135353a206163636f756e747320616e6420696473206c656e67746860008201527f206d69736d617463680000000000000000000000000000000000000000000000602082015250565b60006147eb60298361385b565b91506147f68261478f565b604082019050919050565b6000602082019050818103600083015261481a816147de565b9050919050565b7f4e487b7100000000000000000000000000000000000000000000000000000000600052603260045260246000fd5b7f4e487b7100000000000000000000000000000000000000000000000000000000600052601160045260246000fd5b600061488a82613675565b91507fffffffffffffffffffffffffffffffffffffffffffffffffffffffffffffffff82036148bc576148bb614850565b5b600182019050919050565b7f4d7573742068617665206275726e657220726f6c650000000000000000000000600082015250565b60006148fd60158361385b565b9150614908826148c7565b602082019050919050565b6000602082019050818103600083015261492c816148f0565b9050919050565b600060808201905061494860008301876140b4565b61495560208301866140b4565b81810360408301526149678185613f7c565b9050818103606083015261497b8184613f7c565b905095945050505050565b7f436f6e74726163742055524920776173206e6f74207365740000000000000000600082015250565b60006149bc60188361385b565b91506149c782614986565b602082019050919050565b600060208201905081810360008301526149eb816149af565b9050919050565b60006020601f8301049050919050565b600082821b905092915050565b600060088302614a3f7fffffffffffffffffffffffffffffffffffffffffffffffffffffffffffffffff82614a02565b614a498683614a02565b95508019841693508086168417925050509392505050565b6000819050919050565b6000614a86614a81614a7c84613675565b614a61565b613675565b9050919050565b6000819050919050565b614aa083614a6b565b614ab4614aac82614a8d565b848454614a0f565b825550505050565b600090565b614ac9614abc565b614ad4818484614a97565b505050565b5b81811015614af857614aed600082614ac1565b600181019050614ada565b5050565b601f821115614b3d57614b0e81614461565b614b17846149f2565b81016020851015614b26578190505b614b3a614b32856149f2565b830182614ad9565b50505b505050565b600082821c905092915050565b6000614b6060001984600802614b42565b1980831691505092915050565b6000614b798383614b4f565b9150826002028217905092915050565b614b9282613850565b67ffffffffffffffff811115614bab57614baa61390c565b5b614bb58254614425565b614bc0828285614afc565b600060209050601f831160018114614bf35760008415614be1578287015190505b614beb8582614b6d565b865550614c53565b601f198416614c0186614461565b60005b82811015614c2957848901518255600182019150602085019450602081019050614c04565b86831015614c465784890151614c42601f891682614b4f565b8355505b6001600288020188555050505b505050505050565b7f4d7573742068617665206d696e74657220726f6c650000000000000000000000600082015250565b6000614c9160158361385b565b9150614c9c82614c5b565b602082019050919050565b60006020820190508181036000830152614cc081614c84565b9050919050565b600080fd5b82818337505050565b6000614ce18385613f27565b93507f07ffffffffffffffffffffffffffffffffffffffffffffffffffffffffffffff831115614d1457614d13614cc7565b5b602083029250614d25838584614ccc565b82840190509392505050565b6000608082019050614d4660008301896140b4565b614d5360208301886140b4565b8181036040830152614d66818688614cd5565b90508181036060830152614d7b818486614cd5565b9050979650505050505050565b7f4f776e61626c653a206e6577206f776e657220697320746865207a65726f206160008201527f6464726573730000000000000000000000000000000000000000000000000000602082015250565b6000614de460268361385b565b9150614def82614d88565b604082019050919050565b60006020820190508181036000830152614e1381614dd7565b9050919050565b7f4d7573742068617665206275726e657220726f6c6520746f206275726e000000600082015250565b6000614e50601d8361385b565b9150614e5b82614e1a565b602082019050919050565b60006020820190508181036000830152614e7f81614e43565b9050919050565b7f455243313135353a207472616e7366657220746f20746865207a65726f20616460008201527f6472657373000000000000000000000000000000000000000000000000000000602082015250565b6000614ee260258361385b565b9150614eed82614e86565b604082019050919050565b60006020820190508181036000830152614f1181614ed5565b9050919050565b7f455243313135353a20696e73756666696369656e742062616c616e636520666f60008201527f72207472616e7366657200000000000000000000000000000000000000000000602082015250565b6000614f74602a8361385b565b9150614f7f82614f18565b604082019050919050565b60006020820190508181036000830152614fa381614f67565b9050919050565b6000614fb582613675565b9150614fc083613675565b9250828201905080821115614fd857614fd7614850565b5b92915050565b6000604082019050614ff360008301856136eb565b61500060208301846136eb565b9392505050565b7f5061757361626c653a2070617573656400000000000000000000000000000000600082015250565b600061503d60108361385b565b915061504882615007565b602082019050919050565b6000602082019050818103600083015261506c81615030565b9050919050565b7f455243313135353a206d696e7420746f20746865207a65726f2061646472657360008201527f7300000000000000000000000000000000000000000000000000000000000000602082015250565b60006150cf60218361385b565b91506150da82615073565b604082019050919050565b600060208201905081810360008301526150fe816150c2565b9050919050565b7f455243313135353a2069647320616e6420616d6f756e7473206c656e6774682060008201527f6d69736d61746368000000000000000000000000000000000000000000000000602082015250565b600061516160288361385b565b915061516c82615105565b604082019050919050565b6000602082019050818103600083015261519081615154565b9050919050565b600060408201905081810360008301526151b18185613f7c565b905081810360208301526151c58184613f7c565b90509392505050565b7f5061757361626c653a206e6f7420706175736564000000000000000000000000600082015250565b600061520460148361385b565b915061520f826151ce565b602082019050919050565b60006020820190508181036000830152615233816151f7565b9050919050565b7f455243313135353a206275726e2066726f6d20746865207a65726f206164647260008201527f6573730000000000000000000000000000000000000000000000000000000000602082015250565b600061529660238361385b565b91506152a18261523a565b604082019050919050565b600060208201905081810360008301526152c581615289565b9050919050565b7f455243313135353a206275726e20616d6f756e7420657863656564732062616c60008201527f616e636500000000000000000000000000000000000000000000000000000000602082015250565b600061532860248361385b565b9150615333826152cc565b604082019050919050565b600060208201905081810360008301526153578161531b565b9050919050565b7f4f776e61626c653a2063616c6c6572206973206e6f7420746865206f776e6572600082015250565b600061539460208361385b565b915061539f8261535e565b602082019050919050565b600060208201905081810360008301526153c381615387565b9050919050565b7f455243313135353a2073657474696e6720617070726f76616c2073746174757360008201527f20666f722073656c660000000000000000000000000000000000000000000000602082015250565b600061542660298361385b565b9150615431826153ca565b604082019050919050565b6000602082019050818103600083015261545581615419565b9050919050565b7f455243313135353a206578636565647320746f74616c537570706c7900000000600082015250565b6000615492601c8361385b565b915061549d8261545c565b602082019050919050565b600060208201905081810360008301526154c181615485565b9050919050565b600081519050919050565b600082825260208201905092915050565b60006154ef826154c8565b6154f981856154d3565b935061550981856020860161386c565b61551281613896565b840191505092915050565b600060a08201905061553260008301886140b4565b61553f60208301876140b4565b61554c60408301866136eb565b61555960608301856136eb565b818103608083015261556b81846154e4565b90509695505050505050565b60008151905061558681613741565b92915050565b6000602082840312156155a2576155a161360d565b5b60006155b084828501615577565b91505092915050565b60008160e01c9050919050565b600060033d11156155e55760046000803e6155e26000516155b9565b90505b90565b600060443d10615675576155fa613603565b60043d036004823e80513d602482011167ffffffffffffffff82111715615622575050615675565b808201805167ffffffffffffffff8111156156405750505050615675565b80602083010160043d03850181111561565d575050505050615675565b61566c8260200185018661393b565b82955050505050505b90565b7f455243313135353a207472616e7366657220746f206e6f6e2d4552433131353560008201527f526563656976657220696d706c656d656e746572000000000000000000000000602082015250565b60006156d460348361385b565b91506156df82615678565b604082019050919050565b60006020820190508181036000830152615703816156c7565b9050919050565b7f455243313135353a204552433131353552656365697665722072656a6563746560008201527f6420746f6b656e73000000000000000000000000000000000000000000000000602082015250565b600061576660288361385b565b91506157718261570a565b604082019050919050565b6000602082019050818103600083015261579581615759565b9050919050565b600060a0820190506157b160008301886140b4565b6157be60208301876140b4565b81810360408301526157d08186613f7c565b905081810360608301526157e48185613f7c565b905081810360808301526157f881846154e4565b90509695505050505050565b7f416363657373436f6e74726f6c3a206163636f756e7420000000000000000000600082015250565b600061583a601783614456565b915061584582615804565b601782019050919050565b7f206973206d697373696e6720726f6c6520000000000000000000000000000000600082015250565b6000615886601183614456565b915061589182615850565b601182019050919050565b60006158a78261582d565b91506158b382856144f9565b91506158be82615879565b91506158ca82846144f9565b91508190509392505050565b60006158e182613675565b91506158ec83613675565b92508282026158fa81613675565b9150828204841483151761591157615910614850565b5b5092915050565b600061592382613675565b91506000820361593657615935614850565b5b600182039050919050565b7f537472696e67733a20686578206c656e67746820696e73756666696369656e74600082015250565b600061597760208361385b565b915061598282615941565b602082019050919050565b600060208201905081810360008301526159a68161596a565b905091905056fea264697066735822122075b3aca34fad5e2798b252b074f37abad7e5c5f8582a3954b291c1719b48ec5564736f6c63430008130033","opcodes":"PUSH1 0x80 PUSH1 0x40 MSTORE PUSH1 0x40 MLOAD DUP1 PUSH1 0x20 ADD PUSH1 0x40 MSTORE DUP1 PUSH1 0x0 DUP2 MSTORE POP PUSH1 0x4 SWAP1 DUP2 PUSH3 0x24 SWAP2 SWAP1 PUSH3 0x722 JUMP JUMPDEST POP CALLVALUE DUP1 ISZERO PUSH3 0x32 JUMPI PUSH1 0x0 DUP1 REVERT JUMPDEST POP PUSH1 0x40 MLOAD PUSH3 0x642B CODESIZE SUB DUP1 PUSH3 0x642B DUP4 CODECOPY DUP2 DUP2 ADD PUSH1 0x40 MSTORE DUP2 ADD SWAP1 PUSH3 0x58 SWAP2 SWAP1 PUSH3 0x9D2 JUMP JUMPDEST DUP2 PUSH3 0x6A DUP2 PUSH3 0x165 PUSH1 0x20 SHL PUSH1 0x20 SHR JUMP JUMPDEST POP PUSH1 0x0 PUSH1 0x6 PUSH1 0x0 PUSH2 0x100 EXP DUP2 SLOAD DUP2 PUSH1 0xFF MUL NOT AND SWAP1 DUP4 ISZERO ISZERO MUL OR SWAP1 SSTORE POP PUSH3 0xA6 PUSH3 0x9A PUSH3 0x17A PUSH1 0x20 SHL PUSH1 0x20 SHR JUMP JUMPDEST PUSH3 0x191 PUSH1 0x20 SHL PUSH1 0x20 SHR JUMP JUMPDEST PUSH3 0xCA PUSH1 0x0 DUP1 SHL PUSH3 0xBE PUSH3 0x17A PUSH1 0x20 SHL PUSH1 0x20 SHR JUMP JUMPDEST PUSH3 0x257 PUSH1 0x20 SHL PUSH1 0x20 SHR JUMP JUMPDEST PUSH3 0x10B PUSH32 0x3C11D16CBAFFD01DF69CE1C404F6340EE057498F5F00246190EA54220576A848 PUSH3 0xFF PUSH3 0x17A PUSH1 0x20 SHL PUSH1 0x20 SHR JUMP JUMPDEST PUSH3 0x257 PUSH1 0x20 SHL PUSH1 0x20 SHR JUMP JUMPDEST PUSH3 0x14C PUSH32 0x9F2DF0FED2C77648DE5860A4CC508CD0818C85B8B8A1AB4CEEEF8D981C8956A6 PUSH3 0x140 PUSH3 0x17A PUSH1 0x20 SHL PUSH1 0x20 SHR JUMP JUMPDEST PUSH3 0x257 PUSH1 0x20 SHL PUSH1 0x20 SHR JUMP JUMPDEST PUSH3 0x15D DUP2 PUSH3 0x26D PUSH1 0x20 SHL PUSH1 0x20 SHR JUMP JUMPDEST POP POP PUSH3 0xA38 JUMP JUMPDEST DUP1 PUSH1 0x3 SWAP1 DUP2 PUSH3 0x176 SWAP2 SWAP1 PUSH3 0x722 JUMP JUMPDEST POP POP JUMP JUMPDEST PUSH1 0x0 PUSH3 0x18C PUSH3 0x2B0 PUSH1 0x20 SHL PUSH1 0x20 SHR JUMP JUMPDEST SWAP1 POP SWAP1 JUMP JUMPDEST PUSH1 0x0 PUSH1 0x8 PUSH1 0x0 SWAP1 SLOAD SWAP1 PUSH2 0x100 EXP SWAP1 DIV PUSH20 0xFFFFFFFFFFFFFFFFFFFFFFFFFFFFFFFFFFFFFFFF AND SWAP1 POP DUP2 PUSH1 0x8 PUSH1 0x0 PUSH2 0x100 EXP DUP2 SLOAD DUP2 PUSH20 0xFFFFFFFFFFFFFFFFFFFFFFFFFFFFFFFFFFFFFFFF MUL NOT AND SWAP1 DUP4 PUSH20 0xFFFFFFFFFFFFFFFFFFFFFFFFFFFFFFFFFFFFFFFF AND MUL OR SWAP1 SSTORE POP DUP2 PUSH20 0xFFFFFFFFFFFFFFFFFFFFFFFFFFFFFFFFFFFFFFFF AND DUP2 PUSH20 0xFFFFFFFFFFFFFFFFFFFFFFFFFFFFFFFFFFFFFFFF AND PUSH32 0x8BE0079C531659141344CD1FD0A4F28419497F9722A3DAAFE3B4186F6B6457E0 PUSH1 0x40 MLOAD PUSH1 0x40 MLOAD DUP1 SWAP2 SUB SWAP1 LOG3 POP POP JUMP JUMPDEST PUSH3 0x269 DUP3 DUP3 PUSH3 0x2F2 PUSH1 0x20 SHL PUSH1 0x20 SHR JUMP JUMPDEST POP POP JUMP JUMPDEST DUP1 PUSH1 0x0 DUP1 PUSH2 0x100 EXP DUP2 SLOAD DUP2 PUSH20 0xFFFFFFFFFFFFFFFFFFFFFFFFFFFFFFFFFFFFFFFF MUL NOT AND SWAP1 DUP4 PUSH20 0xFFFFFFFFFFFFFFFFFFFFFFFFFFFFFFFFFFFFFFFF AND MUL OR SWAP1 SSTORE POP POP JUMP JUMPDEST PUSH1 0x0 PUSH1 0x14 PUSH1 0x0 CALLDATASIZE SWAP1 POP LT ISZERO DUP1 ISZERO PUSH3 0x2D5 JUMPI POP PUSH3 0x2D4 CALLER PUSH3 0x3E4 PUSH1 0x20 SHL PUSH1 0x20 SHR JUMP JUMPDEST JUMPDEST ISZERO PUSH3 0x2EB JUMPI PUSH1 0x14 CALLDATASIZE SUB CALLDATALOAD PUSH1 0x60 SHR SWAP1 POP PUSH3 0x2EF JUMP JUMPDEST CALLER SWAP1 POP JUMPDEST SWAP1 JUMP JUMPDEST PUSH3 0x304 DUP3 DUP3 PUSH3 0x43D PUSH1 0x20 SHL PUSH1 0x20 SHR JUMP JUMPDEST PUSH3 0x3E0 JUMPI PUSH1 0x1 PUSH1 0x7 PUSH1 0x0 DUP5 DUP2 MSTORE PUSH1 0x20 ADD SWAP1 DUP2 MSTORE PUSH1 0x20 ADD PUSH1 0x0 KECCAK256 PUSH1 0x0 ADD PUSH1 0x0 DUP4 PUSH20 0xFFFFFFFFFFFFFFFFFFFFFFFFFFFFFFFFFFFFFFFF AND PUSH20 0xFFFFFFFFFFFFFFFFFFFFFFFFFFFFFFFFFFFFFFFF AND DUP2 MSTORE PUSH1 0x20 ADD SWAP1 DUP2 MSTORE PUSH1 0x20 ADD PUSH1 0x0 KECCAK256 PUSH1 0x0 PUSH2 0x100 EXP DUP2 SLOAD DUP2 PUSH1 0xFF MUL NOT AND SWAP1 DUP4 ISZERO ISZERO MUL OR SWAP1 SSTORE POP PUSH3 0x385 PUSH3 0x17A PUSH1 0x20 SHL PUSH1 0x20 SHR JUMP JUMPDEST PUSH20 0xFFFFFFFFFFFFFFFFFFFFFFFFFFFFFFFFFFFFFFFF AND DUP2 PUSH20 0xFFFFFFFFFFFFFFFFFFFFFFFFFFFFFFFFFFFFFFFF AND DUP4 PUSH32 0x2F8788117E7EFF1D82E926EC794901D17C78024A50270940304540A733656F0D PUSH1 0x40 MLOAD PUSH1 0x40 MLOAD DUP1 SWAP2 SUB SWAP1 LOG4 JUMPDEST POP POP JUMP JUMPDEST PUSH1 0x0 DUP1 PUSH1 0x0 SWAP1 SLOAD SWAP1 PUSH2 0x100 EXP SWAP1 DIV PUSH20 0xFFFFFFFFFFFFFFFFFFFFFFFFFFFFFFFFFFFFFFFF AND PUSH20 0xFFFFFFFFFFFFFFFFFFFFFFFFFFFFFFFFFFFFFFFF AND DUP3 PUSH20 0xFFFFFFFFFFFFFFFFFFFFFFFFFFFFFFFFFFFFFFFF AND EQ SWAP1 POP SWAP2 SWAP1 POP JUMP JUMPDEST PUSH1 0x0 PUSH1 0x7 PUSH1 0x0 DUP5 DUP2 MSTORE PUSH1 0x20 ADD SWAP1 DUP2 MSTORE PUSH1 0x20 ADD PUSH1 0x0 KECCAK256 PUSH1 0x0 ADD PUSH1 0x0 DUP4 PUSH20 0xFFFFFFFFFFFFFFFFFFFFFFFFFFFFFFFFFFFFFFFF AND PUSH20 0xFFFFFFFFFFFFFFFFFFFFFFFFFFFFFFFFFFFFFFFF AND DUP2 MSTORE PUSH1 0x20 ADD SWAP1 DUP2 MSTORE PUSH1 0x20 ADD PUSH1 0x0 KECCAK256 PUSH1 0x0 SWAP1 SLOAD SWAP1 PUSH2 0x100 EXP SWAP1 DIV PUSH1 0xFF AND SWAP1 POP SWAP3 SWAP2 POP POP JUMP JUMPDEST PUSH1 0x0 DUP2 MLOAD SWAP1 POP SWAP2 SWAP1 POP JUMP JUMPDEST PUSH32 0x4E487B7100000000000000000000000000000000000000000000000000000000 PUSH1 0x0 MSTORE PUSH1 0x41 PUSH1 0x4 MSTORE PUSH1 0x24 PUSH1 0x0 REVERT JUMPDEST PUSH32 0x4E487B7100000000000000000000000000000000000000000000000000000000 PUSH1 0x0 MSTORE PUSH1 0x22 PUSH1 0x4 MSTORE PUSH1 0x24 PUSH1 0x0 REVERT JUMPDEST PUSH1 0x0 PUSH1 0x2 DUP3 DIV SWAP1 POP PUSH1 0x1 DUP3 AND DUP1 PUSH3 0x52A JUMPI PUSH1 0x7F DUP3 AND SWAP2 POP JUMPDEST PUSH1 0x20 DUP3 LT DUP2 SUB PUSH3 0x540 JUMPI PUSH3 0x53F PUSH3 0x4E2 JUMP JUMPDEST JUMPDEST POP SWAP2 SWAP1 POP JUMP JUMPDEST PUSH1 0x0 DUP2 SWAP1 POP DUP2 PUSH1 0x0 MSTORE PUSH1 0x20 PUSH1 0x0 KECCAK256 SWAP1 POP SWAP2 SWAP1 POP JUMP JUMPDEST PUSH1 0x0 PUSH1 0x20 PUSH1 0x1F DUP4 ADD DIV SWAP1 POP SWAP2 SWAP1 POP JUMP JUMPDEST PUSH1 0x0 DUP3 DUP3 SHL SWAP1 POP SWAP3 SWAP2 POP POP JUMP JUMPDEST PUSH1 0x0 PUSH1 0x8 DUP4 MUL PUSH3 0x5AA PUSH32 0xFFFFFFFFFFFFFFFFFFFFFFFFFFFFFFFFFFFFFFFFFFFFFFFFFFFFFFFFFFFFFFFF DUP3 PUSH3 0x56B JUMP JUMPDEST PUSH3 0x5B6 DUP7 DUP4 PUSH3 0x56B JUMP JUMPDEST SWAP6 POP DUP1 NOT DUP5 AND SWAP4 POP DUP1 DUP7 AND DUP5 OR SWAP3 POP POP POP SWAP4 SWAP3 POP POP POP JUMP JUMPDEST PUSH1 0x0 DUP2 SWAP1 POP SWAP2 SWAP1 POP JUMP JUMPDEST PUSH1 0x0 DUP2 SWAP1 POP SWAP2 SWAP1 POP JUMP JUMPDEST PUSH1 0x0 PUSH3 0x603 PUSH3 0x5FD PUSH3 0x5F7 DUP5 PUSH3 0x5CE JUMP JUMPDEST PUSH3 0x5D8 JUMP JUMPDEST PUSH3 0x5CE JUMP JUMPDEST SWAP1 POP SWAP2 SWAP1 POP JUMP JUMPDEST PUSH1 0x0 DUP2 SWAP1 POP SWAP2 SWAP1 POP JUMP JUMPDEST PUSH3 0x61F DUP4 PUSH3 0x5E2 JUMP JUMPDEST PUSH3 0x637 PUSH3 0x62E DUP3 PUSH3 0x60A JUMP JUMPDEST DUP5 DUP5 SLOAD PUSH3 0x578 JUMP JUMPDEST DUP3 SSTORE POP POP POP POP JUMP JUMPDEST PUSH1 0x0 SWAP1 JUMP JUMPDEST PUSH3 0x64E PUSH3 0x63F JUMP JUMPDEST PUSH3 0x65B DUP2 DUP5 DUP5 PUSH3 0x614 JUMP JUMPDEST POP POP POP JUMP JUMPDEST JUMPDEST DUP2 DUP2 LT ISZERO PUSH3 0x683 JUMPI PUSH3 0x677 PUSH1 0x0 DUP3 PUSH3 0x644 JUMP JUMPDEST PUSH1 0x1 DUP2 ADD SWAP1 POP PUSH3 0x661 JUMP JUMPDEST POP POP JUMP JUMPDEST PUSH1 0x1F DUP3 GT ISZERO PUSH3 0x6D2 JUMPI PUSH3 0x69C DUP2 PUSH3 0x546 JUMP JUMPDEST PUSH3 0x6A7 DUP5 PUSH3 0x55B JUMP JUMPDEST DUP2 ADD PUSH1 0x20 DUP6 LT ISZERO PUSH3 0x6B7 JUMPI DUP2 SWAP1 POP JUMPDEST PUSH3 0x6CF PUSH3 0x6C6 DUP6 PUSH3 0x55B JUMP JUMPDEST DUP4 ADD DUP3 PUSH3 0x660 JUMP JUMPDEST POP POP JUMPDEST POP POP POP JUMP JUMPDEST PUSH1 0x0 DUP3 DUP3 SHR SWAP1 POP SWAP3 SWAP2 POP POP JUMP JUMPDEST PUSH1 0x0 PUSH3 0x6F7 PUSH1 0x0 NOT DUP5 PUSH1 0x8 MUL PUSH3 0x6D7 JUMP JUMPDEST NOT DUP1 DUP4 AND SWAP2 POP POP SWAP3 SWAP2 POP POP JUMP JUMPDEST PUSH1 0x0 PUSH3 0x712 DUP4 DUP4 PUSH3 0x6E4 JUMP JUMPDEST SWAP2 POP DUP3 PUSH1 0x2 MUL DUP3 OR SWAP1 POP SWAP3 SWAP2 POP POP JUMP JUMPDEST PUSH3 0x72D DUP3 PUSH3 0x4A8 JUMP JUMPDEST PUSH8 0xFFFFFFFFFFFFFFFF DUP2 GT ISZERO PUSH3 0x749 JUMPI PUSH3 0x748 PUSH3 0x4B3 JUMP JUMPDEST JUMPDEST PUSH3 0x755 DUP3 SLOAD PUSH3 0x511 JUMP JUMPDEST PUSH3 0x762 DUP3 DUP3 DUP6 PUSH3 0x687 JUMP JUMPDEST PUSH1 0x0 PUSH1 0x20 SWAP1 POP PUSH1 0x1F DUP4 GT PUSH1 0x1 DUP2 EQ PUSH3 0x79A JUMPI PUSH1 0x0 DUP5 ISZERO PUSH3 0x785 JUMPI DUP3 DUP8 ADD MLOAD SWAP1 POP JUMPDEST PUSH3 0x791 DUP6 DUP3 PUSH3 0x704 JUMP JUMPDEST DUP7 SSTORE POP PUSH3 0x801 JUMP JUMPDEST PUSH1 0x1F NOT DUP5 AND PUSH3 0x7AA DUP7 PUSH3 0x546 JUMP JUMPDEST PUSH1 0x0 JUMPDEST DUP3 DUP2 LT ISZERO PUSH3 0x7D4 JUMPI DUP5 DUP10 ADD MLOAD DUP3 SSTORE PUSH1 0x1 DUP3 ADD SWAP2 POP PUSH1 0x20 DUP6 ADD SWAP5 POP PUSH1 0x20 DUP2 ADD SWAP1 POP PUSH3 0x7AD JUMP JUMPDEST DUP7 DUP4 LT ISZERO PUSH3 0x7F4 JUMPI DUP5 DUP10 ADD MLOAD PUSH3 0x7F0 PUSH1 0x1F DUP10 AND DUP3 PUSH3 0x6E4 JUMP JUMPDEST DUP4 SSTORE POP JUMPDEST PUSH1 0x1 PUSH1 0x2 DUP9 MUL ADD DUP9 SSTORE POP POP POP JUMPDEST POP POP POP POP POP POP JUMP JUMPDEST PUSH1 0x0 PUSH1 0x40 MLOAD SWAP1 POP SWAP1 JUMP JUMPDEST PUSH1 0x0 DUP1 REVERT JUMPDEST PUSH1 0x0 DUP1 REVERT JUMPDEST PUSH1 0x0 DUP1 REVERT JUMPDEST PUSH1 0x0 DUP1 REVERT JUMPDEST PUSH1 0x0 PUSH1 0x1F NOT PUSH1 0x1F DUP4 ADD AND SWAP1 POP SWAP2 SWAP1 POP JUMP JUMPDEST PUSH3 0x843 DUP3 PUSH3 0x827 JUMP JUMPDEST DUP2 ADD DUP2 DUP2 LT PUSH8 0xFFFFFFFFFFFFFFFF DUP3 GT OR ISZERO PUSH3 0x865 JUMPI PUSH3 0x864 PUSH3 0x4B3 JUMP JUMPDEST JUMPDEST DUP1 PUSH1 0x40 MSTORE POP POP POP JUMP JUMPDEST PUSH1 0x0 PUSH3 0x87A PUSH3 0x809 JUMP JUMPDEST SWAP1 POP PUSH3 0x888 DUP3 DUP3 PUSH3 0x838 JUMP JUMPDEST SWAP2 SWAP1 POP JUMP JUMPDEST PUSH1 0x0 PUSH8 0xFFFFFFFFFFFFFFFF DUP3 GT ISZERO PUSH3 0x8AB JUMPI PUSH3 0x8AA PUSH3 0x4B3 JUMP JUMPDEST JUMPDEST PUSH3 0x8B6 DUP3 PUSH3 0x827 JUMP JUMPDEST SWAP1 POP PUSH1 0x20 DUP2 ADD SWAP1 POP SWAP2 SWAP1 POP JUMP JUMPDEST PUSH1 0x0 JUMPDEST DUP4 DUP2 LT ISZERO PUSH3 0x8E3 JUMPI DUP1 DUP3 ADD MLOAD DUP2 DUP5 ADD MSTORE PUSH1 0x20 DUP2 ADD SWAP1 POP PUSH3 0x8C6 JUMP JUMPDEST PUSH1 0x0 DUP5 DUP5 ADD MSTORE POP POP POP POP JUMP JUMPDEST PUSH1 0x0 PUSH3 0x906 PUSH3 0x900 DUP5 PUSH3 0x88D JUMP JUMPDEST PUSH3 0x86E JUMP JUMPDEST SWAP1 POP DUP3 DUP2 MSTORE PUSH1 0x20 DUP2 ADD DUP5 DUP5 DUP5 ADD GT ISZERO PUSH3 0x925 JUMPI PUSH3 0x924 PUSH3 0x822 JUMP JUMPDEST JUMPDEST PUSH3 0x932 DUP5 DUP3 DUP6 PUSH3 0x8C3 JUMP JUMPDEST POP SWAP4 SWAP3 POP POP POP JUMP JUMPDEST PUSH1 0x0 DUP3 PUSH1 0x1F DUP4 ADD SLT PUSH3 0x952 JUMPI PUSH3 0x951 PUSH3 0x81D JUMP JUMPDEST JUMPDEST DUP2 MLOAD PUSH3 0x964 DUP5 DUP3 PUSH1 0x20 DUP7 ADD PUSH3 0x8EF JUMP JUMPDEST SWAP2 POP POP SWAP3 SWAP2 POP POP JUMP JUMPDEST PUSH1 0x0 PUSH20 0xFFFFFFFFFFFFFFFFFFFFFFFFFFFFFFFFFFFFFFFF DUP3 AND SWAP1 POP SWAP2 SWAP1 POP JUMP JUMPDEST PUSH1 0x0 PUSH3 0x99A DUP3 PUSH3 0x96D JUMP JUMPDEST SWAP1 POP SWAP2 SWAP1 POP JUMP JUMPDEST PUSH3 0x9AC DUP2 PUSH3 0x98D JUMP JUMPDEST DUP2 EQ PUSH3 0x9B8 JUMPI PUSH1 0x0 DUP1 REVERT JUMPDEST POP JUMP JUMPDEST PUSH1 0x0 DUP2 MLOAD SWAP1 POP PUSH3 0x9CC DUP2 PUSH3 0x9A1 JUMP JUMPDEST SWAP3 SWAP2 POP POP JUMP JUMPDEST PUSH1 0x0 DUP1 PUSH1 0x40 DUP4 DUP6 SUB SLT ISZERO PUSH3 0x9EC JUMPI PUSH3 0x9EB PUSH3 0x813 JUMP JUMPDEST JUMPDEST PUSH1 0x0 DUP4 ADD MLOAD PUSH8 0xFFFFFFFFFFFFFFFF DUP2 GT ISZERO PUSH3 0xA0D JUMPI PUSH3 0xA0C PUSH3 0x818 JUMP JUMPDEST JUMPDEST PUSH3 0xA1B DUP6 DUP3 DUP7 ADD PUSH3 0x93A JUMP JUMPDEST SWAP3 POP POP PUSH1 0x20 PUSH3 0xA2E DUP6 DUP3 DUP7 ADD PUSH3 0x9BB JUMP JUMPDEST SWAP2 POP POP SWAP3 POP SWAP3 SWAP1 POP JUMP JUMPDEST PUSH2 0x59E3 DUP1 PUSH3 0xA48 PUSH1 0x0 CODECOPY PUSH1 0x0 RETURN INVALID PUSH1 0x80 PUSH1 0x40 MSTORE CALLVALUE DUP1 ISZERO PUSH2 0x10 JUMPI PUSH1 0x0 DUP1 REVERT JUMPDEST POP PUSH1 0x4 CALLDATASIZE LT PUSH2 0x210 JUMPI PUSH1 0x0 CALLDATALOAD PUSH1 0xE0 SHR DUP1 PUSH4 0x6B20C454 GT PUSH2 0x125 JUMPI DUP1 PUSH4 0xCE1B815F GT PUSH2 0xAD JUMPI DUP1 PUSH4 0xE8A3D485 GT PUSH2 0x7C JUMPI DUP1 PUSH4 0xE8A3D485 EQ PUSH2 0x5E7 JUMPI DUP1 PUSH4 0xE985E9C5 EQ PUSH2 0x605 JUMPI DUP1 PUSH4 0xF242432A EQ PUSH2 0x635 JUMPI DUP1 PUSH4 0xF2FDE38B EQ PUSH2 0x651 JUMPI DUP1 PUSH4 0xF5298ACA EQ PUSH2 0x66D JUMPI PUSH2 0x210 JUMP JUMPDEST DUP1 PUSH4 0xCE1B815F EQ PUSH2 0x573 JUMPI DUP1 PUSH4 0xD5391393 EQ PUSH2 0x591 JUMPI DUP1 PUSH4 0xD547741F EQ PUSH2 0x5AF JUMPI DUP1 PUSH4 0xD81D0A15 EQ PUSH2 0x5CB JUMPI PUSH2 0x210 JUMP JUMPDEST DUP1 PUSH4 0x91D14854 GT PUSH2 0xF4 JUMPI DUP1 PUSH4 0x91D14854 EQ PUSH2 0x4BD JUMPI DUP1 PUSH4 0x938E3D7B EQ PUSH2 0x4ED JUMPI DUP1 PUSH4 0xA217FDDF EQ PUSH2 0x509 JUMPI DUP1 PUSH4 0xA22CB465 EQ PUSH2 0x527 JUMPI DUP1 PUSH4 0xBD85B039 EQ PUSH2 0x543 JUMPI PUSH2 0x210 JUMP JUMPDEST DUP1 PUSH4 0x6B20C454 EQ PUSH2 0x46F JUMPI DUP1 PUSH4 0x715018A6 EQ PUSH2 0x48B JUMPI DUP1 PUSH4 0x8456CB59 EQ PUSH2 0x495 JUMPI DUP1 PUSH4 0x8DA5CB5B EQ PUSH2 0x49F JUMPI PUSH2 0x210 JUMP JUMPDEST DUP1 PUSH4 0x2EB2C2D6 GT PUSH2 0x1A8 JUMPI DUP1 PUSH4 0x3F4BA83A GT PUSH2 0x177 JUMPI DUP1 PUSH4 0x3F4BA83A EQ PUSH2 0x3B7 JUMPI DUP1 PUSH4 0x4E1273F4 EQ PUSH2 0x3C1 JUMPI DUP1 PUSH4 0x4F558E79 EQ PUSH2 0x3F1 JUMPI DUP1 PUSH4 0x572B6C05 EQ PUSH2 0x421 JUMPI DUP1 PUSH4 0x5C975ABB EQ PUSH2 0x451 JUMPI PUSH2 0x210 JUMP JUMPDEST DUP1 PUSH4 0x2EB2C2D6 EQ PUSH2 0x347 JUMPI DUP1 PUSH4 0x2F2FF15D EQ PUSH2 0x363 JUMPI DUP1 PUSH4 0x30176E13 EQ PUSH2 0x37F JUMPI DUP1 PUSH4 0x36568ABE EQ PUSH2 0x39B JUMPI PUSH2 0x210 JUMP JUMPDEST DUP1 PUSH4 0x156E29F6 GT PUSH2 0x1E4 JUMPI DUP1 PUSH4 0x156E29F6 EQ PUSH2 0x2C1 JUMPI DUP1 PUSH4 0x162094C4 EQ PUSH2 0x2DD JUMPI DUP1 PUSH4 0x248A9CA3 EQ PUSH2 0x2F9 JUMPI DUP1 PUSH4 0x282C51F3 EQ PUSH2 0x329 JUMPI PUSH2 0x210 JUMP JUMPDEST DUP1 PUSH3 0xFDD58E EQ PUSH2 0x215 JUMPI DUP1 PUSH4 0x1FFC9A7 EQ PUSH2 0x245 JUMPI DUP1 PUSH4 0x95BCDB6 EQ PUSH2 0x275 JUMPI DUP1 PUSH4 0xE89341C EQ PUSH2 0x291 JUMPI JUMPDEST PUSH1 0x0 DUP1 REVERT JUMPDEST PUSH2 0x22F PUSH1 0x4 DUP1 CALLDATASIZE SUB DUP2 ADD SWAP1 PUSH2 0x22A SWAP2 SWAP1 PUSH2 0x36AB JUMP JUMPDEST PUSH2 0x689 JUMP JUMPDEST PUSH1 0x40 MLOAD PUSH2 0x23C SWAP2 SWAP1 PUSH2 0x36FA JUMP JUMPDEST PUSH1 0x40 MLOAD DUP1 SWAP2 SUB SWAP1 RETURN JUMPDEST PUSH2 0x25F PUSH1 0x4 DUP1 CALLDATASIZE SUB DUP2 ADD SWAP1 PUSH2 0x25A SWAP2 SWAP1 PUSH2 0x376D JUMP JUMPDEST PUSH2 0x752 JUMP JUMPDEST PUSH1 0x40 MLOAD PUSH2 0x26C SWAP2 SWAP1 PUSH2 0x37B5 JUMP JUMPDEST PUSH1 0x40 MLOAD DUP1 SWAP2 SUB SWAP1 RETURN JUMPDEST PUSH2 0x28F PUSH1 0x4 DUP1 CALLDATASIZE SUB DUP2 ADD SWAP1 PUSH2 0x28A SWAP2 SWAP1 PUSH2 0x37D0 JUMP JUMPDEST PUSH2 0x764 JUMP JUMPDEST STOP JUMPDEST PUSH2 0x2AB PUSH1 0x4 DUP1 CALLDATASIZE SUB DUP2 ADD SWAP1 PUSH2 0x2A6 SWAP2 SWAP1 PUSH2 0x3823 JUMP JUMPDEST PUSH2 0x7CD JUMP JUMPDEST PUSH1 0x40 MLOAD PUSH2 0x2B8 SWAP2 SWAP1 PUSH2 0x38E0 JUMP JUMPDEST PUSH1 0x40 MLOAD DUP1 SWAP2 SUB SWAP1 RETURN JUMPDEST PUSH2 0x2DB PUSH1 0x4 DUP1 CALLDATASIZE SUB DUP2 ADD SWAP1 PUSH2 0x2D6 SWAP2 SWAP1 PUSH2 0x37D0 JUMP JUMPDEST PUSH2 0x8B2 JUMP JUMPDEST STOP JUMPDEST PUSH2 0x2F7 PUSH1 0x4 DUP1 CALLDATASIZE SUB DUP2 ADD SWAP1 PUSH2 0x2F2 SWAP2 SWAP1 PUSH2 0x3A37 JUMP JUMPDEST PUSH2 0x98E JUMP JUMPDEST STOP JUMPDEST PUSH2 0x313 PUSH1 0x4 DUP1 CALLDATASIZE SUB DUP2 ADD SWAP1 PUSH2 0x30E SWAP2 SWAP1 PUSH2 0x3AC9 JUMP JUMPDEST PUSH2 0x9EF JUMP JUMPDEST PUSH1 0x40 MLOAD PUSH2 0x320 SWAP2 SWAP1 PUSH2 0x3B05 JUMP JUMPDEST PUSH1 0x40 MLOAD DUP1 SWAP2 SUB SWAP1 RETURN JUMPDEST PUSH2 0x331 PUSH2 0xA0F JUMP JUMPDEST PUSH1 0x40 MLOAD PUSH2 0x33E SWAP2 SWAP1 PUSH2 0x3B05 JUMP JUMPDEST PUSH1 0x40 MLOAD DUP1 SWAP2 SUB SWAP1 RETURN JUMPDEST PUSH2 0x361 PUSH1 0x4 DUP1 CALLDATASIZE SUB DUP2 ADD SWAP1 PUSH2 0x35C SWAP2 SWAP1 PUSH2 0x3C89 JUMP JUMPDEST PUSH2 0xA33 JUMP JUMPDEST STOP JUMPDEST PUSH2 0x37D PUSH1 0x4 DUP1 CALLDATASIZE SUB DUP2 ADD SWAP1 PUSH2 0x378 SWAP2 SWAP1 PUSH2 0x3D58 JUMP JUMPDEST PUSH2 0xAD4 JUMP JUMPDEST STOP JUMPDEST PUSH2 0x399 PUSH1 0x4 DUP1 CALLDATASIZE SUB DUP2 ADD SWAP1 PUSH2 0x394 SWAP2 SWAP1 PUSH2 0x3D98 JUMP JUMPDEST PUSH2 0xAF5 JUMP JUMPDEST STOP JUMPDEST PUSH2 0x3B5 PUSH1 0x4 DUP1 CALLDATASIZE SUB DUP2 ADD SWAP1 PUSH2 0x3B0 SWAP2 SWAP1 PUSH2 0x3D58 JUMP JUMPDEST PUSH2 0xB54 JUMP JUMPDEST STOP JUMPDEST PUSH2 0x3BF PUSH2 0xBD7 JUMP JUMPDEST STOP JUMPDEST PUSH2 0x3DB PUSH1 0x4 DUP1 CALLDATASIZE SUB DUP2 ADD SWAP1 PUSH2 0x3D6 SWAP2 SWAP1 PUSH2 0x3EA4 JUMP JUMPDEST PUSH2 0xC3C JUMP JUMPDEST PUSH1 0x40 MLOAD PUSH2 0x3E8 SWAP2 SWAP1 PUSH2 0x3FDA JUMP JUMPDEST PUSH1 0x40 MLOAD DUP1 SWAP2 SUB SWAP1 RETURN JUMPDEST PUSH2 0x40B PUSH1 0x4 DUP1 CALLDATASIZE SUB DUP2 ADD SWAP1 PUSH2 0x406 SWAP2 SWAP1 PUSH2 0x3823 JUMP JUMPDEST PUSH2 0xD55 JUMP JUMPDEST PUSH1 0x40 MLOAD PUSH2 0x418 SWAP2 SWAP1 PUSH2 0x37B5 JUMP JUMPDEST PUSH1 0x40 MLOAD DUP1 SWAP2 SUB SWAP1 RETURN JUMPDEST PUSH2 0x43B PUSH1 0x4 DUP1 CALLDATASIZE SUB DUP2 ADD SWAP1 PUSH2 0x436 SWAP2 SWAP1 PUSH2 0x3FFC JUMP JUMPDEST PUSH2 0xD69 JUMP JUMPDEST PUSH1 0x40 MLOAD PUSH2 0x448 SWAP2 SWAP1 PUSH2 0x37B5 JUMP JUMPDEST PUSH1 0x40 MLOAD DUP1 SWAP2 SUB SWAP1 RETURN JUMPDEST PUSH2 0x459 PUSH2 0xDC2 JUMP JUMPDEST PUSH1 0x40 MLOAD PUSH2 0x466 SWAP2 SWAP1 PUSH2 0x37B5 JUMP JUMPDEST PUSH1 0x40 MLOAD DUP1 SWAP2 SUB SWAP1 RETURN JUMPDEST PUSH2 0x489 PUSH1 0x4 DUP1 CALLDATASIZE SUB DUP2 ADD SWAP1 PUSH2 0x484 SWAP2 SWAP1 PUSH2 0x4029 JUMP JUMPDEST PUSH2 0xDD9 JUMP JUMPDEST STOP JUMPDEST PUSH2 0x493 PUSH2 0xEA5 JUMP JUMPDEST STOP JUMPDEST PUSH2 0x49D PUSH2 0xEB9 JUMP JUMPDEST STOP JUMPDEST PUSH2 0x4A7 PUSH2 0xF1E JUMP JUMPDEST PUSH1 0x40 MLOAD PUSH2 0x4B4 SWAP2 SWAP1 PUSH2 0x40C3 JUMP JUMPDEST PUSH1 0x40 MLOAD DUP1 SWAP2 SUB SWAP1 RETURN JUMPDEST PUSH2 0x4D7 PUSH1 0x4 DUP1 CALLDATASIZE SUB DUP2 ADD SWAP1 PUSH2 0x4D2 SWAP2 SWAP1 PUSH2 0x3D58 JUMP JUMPDEST PUSH2 0xF48 JUMP JUMPDEST PUSH1 0x40 MLOAD PUSH2 0x4E4 SWAP2 SWAP1 PUSH2 0x37B5 JUMP JUMPDEST PUSH1 0x40 MLOAD DUP1 SWAP2 SUB SWAP1 RETURN JUMPDEST PUSH2 0x507 PUSH1 0x4 DUP1 CALLDATASIZE SUB DUP2 ADD SWAP1 PUSH2 0x502 SWAP2 SWAP1 PUSH2 0x3D98 JUMP JUMPDEST PUSH2 0xFB3 JUMP JUMPDEST STOP JUMPDEST PUSH2 0x511 PUSH2 0x1018 JUMP JUMPDEST PUSH1 0x40 MLOAD PUSH2 0x51E SWAP2 SWAP1 PUSH2 0x3B05 JUMP JUMPDEST PUSH1 0x40 MLOAD DUP1 SWAP2 SUB SWAP1 RETURN JUMPDEST PUSH2 0x541 PUSH1 0x4 DUP1 CALLDATASIZE SUB DUP2 ADD SWAP1 PUSH2 0x53C SWAP2 SWAP1 PUSH2 0x410A JUMP JUMPDEST PUSH2 0x101F JUMP JUMPDEST STOP JUMPDEST PUSH2 0x55D PUSH1 0x4 DUP1 CALLDATASIZE SUB DUP2 ADD SWAP1 PUSH2 0x558 SWAP2 SWAP1 PUSH2 0x3823 JUMP JUMPDEST PUSH2 0x1035 JUMP JUMPDEST PUSH1 0x40 MLOAD PUSH2 0x56A SWAP2 SWAP1 PUSH2 0x36FA JUMP JUMPDEST PUSH1 0x40 MLOAD DUP1 SWAP2 SUB SWAP1 RETURN JUMPDEST PUSH2 0x57B PUSH2 0x1052 JUMP JUMPDEST PUSH1 0x40 MLOAD PUSH2 0x588 SWAP2 SWAP1 PUSH2 0x40C3 JUMP JUMPDEST PUSH1 0x40 MLOAD DUP1 SWAP2 SUB SWAP1 RETURN JUMPDEST PUSH2 0x599 PUSH2 0x107B JUMP JUMPDEST PUSH1 0x40 MLOAD PUSH2 0x5A6 SWAP2 SWAP1 PUSH2 0x3B05 JUMP JUMPDEST PUSH1 0x40 MLOAD DUP1 SWAP2 SUB SWAP1 RETURN JUMPDEST PUSH2 0x5C9 PUSH1 0x4 DUP1 CALLDATASIZE SUB DUP2 ADD SWAP1 PUSH2 0x5C4 SWAP2 SWAP1 PUSH2 0x3D58 JUMP JUMPDEST PUSH2 0x109F JUMP JUMPDEST STOP JUMPDEST PUSH2 0x5E5 PUSH1 0x4 DUP1 CALLDATASIZE SUB DUP2 ADD SWAP1 PUSH2 0x5E0 SWAP2 SWAP1 PUSH2 0x41A5 JUMP JUMPDEST PUSH2 0x10C0 JUMP JUMPDEST STOP JUMPDEST PUSH2 0x5EF PUSH2 0x1224 JUMP JUMPDEST PUSH1 0x40 MLOAD PUSH2 0x5FC SWAP2 SWAP1 PUSH2 0x38E0 JUMP JUMPDEST PUSH1 0x40 MLOAD DUP1 SWAP2 SUB SWAP1 RETURN JUMPDEST PUSH2 0x61F PUSH1 0x4 DUP1 CALLDATASIZE SUB DUP2 ADD SWAP1 PUSH2 0x61A SWAP2 SWAP1 PUSH2 0x423A JUMP JUMPDEST PUSH2 0x12B6 JUMP JUMPDEST PUSH1 0x40 MLOAD PUSH2 0x62C SWAP2 SWAP1 PUSH2 0x37B5 JUMP JUMPDEST PUSH1 0x40 MLOAD DUP1 SWAP2 SUB SWAP1 RETURN JUMPDEST PUSH2 0x64F PUSH1 0x4 DUP1 CALLDATASIZE SUB DUP2 ADD SWAP1 PUSH2 0x64A SWAP2 SWAP1 PUSH2 0x427A JUMP JUMPDEST PUSH2 0x134A JUMP JUMPDEST STOP JUMPDEST PUSH2 0x66B PUSH1 0x4 DUP1 CALLDATASIZE SUB DUP2 ADD SWAP1 PUSH2 0x666 SWAP2 SWAP1 PUSH2 0x3FFC JUMP JUMPDEST PUSH2 0x13EB JUMP JUMPDEST STOP JUMPDEST PUSH2 0x687 PUSH1 0x4 DUP1 CALLDATASIZE SUB DUP2 ADD SWAP1 PUSH2 0x682 SWAP2 SWAP1 PUSH2 0x37D0 JUMP JUMPDEST PUSH2 0x146E JUMP JUMPDEST STOP JUMPDEST PUSH1 0x0 DUP1 PUSH20 0xFFFFFFFFFFFFFFFFFFFFFFFFFFFFFFFFFFFFFFFF AND DUP4 PUSH20 0xFFFFFFFFFFFFFFFFFFFFFFFFFFFFFFFFFFFFFFFF AND SUB PUSH2 0x6F9 JUMPI PUSH1 0x40 MLOAD PUSH32 0x8C379A000000000000000000000000000000000000000000000000000000000 DUP2 MSTORE PUSH1 0x4 ADD PUSH2 0x6F0 SWAP1 PUSH2 0x4383 JUMP JUMPDEST PUSH1 0x40 MLOAD DUP1 SWAP2 SUB SWAP1 REVERT JUMPDEST PUSH1 0x1 PUSH1 0x0 DUP4 DUP2 MSTORE PUSH1 0x20 ADD SWAP1 DUP2 MSTORE PUSH1 0x20 ADD PUSH1 0x0 KECCAK256 PUSH1 0x0 DUP5 PUSH20 0xFFFFFFFFFFFFFFFFFFFFFFFFFFFFFFFFFFFFFFFF AND PUSH20 0xFFFFFFFFFFFFFFFFFFFFFFFFFFFFFFFFFFFFFFFF AND DUP2 MSTORE PUSH1 0x20 ADD SWAP1 DUP2 MSTORE PUSH1 0x20 ADD PUSH1 0x0 KECCAK256 SLOAD SWAP1 POP SWAP3 SWAP2 POP POP JUMP JUMPDEST PUSH1 0x0 PUSH2 0x75D DUP3 PUSH2 0x153A JUMP JUMPDEST SWAP1 POP SWAP2 SWAP1 POP JUMP JUMPDEST PUSH1 0x60 PUSH2 0x77A PUSH2 0x771 PUSH2 0x15B4 JUMP JUMPDEST DUP6 DUP6 DUP6 DUP6 PUSH2 0x15C3 JUMP JUMPDEST PUSH32 0x77F47DD954D0CE02FC992A77A1808AC0A8DE2FE04E61A44D8136ADAD2D11B7EC PUSH2 0x7A3 PUSH2 0x15B4 JUMP JUMPDEST PUSH2 0x7AB PUSH2 0x15B4 JUMP JUMPDEST DUP7 DUP7 DUP7 PUSH1 0x40 MLOAD PUSH2 0x7BF SWAP6 SWAP5 SWAP4 SWAP3 SWAP2 SWAP1 PUSH2 0x43A3 JUMP JUMPDEST PUSH1 0x40 MLOAD DUP1 SWAP2 SUB SWAP1 LOG1 POP POP POP POP JUMP JUMPDEST PUSH1 0x60 PUSH1 0x0 PUSH1 0x5 PUSH1 0x0 DUP5 DUP2 MSTORE PUSH1 0x20 ADD SWAP1 DUP2 MSTORE PUSH1 0x20 ADD PUSH1 0x0 KECCAK256 DUP1 SLOAD PUSH2 0x7EF SWAP1 PUSH2 0x4425 JUMP JUMPDEST DUP1 PUSH1 0x1F ADD PUSH1 0x20 DUP1 SWAP2 DIV MUL PUSH1 0x20 ADD PUSH1 0x40 MLOAD SWAP1 DUP2 ADD PUSH1 0x40 MSTORE DUP1 SWAP3 SWAP2 SWAP1 DUP2 DUP2 MSTORE PUSH1 0x20 ADD DUP3 DUP1 SLOAD PUSH2 0x81B SWAP1 PUSH2 0x4425 JUMP JUMPDEST DUP1 ISZERO PUSH2 0x868 JUMPI DUP1 PUSH1 0x1F LT PUSH2 0x83D JUMPI PUSH2 0x100 DUP1 DUP4 SLOAD DIV MUL DUP4 MSTORE SWAP2 PUSH1 0x20 ADD SWAP2 PUSH2 0x868 JUMP JUMPDEST DUP3 ADD SWAP2 SWAP1 PUSH1 0x0 MSTORE PUSH1 0x20 PUSH1 0x0 KECCAK256 SWAP1 JUMPDEST DUP2 SLOAD DUP2 MSTORE SWAP1 PUSH1 0x1 ADD SWAP1 PUSH1 0x20 ADD DUP1 DUP4 GT PUSH2 0x84B JUMPI DUP3 SWAP1 SUB PUSH1 0x1F AND DUP3 ADD SWAP2 JUMPDEST POP POP POP POP POP SWAP1 POP PUSH1 0x0 DUP2 MLOAD GT PUSH2 0x886 JUMPI PUSH2 0x881 DUP4 PUSH2 0x1861 JUMP JUMPDEST PUSH2 0x8AA JUMP JUMPDEST PUSH1 0x4 DUP2 PUSH1 0x40 MLOAD PUSH1 0x20 ADD PUSH2 0x89A SWAP3 SWAP2 SWAP1 PUSH2 0x452A JUMP JUMPDEST PUSH1 0x40 MLOAD PUSH1 0x20 DUP2 DUP4 SUB SUB DUP2 MSTORE SWAP1 PUSH1 0x40 MSTORE JUMPDEST SWAP2 POP POP SWAP2 SWAP1 POP JUMP JUMPDEST PUSH2 0x8BA PUSH2 0x18F5 JUMP JUMPDEST PUSH2 0x8EB PUSH32 0x9F2DF0FED2C77648DE5860A4CC508CD0818C85B8B8A1AB4CEEEF8D981C8956A6 PUSH2 0x8E6 PUSH2 0x15B4 JUMP JUMPDEST PUSH2 0xF48 JUMP JUMPDEST PUSH2 0x92A JUMPI PUSH1 0x40 MLOAD PUSH32 0x8C379A000000000000000000000000000000000000000000000000000000000 DUP2 MSTORE PUSH1 0x4 ADD PUSH2 0x921 SWAP1 PUSH2 0x459A JUMP JUMPDEST PUSH1 0x40 MLOAD DUP1 SWAP2 SUB SWAP1 REVERT JUMPDEST PUSH2 0x945 DUP4 DUP4 DUP4 PUSH1 0x40 MLOAD DUP1 PUSH1 0x20 ADD PUSH1 0x40 MSTORE DUP1 PUSH1 0x0 DUP2 MSTORE POP PUSH2 0x193F JUMP JUMPDEST PUSH32 0x3F17D66AD3BF18E9412EB06582908831508CDB9B8DA9CDDB1431F645A5B8632 PUSH2 0x96E PUSH2 0x15B4 JUMP JUMPDEST DUP5 DUP5 DUP5 PUSH1 0x40 MLOAD PUSH2 0x981 SWAP5 SWAP4 SWAP3 SWAP2 SWAP1 PUSH2 0x45BA JUMP JUMPDEST PUSH1 0x40 MLOAD DUP1 SWAP2 SUB SWAP1 LOG1 POP POP POP JUMP JUMPDEST PUSH2 0x9A2 PUSH1 0x0 DUP1 SHL PUSH2 0x99D PUSH2 0x15B4 JUMP JUMPDEST PUSH2 0xF48 JUMP JUMPDEST PUSH2 0x9E1 JUMPI PUSH1 0x40 MLOAD PUSH32 0x8C379A000000000000000000000000000000000000000000000000000000000 DUP2 MSTORE PUSH1 0x4 ADD PUSH2 0x9D8 SWAP1 PUSH2 0x464B JUMP JUMPDEST PUSH1 0x40 MLOAD DUP1 SWAP2 SUB SWAP1 REVERT JUMPDEST PUSH2 0x9EB DUP3 DUP3 PUSH2 0x1AF0 JUMP JUMPDEST POP POP JUMP JUMPDEST PUSH1 0x0 PUSH1 0x7 PUSH1 0x0 DUP4 DUP2 MSTORE PUSH1 0x20 ADD SWAP1 DUP2 MSTORE PUSH1 0x20 ADD PUSH1 0x0 KECCAK256 PUSH1 0x1 ADD SLOAD SWAP1 POP SWAP2 SWAP1 POP JUMP JUMPDEST PUSH32 0x3C11D16CBAFFD01DF69CE1C404F6340EE057498F5F00246190EA54220576A848 DUP2 JUMP JUMPDEST PUSH2 0xA3B PUSH2 0x15B4 JUMP JUMPDEST PUSH20 0xFFFFFFFFFFFFFFFFFFFFFFFFFFFFFFFFFFFFFFFF AND DUP6 PUSH20 0xFFFFFFFFFFFFFFFFFFFFFFFFFFFFFFFFFFFFFFFF AND EQ DUP1 PUSH2 0xA81 JUMPI POP PUSH2 0xA80 DUP6 PUSH2 0xA7B PUSH2 0x15B4 JUMP JUMPDEST PUSH2 0x12B6 JUMP JUMPDEST JUMPDEST PUSH2 0xAC0 JUMPI PUSH1 0x40 MLOAD PUSH32 0x8C379A000000000000000000000000000000000000000000000000000000000 DUP2 MSTORE PUSH1 0x4 ADD PUSH2 0xAB7 SWAP1 PUSH2 0x46DD JUMP JUMPDEST PUSH1 0x40 MLOAD DUP1 SWAP2 SUB SWAP1 REVERT JUMPDEST PUSH2 0xACD DUP6 DUP6 DUP6 DUP6 DUP6 PUSH2 0x1B55 JUMP JUMPDEST POP POP POP POP POP JUMP JUMPDEST PUSH2 0xADD DUP3 PUSH2 0x9EF JUMP JUMPDEST PUSH2 0xAE6 DUP2 PUSH2 0x1E79 JUMP JUMPDEST PUSH2 0xAF0 DUP4 DUP4 PUSH2 0x1E8D JUMP JUMPDEST POP POP POP JUMP JUMPDEST PUSH2 0xB09 PUSH1 0x0 DUP1 SHL PUSH2 0xB04 PUSH2 0x15B4 JUMP JUMPDEST PUSH2 0xF48 JUMP JUMPDEST PUSH2 0xB48 JUMPI PUSH1 0x40 MLOAD PUSH32 0x8C379A000000000000000000000000000000000000000000000000000000000 DUP2 MSTORE PUSH1 0x4 ADD PUSH2 0xB3F SWAP1 PUSH2 0x464B JUMP JUMPDEST PUSH1 0x40 MLOAD DUP1 SWAP2 SUB SWAP1 REVERT JUMPDEST PUSH2 0xB51 DUP2 PUSH2 0x1F6E JUMP JUMPDEST POP JUMP JUMPDEST PUSH2 0xB5C PUSH2 0x15B4 JUMP JUMPDEST PUSH20 0xFFFFFFFFFFFFFFFFFFFFFFFFFFFFFFFFFFFFFFFF AND DUP2 PUSH20 0xFFFFFFFFFFFFFFFFFFFFFFFFFFFFFFFFFFFFFFFF AND EQ PUSH2 0xBC9 JUMPI PUSH1 0x40 MLOAD PUSH32 0x8C379A000000000000000000000000000000000000000000000000000000000 DUP2 MSTORE PUSH1 0x4 ADD PUSH2 0xBC0 SWAP1 PUSH2 0x476F JUMP JUMPDEST PUSH1 0x40 MLOAD DUP1 SWAP2 SUB SWAP1 REVERT JUMPDEST PUSH2 0xBD3 DUP3 DUP3 PUSH2 0x1F81 JUMP JUMPDEST POP POP JUMP JUMPDEST PUSH2 0xBDF PUSH2 0x2063 JUMP JUMPDEST PUSH2 0xBF3 PUSH1 0x0 DUP1 SHL PUSH2 0xBEE PUSH2 0x15B4 JUMP JUMPDEST PUSH2 0xF48 JUMP JUMPDEST PUSH2 0xC32 JUMPI PUSH1 0x40 MLOAD PUSH32 0x8C379A000000000000000000000000000000000000000000000000000000000 DUP2 MSTORE PUSH1 0x4 ADD PUSH2 0xC29 SWAP1 PUSH2 0x464B JUMP JUMPDEST PUSH1 0x40 MLOAD DUP1 SWAP2 SUB SWAP1 REVERT JUMPDEST PUSH2 0xC3A PUSH2 0x20AC JUMP JUMPDEST JUMP JUMPDEST PUSH1 0x60 DUP2 MLOAD DUP4 MLOAD EQ PUSH2 0xC82 JUMPI PUSH1 0x40 MLOAD PUSH32 0x8C379A000000000000000000000000000000000000000000000000000000000 DUP2 MSTORE PUSH1 0x4 ADD PUSH2 0xC79 SWAP1 PUSH2 0x4801 JUMP JUMPDEST PUSH1 0x40 MLOAD DUP1 SWAP2 SUB SWAP1 REVERT JUMPDEST PUSH1 0x0 DUP4 MLOAD PUSH8 0xFFFFFFFFFFFFFFFF DUP2 GT ISZERO PUSH2 0xC9F JUMPI PUSH2 0xC9E PUSH2 0x390C JUMP JUMPDEST JUMPDEST PUSH1 0x40 MLOAD SWAP1 DUP1 DUP3 MSTORE DUP1 PUSH1 0x20 MUL PUSH1 0x20 ADD DUP3 ADD PUSH1 0x40 MSTORE DUP1 ISZERO PUSH2 0xCCD JUMPI DUP2 PUSH1 0x20 ADD PUSH1 0x20 DUP3 MUL DUP1 CALLDATASIZE DUP4 CALLDATACOPY DUP1 DUP3 ADD SWAP2 POP POP SWAP1 POP JUMPDEST POP SWAP1 POP PUSH1 0x0 JUMPDEST DUP5 MLOAD DUP2 LT ISZERO PUSH2 0xD4A JUMPI PUSH2 0xD1A DUP6 DUP3 DUP2 MLOAD DUP2 LT PUSH2 0xCF2 JUMPI PUSH2 0xCF1 PUSH2 0x4821 JUMP JUMPDEST JUMPDEST PUSH1 0x20 MUL PUSH1 0x20 ADD ADD MLOAD DUP6 DUP4 DUP2 MLOAD DUP2 LT PUSH2 0xD0D JUMPI PUSH2 0xD0C PUSH2 0x4821 JUMP JUMPDEST JUMPDEST PUSH1 0x20 MUL PUSH1 0x20 ADD ADD MLOAD PUSH2 0x689 JUMP JUMPDEST DUP3 DUP3 DUP2 MLOAD DUP2 LT PUSH2 0xD2D JUMPI PUSH2 0xD2C PUSH2 0x4821 JUMP JUMPDEST JUMPDEST PUSH1 0x20 MUL PUSH1 0x20 ADD ADD DUP2 DUP2 MSTORE POP POP DUP1 PUSH2 0xD43 SWAP1 PUSH2 0x487F JUMP JUMPDEST SWAP1 POP PUSH2 0xCD3 JUMP JUMPDEST POP DUP1 SWAP2 POP POP SWAP3 SWAP2 POP POP JUMP JUMPDEST PUSH1 0x0 DUP1 PUSH2 0xD61 DUP4 PUSH2 0x1035 JUMP JUMPDEST GT SWAP1 POP SWAP2 SWAP1 POP JUMP JUMPDEST PUSH1 0x0 DUP1 PUSH1 0x0 SWAP1 SLOAD SWAP1 PUSH2 0x100 EXP SWAP1 DIV PUSH20 0xFFFFFFFFFFFFFFFFFFFFFFFFFFFFFFFFFFFFFFFF AND PUSH20 0xFFFFFFFFFFFFFFFFFFFFFFFFFFFFFFFFFFFFFFFF AND DUP3 PUSH20 0xFFFFFFFFFFFFFFFFFFFFFFFFFFFFFFFFFFFFFFFF AND EQ SWAP1 POP SWAP2 SWAP1 POP JUMP JUMPDEST PUSH1 0x0 PUSH1 0x6 PUSH1 0x0 SWAP1 SLOAD SWAP1 PUSH2 0x100 EXP SWAP1 DIV PUSH1 0xFF AND SWAP1 POP SWAP1 JUMP JUMPDEST PUSH2 0xDE1 PUSH2 0x18F5 JUMP JUMPDEST PUSH2 0xE12 PUSH32 0x3C11D16CBAFFD01DF69CE1C404F6340EE057498F5F00246190EA54220576A848 PUSH2 0xE0D PUSH2 0x15B4 JUMP JUMPDEST PUSH2 0xF48 JUMP JUMPDEST PUSH2 0xE51 JUMPI PUSH1 0x40 MLOAD PUSH32 0x8C379A000000000000000000000000000000000000000000000000000000000 DUP2 MSTORE PUSH1 0x4 ADD PUSH2 0xE48 SWAP1 PUSH2 0x4913 JUMP JUMPDEST PUSH1 0x40 MLOAD DUP1 SWAP2 SUB SWAP1 REVERT JUMPDEST PUSH2 0xE5C DUP4 DUP4 DUP4 PUSH2 0x210F JUMP JUMPDEST PUSH32 0x2D733E8161FE4CCD0A3D4047A11A32419A7B2583EE907A5F5EEB06DB08A2AEC4 PUSH2 0xE85 PUSH2 0x15B4 JUMP JUMPDEST DUP5 DUP5 DUP5 PUSH1 0x40 MLOAD PUSH2 0xE98 SWAP5 SWAP4 SWAP3 SWAP2 SWAP1 PUSH2 0x4933 JUMP JUMPDEST PUSH1 0x40 MLOAD DUP1 SWAP2 SUB SWAP1 LOG1 POP POP POP JUMP JUMPDEST PUSH2 0xEAD PUSH2 0x23DF JUMP JUMPDEST PUSH2 0xEB7 PUSH1 0x0 PUSH2 0x245D JUMP JUMPDEST JUMP JUMPDEST PUSH2 0xEC1 PUSH2 0x18F5 JUMP JUMPDEST PUSH2 0xED5 PUSH1 0x0 DUP1 SHL PUSH2 0xED0 PUSH2 0x15B4 JUMP JUMPDEST PUSH2 0xF48 JUMP JUMPDEST PUSH2 0xF14 JUMPI PUSH1 0x40 MLOAD PUSH32 0x8C379A000000000000000000000000000000000000000000000000000000000 DUP2 MSTORE PUSH1 0x4 ADD PUSH2 0xF0B SWAP1 PUSH2 0x464B JUMP JUMPDEST PUSH1 0x40 MLOAD DUP1 SWAP2 SUB SWAP1 REVERT JUMPDEST PUSH2 0xF1C PUSH2 0x2523 JUMP JUMPDEST JUMP JUMPDEST PUSH1 0x0 PUSH1 0x8 PUSH1 0x0 SWAP1 SLOAD SWAP1 PUSH2 0x100 EXP SWAP1 DIV PUSH20 0xFFFFFFFFFFFFFFFFFFFFFFFFFFFFFFFFFFFFFFFF AND SWAP1 POP SWAP1 JUMP JUMPDEST PUSH1 0x0 PUSH1 0x7 PUSH1 0x0 DUP5 DUP2 MSTORE PUSH1 0x20 ADD SWAP1 DUP2 MSTORE PUSH1 0x20 ADD PUSH1 0x0 KECCAK256 PUSH1 0x0 ADD PUSH1 0x0 DUP4 PUSH20 0xFFFFFFFFFFFFFFFFFFFFFFFFFFFFFFFFFFFFFFFF AND PUSH20 0xFFFFFFFFFFFFFFFFFFFFFFFFFFFFFFFFFFFFFFFF AND DUP2 MSTORE PUSH1 0x20 ADD SWAP1 DUP2 MSTORE PUSH1 0x20 ADD PUSH1 0x0 KECCAK256 PUSH1 0x0 SWAP1 SLOAD SWAP1 PUSH2 0x100 EXP SWAP1 DIV PUSH1 0xFF AND SWAP1 POP SWAP3 SWAP2 POP POP JUMP JUMPDEST PUSH1 0x0 DUP1 SHL PUSH2 0xFC0 DUP2 PUSH2 0x1E79 JUMP JUMPDEST PUSH1 0x0 DUP3 MLOAD GT PUSH2 0x1004 JUMPI PUSH1 0x40 MLOAD PUSH32 0x8C379A000000000000000000000000000000000000000000000000000000000 DUP2 MSTORE PUSH1 0x4 ADD PUSH2 0xFFB SWAP1 PUSH2 0x49D2 JUMP JUMPDEST PUSH1 0x40 MLOAD DUP1 SWAP2 SUB SWAP1 REVERT JUMPDEST DUP2 PUSH1 0xA SWAP1 DUP2 PUSH2 0x1013 SWAP2 SWAP1 PUSH2 0x4B89 JUMP JUMPDEST POP POP POP JUMP JUMPDEST PUSH1 0x0 DUP1 SHL DUP2 JUMP JUMPDEST PUSH2 0x1031 PUSH2 0x102A PUSH2 0x15B4 JUMP JUMPDEST DUP4 DUP4 PUSH2 0x2586 JUMP JUMPDEST POP POP JUMP JUMPDEST PUSH1 0x0 PUSH1 0x9 PUSH1 0x0 DUP4 DUP2 MSTORE PUSH1 0x20 ADD SWAP1 DUP2 MSTORE PUSH1 0x20 ADD PUSH1 0x0 KECCAK256 SLOAD SWAP1 POP SWAP2 SWAP1 POP JUMP JUMPDEST PUSH1 0x0 DUP1 PUSH1 0x0 SWAP1 SLOAD SWAP1 PUSH2 0x100 EXP SWAP1 DIV PUSH20 0xFFFFFFFFFFFFFFFFFFFFFFFFFFFFFFFFFFFFFFFF AND SWAP1 POP SWAP1 JUMP JUMPDEST PUSH32 0x9F2DF0FED2C77648DE5860A4CC508CD0818C85B8B8A1AB4CEEEF8D981C8956A6 DUP2 JUMP JUMPDEST PUSH2 0x10A8 DUP3 PUSH2 0x9EF JUMP JUMPDEST PUSH2 0x10B1 DUP2 PUSH2 0x1E79 JUMP JUMPDEST PUSH2 0x10BB DUP4 DUP4 PUSH2 0x1F81 JUMP JUMPDEST POP POP POP JUMP JUMPDEST PUSH2 0x10C8 PUSH2 0x18F5 JUMP JUMPDEST PUSH2 0x10F9 PUSH32 0x9F2DF0FED2C77648DE5860A4CC508CD0818C85B8B8A1AB4CEEEF8D981C8956A6 PUSH2 0x10F4 PUSH2 0x15B4 JUMP JUMPDEST PUSH2 0xF48 JUMP JUMPDEST PUSH2 0x1138 JUMPI PUSH1 0x40 MLOAD PUSH32 0x8C379A000000000000000000000000000000000000000000000000000000000 DUP2 MSTORE PUSH1 0x4 ADD PUSH2 0x112F SWAP1 PUSH2 0x4CA7 JUMP JUMPDEST PUSH1 0x40 MLOAD DUP1 SWAP2 SUB SWAP1 REVERT JUMPDEST PUSH2 0x11D5 DUP6 DUP6 DUP6 DUP1 DUP1 PUSH1 0x20 MUL PUSH1 0x20 ADD PUSH1 0x40 MLOAD SWAP1 DUP2 ADD PUSH1 0x40 MSTORE DUP1 SWAP4 SWAP3 SWAP2 SWAP1 DUP2 DUP2 MSTORE PUSH1 0x20 ADD DUP4 DUP4 PUSH1 0x20 MUL DUP1 DUP3 DUP5 CALLDATACOPY PUSH1 0x0 DUP2 DUP5 ADD MSTORE PUSH1 0x1F NOT PUSH1 0x1F DUP3 ADD AND SWAP1 POP DUP1 DUP4 ADD SWAP3 POP POP POP POP POP POP POP DUP5 DUP5 DUP1 DUP1 PUSH1 0x20 MUL PUSH1 0x20 ADD PUSH1 0x40 MLOAD SWAP1 DUP2 ADD PUSH1 0x40 MSTORE DUP1 SWAP4 SWAP3 SWAP2 SWAP1 DUP2 DUP2 MSTORE PUSH1 0x20 ADD DUP4 DUP4 PUSH1 0x20 MUL DUP1 DUP3 DUP5 CALLDATACOPY PUSH1 0x0 DUP2 DUP5 ADD MSTORE PUSH1 0x1F NOT PUSH1 0x1F DUP3 ADD AND SWAP1 POP DUP1 DUP4 ADD SWAP3 POP POP POP POP POP POP POP PUSH1 0x40 MLOAD DUP1 PUSH1 0x20 ADD PUSH1 0x40 MSTORE DUP1 PUSH1 0x0 DUP2 MSTORE POP PUSH2 0x26F2 JUMP JUMPDEST PUSH32 0x2D85368CE5D64F46C151C0714668C85530F639E57E2FD309337867467C5CDEB8 PUSH2 0x11FE PUSH2 0x15B4 JUMP JUMPDEST DUP7 DUP7 DUP7 DUP7 DUP7 PUSH1 0x40 MLOAD PUSH2 0x1215 SWAP7 SWAP6 SWAP5 SWAP4 SWAP3 SWAP2 SWAP1 PUSH2 0x4D31 JUMP JUMPDEST PUSH1 0x40 MLOAD DUP1 SWAP2 SUB SWAP1 LOG1 POP POP POP POP POP JUMP JUMPDEST PUSH1 0x60 PUSH1 0xA DUP1 SLOAD PUSH2 0x1233 SWAP1 PUSH2 0x4425 JUMP JUMPDEST DUP1 PUSH1 0x1F ADD PUSH1 0x20 DUP1 SWAP2 DIV MUL PUSH1 0x20 ADD PUSH1 0x40 MLOAD SWAP1 DUP2 ADD PUSH1 0x40 MSTORE DUP1 SWAP3 SWAP2 SWAP1 DUP2 DUP2 MSTORE PUSH1 0x20 ADD DUP3 DUP1 SLOAD PUSH2 0x125F SWAP1 PUSH2 0x4425 JUMP JUMPDEST DUP1 ISZERO PUSH2 0x12AC JUMPI DUP1 PUSH1 0x1F LT PUSH2 0x1281 JUMPI PUSH2 0x100 DUP1 DUP4 SLOAD DIV MUL DUP4 MSTORE SWAP2 PUSH1 0x20 ADD SWAP2 PUSH2 0x12AC JUMP JUMPDEST DUP3 ADD SWAP2 SWAP1 PUSH1 0x0 MSTORE PUSH1 0x20 PUSH1 0x0 KECCAK256 SWAP1 JUMPDEST DUP2 SLOAD DUP2 MSTORE SWAP1 PUSH1 0x1 ADD SWAP1 PUSH1 0x20 ADD DUP1 DUP4 GT PUSH2 0x128F JUMPI DUP3 SWAP1 SUB PUSH1 0x1F AND DUP3 ADD SWAP2 JUMPDEST POP POP POP POP POP SWAP1 POP SWAP1 JUMP JUMPDEST PUSH1 0x0 PUSH1 0x2 PUSH1 0x0 DUP5 PUSH20 0xFFFFFFFFFFFFFFFFFFFFFFFFFFFFFFFFFFFFFFFF AND PUSH20 0xFFFFFFFFFFFFFFFFFFFFFFFFFFFFFFFFFFFFFFFF AND DUP2 MSTORE PUSH1 0x20 ADD SWAP1 DUP2 MSTORE PUSH1 0x20 ADD PUSH1 0x0 KECCAK256 PUSH1 0x0 DUP4 PUSH20 0xFFFFFFFFFFFFFFFFFFFFFFFFFFFFFFFFFFFFFFFF AND PUSH20 0xFFFFFFFFFFFFFFFFFFFFFFFFFFFFFFFFFFFFFFFF AND DUP2 MSTORE PUSH1 0x20 ADD SWAP1 DUP2 MSTORE PUSH1 0x20 ADD PUSH1 0x0 KECCAK256 PUSH1 0x0 SWAP1 SLOAD SWAP1 PUSH2 0x100 EXP SWAP1 DIV PUSH1 0xFF AND SWAP1 POP SWAP3 SWAP2 POP POP JUMP JUMPDEST PUSH2 0x1352 PUSH2 0x15B4 JUMP JUMPDEST PUSH20 0xFFFFFFFFFFFFFFFFFFFFFFFFFFFFFFFFFFFFFFFF AND DUP6 PUSH20 0xFFFFFFFFFFFFFFFFFFFFFFFFFFFFFFFFFFFFFFFF AND EQ DUP1 PUSH2 0x1398 JUMPI POP PUSH2 0x1397 DUP6 PUSH2 0x1392 PUSH2 0x15B4 JUMP JUMPDEST PUSH2 0x12B6 JUMP JUMPDEST JUMPDEST PUSH2 0x13D7 JUMPI PUSH1 0x40 MLOAD PUSH32 0x8C379A000000000000000000000000000000000000000000000000000000000 DUP2 MSTORE PUSH1 0x4 ADD PUSH2 0x13CE SWAP1 PUSH2 0x46DD JUMP JUMPDEST PUSH1 0x40 MLOAD DUP1 SWAP2 SUB SWAP1 REVERT JUMPDEST PUSH2 0x13E4 DUP6 DUP6 DUP6 DUP6 DUP6 PUSH2 0x15C3 JUMP JUMPDEST POP POP POP POP POP JUMP JUMPDEST PUSH2 0x13F3 PUSH2 0x23DF JUMP JUMPDEST PUSH1 0x0 PUSH20 0xFFFFFFFFFFFFFFFFFFFFFFFFFFFFFFFFFFFFFFFF AND DUP2 PUSH20 0xFFFFFFFFFFFFFFFFFFFFFFFFFFFFFFFFFFFFFFFF AND SUB PUSH2 0x1462 JUMPI PUSH1 0x40 MLOAD PUSH32 0x8C379A000000000000000000000000000000000000000000000000000000000 DUP2 MSTORE PUSH1 0x4 ADD PUSH2 0x1459 SWAP1 PUSH2 0x4DFA JUMP JUMPDEST PUSH1 0x40 MLOAD DUP1 SWAP2 SUB SWAP1 REVERT JUMPDEST PUSH2 0x146B DUP2 PUSH2 0x245D JUMP JUMPDEST POP JUMP JUMPDEST PUSH2 0x1476 PUSH2 0x18F5 JUMP JUMPDEST PUSH2 0x14A7 PUSH32 0x3C11D16CBAFFD01DF69CE1C404F6340EE057498F5F00246190EA54220576A848 PUSH2 0x14A2 PUSH2 0x15B4 JUMP JUMPDEST PUSH2 0xF48 JUMP JUMPDEST PUSH2 0x14E6 JUMPI PUSH1 0x40 MLOAD PUSH32 0x8C379A000000000000000000000000000000000000000000000000000000000 DUP2 MSTORE PUSH1 0x4 ADD PUSH2 0x14DD SWAP1 PUSH2 0x4E66 JUMP JUMPDEST PUSH1 0x40 MLOAD DUP1 SWAP2 SUB SWAP1 REVERT JUMPDEST PUSH2 0x14F1 DUP4 DUP4 DUP4 PUSH2 0x291F JUMP JUMPDEST PUSH32 0x8CBFDD0F15F678EA4039EF0F30CE1494D591556082BEE7C244BFD664EFAD36C7 PUSH2 0x151A PUSH2 0x15B4 JUMP JUMPDEST DUP5 DUP5 DUP5 PUSH1 0x40 MLOAD PUSH2 0x152D SWAP5 SWAP4 SWAP3 SWAP2 SWAP1 PUSH2 0x45BA JUMP JUMPDEST PUSH1 0x40 MLOAD DUP1 SWAP2 SUB SWAP1 LOG1 POP POP POP JUMP JUMPDEST PUSH1 0x0 PUSH32 0x7965DB0B00000000000000000000000000000000000000000000000000000000 PUSH28 0xFFFFFFFFFFFFFFFFFFFFFFFFFFFFFFFFFFFFFFFFFFFFFFFFFFFFFFFF NOT AND DUP3 PUSH28 0xFFFFFFFFFFFFFFFFFFFFFFFFFFFFFFFFFFFFFFFFFFFFFFFFFFFFFFFF NOT AND EQ DUP1 PUSH2 0x15AD JUMPI POP PUSH2 0x15AC DUP3 PUSH2 0x2B67 JUMP JUMPDEST JUMPDEST SWAP1 POP SWAP2 SWAP1 POP JUMP JUMPDEST PUSH1 0x0 PUSH2 0x15BE PUSH2 0x2C49 JUMP JUMPDEST SWAP1 POP SWAP1 JUMP JUMPDEST PUSH1 0x0 PUSH20 0xFFFFFFFFFFFFFFFFFFFFFFFFFFFFFFFFFFFFFFFF AND DUP5 PUSH20 0xFFFFFFFFFFFFFFFFFFFFFFFFFFFFFFFFFFFFFFFF AND SUB PUSH2 0x1632 JUMPI PUSH1 0x40 MLOAD PUSH32 0x8C379A000000000000000000000000000000000000000000000000000000000 DUP2 MSTORE PUSH1 0x4 ADD PUSH2 0x1629 SWAP1 PUSH2 0x4EF8 JUMP JUMPDEST PUSH1 0x40 MLOAD DUP1 SWAP2 SUB SWAP1 REVERT JUMPDEST PUSH1 0x0 PUSH2 0x163C PUSH2 0x15B4 JUMP JUMPDEST SWAP1 POP PUSH1 0x0 PUSH2 0x1649 DUP6 PUSH2 0x2C80 JUMP JUMPDEST SWAP1 POP PUSH1 0x0 PUSH2 0x1656 DUP6 PUSH2 0x2C80 JUMP JUMPDEST SWAP1 POP PUSH2 0x1666 DUP4 DUP10 DUP10 DUP6 DUP6 DUP10 PUSH2 0x2CFA JUMP JUMPDEST PUSH1 0x0 PUSH1 0x1 PUSH1 0x0 DUP9 DUP2 MSTORE PUSH1 0x20 ADD SWAP1 DUP2 MSTORE PUSH1 0x20 ADD PUSH1 0x0 KECCAK256 PUSH1 0x0 DUP11 PUSH20 0xFFFFFFFFFFFFFFFFFFFFFFFFFFFFFFFFFFFFFFFF AND PUSH20 0xFFFFFFFFFFFFFFFFFFFFFFFFFFFFFFFFFFFFFFFF AND DUP2 MSTORE PUSH1 0x20 ADD SWAP1 DUP2 MSTORE PUSH1 0x20 ADD PUSH1 0x0 KECCAK256 SLOAD SWAP1 POP DUP6 DUP2 LT ISZERO PUSH2 0x16FE JUMPI PUSH1 0x40 MLOAD PUSH32 0x8C379A000000000000000000000000000000000000000000000000000000000 DUP2 MSTORE PUSH1 0x4 ADD PUSH2 0x16F5 SWAP1 PUSH2 0x4F8A JUMP JUMPDEST PUSH1 0x40 MLOAD DUP1 SWAP2 SUB SWAP1 REVERT JUMPDEST DUP6 DUP2 SUB PUSH1 0x1 PUSH1 0x0 DUP10 DUP2 MSTORE PUSH1 0x20 ADD SWAP1 DUP2 MSTORE PUSH1 0x20 ADD PUSH1 0x0 KECCAK256 PUSH1 0x0 DUP12 PUSH20 0xFFFFFFFFFFFFFFFFFFFFFFFFFFFFFFFFFFFFFFFF AND PUSH20 0xFFFFFFFFFFFFFFFFFFFFFFFFFFFFFFFFFFFFFFFF AND DUP2 MSTORE PUSH1 0x20 ADD SWAP1 DUP2 MSTORE PUSH1 0x20 ADD PUSH1 0x0 KECCAK256 DUP2 SWAP1 SSTORE POP DUP6 PUSH1 0x1 PUSH1 0x0 DUP10 DUP2 MSTORE PUSH1 0x20 ADD SWAP1 DUP2 MSTORE PUSH1 0x20 ADD PUSH1 0x0 KECCAK256 PUSH1 0x0 DUP11 PUSH20 0xFFFFFFFFFFFFFFFFFFFFFFFFFFFFFFFFFFFFFFFF AND PUSH20 0xFFFFFFFFFFFFFFFFFFFFFFFFFFFFFFFFFFFFFFFF AND DUP2 MSTORE PUSH1 0x20 ADD SWAP1 DUP2 MSTORE PUSH1 0x20 ADD PUSH1 0x0 KECCAK256 PUSH1 0x0 DUP3 DUP3 SLOAD PUSH2 0x17B5 SWAP2 SWAP1 PUSH2 0x4FAA JUMP JUMPDEST SWAP3 POP POP DUP2 SWAP1 SSTORE POP DUP8 PUSH20 0xFFFFFFFFFFFFFFFFFFFFFFFFFFFFFFFFFFFFFFFF AND DUP10 PUSH20 0xFFFFFFFFFFFFFFFFFFFFFFFFFFFFFFFFFFFFFFFF AND DUP6 PUSH20 0xFFFFFFFFFFFFFFFFFFFFFFFFFFFFFFFFFFFFFFFF AND PUSH32 0xC3D58168C5AE7397731D063D5BBF3D657854427343F4C083240F7AACAA2D0F62 DUP11 DUP11 PUSH1 0x40 MLOAD PUSH2 0x1832 SWAP3 SWAP2 SWAP1 PUSH2 0x4FDE JUMP JUMPDEST PUSH1 0x40 MLOAD DUP1 SWAP2 SUB SWAP1 LOG4 PUSH2 0x1848 DUP5 DUP11 DUP11 DUP7 DUP7 DUP11 PUSH2 0x2ECA JUMP JUMPDEST PUSH2 0x1856 DUP5 DUP11 DUP11 DUP11 DUP11 DUP11 PUSH2 0x2ED2 JUMP JUMPDEST POP POP POP POP POP POP POP POP POP JUMP JUMPDEST PUSH1 0x60 PUSH1 0x3 DUP1 SLOAD PUSH2 0x1870 SWAP1 PUSH2 0x4425 JUMP JUMPDEST DUP1 PUSH1 0x1F ADD PUSH1 0x20 DUP1 SWAP2 DIV MUL PUSH1 0x20 ADD PUSH1 0x40 MLOAD SWAP1 DUP2 ADD PUSH1 0x40 MSTORE DUP1 SWAP3 SWAP2 SWAP1 DUP2 DUP2 MSTORE PUSH1 0x20 ADD DUP3 DUP1 SLOAD PUSH2 0x189C SWAP1 PUSH2 0x4425 JUMP JUMPDEST DUP1 ISZERO PUSH2 0x18E9 JUMPI DUP1 PUSH1 0x1F LT PUSH2 0x18BE JUMPI PUSH2 0x100 DUP1 DUP4 SLOAD DIV MUL DUP4 MSTORE SWAP2 PUSH1 0x20 ADD SWAP2 PUSH2 0x18E9 JUMP JUMPDEST DUP3 ADD SWAP2 SWAP1 PUSH1 0x0 MSTORE PUSH1 0x20 PUSH1 0x0 KECCAK256 SWAP1 JUMPDEST DUP2 SLOAD DUP2 MSTORE SWAP1 PUSH1 0x1 ADD SWAP1 PUSH1 0x20 ADD DUP1 DUP4 GT PUSH2 0x18CC JUMPI DUP3 SWAP1 SUB PUSH1 0x1F AND DUP3 ADD SWAP2 JUMPDEST POP POP POP POP POP SWAP1 POP SWAP2 SWAP1 POP JUMP JUMPDEST PUSH2 0x18FD PUSH2 0xDC2 JUMP JUMPDEST ISZERO PUSH2 0x193D JUMPI PUSH1 0x40 MLOAD PUSH32 0x8C379A000000000000000000000000000000000000000000000000000000000 DUP2 MSTORE PUSH1 0x4 ADD PUSH2 0x1934 SWAP1 PUSH2 0x5053 JUMP JUMPDEST PUSH1 0x40 MLOAD DUP1 SWAP2 SUB SWAP1 REVERT JUMPDEST JUMP JUMPDEST PUSH1 0x0 PUSH20 0xFFFFFFFFFFFFFFFFFFFFFFFFFFFFFFFFFFFFFFFF AND DUP5 PUSH20 0xFFFFFFFFFFFFFFFFFFFFFFFFFFFFFFFFFFFFFFFF AND SUB PUSH2 0x19AE JUMPI PUSH1 0x40 MLOAD PUSH32 0x8C379A000000000000000000000000000000000000000000000000000000000 DUP2 MSTORE PUSH1 0x4 ADD PUSH2 0x19A5 SWAP1 PUSH2 0x50E5 JUMP JUMPDEST PUSH1 0x40 MLOAD DUP1 SWAP2 SUB SWAP1 REVERT JUMPDEST PUSH1 0x0 PUSH2 0x19B8 PUSH2 0x15B4 JUMP JUMPDEST SWAP1 POP PUSH1 0x0 PUSH2 0x19C5 DUP6 PUSH2 0x2C80 JUMP JUMPDEST SWAP1 POP PUSH1 0x0 PUSH2 0x19D2 DUP6 PUSH2 0x2C80 JUMP JUMPDEST SWAP1 POP PUSH2 0x19E3 DUP4 PUSH1 0x0 DUP10 DUP6 DUP6 DUP10 PUSH2 0x2CFA JUMP JUMPDEST DUP5 PUSH1 0x1 PUSH1 0x0 DUP9 DUP2 MSTORE PUSH1 0x20 ADD SWAP1 DUP2 MSTORE PUSH1 0x20 ADD PUSH1 0x0 KECCAK256 PUSH1 0x0 DUP10 PUSH20 0xFFFFFFFFFFFFFFFFFFFFFFFFFFFFFFFFFFFFFFFF AND PUSH20 0xFFFFFFFFFFFFFFFFFFFFFFFFFFFFFFFFFFFFFFFF AND DUP2 MSTORE PUSH1 0x20 ADD SWAP1 DUP2 MSTORE PUSH1 0x20 ADD PUSH1 0x0 KECCAK256 PUSH1 0x0 DUP3 DUP3 SLOAD PUSH2 0x1A43 SWAP2 SWAP1 PUSH2 0x4FAA JUMP JUMPDEST SWAP3 POP POP DUP2 SWAP1 SSTORE POP DUP7 PUSH20 0xFFFFFFFFFFFFFFFFFFFFFFFFFFFFFFFFFFFFFFFF AND PUSH1 0x0 PUSH20 0xFFFFFFFFFFFFFFFFFFFFFFFFFFFFFFFFFFFFFFFF AND DUP5 PUSH20 0xFFFFFFFFFFFFFFFFFFFFFFFFFFFFFFFFFFFFFFFF AND PUSH32 0xC3D58168C5AE7397731D063D5BBF3D657854427343F4C083240F7AACAA2D0F62 DUP10 DUP10 PUSH1 0x40 MLOAD PUSH2 0x1AC1 SWAP3 SWAP2 SWAP1 PUSH2 0x4FDE JUMP JUMPDEST PUSH1 0x40 MLOAD DUP1 SWAP2 SUB SWAP1 LOG4 PUSH2 0x1AD8 DUP4 PUSH1 0x0 DUP10 DUP6 DUP6 DUP10 PUSH2 0x2ECA JUMP JUMPDEST PUSH2 0x1AE7 DUP4 PUSH1 0x0 DUP10 DUP10 DUP10 DUP10 PUSH2 0x2ED2 JUMP JUMPDEST POP POP POP POP POP POP POP JUMP JUMPDEST DUP1 PUSH1 0x5 PUSH1 0x0 DUP5 DUP2 MSTORE PUSH1 0x20 ADD SWAP1 DUP2 MSTORE PUSH1 0x20 ADD PUSH1 0x0 KECCAK256 SWAP1 DUP2 PUSH2 0x1B10 SWAP2 SWAP1 PUSH2 0x4B89 JUMP JUMPDEST POP DUP2 PUSH32 0x6BB7FF708619BA0610CBA295A58592E0451DEE2622938C8755667688DAF3529B PUSH2 0x1B3C DUP5 PUSH2 0x7CD JUMP JUMPDEST PUSH1 0x40 MLOAD PUSH2 0x1B49 SWAP2 SWAP1 PUSH2 0x38E0 JUMP JUMPDEST PUSH1 0x40 MLOAD DUP1 SWAP2 SUB SWAP1 LOG2 POP POP JUMP JUMPDEST DUP2 MLOAD DUP4 MLOAD EQ PUSH2 0x1B99 JUMPI PUSH1 0x40 MLOAD PUSH32 0x8C379A000000000000000000000000000000000000000000000000000000000 DUP2 MSTORE PUSH1 0x4 ADD PUSH2 0x1B90 SWAP1 PUSH2 0x5177 JUMP JUMPDEST PUSH1 0x40 MLOAD DUP1 SWAP2 SUB SWAP1 REVERT JUMPDEST PUSH1 0x0 PUSH20 0xFFFFFFFFFFFFFFFFFFFFFFFFFFFFFFFFFFFFFFFF AND DUP5 PUSH20 0xFFFFFFFFFFFFFFFFFFFFFFFFFFFFFFFFFFFFFFFF AND SUB PUSH2 0x1C08 JUMPI PUSH1 0x40 MLOAD PUSH32 0x8C379A000000000000000000000000000000000000000000000000000000000 DUP2 MSTORE PUSH1 0x4 ADD PUSH2 0x1BFF SWAP1 PUSH2 0x4EF8 JUMP JUMPDEST PUSH1 0x40 MLOAD DUP1 SWAP2 SUB SWAP1 REVERT JUMPDEST PUSH1 0x0 PUSH2 0x1C12 PUSH2 0x15B4 JUMP JUMPDEST SWAP1 POP PUSH2 0x1C22 DUP2 DUP8 DUP8 DUP8 DUP8 DUP8 PUSH2 0x2CFA JUMP JUMPDEST PUSH1 0x0 JUMPDEST DUP5 MLOAD DUP2 LT ISZERO PUSH2 0x1DD6 JUMPI PUSH1 0x0 DUP6 DUP3 DUP2 MLOAD DUP2 LT PUSH2 0x1C43 JUMPI PUSH2 0x1C42 PUSH2 0x4821 JUMP JUMPDEST JUMPDEST PUSH1 0x20 MUL PUSH1 0x20 ADD ADD MLOAD SWAP1 POP PUSH1 0x0 DUP6 DUP4 DUP2 MLOAD DUP2 LT PUSH2 0x1C62 JUMPI PUSH2 0x1C61 PUSH2 0x4821 JUMP JUMPDEST JUMPDEST PUSH1 0x20 MUL PUSH1 0x20 ADD ADD MLOAD SWAP1 POP PUSH1 0x0 PUSH1 0x1 PUSH1 0x0 DUP5 DUP2 MSTORE PUSH1 0x20 ADD SWAP1 DUP2 MSTORE PUSH1 0x20 ADD PUSH1 0x0 KECCAK256 PUSH1 0x0 DUP12 PUSH20 0xFFFFFFFFFFFFFFFFFFFFFFFFFFFFFFFFFFFFFFFF AND PUSH20 0xFFFFFFFFFFFFFFFFFFFFFFFFFFFFFFFFFFFFFFFF AND DUP2 MSTORE PUSH1 0x20 ADD SWAP1 DUP2 MSTORE PUSH1 0x20 ADD PUSH1 0x0 KECCAK256 SLOAD SWAP1 POP DUP2 DUP2 LT ISZERO PUSH2 0x1D04 JUMPI PUSH1 0x40 MLOAD PUSH32 0x8C379A000000000000000000000000000000000000000000000000000000000 DUP2 MSTORE PUSH1 0x4 ADD PUSH2 0x1CFB SWAP1 PUSH2 0x4F8A JUMP JUMPDEST PUSH1 0x40 MLOAD DUP1 SWAP2 SUB SWAP1 REVERT JUMPDEST DUP2 DUP2 SUB PUSH1 0x1 PUSH1 0x0 DUP6 DUP2 MSTORE PUSH1 0x20 ADD SWAP1 DUP2 MSTORE PUSH1 0x20 ADD PUSH1 0x0 KECCAK256 PUSH1 0x0 DUP13 PUSH20 0xFFFFFFFFFFFFFFFFFFFFFFFFFFFFFFFFFFFFFFFF AND PUSH20 0xFFFFFFFFFFFFFFFFFFFFFFFFFFFFFFFFFFFFFFFF AND DUP2 MSTORE PUSH1 0x20 ADD SWAP1 DUP2 MSTORE PUSH1 0x20 ADD PUSH1 0x0 KECCAK256 DUP2 SWAP1 SSTORE POP DUP2 PUSH1 0x1 PUSH1 0x0 DUP6 DUP2 MSTORE PUSH1 0x20 ADD SWAP1 DUP2 MSTORE PUSH1 0x20 ADD PUSH1 0x0 KECCAK256 PUSH1 0x0 DUP12 PUSH20 0xFFFFFFFFFFFFFFFFFFFFFFFFFFFFFFFFFFFFFFFF AND PUSH20 0xFFFFFFFFFFFFFFFFFFFFFFFFFFFFFFFFFFFFFFFF AND DUP2 MSTORE PUSH1 0x20 ADD SWAP1 DUP2 MSTORE PUSH1 0x20 ADD PUSH1 0x0 KECCAK256 PUSH1 0x0 DUP3 DUP3 SLOAD PUSH2 0x1DBB SWAP2 SWAP1 PUSH2 0x4FAA JUMP JUMPDEST SWAP3 POP POP DUP2 SWAP1 SSTORE POP POP POP POP DUP1 PUSH2 0x1DCF SWAP1 PUSH2 0x487F JUMP JUMPDEST SWAP1 POP PUSH2 0x1C25 JUMP JUMPDEST POP DUP5 PUSH20 0xFFFFFFFFFFFFFFFFFFFFFFFFFFFFFFFFFFFFFFFF AND DUP7 PUSH20 0xFFFFFFFFFFFFFFFFFFFFFFFFFFFFFFFFFFFFFFFF AND DUP3 PUSH20 0xFFFFFFFFFFFFFFFFFFFFFFFFFFFFFFFFFFFFFFFF AND PUSH32 0x4A39DC06D4C0DBC64B70AF90FD698A233A518AA5D07E595D983B8C0526C8F7FB DUP8 DUP8 PUSH1 0x40 MLOAD PUSH2 0x1E4D SWAP3 SWAP2 SWAP1 PUSH2 0x5197 JUMP JUMPDEST PUSH1 0x40 MLOAD DUP1 SWAP2 SUB SWAP1 LOG4 PUSH2 0x1E63 DUP2 DUP8 DUP8 DUP8 DUP8 DUP8 PUSH2 0x2ECA JUMP JUMPDEST PUSH2 0x1E71 DUP2 DUP8 DUP8 DUP8 DUP8 DUP8 PUSH2 0x30A9 JUMP JUMPDEST POP POP POP POP POP POP JUMP JUMPDEST PUSH2 0x1E8A DUP2 PUSH2 0x1E85 PUSH2 0x15B4 JUMP JUMPDEST PUSH2 0x3280 JUMP JUMPDEST POP JUMP JUMPDEST PUSH2 0x1E97 DUP3 DUP3 PUSH2 0xF48 JUMP JUMPDEST PUSH2 0x1F6A JUMPI PUSH1 0x1 PUSH1 0x7 PUSH1 0x0 DUP5 DUP2 MSTORE PUSH1 0x20 ADD SWAP1 DUP2 MSTORE PUSH1 0x20 ADD PUSH1 0x0 KECCAK256 PUSH1 0x0 ADD PUSH1 0x0 DUP4 PUSH20 0xFFFFFFFFFFFFFFFFFFFFFFFFFFFFFFFFFFFFFFFF AND PUSH20 0xFFFFFFFFFFFFFFFFFFFFFFFFFFFFFFFFFFFFFFFF AND DUP2 MSTORE PUSH1 0x20 ADD SWAP1 DUP2 MSTORE PUSH1 0x20 ADD PUSH1 0x0 KECCAK256 PUSH1 0x0 PUSH2 0x100 EXP DUP2 SLOAD DUP2 PUSH1 0xFF MUL NOT AND SWAP1 DUP4 ISZERO ISZERO MUL OR SWAP1 SSTORE POP PUSH2 0x1F0F PUSH2 0x15B4 JUMP JUMPDEST PUSH20 0xFFFFFFFFFFFFFFFFFFFFFFFFFFFFFFFFFFFFFFFF AND DUP2 PUSH20 0xFFFFFFFFFFFFFFFFFFFFFFFFFFFFFFFFFFFFFFFF AND DUP4 PUSH32 0x2F8788117E7EFF1D82E926EC794901D17C78024A50270940304540A733656F0D PUSH1 0x40 MLOAD PUSH1 0x40 MLOAD DUP1 SWAP2 SUB SWAP1 LOG4 JUMPDEST POP POP JUMP JUMPDEST DUP1 PUSH1 0x4 SWAP1 DUP2 PUSH2 0x1F7D SWAP2 SWAP1 PUSH2 0x4B89 JUMP JUMPDEST POP POP JUMP JUMPDEST PUSH2 0x1F8B DUP3 DUP3 PUSH2 0xF48 JUMP JUMPDEST ISZERO PUSH2 0x205F JUMPI PUSH1 0x0 PUSH1 0x7 PUSH1 0x0 DUP5 DUP2 MSTORE PUSH1 0x20 ADD SWAP1 DUP2 MSTORE PUSH1 0x20 ADD PUSH1 0x0 KECCAK256 PUSH1 0x0 ADD PUSH1 0x0 DUP4 PUSH20 0xFFFFFFFFFFFFFFFFFFFFFFFFFFFFFFFFFFFFFFFF AND PUSH20 0xFFFFFFFFFFFFFFFFFFFFFFFFFFFFFFFFFFFFFFFF AND DUP2 MSTORE PUSH1 0x20 ADD SWAP1 DUP2 MSTORE PUSH1 0x20 ADD PUSH1 0x0 KECCAK256 PUSH1 0x0 PUSH2 0x100 EXP DUP2 SLOAD DUP2 PUSH1 0xFF MUL NOT AND SWAP1 DUP4 ISZERO ISZERO MUL OR SWAP1 SSTORE POP PUSH2 0x2004 PUSH2 0x15B4 JUMP JUMPDEST PUSH20 0xFFFFFFFFFFFFFFFFFFFFFFFFFFFFFFFFFFFFFFFF AND DUP2 PUSH20 0xFFFFFFFFFFFFFFFFFFFFFFFFFFFFFFFFFFFFFFFF AND DUP4 PUSH32 0xF6391F5C32D9C69D2A47EA670B442974B53935D1EDC7FD64EB21E047A839171B PUSH1 0x40 MLOAD PUSH1 0x40 MLOAD DUP1 SWAP2 SUB SWAP1 LOG4 JUMPDEST POP POP JUMP JUMPDEST PUSH2 0x206B PUSH2 0xDC2 JUMP JUMPDEST PUSH2 0x20AA JUMPI PUSH1 0x40 MLOAD PUSH32 0x8C379A000000000000000000000000000000000000000000000000000000000 DUP2 MSTORE PUSH1 0x4 ADD PUSH2 0x20A1 SWAP1 PUSH2 0x521A JUMP JUMPDEST PUSH1 0x40 MLOAD DUP1 SWAP2 SUB SWAP1 REVERT JUMPDEST JUMP JUMPDEST PUSH2 0x20B4 PUSH2 0x2063 JUMP JUMPDEST PUSH1 0x0 PUSH1 0x6 PUSH1 0x0 PUSH2 0x100 EXP DUP2 SLOAD DUP2 PUSH1 0xFF MUL NOT AND SWAP1 DUP4 ISZERO ISZERO MUL OR SWAP1 SSTORE POP PUSH32 0x5DB9EE0A495BF2E6FF9C91A7834C1BA4FDD244A5E8AA4E537BD38AEAE4B073AA PUSH2 0x20F8 PUSH2 0x15B4 JUMP JUMPDEST PUSH1 0x40 MLOAD PUSH2 0x2105 SWAP2 SWAP1 PUSH2 0x40C3 JUMP JUMPDEST PUSH1 0x40 MLOAD DUP1 SWAP2 SUB SWAP1 LOG1 JUMP JUMPDEST PUSH1 0x0 PUSH20 0xFFFFFFFFFFFFFFFFFFFFFFFFFFFFFFFFFFFFFFFF AND DUP4 PUSH20 0xFFFFFFFFFFFFFFFFFFFFFFFFFFFFFFFFFFFFFFFF AND SUB PUSH2 0x217E JUMPI PUSH1 0x40 MLOAD PUSH32 0x8C379A000000000000000000000000000000000000000000000000000000000 DUP2 MSTORE PUSH1 0x4 ADD PUSH2 0x2175 SWAP1 PUSH2 0x52AC JUMP JUMPDEST PUSH1 0x40 MLOAD DUP1 SWAP2 SUB SWAP1 REVERT JUMPDEST DUP1 MLOAD DUP3 MLOAD EQ PUSH2 0x21C2 JUMPI PUSH1 0x40 MLOAD PUSH32 0x8C379A000000000000000000000000000000000000000000000000000000000 DUP2 MSTORE PUSH1 0x4 ADD PUSH2 0x21B9 SWAP1 PUSH2 0x5177 JUMP JUMPDEST PUSH1 0x40 MLOAD DUP1 SWAP2 SUB SWAP1 REVERT JUMPDEST PUSH1 0x0 PUSH2 0x21CC PUSH2 0x15B4 JUMP JUMPDEST SWAP1 POP PUSH2 0x21EC DUP2 DUP6 PUSH1 0x0 DUP7 DUP7 PUSH1 0x40 MLOAD DUP1 PUSH1 0x20 ADD PUSH1 0x40 MSTORE DUP1 PUSH1 0x0 DUP2 MSTORE POP PUSH2 0x2CFA JUMP JUMPDEST PUSH1 0x0 JUMPDEST DUP4 MLOAD DUP2 LT ISZERO PUSH2 0x233B JUMPI PUSH1 0x0 DUP5 DUP3 DUP2 MLOAD DUP2 LT PUSH2 0x220D JUMPI PUSH2 0x220C PUSH2 0x4821 JUMP JUMPDEST JUMPDEST PUSH1 0x20 MUL PUSH1 0x20 ADD ADD MLOAD SWAP1 POP PUSH1 0x0 DUP5 DUP4 DUP2 MLOAD DUP2 LT PUSH2 0x222C JUMPI PUSH2 0x222B PUSH2 0x4821 JUMP JUMPDEST JUMPDEST PUSH1 0x20 MUL PUSH1 0x20 ADD ADD MLOAD SWAP1 POP PUSH1 0x0 PUSH1 0x1 PUSH1 0x0 DUP5 DUP2 MSTORE PUSH1 0x20 ADD SWAP1 DUP2 MSTORE PUSH1 0x20 ADD PUSH1 0x0 KECCAK256 PUSH1 0x0 DUP10 PUSH20 0xFFFFFFFFFFFFFFFFFFFFFFFFFFFFFFFFFFFFFFFF AND PUSH20 0xFFFFFFFFFFFFFFFFFFFFFFFFFFFFFFFFFFFFFFFF AND DUP2 MSTORE PUSH1 0x20 ADD SWAP1 DUP2 MSTORE PUSH1 0x20 ADD PUSH1 0x0 KECCAK256 SLOAD SWAP1 POP DUP2 DUP2 LT ISZERO PUSH2 0x22CE JUMPI PUSH1 0x40 MLOAD PUSH32 0x8C379A000000000000000000000000000000000000000000000000000000000 DUP2 MSTORE PUSH1 0x4 ADD PUSH2 0x22C5 SWAP1 PUSH2 0x533E JUMP JUMPDEST PUSH1 0x40 MLOAD DUP1 SWAP2 SUB SWAP1 REVERT JUMPDEST DUP2 DUP2 SUB PUSH1 0x1 PUSH1 0x0 DUP6 DUP2 MSTORE PUSH1 0x20 ADD SWAP1 DUP2 MSTORE PUSH1 0x20 ADD PUSH1 0x0 KECCAK256 PUSH1 0x0 DUP11 PUSH20 0xFFFFFFFFFFFFFFFFFFFFFFFFFFFFFFFFFFFFFFFF AND PUSH20 0xFFFFFFFFFFFFFFFFFFFFFFFFFFFFFFFFFFFFFFFF AND DUP2 MSTORE PUSH1 0x20 ADD SWAP1 DUP2 MSTORE PUSH1 0x20 ADD PUSH1 0x0 KECCAK256 DUP2 SWAP1 SSTORE POP POP POP POP DUP1 DUP1 PUSH2 0x2333 SWAP1 PUSH2 0x487F JUMP JUMPDEST SWAP2 POP POP PUSH2 0x21EF JUMP JUMPDEST POP PUSH1 0x0 PUSH20 0xFFFFFFFFFFFFFFFFFFFFFFFFFFFFFFFFFFFFFFFF AND DUP5 PUSH20 0xFFFFFFFFFFFFFFFFFFFFFFFFFFFFFFFFFFFFFFFF AND DUP3 PUSH20 0xFFFFFFFFFFFFFFFFFFFFFFFFFFFFFFFFFFFFFFFF AND PUSH32 0x4A39DC06D4C0DBC64B70AF90FD698A233A518AA5D07E595D983B8C0526C8F7FB DUP7 DUP7 PUSH1 0x40 MLOAD PUSH2 0x23B3 SWAP3 SWAP2 SWAP1 PUSH2 0x5197 JUMP JUMPDEST PUSH1 0x40 MLOAD DUP1 SWAP2 SUB SWAP1 LOG4 PUSH2 0x23D9 DUP2 DUP6 PUSH1 0x0 DUP7 DUP7 PUSH1 0x40 MLOAD DUP1 PUSH1 0x20 ADD PUSH1 0x40 MSTORE DUP1 PUSH1 0x0 DUP2 MSTORE POP PUSH2 0x2ECA JUMP JUMPDEST POP POP POP POP JUMP JUMPDEST PUSH2 0x23E7 PUSH2 0x15B4 JUMP JUMPDEST PUSH20 0xFFFFFFFFFFFFFFFFFFFFFFFFFFFFFFFFFFFFFFFF AND PUSH2 0x2405 PUSH2 0xF1E JUMP JUMPDEST PUSH20 0xFFFFFFFFFFFFFFFFFFFFFFFFFFFFFFFFFFFFFFFF AND EQ PUSH2 0x245B JUMPI PUSH1 0x40 MLOAD PUSH32 0x8C379A000000000000000000000000000000000000000000000000000000000 DUP2 MSTORE PUSH1 0x4 ADD PUSH2 0x2452 SWAP1 PUSH2 0x53AA JUMP JUMPDEST PUSH1 0x40 MLOAD DUP1 SWAP2 SUB SWAP1 REVERT JUMPDEST JUMP JUMPDEST PUSH1 0x0 PUSH1 0x8 PUSH1 0x0 SWAP1 SLOAD SWAP1 PUSH2 0x100 EXP SWAP1 DIV PUSH20 0xFFFFFFFFFFFFFFFFFFFFFFFFFFFFFFFFFFFFFFFF AND SWAP1 POP DUP2 PUSH1 0x8 PUSH1 0x0 PUSH2 0x100 EXP DUP2 SLOAD DUP2 PUSH20 0xFFFFFFFFFFFFFFFFFFFFFFFFFFFFFFFFFFFFFFFF MUL NOT AND SWAP1 DUP4 PUSH20 0xFFFFFFFFFFFFFFFFFFFFFFFFFFFFFFFFFFFFFFFF AND MUL OR SWAP1 SSTORE POP DUP2 PUSH20 0xFFFFFFFFFFFFFFFFFFFFFFFFFFFFFFFFFFFFFFFF AND DUP2 PUSH20 0xFFFFFFFFFFFFFFFFFFFFFFFFFFFFFFFFFFFFFFFF AND PUSH32 0x8BE0079C531659141344CD1FD0A4F28419497F9722A3DAAFE3B4186F6B6457E0 PUSH1 0x40 MLOAD PUSH1 0x40 MLOAD DUP1 SWAP2 SUB SWAP1 LOG3 POP POP JUMP JUMPDEST PUSH2 0x252B PUSH2 0x18F5 JUMP JUMPDEST PUSH1 0x1 PUSH1 0x6 PUSH1 0x0 PUSH2 0x100 EXP DUP2 SLOAD DUP2 PUSH1 0xFF MUL NOT AND SWAP1 DUP4 ISZERO ISZERO MUL OR SWAP1 SSTORE POP PUSH32 0x62E78CEA01BEE320CD4E420270B5EA74000D11B0C9F74754EBDBFC544B05A258 PUSH2 0x256F PUSH2 0x15B4 JUMP JUMPDEST PUSH1 0x40 MLOAD PUSH2 0x257C SWAP2 SWAP1 PUSH2 0x40C3 JUMP JUMPDEST PUSH1 0x40 MLOAD DUP1 SWAP2 SUB SWAP1 LOG1 JUMP JUMPDEST DUP2 PUSH20 0xFFFFFFFFFFFFFFFFFFFFFFFFFFFFFFFFFFFFFFFF AND DUP4 PUSH20 0xFFFFFFFFFFFFFFFFFFFFFFFFFFFFFFFFFFFFFFFF AND SUB PUSH2 0x25F4 JUMPI PUSH1 0x40 MLOAD PUSH32 0x8C379A000000000000000000000000000000000000000000000000000000000 DUP2 MSTORE PUSH1 0x4 ADD PUSH2 0x25EB SWAP1 PUSH2 0x543C JUMP JUMPDEST PUSH1 0x40 MLOAD DUP1 SWAP2 SUB SWAP1 REVERT JUMPDEST DUP1 PUSH1 0x2 PUSH1 0x0 DUP6 PUSH20 0xFFFFFFFFFFFFFFFFFFFFFFFFFFFFFFFFFFFFFFFF AND PUSH20 0xFFFFFFFFFFFFFFFFFFFFFFFFFFFFFFFFFFFFFFFF AND DUP2 MSTORE PUSH1 0x20 ADD SWAP1 DUP2 MSTORE PUSH1 0x20 ADD PUSH1 0x0 KECCAK256 PUSH1 0x0 DUP5 PUSH20 0xFFFFFFFFFFFFFFFFFFFFFFFFFFFFFFFFFFFFFFFF AND PUSH20 0xFFFFFFFFFFFFFFFFFFFFFFFFFFFFFFFFFFFFFFFF AND DUP2 MSTORE PUSH1 0x20 ADD SWAP1 DUP2 MSTORE PUSH1 0x20 ADD PUSH1 0x0 KECCAK256 PUSH1 0x0 PUSH2 0x100 EXP DUP2 SLOAD DUP2 PUSH1 0xFF MUL NOT AND SWAP1 DUP4 ISZERO ISZERO MUL OR SWAP1 SSTORE POP DUP2 PUSH20 0xFFFFFFFFFFFFFFFFFFFFFFFFFFFFFFFFFFFFFFFF AND DUP4 PUSH20 0xFFFFFFFFFFFFFFFFFFFFFFFFFFFFFFFFFFFFFFFF AND PUSH32 0x17307EAB39AB6107E8899845AD3D59BD9653F200F220920489CA2B5937696C31 DUP4 PUSH1 0x40 MLOAD PUSH2 0x26E5 SWAP2 SWAP1 PUSH2 0x37B5 JUMP JUMPDEST PUSH1 0x40 MLOAD DUP1 SWAP2 SUB SWAP1 LOG3 POP POP POP JUMP JUMPDEST PUSH1 0x0 PUSH20 0xFFFFFFFFFFFFFFFFFFFFFFFFFFFFFFFFFFFFFFFF AND DUP5 PUSH20 0xFFFFFFFFFFFFFFFFFFFFFFFFFFFFFFFFFFFFFFFF AND SUB PUSH2 0x2761 JUMPI PUSH1 0x40 MLOAD PUSH32 0x8C379A000000000000000000000000000000000000000000000000000000000 DUP2 MSTORE PUSH1 0x4 ADD PUSH2 0x2758 SWAP1 PUSH2 0x50E5 JUMP JUMPDEST PUSH1 0x40 MLOAD DUP1 SWAP2 SUB SWAP1 REVERT JUMPDEST DUP2 MLOAD DUP4 MLOAD EQ PUSH2 0x27A5 JUMPI PUSH1 0x40 MLOAD PUSH32 0x8C379A000000000000000000000000000000000000000000000000000000000 DUP2 MSTORE PUSH1 0x4 ADD PUSH2 0x279C SWAP1 PUSH2 0x5177 JUMP JUMPDEST PUSH1 0x40 MLOAD DUP1 SWAP2 SUB SWAP1 REVERT JUMPDEST PUSH1 0x0 PUSH2 0x27AF PUSH2 0x15B4 JUMP JUMPDEST SWAP1 POP PUSH2 0x27C0 DUP2 PUSH1 0x0 DUP8 DUP8 DUP8 DUP8 PUSH2 0x2CFA JUMP JUMPDEST PUSH1 0x0 JUMPDEST DUP5 MLOAD DUP2 LT ISZERO PUSH2 0x287A JUMPI DUP4 DUP2 DUP2 MLOAD DUP2 LT PUSH2 0x27DF JUMPI PUSH2 0x27DE PUSH2 0x4821 JUMP JUMPDEST JUMPDEST PUSH1 0x20 MUL PUSH1 0x20 ADD ADD MLOAD PUSH1 0x1 PUSH1 0x0 DUP8 DUP5 DUP2 MLOAD DUP2 LT PUSH2 0x27FE JUMPI PUSH2 0x27FD PUSH2 0x4821 JUMP JUMPDEST JUMPDEST PUSH1 0x20 MUL PUSH1 0x20 ADD ADD MLOAD DUP2 MSTORE PUSH1 0x20 ADD SWAP1 DUP2 MSTORE PUSH1 0x20 ADD PUSH1 0x0 KECCAK256 PUSH1 0x0 DUP9 PUSH20 0xFFFFFFFFFFFFFFFFFFFFFFFFFFFFFFFFFFFFFFFF AND PUSH20 0xFFFFFFFFFFFFFFFFFFFFFFFFFFFFFFFFFFFFFFFF AND DUP2 MSTORE PUSH1 0x20 ADD SWAP1 DUP2 MSTORE PUSH1 0x20 ADD PUSH1 0x0 KECCAK256 PUSH1 0x0 DUP3 DUP3 SLOAD PUSH2 0x2860 SWAP2 SWAP1 PUSH2 0x4FAA JUMP JUMPDEST SWAP3 POP POP DUP2 SWAP1 SSTORE POP DUP1 DUP1 PUSH2 0x2872 SWAP1 PUSH2 0x487F JUMP JUMPDEST SWAP2 POP POP PUSH2 0x27C3 JUMP JUMPDEST POP DUP5 PUSH20 0xFFFFFFFFFFFFFFFFFFFFFFFFFFFFFFFFFFFFFFFF AND PUSH1 0x0 PUSH20 0xFFFFFFFFFFFFFFFFFFFFFFFFFFFFFFFFFFFFFFFF AND DUP3 PUSH20 0xFFFFFFFFFFFFFFFFFFFFFFFFFFFFFFFFFFFFFFFF AND PUSH32 0x4A39DC06D4C0DBC64B70AF90FD698A233A518AA5D07E595D983B8C0526C8F7FB DUP8 DUP8 PUSH1 0x40 MLOAD PUSH2 0x28F2 SWAP3 SWAP2 SWAP1 PUSH2 0x5197 JUMP JUMPDEST PUSH1 0x40 MLOAD DUP1 SWAP2 SUB SWAP1 LOG4 PUSH2 0x2909 DUP2 PUSH1 0x0 DUP8 DUP8 DUP8 DUP8 PUSH2 0x2ECA JUMP JUMPDEST PUSH2 0x2918 DUP2 PUSH1 0x0 DUP8 DUP8 DUP8 DUP8 PUSH2 0x30A9 JUMP JUMPDEST POP POP POP POP POP JUMP JUMPDEST PUSH1 0x0 PUSH20 0xFFFFFFFFFFFFFFFFFFFFFFFFFFFFFFFFFFFFFFFF AND DUP4 PUSH20 0xFFFFFFFFFFFFFFFFFFFFFFFFFFFFFFFFFFFFFFFF AND SUB PUSH2 0x298E JUMPI PUSH1 0x40 MLOAD PUSH32 0x8C379A000000000000000000000000000000000000000000000000000000000 DUP2 MSTORE PUSH1 0x4 ADD PUSH2 0x2985 SWAP1 PUSH2 0x52AC JUMP JUMPDEST PUSH1 0x40 MLOAD DUP1 SWAP2 SUB SWAP1 REVERT JUMPDEST PUSH1 0x0 PUSH2 0x2998 PUSH2 0x15B4 JUMP JUMPDEST SWAP1 POP PUSH1 0x0 PUSH2 0x29A5 DUP5 PUSH2 0x2C80 JUMP JUMPDEST SWAP1 POP PUSH1 0x0 PUSH2 0x29B2 DUP5 PUSH2 0x2C80 JUMP JUMPDEST SWAP1 POP PUSH2 0x29D2 DUP4 DUP8 PUSH1 0x0 DUP6 DUP6 PUSH1 0x40 MLOAD DUP1 PUSH1 0x20 ADD PUSH1 0x40 MSTORE DUP1 PUSH1 0x0 DUP2 MSTORE POP PUSH2 0x2CFA JUMP JUMPDEST PUSH1 0x0 PUSH1 0x1 PUSH1 0x0 DUP8 DUP2 MSTORE PUSH1 0x20 ADD SWAP1 DUP2 MSTORE PUSH1 0x20 ADD PUSH1 0x0 KECCAK256 PUSH1 0x0 DUP9 PUSH20 0xFFFFFFFFFFFFFFFFFFFFFFFFFFFFFFFFFFFFFFFF AND PUSH20 0xFFFFFFFFFFFFFFFFFFFFFFFFFFFFFFFFFFFFFFFF AND DUP2 MSTORE PUSH1 0x20 ADD SWAP1 DUP2 MSTORE PUSH1 0x20 ADD PUSH1 0x0 KECCAK256 SLOAD SWAP1 POP DUP5 DUP2 LT ISZERO PUSH2 0x2A6A JUMPI PUSH1 0x40 MLOAD PUSH32 0x8C379A000000000000000000000000000000000000000000000000000000000 DUP2 MSTORE PUSH1 0x4 ADD PUSH2 0x2A61 SWAP1 PUSH2 0x533E JUMP JUMPDEST PUSH1 0x40 MLOAD DUP1 SWAP2 SUB SWAP1 REVERT JUMPDEST DUP5 DUP2 SUB PUSH1 0x1 PUSH1 0x0 DUP9 DUP2 MSTORE PUSH1 0x20 ADD SWAP1 DUP2 MSTORE PUSH1 0x20 ADD PUSH1 0x0 KECCAK256 PUSH1 0x0 DUP10 PUSH20 0xFFFFFFFFFFFFFFFFFFFFFFFFFFFFFFFFFFFFFFFF AND PUSH20 0xFFFFFFFFFFFFFFFFFFFFFFFFFFFFFFFFFFFFFFFF AND DUP2 MSTORE PUSH1 0x20 ADD SWAP1 DUP2 MSTORE PUSH1 0x20 ADD PUSH1 0x0 KECCAK256 DUP2 SWAP1 SSTORE POP PUSH1 0x0 PUSH20 0xFFFFFFFFFFFFFFFFFFFFFFFFFFFFFFFFFFFFFFFF AND DUP8 PUSH20 0xFFFFFFFFFFFFFFFFFFFFFFFFFFFFFFFFFFFFFFFF AND DUP6 PUSH20 0xFFFFFFFFFFFFFFFFFFFFFFFFFFFFFFFFFFFFFFFF AND PUSH32 0xC3D58168C5AE7397731D063D5BBF3D657854427343F4C083240F7AACAA2D0F62 DUP10 DUP10 PUSH1 0x40 MLOAD PUSH2 0x2B38 SWAP3 SWAP2 SWAP1 PUSH2 0x4FDE JUMP JUMPDEST PUSH1 0x40 MLOAD DUP1 SWAP2 SUB SWAP1 LOG4 PUSH2 0x2B5E DUP5 DUP9 PUSH1 0x0 DUP7 DUP7 PUSH1 0x40 MLOAD DUP1 PUSH1 0x20 ADD PUSH1 0x40 MSTORE DUP1 PUSH1 0x0 DUP2 MSTORE POP PUSH2 0x2ECA JUMP JUMPDEST POP POP POP POP POP POP POP JUMP JUMPDEST PUSH1 0x0 PUSH32 0xD9B67A2600000000000000000000000000000000000000000000000000000000 PUSH28 0xFFFFFFFFFFFFFFFFFFFFFFFFFFFFFFFFFFFFFFFFFFFFFFFFFFFFFFFF NOT AND DUP3 PUSH28 0xFFFFFFFFFFFFFFFFFFFFFFFFFFFFFFFFFFFFFFFFFFFFFFFFFFFFFFFF NOT AND EQ DUP1 PUSH2 0x2C32 JUMPI POP PUSH32 0xE89341C00000000000000000000000000000000000000000000000000000000 PUSH28 0xFFFFFFFFFFFFFFFFFFFFFFFFFFFFFFFFFFFFFFFFFFFFFFFFFFFFFFFF NOT AND DUP3 PUSH28 0xFFFFFFFFFFFFFFFFFFFFFFFFFFFFFFFFFFFFFFFFFFFFFFFFFFFFFFFF NOT AND EQ JUMPDEST DUP1 PUSH2 0x2C42 JUMPI POP PUSH2 0x2C41 DUP3 PUSH2 0x3305 JUMP JUMPDEST JUMPDEST SWAP1 POP SWAP2 SWAP1 POP JUMP JUMPDEST PUSH1 0x0 PUSH1 0x14 PUSH1 0x0 CALLDATASIZE SWAP1 POP LT ISZERO DUP1 ISZERO PUSH2 0x2C65 JUMPI POP PUSH2 0x2C64 CALLER PUSH2 0xD69 JUMP JUMPDEST JUMPDEST ISZERO PUSH2 0x2C79 JUMPI PUSH1 0x14 CALLDATASIZE SUB CALLDATALOAD PUSH1 0x60 SHR SWAP1 POP PUSH2 0x2C7D JUMP JUMPDEST CALLER SWAP1 POP JUMPDEST SWAP1 JUMP JUMPDEST PUSH1 0x60 PUSH1 0x0 PUSH1 0x1 PUSH8 0xFFFFFFFFFFFFFFFF DUP2 GT ISZERO PUSH2 0x2C9F JUMPI PUSH2 0x2C9E PUSH2 0x390C JUMP JUMPDEST JUMPDEST PUSH1 0x40 MLOAD SWAP1 DUP1 DUP3 MSTORE DUP1 PUSH1 0x20 MUL PUSH1 0x20 ADD DUP3 ADD PUSH1 0x40 MSTORE DUP1 ISZERO PUSH2 0x2CCD JUMPI DUP2 PUSH1 0x20 ADD PUSH1 0x20 DUP3 MUL DUP1 CALLDATASIZE DUP4 CALLDATACOPY DUP1 DUP3 ADD SWAP2 POP POP SWAP1 POP JUMPDEST POP SWAP1 POP DUP3 DUP2 PUSH1 0x0 DUP2 MLOAD DUP2 LT PUSH2 0x2CE5 JUMPI PUSH2 0x2CE4 PUSH2 0x4821 JUMP JUMPDEST JUMPDEST PUSH1 0x20 MUL PUSH1 0x20 ADD ADD DUP2 DUP2 MSTORE POP POP DUP1 SWAP2 POP POP SWAP2 SWAP1 POP JUMP JUMPDEST PUSH2 0x2D08 DUP7 DUP7 DUP7 DUP7 DUP7 DUP7 PUSH2 0x336F JUMP JUMPDEST PUSH1 0x0 PUSH20 0xFFFFFFFFFFFFFFFFFFFFFFFFFFFFFFFFFFFFFFFF AND DUP6 PUSH20 0xFFFFFFFFFFFFFFFFFFFFFFFFFFFFFFFFFFFFFFFF AND SUB PUSH2 0x2DB9 JUMPI PUSH1 0x0 JUMPDEST DUP4 MLOAD DUP2 LT ISZERO PUSH2 0x2DB7 JUMPI DUP3 DUP2 DUP2 MLOAD DUP2 LT PUSH2 0x2D5B JUMPI PUSH2 0x2D5A PUSH2 0x4821 JUMP JUMPDEST JUMPDEST PUSH1 0x20 MUL PUSH1 0x20 ADD ADD MLOAD PUSH1 0x9 PUSH1 0x0 DUP7 DUP5 DUP2 MLOAD DUP2 LT PUSH2 0x2D7A JUMPI PUSH2 0x2D79 PUSH2 0x4821 JUMP JUMPDEST JUMPDEST PUSH1 0x20 MUL PUSH1 0x20 ADD ADD MLOAD DUP2 MSTORE PUSH1 0x20 ADD SWAP1 DUP2 MSTORE PUSH1 0x20 ADD PUSH1 0x0 KECCAK256 PUSH1 0x0 DUP3 DUP3 SLOAD PUSH2 0x2D9F SWAP2 SWAP1 PUSH2 0x4FAA JUMP JUMPDEST SWAP3 POP POP DUP2 SWAP1 SSTORE POP DUP1 PUSH2 0x2DB0 SWAP1 PUSH2 0x487F JUMP JUMPDEST SWAP1 POP PUSH2 0x2D3F JUMP JUMPDEST POP JUMPDEST PUSH1 0x0 PUSH20 0xFFFFFFFFFFFFFFFFFFFFFFFFFFFFFFFFFFFFFFFF AND DUP5 PUSH20 0xFFFFFFFFFFFFFFFFFFFFFFFFFFFFFFFFFFFFFFFF AND SUB PUSH2 0x2EC2 JUMPI PUSH1 0x0 JUMPDEST DUP4 MLOAD DUP2 LT ISZERO PUSH2 0x2EC0 JUMPI PUSH1 0x0 DUP5 DUP3 DUP2 MLOAD DUP2 LT PUSH2 0x2E0E JUMPI PUSH2 0x2E0D PUSH2 0x4821 JUMP JUMPDEST JUMPDEST PUSH1 0x20 MUL PUSH1 0x20 ADD ADD MLOAD SWAP1 POP PUSH1 0x0 DUP5 DUP4 DUP2 MLOAD DUP2 LT PUSH2 0x2E2D JUMPI PUSH2 0x2E2C PUSH2 0x4821 JUMP JUMPDEST JUMPDEST PUSH1 0x20 MUL PUSH1 0x20 ADD ADD MLOAD SWAP1 POP PUSH1 0x0 PUSH1 0x9 PUSH1 0x0 DUP5 DUP2 MSTORE PUSH1 0x20 ADD SWAP1 DUP2 MSTORE PUSH1 0x20 ADD PUSH1 0x0 KECCAK256 SLOAD SWAP1 POP DUP2 DUP2 LT ISZERO PUSH2 0x2E92 JUMPI PUSH1 0x40 MLOAD PUSH32 0x8C379A000000000000000000000000000000000000000000000000000000000 DUP2 MSTORE PUSH1 0x4 ADD PUSH2 0x2E89 SWAP1 PUSH2 0x54A8 JUMP JUMPDEST PUSH1 0x40 MLOAD DUP1 SWAP2 SUB SWAP1 REVERT JUMPDEST DUP2 DUP2 SUB PUSH1 0x9 PUSH1 0x0 DUP6 DUP2 MSTORE PUSH1 0x20 ADD SWAP1 DUP2 MSTORE PUSH1 0x20 ADD PUSH1 0x0 KECCAK256 DUP2 SWAP1 SSTORE POP POP POP POP DUP1 PUSH2 0x2EB9 SWAP1 PUSH2 0x487F JUMP JUMPDEST SWAP1 POP PUSH2 0x2DF0 JUMP JUMPDEST POP JUMPDEST POP POP POP POP POP POP JUMP JUMPDEST POP POP POP POP POP POP JUMP JUMPDEST PUSH2 0x2EF1 DUP5 PUSH20 0xFFFFFFFFFFFFFFFFFFFFFFFFFFFFFFFFFFFFFFFF AND PUSH2 0x3377 JUMP JUMPDEST ISZERO PUSH2 0x30A1 JUMPI DUP4 PUSH20 0xFFFFFFFFFFFFFFFFFFFFFFFFFFFFFFFFFFFFFFFF AND PUSH4 0xF23A6E61 DUP8 DUP8 DUP7 DUP7 DUP7 PUSH1 0x40 MLOAD DUP7 PUSH4 0xFFFFFFFF AND PUSH1 0xE0 SHL DUP2 MSTORE PUSH1 0x4 ADD PUSH2 0x2F37 SWAP6 SWAP5 SWAP4 SWAP3 SWAP2 SWAP1 PUSH2 0x551D JUMP JUMPDEST PUSH1 0x20 PUSH1 0x40 MLOAD DUP1 DUP4 SUB DUP2 PUSH1 0x0 DUP8 GAS CALL SWAP3 POP POP POP DUP1 ISZERO PUSH2 0x2F73 JUMPI POP PUSH1 0x40 MLOAD RETURNDATASIZE PUSH1 0x1F NOT PUSH1 0x1F DUP3 ADD AND DUP3 ADD DUP1 PUSH1 0x40 MSTORE POP DUP2 ADD SWAP1 PUSH2 0x2F70 SWAP2 SWAP1 PUSH2 0x558C JUMP JUMPDEST PUSH1 0x1 JUMPDEST PUSH2 0x3018 JUMPI PUSH2 0x2F7F PUSH2 0x55C6 JUMP JUMPDEST DUP1 PUSH4 0x8C379A0 SUB PUSH2 0x2FDB JUMPI POP PUSH2 0x2F93 PUSH2 0x55E8 JUMP JUMPDEST DUP1 PUSH2 0x2F9E JUMPI POP PUSH2 0x2FDD JUMP JUMPDEST DUP1 PUSH1 0x40 MLOAD PUSH32 0x8C379A000000000000000000000000000000000000000000000000000000000 DUP2 MSTORE PUSH1 0x4 ADD PUSH2 0x2FD2 SWAP2 SWAP1 PUSH2 0x38E0 JUMP JUMPDEST PUSH1 0x40 MLOAD DUP1 SWAP2 SUB SWAP1 REVERT JUMPDEST POP JUMPDEST PUSH1 0x40 MLOAD PUSH32 0x8C379A000000000000000000000000000000000000000000000000000000000 DUP2 MSTORE PUSH1 0x4 ADD PUSH2 0x300F SWAP1 PUSH2 0x56EA JUMP JUMPDEST PUSH1 0x40 MLOAD DUP1 SWAP2 SUB SWAP1 REVERT JUMPDEST PUSH4 0xF23A6E61 PUSH1 0xE0 SHL PUSH28 0xFFFFFFFFFFFFFFFFFFFFFFFFFFFFFFFFFFFFFFFFFFFFFFFFFFFFFFFF NOT AND DUP2 PUSH28 0xFFFFFFFFFFFFFFFFFFFFFFFFFFFFFFFFFFFFFFFFFFFFFFFFFFFFFFFF NOT AND EQ PUSH2 0x309F JUMPI PUSH1 0x40 MLOAD PUSH32 0x8C379A000000000000000000000000000000000000000000000000000000000 DUP2 MSTORE PUSH1 0x4 ADD PUSH2 0x3096 SWAP1 PUSH2 0x577C JUMP JUMPDEST PUSH1 0x40 MLOAD DUP1 SWAP2 SUB SWAP1 REVERT JUMPDEST POP JUMPDEST POP POP POP POP POP POP JUMP JUMPDEST PUSH2 0x30C8 DUP5 PUSH20 0xFFFFFFFFFFFFFFFFFFFFFFFFFFFFFFFFFFFFFFFF AND PUSH2 0x3377 JUMP JUMPDEST ISZERO PUSH2 0x3278 JUMPI DUP4 PUSH20 0xFFFFFFFFFFFFFFFFFFFFFFFFFFFFFFFFFFFFFFFF AND PUSH4 0xBC197C81 DUP8 DUP8 DUP7 DUP7 DUP7 PUSH1 0x40 MLOAD DUP7 PUSH4 0xFFFFFFFF AND PUSH1 0xE0 SHL DUP2 MSTORE PUSH1 0x4 ADD PUSH2 0x310E SWAP6 SWAP5 SWAP4 SWAP3 SWAP2 SWAP1 PUSH2 0x579C JUMP JUMPDEST PUSH1 0x20 PUSH1 0x40 MLOAD DUP1 DUP4 SUB DUP2 PUSH1 0x0 DUP8 GAS CALL SWAP3 POP POP POP DUP1 ISZERO PUSH2 0x314A JUMPI POP PUSH1 0x40 MLOAD RETURNDATASIZE PUSH1 0x1F NOT PUSH1 0x1F DUP3 ADD AND DUP3 ADD DUP1 PUSH1 0x40 MSTORE POP DUP2 ADD SWAP1 PUSH2 0x3147 SWAP2 SWAP1 PUSH2 0x558C JUMP JUMPDEST PUSH1 0x1 JUMPDEST PUSH2 0x31EF JUMPI PUSH2 0x3156 PUSH2 0x55C6 JUMP JUMPDEST DUP1 PUSH4 0x8C379A0 SUB PUSH2 0x31B2 JUMPI POP PUSH2 0x316A PUSH2 0x55E8 JUMP JUMPDEST DUP1 PUSH2 0x3175 JUMPI POP PUSH2 0x31B4 JUMP JUMPDEST DUP1 PUSH1 0x40 MLOAD PUSH32 0x8C379A000000000000000000000000000000000000000000000000000000000 DUP2 MSTORE PUSH1 0x4 ADD PUSH2 0x31A9 SWAP2 SWAP1 PUSH2 0x38E0 JUMP JUMPDEST PUSH1 0x40 MLOAD DUP1 SWAP2 SUB SWAP1 REVERT JUMPDEST POP JUMPDEST PUSH1 0x40 MLOAD PUSH32 0x8C379A000000000000000000000000000000000000000000000000000000000 DUP2 MSTORE PUSH1 0x4 ADD PUSH2 0x31E6 SWAP1 PUSH2 0x56EA JUMP JUMPDEST PUSH1 0x40 MLOAD DUP1 SWAP2 SUB SWAP1 REVERT JUMPDEST PUSH4 0xBC197C81 PUSH1 0xE0 SHL PUSH28 0xFFFFFFFFFFFFFFFFFFFFFFFFFFFFFFFFFFFFFFFFFFFFFFFFFFFFFFFF NOT AND DUP2 PUSH28 0xFFFFFFFFFFFFFFFFFFFFFFFFFFFFFFFFFFFFFFFFFFFFFFFFFFFFFFFF NOT AND EQ PUSH2 0x3276 JUMPI PUSH1 0x40 MLOAD PUSH32 0x8C379A000000000000000000000000000000000000000000000000000000000 DUP2 MSTORE PUSH1 0x4 ADD PUSH2 0x326D SWAP1 PUSH2 0x577C JUMP JUMPDEST PUSH1 0x40 MLOAD DUP1 SWAP2 SUB SWAP1 REVERT JUMPDEST POP JUMPDEST POP POP POP POP POP POP JUMP JUMPDEST PUSH2 0x328A DUP3 DUP3 PUSH2 0xF48 JUMP JUMPDEST PUSH2 0x3301 JUMPI PUSH2 0x3297 DUP2 PUSH2 0x339A JUMP JUMPDEST PUSH2 0x32A5 DUP4 PUSH1 0x0 SHR PUSH1 0x20 PUSH2 0x33C7 JUMP JUMPDEST PUSH1 0x40 MLOAD PUSH1 0x20 ADD PUSH2 0x32B6 SWAP3 SWAP2 SWAP1 PUSH2 0x589C JUMP JUMPDEST PUSH1 0x40 MLOAD PUSH1 0x20 DUP2 DUP4 SUB SUB DUP2 MSTORE SWAP1 PUSH1 0x40 MSTORE PUSH1 0x40 MLOAD PUSH32 0x8C379A000000000000000000000000000000000000000000000000000000000 DUP2 MSTORE PUSH1 0x4 ADD PUSH2 0x32F8 SWAP2 SWAP1 PUSH2 0x38E0 JUMP JUMPDEST PUSH1 0x40 MLOAD DUP1 SWAP2 SUB SWAP1 REVERT JUMPDEST POP POP JUMP JUMPDEST PUSH1 0x0 PUSH32 0x1FFC9A700000000000000000000000000000000000000000000000000000000 PUSH28 0xFFFFFFFFFFFFFFFFFFFFFFFFFFFFFFFFFFFFFFFFFFFFFFFFFFFFFFFF NOT AND DUP3 PUSH28 0xFFFFFFFFFFFFFFFFFFFFFFFFFFFFFFFFFFFFFFFFFFFFFFFFFFFFFFFF NOT AND EQ SWAP1 POP SWAP2 SWAP1 POP JUMP JUMPDEST POP POP POP POP POP POP JUMP JUMPDEST PUSH1 0x0 DUP1 DUP3 PUSH20 0xFFFFFFFFFFFFFFFFFFFFFFFFFFFFFFFFFFFFFFFF AND EXTCODESIZE GT SWAP1 POP SWAP2 SWAP1 POP JUMP JUMPDEST PUSH1 0x60 PUSH2 0x33C0 DUP3 PUSH20 0xFFFFFFFFFFFFFFFFFFFFFFFFFFFFFFFFFFFFFFFF AND PUSH1 0x14 PUSH1 0xFF AND PUSH2 0x33C7 JUMP JUMPDEST SWAP1 POP SWAP2 SWAP1 POP JUMP JUMPDEST PUSH1 0x60 PUSH1 0x0 PUSH1 0x2 DUP4 PUSH1 0x2 PUSH2 0x33DA SWAP2 SWAP1 PUSH2 0x58D6 JUMP JUMPDEST PUSH2 0x33E4 SWAP2 SWAP1 PUSH2 0x4FAA JUMP JUMPDEST PUSH8 0xFFFFFFFFFFFFFFFF DUP2 GT ISZERO PUSH2 0x33FD JUMPI PUSH2 0x33FC PUSH2 0x390C JUMP JUMPDEST JUMPDEST PUSH1 0x40 MLOAD SWAP1 DUP1 DUP3 MSTORE DUP1 PUSH1 0x1F ADD PUSH1 0x1F NOT AND PUSH1 0x20 ADD DUP3 ADD PUSH1 0x40 MSTORE DUP1 ISZERO PUSH2 0x342F JUMPI DUP2 PUSH1 0x20 ADD PUSH1 0x1 DUP3 MUL DUP1 CALLDATASIZE DUP4 CALLDATACOPY DUP1 DUP3 ADD SWAP2 POP POP SWAP1 POP JUMPDEST POP SWAP1 POP PUSH32 0x3000000000000000000000000000000000000000000000000000000000000000 DUP2 PUSH1 0x0 DUP2 MLOAD DUP2 LT PUSH2 0x3467 JUMPI PUSH2 0x3466 PUSH2 0x4821 JUMP JUMPDEST JUMPDEST PUSH1 0x20 ADD ADD SWAP1 PUSH31 0xFFFFFFFFFFFFFFFFFFFFFFFFFFFFFFFFFFFFFFFFFFFFFFFFFFFFFFFFFFFFFF NOT AND SWAP1 DUP2 PUSH1 0x0 BYTE SWAP1 MSTORE8 POP PUSH32 0x7800000000000000000000000000000000000000000000000000000000000000 DUP2 PUSH1 0x1 DUP2 MLOAD DUP2 LT PUSH2 0x34CB JUMPI PUSH2 0x34CA PUSH2 0x4821 JUMP JUMPDEST JUMPDEST PUSH1 0x20 ADD ADD SWAP1 PUSH31 0xFFFFFFFFFFFFFFFFFFFFFFFFFFFFFFFFFFFFFFFFFFFFFFFFFFFFFFFFFFFFFF NOT AND SWAP1 DUP2 PUSH1 0x0 BYTE SWAP1 MSTORE8 POP PUSH1 0x0 PUSH1 0x1 DUP5 PUSH1 0x2 PUSH2 0x350B SWAP2 SWAP1 PUSH2 0x58D6 JUMP JUMPDEST PUSH2 0x3515 SWAP2 SWAP1 PUSH2 0x4FAA JUMP JUMPDEST SWAP1 POP JUMPDEST PUSH1 0x1 DUP2 GT ISZERO PUSH2 0x35B5 JUMPI PUSH32 0x3031323334353637383961626364656600000000000000000000000000000000 PUSH1 0xF DUP7 AND PUSH1 0x10 DUP2 LT PUSH2 0x3557 JUMPI PUSH2 0x3556 PUSH2 0x4821 JUMP JUMPDEST JUMPDEST BYTE PUSH1 0xF8 SHL DUP3 DUP3 DUP2 MLOAD DUP2 LT PUSH2 0x356E JUMPI PUSH2 0x356D PUSH2 0x4821 JUMP JUMPDEST JUMPDEST PUSH1 0x20 ADD ADD SWAP1 PUSH31 0xFFFFFFFFFFFFFFFFFFFFFFFFFFFFFFFFFFFFFFFFFFFFFFFFFFFFFFFFFFFFFF NOT AND SWAP1 DUP2 PUSH1 0x0 BYTE SWAP1 MSTORE8 POP PUSH1 0x4 DUP6 SWAP1 SHR SWAP5 POP DUP1 PUSH2 0x35AE SWAP1 PUSH2 0x5918 JUMP JUMPDEST SWAP1 POP PUSH2 0x3518 JUMP JUMPDEST POP PUSH1 0x0 DUP5 EQ PUSH2 0x35F9 JUMPI PUSH1 0x40 MLOAD PUSH32 0x8C379A000000000000000000000000000000000000000000000000000000000 DUP2 MSTORE PUSH1 0x4 ADD PUSH2 0x35F0 SWAP1 PUSH2 0x598D JUMP JUMPDEST PUSH1 0x40 MLOAD DUP1 SWAP2 SUB SWAP1 REVERT JUMPDEST DUP1 SWAP2 POP POP SWAP3 SWAP2 POP POP JUMP JUMPDEST PUSH1 0x0 PUSH1 0x40 MLOAD SWAP1 POP SWAP1 JUMP JUMPDEST PUSH1 0x0 DUP1 REVERT JUMPDEST PUSH1 0x0 DUP1 REVERT JUMPDEST PUSH1 0x0 PUSH20 0xFFFFFFFFFFFFFFFFFFFFFFFFFFFFFFFFFFFFFFFF DUP3 AND SWAP1 POP SWAP2 SWAP1 POP JUMP JUMPDEST PUSH1 0x0 PUSH2 0x3642 DUP3 PUSH2 0x3617 JUMP JUMPDEST SWAP1 POP SWAP2 SWAP1 POP JUMP JUMPDEST PUSH2 0x3652 DUP2 PUSH2 0x3637 JUMP JUMPDEST DUP2 EQ PUSH2 0x365D JUMPI PUSH1 0x0 DUP1 REVERT JUMPDEST POP JUMP JUMPDEST PUSH1 0x0 DUP2 CALLDATALOAD SWAP1 POP PUSH2 0x366F DUP2 PUSH2 0x3649 JUMP JUMPDEST SWAP3 SWAP2 POP POP JUMP JUMPDEST PUSH1 0x0 DUP2 SWAP1 POP SWAP2 SWAP1 POP JUMP JUMPDEST PUSH2 0x3688 DUP2 PUSH2 0x3675 JUMP JUMPDEST DUP2 EQ PUSH2 0x3693 JUMPI PUSH1 0x0 DUP1 REVERT JUMPDEST POP JUMP JUMPDEST PUSH1 0x0 DUP2 CALLDATALOAD SWAP1 POP PUSH2 0x36A5 DUP2 PUSH2 0x367F JUMP JUMPDEST SWAP3 SWAP2 POP POP JUMP JUMPDEST PUSH1 0x0 DUP1 PUSH1 0x40 DUP4 DUP6 SUB SLT ISZERO PUSH2 0x36C2 JUMPI PUSH2 0x36C1 PUSH2 0x360D JUMP JUMPDEST JUMPDEST PUSH1 0x0 PUSH2 0x36D0 DUP6 DUP3 DUP7 ADD PUSH2 0x3660 JUMP JUMPDEST SWAP3 POP POP PUSH1 0x20 PUSH2 0x36E1 DUP6 DUP3 DUP7 ADD PUSH2 0x3696 JUMP JUMPDEST SWAP2 POP POP SWAP3 POP SWAP3 SWAP1 POP JUMP JUMPDEST PUSH2 0x36F4 DUP2 PUSH2 0x3675 JUMP JUMPDEST DUP3 MSTORE POP POP JUMP JUMPDEST PUSH1 0x0 PUSH1 0x20 DUP3 ADD SWAP1 POP PUSH2 0x370F PUSH1 0x0 DUP4 ADD DUP5 PUSH2 0x36EB JUMP JUMPDEST SWAP3 SWAP2 POP POP JUMP JUMPDEST PUSH1 0x0 PUSH32 0xFFFFFFFF00000000000000000000000000000000000000000000000000000000 DUP3 AND SWAP1 POP SWAP2 SWAP1 POP JUMP JUMPDEST PUSH2 0x374A DUP2 PUSH2 0x3715 JUMP JUMPDEST DUP2 EQ PUSH2 0x3755 JUMPI PUSH1 0x0 DUP1 REVERT JUMPDEST POP JUMP JUMPDEST PUSH1 0x0 DUP2 CALLDATALOAD SWAP1 POP PUSH2 0x3767 DUP2 PUSH2 0x3741 JUMP JUMPDEST SWAP3 SWAP2 POP POP JUMP JUMPDEST PUSH1 0x0 PUSH1 0x20 DUP3 DUP5 SUB SLT ISZERO PUSH2 0x3783 JUMPI PUSH2 0x3782 PUSH2 0x360D JUMP JUMPDEST JUMPDEST PUSH1 0x0 PUSH2 0x3791 DUP5 DUP3 DUP6 ADD PUSH2 0x3758 JUMP JUMPDEST SWAP2 POP POP SWAP3 SWAP2 POP POP JUMP JUMPDEST PUSH1 0x0 DUP2 ISZERO ISZERO SWAP1 POP SWAP2 SWAP1 POP JUMP JUMPDEST PUSH2 0x37AF DUP2 PUSH2 0x379A JUMP JUMPDEST DUP3 MSTORE POP POP JUMP JUMPDEST PUSH1 0x0 PUSH1 0x20 DUP3 ADD SWAP1 POP PUSH2 0x37CA PUSH1 0x0 DUP4 ADD DUP5 PUSH2 0x37A6 JUMP JUMPDEST SWAP3 SWAP2 POP POP JUMP JUMPDEST PUSH1 0x0 DUP1 PUSH1 0x0 PUSH1 0x60 DUP5 DUP7 SUB SLT ISZERO PUSH2 0x37E9 JUMPI PUSH2 0x37E8 PUSH2 0x360D JUMP JUMPDEST JUMPDEST PUSH1 0x0 PUSH2 0x37F7 DUP7 DUP3 DUP8 ADD PUSH2 0x3660 JUMP JUMPDEST SWAP4 POP POP PUSH1 0x20 PUSH2 0x3808 DUP7 DUP3 DUP8 ADD PUSH2 0x3696 JUMP JUMPDEST SWAP3 POP POP PUSH1 0x40 PUSH2 0x3819 DUP7 DUP3 DUP8 ADD PUSH2 0x3696 JUMP JUMPDEST SWAP2 POP POP SWAP3 POP SWAP3 POP SWAP3 JUMP JUMPDEST PUSH1 0x0 PUSH1 0x20 DUP3 DUP5 SUB SLT ISZERO PUSH2 0x3839 JUMPI PUSH2 0x3838 PUSH2 0x360D JUMP JUMPDEST JUMPDEST PUSH1 0x0 PUSH2 0x3847 DUP5 DUP3 DUP6 ADD PUSH2 0x3696 JUMP JUMPDEST SWAP2 POP POP SWAP3 SWAP2 POP POP JUMP JUMPDEST PUSH1 0x0 DUP2 MLOAD SWAP1 POP SWAP2 SWAP1 POP JUMP JUMPDEST PUSH1 0x0 DUP3 DUP3 MSTORE PUSH1 0x20 DUP3 ADD SWAP1 POP SWAP3 SWAP2 POP POP JUMP JUMPDEST PUSH1 0x0 JUMPDEST DUP4 DUP2 LT ISZERO PUSH2 0x388A JUMPI DUP1 DUP3 ADD MLOAD DUP2 DUP5 ADD MSTORE PUSH1 0x20 DUP2 ADD SWAP1 POP PUSH2 0x386F JUMP JUMPDEST PUSH1 0x0 DUP5 DUP5 ADD MSTORE POP POP POP POP JUMP JUMPDEST PUSH1 0x0 PUSH1 0x1F NOT PUSH1 0x1F DUP4 ADD AND SWAP1 POP SWAP2 SWAP1 POP JUMP JUMPDEST PUSH1 0x0 PUSH2 0x38B2 DUP3 PUSH2 0x3850 JUMP JUMPDEST PUSH2 0x38BC DUP2 DUP6 PUSH2 0x385B JUMP JUMPDEST SWAP4 POP PUSH2 0x38CC DUP2 DUP6 PUSH1 0x20 DUP7 ADD PUSH2 0x386C JUMP JUMPDEST PUSH2 0x38D5 DUP2 PUSH2 0x3896 JUMP JUMPDEST DUP5 ADD SWAP2 POP POP SWAP3 SWAP2 POP POP JUMP JUMPDEST PUSH1 0x0 PUSH1 0x20 DUP3 ADD SWAP1 POP DUP2 DUP2 SUB PUSH1 0x0 DUP4 ADD MSTORE PUSH2 0x38FA DUP2 DUP5 PUSH2 0x38A7 JUMP JUMPDEST SWAP1 POP SWAP3 SWAP2 POP POP JUMP JUMPDEST PUSH1 0x0 DUP1 REVERT JUMPDEST PUSH1 0x0 DUP1 REVERT JUMPDEST PUSH32 0x4E487B7100000000000000000000000000000000000000000000000000000000 PUSH1 0x0 MSTORE PUSH1 0x41 PUSH1 0x4 MSTORE PUSH1 0x24 PUSH1 0x0 REVERT JUMPDEST PUSH2 0x3944 DUP3 PUSH2 0x3896 JUMP JUMPDEST DUP2 ADD DUP2 DUP2 LT PUSH8 0xFFFFFFFFFFFFFFFF DUP3 GT OR ISZERO PUSH2 0x3963 JUMPI PUSH2 0x3962 PUSH2 0x390C JUMP JUMPDEST JUMPDEST DUP1 PUSH1 0x40 MSTORE POP POP POP JUMP JUMPDEST PUSH1 0x0 PUSH2 0x3976 PUSH2 0x3603 JUMP JUMPDEST SWAP1 POP PUSH2 0x3982 DUP3 DUP3 PUSH2 0x393B JUMP JUMPDEST SWAP2 SWAP1 POP JUMP JUMPDEST PUSH1 0x0 PUSH8 0xFFFFFFFFFFFFFFFF DUP3 GT ISZERO PUSH2 0x39A2 JUMPI PUSH2 0x39A1 PUSH2 0x390C JUMP JUMPDEST JUMPDEST PUSH2 0x39AB DUP3 PUSH2 0x3896 JUMP JUMPDEST SWAP1 POP PUSH1 0x20 DUP2 ADD SWAP1 POP SWAP2 SWAP1 POP JUMP JUMPDEST DUP3 DUP2 DUP4 CALLDATACOPY PUSH1 0x0 DUP4 DUP4 ADD MSTORE POP POP POP JUMP JUMPDEST PUSH1 0x0 PUSH2 0x39DA PUSH2 0x39D5 DUP5 PUSH2 0x3987 JUMP JUMPDEST PUSH2 0x396C JUMP JUMPDEST SWAP1 POP DUP3 DUP2 MSTORE PUSH1 0x20 DUP2 ADD DUP5 DUP5 DUP5 ADD GT ISZERO PUSH2 0x39F6 JUMPI PUSH2 0x39F5 PUSH2 0x3907 JUMP JUMPDEST JUMPDEST PUSH2 0x3A01 DUP5 DUP3 DUP6 PUSH2 0x39B8 JUMP JUMPDEST POP SWAP4 SWAP3 POP POP POP JUMP JUMPDEST PUSH1 0x0 DUP3 PUSH1 0x1F DUP4 ADD SLT PUSH2 0x3A1E JUMPI PUSH2 0x3A1D PUSH2 0x3902 JUMP JUMPDEST JUMPDEST DUP2 CALLDATALOAD PUSH2 0x3A2E DUP5 DUP3 PUSH1 0x20 DUP7 ADD PUSH2 0x39C7 JUMP JUMPDEST SWAP2 POP POP SWAP3 SWAP2 POP POP JUMP JUMPDEST PUSH1 0x0 DUP1 PUSH1 0x40 DUP4 DUP6 SUB SLT ISZERO PUSH2 0x3A4E JUMPI PUSH2 0x3A4D PUSH2 0x360D JUMP JUMPDEST JUMPDEST PUSH1 0x0 PUSH2 0x3A5C DUP6 DUP3 DUP7 ADD PUSH2 0x3696 JUMP JUMPDEST SWAP3 POP POP PUSH1 0x20 DUP4 ADD CALLDATALOAD PUSH8 0xFFFFFFFFFFFFFFFF DUP2 GT ISZERO PUSH2 0x3A7D JUMPI PUSH2 0x3A7C PUSH2 0x3612 JUMP JUMPDEST JUMPDEST PUSH2 0x3A89 DUP6 DUP3 DUP7 ADD PUSH2 0x3A09 JUMP JUMPDEST SWAP2 POP POP SWAP3 POP SWAP3 SWAP1 POP JUMP JUMPDEST PUSH1 0x0 DUP2 SWAP1 POP SWAP2 SWAP1 POP JUMP JUMPDEST PUSH2 0x3AA6 DUP2 PUSH2 0x3A93 JUMP JUMPDEST DUP2 EQ PUSH2 0x3AB1 JUMPI PUSH1 0x0 DUP1 REVERT JUMPDEST POP JUMP JUMPDEST PUSH1 0x0 DUP2 CALLDATALOAD SWAP1 POP PUSH2 0x3AC3 DUP2 PUSH2 0x3A9D JUMP JUMPDEST SWAP3 SWAP2 POP POP JUMP JUMPDEST PUSH1 0x0 PUSH1 0x20 DUP3 DUP5 SUB SLT ISZERO PUSH2 0x3ADF JUMPI PUSH2 0x3ADE PUSH2 0x360D JUMP JUMPDEST JUMPDEST PUSH1 0x0 PUSH2 0x3AED DUP5 DUP3 DUP6 ADD PUSH2 0x3AB4 JUMP JUMPDEST SWAP2 POP POP SWAP3 SWAP2 POP POP JUMP JUMPDEST PUSH2 0x3AFF DUP2 PUSH2 0x3A93 JUMP JUMPDEST DUP3 MSTORE POP POP JUMP JUMPDEST PUSH1 0x0 PUSH1 0x20 DUP3 ADD SWAP1 POP PUSH2 0x3B1A PUSH1 0x0 DUP4 ADD DUP5 PUSH2 0x3AF6 JUMP JUMPDEST SWAP3 SWAP2 POP POP JUMP JUMPDEST PUSH1 0x0 PUSH8 0xFFFFFFFFFFFFFFFF DUP3 GT ISZERO PUSH2 0x3B3B JUMPI PUSH2 0x3B3A PUSH2 0x390C JUMP JUMPDEST JUMPDEST PUSH1 0x20 DUP3 MUL SWAP1 POP PUSH1 0x20 DUP2 ADD SWAP1 POP SWAP2 SWAP1 POP JUMP JUMPDEST PUSH1 0x0 DUP1 REVERT JUMPDEST PUSH1 0x0 PUSH2 0x3B64 PUSH2 0x3B5F DUP5 PUSH2 0x3B20 JUMP JUMPDEST PUSH2 0x396C JUMP JUMPDEST SWAP1 POP DUP1 DUP4 DUP3 MSTORE PUSH1 0x20 DUP3 ADD SWAP1 POP PUSH1 0x20 DUP5 MUL DUP4 ADD DUP6 DUP2 GT ISZERO PUSH2 0x3B87 JUMPI PUSH2 0x3B86 PUSH2 0x3B4C JUMP JUMPDEST JUMPDEST DUP4 JUMPDEST DUP2 DUP2 LT ISZERO PUSH2 0x3BB0 JUMPI DUP1 PUSH2 0x3B9C DUP9 DUP3 PUSH2 0x3696 JUMP JUMPDEST DUP5 MSTORE PUSH1 0x20 DUP5 ADD SWAP4 POP POP PUSH1 0x20 DUP2 ADD SWAP1 POP PUSH2 0x3B89 JUMP JUMPDEST POP POP POP SWAP4 SWAP3 POP POP POP JUMP JUMPDEST PUSH1 0x0 DUP3 PUSH1 0x1F DUP4 ADD SLT PUSH2 0x3BCF JUMPI PUSH2 0x3BCE PUSH2 0x3902 JUMP JUMPDEST JUMPDEST DUP2 CALLDATALOAD PUSH2 0x3BDF DUP5 DUP3 PUSH1 0x20 DUP7 ADD PUSH2 0x3B51 JUMP JUMPDEST SWAP2 POP POP SWAP3 SWAP2 POP POP JUMP JUMPDEST PUSH1 0x0 PUSH8 0xFFFFFFFFFFFFFFFF DUP3 GT ISZERO PUSH2 0x3C03 JUMPI PUSH2 0x3C02 PUSH2 0x390C JUMP JUMPDEST JUMPDEST PUSH2 0x3C0C DUP3 PUSH2 0x3896 JUMP JUMPDEST SWAP1 POP PUSH1 0x20 DUP2 ADD SWAP1 POP SWAP2 SWAP1 POP JUMP JUMPDEST PUSH1 0x0 PUSH2 0x3C2C PUSH2 0x3C27 DUP5 PUSH2 0x3BE8 JUMP JUMPDEST PUSH2 0x396C JUMP JUMPDEST SWAP1 POP DUP3 DUP2 MSTORE PUSH1 0x20 DUP2 ADD DUP5 DUP5 DUP5 ADD GT ISZERO PUSH2 0x3C48 JUMPI PUSH2 0x3C47 PUSH2 0x3907 JUMP JUMPDEST JUMPDEST PUSH2 0x3C53 DUP5 DUP3 DUP6 PUSH2 0x39B8 JUMP JUMPDEST POP SWAP4 SWAP3 POP POP POP JUMP JUMPDEST PUSH1 0x0 DUP3 PUSH1 0x1F DUP4 ADD SLT PUSH2 0x3C70 JUMPI PUSH2 0x3C6F PUSH2 0x3902 JUMP JUMPDEST JUMPDEST DUP2 CALLDATALOAD PUSH2 0x3C80 DUP5 DUP3 PUSH1 0x20 DUP7 ADD PUSH2 0x3C19 JUMP JUMPDEST SWAP2 POP POP SWAP3 SWAP2 POP POP JUMP JUMPDEST PUSH1 0x0 DUP1 PUSH1 0x0 DUP1 PUSH1 0x0 PUSH1 0xA0 DUP7 DUP9 SUB SLT ISZERO PUSH2 0x3CA5 JUMPI PUSH2 0x3CA4 PUSH2 0x360D JUMP JUMPDEST JUMPDEST PUSH1 0x0 PUSH2 0x3CB3 DUP9 DUP3 DUP10 ADD PUSH2 0x3660 JUMP JUMPDEST SWAP6 POP POP PUSH1 0x20 PUSH2 0x3CC4 DUP9 DUP3 DUP10 ADD PUSH2 0x3660 JUMP JUMPDEST SWAP5 POP POP PUSH1 0x40 DUP7 ADD CALLDATALOAD PUSH8 0xFFFFFFFFFFFFFFFF DUP2 GT ISZERO PUSH2 0x3CE5 JUMPI PUSH2 0x3CE4 PUSH2 0x3612 JUMP JUMPDEST JUMPDEST PUSH2 0x3CF1 DUP9 DUP3 DUP10 ADD PUSH2 0x3BBA JUMP JUMPDEST SWAP4 POP POP PUSH1 0x60 DUP7 ADD CALLDATALOAD PUSH8 0xFFFFFFFFFFFFFFFF DUP2 GT ISZERO PUSH2 0x3D12 JUMPI PUSH2 0x3D11 PUSH2 0x3612 JUMP JUMPDEST JUMPDEST PUSH2 0x3D1E DUP9 DUP3 DUP10 ADD PUSH2 0x3BBA JUMP JUMPDEST SWAP3 POP POP PUSH1 0x80 DUP7 ADD CALLDATALOAD PUSH8 0xFFFFFFFFFFFFFFFF DUP2 GT ISZERO PUSH2 0x3D3F JUMPI PUSH2 0x3D3E PUSH2 0x3612 JUMP JUMPDEST JUMPDEST PUSH2 0x3D4B DUP9 DUP3 DUP10 ADD PUSH2 0x3C5B JUMP JUMPDEST SWAP2 POP POP SWAP3 SWAP6 POP SWAP3 SWAP6 SWAP1 SWAP4 POP JUMP JUMPDEST PUSH1 0x0 DUP1 PUSH1 0x40 DUP4 DUP6 SUB SLT ISZERO PUSH2 0x3D6F JUMPI PUSH2 0x3D6E PUSH2 0x360D JUMP JUMPDEST JUMPDEST PUSH1 0x0 PUSH2 0x3D7D DUP6 DUP3 DUP7 ADD PUSH2 0x3AB4 JUMP JUMPDEST SWAP3 POP POP PUSH1 0x20 PUSH2 0x3D8E DUP6 DUP3 DUP7 ADD PUSH2 0x3660 JUMP JUMPDEST SWAP2 POP POP SWAP3 POP SWAP3 SWAP1 POP JUMP JUMPDEST PUSH1 0x0 PUSH1 0x20 DUP3 DUP5 SUB SLT ISZERO PUSH2 0x3DAE JUMPI PUSH2 0x3DAD PUSH2 0x360D JUMP JUMPDEST JUMPDEST PUSH1 0x0 DUP3 ADD CALLDATALOAD PUSH8 0xFFFFFFFFFFFFFFFF DUP2 GT ISZERO PUSH2 0x3DCC JUMPI PUSH2 0x3DCB PUSH2 0x3612 JUMP JUMPDEST JUMPDEST PUSH2 0x3DD8 DUP5 DUP3 DUP6 ADD PUSH2 0x3A09 JUMP JUMPDEST SWAP2 POP POP SWAP3 SWAP2 POP POP JUMP JUMPDEST PUSH1 0x0 PUSH8 0xFFFFFFFFFFFFFFFF DUP3 GT ISZERO PUSH2 0x3DFC JUMPI PUSH2 0x3DFB PUSH2 0x390C JUMP JUMPDEST JUMPDEST PUSH1 0x20 DUP3 MUL SWAP1 POP PUSH1 0x20 DUP2 ADD SWAP1 POP SWAP2 SWAP1 POP JUMP JUMPDEST PUSH1 0x0 PUSH2 0x3E20 PUSH2 0x3E1B DUP5 PUSH2 0x3DE1 JUMP JUMPDEST PUSH2 0x396C JUMP JUMPDEST SWAP1 POP DUP1 DUP4 DUP3 MSTORE PUSH1 0x20 DUP3 ADD SWAP1 POP PUSH1 0x20 DUP5 MUL DUP4 ADD DUP6 DUP2 GT ISZERO PUSH2 0x3E43 JUMPI PUSH2 0x3E42 PUSH2 0x3B4C JUMP JUMPDEST JUMPDEST DUP4 JUMPDEST DUP2 DUP2 LT ISZERO PUSH2 0x3E6C JUMPI DUP1 PUSH2 0x3E58 DUP9 DUP3 PUSH2 0x3660 JUMP JUMPDEST DUP5 MSTORE PUSH1 0x20 DUP5 ADD SWAP4 POP POP PUSH1 0x20 DUP2 ADD SWAP1 POP PUSH2 0x3E45 JUMP JUMPDEST POP POP POP SWAP4 SWAP3 POP POP POP JUMP JUMPDEST PUSH1 0x0 DUP3 PUSH1 0x1F DUP4 ADD SLT PUSH2 0x3E8B JUMPI PUSH2 0x3E8A PUSH2 0x3902 JUMP JUMPDEST JUMPDEST DUP2 CALLDATALOAD PUSH2 0x3E9B DUP5 DUP3 PUSH1 0x20 DUP7 ADD PUSH2 0x3E0D JUMP JUMPDEST SWAP2 POP POP SWAP3 SWAP2 POP POP JUMP JUMPDEST PUSH1 0x0 DUP1 PUSH1 0x40 DUP4 DUP6 SUB SLT ISZERO PUSH2 0x3EBB JUMPI PUSH2 0x3EBA PUSH2 0x360D JUMP JUMPDEST JUMPDEST PUSH1 0x0 DUP4 ADD CALLDATALOAD PUSH8 0xFFFFFFFFFFFFFFFF DUP2 GT ISZERO PUSH2 0x3ED9 JUMPI PUSH2 0x3ED8 PUSH2 0x3612 JUMP JUMPDEST JUMPDEST PUSH2 0x3EE5 DUP6 DUP3 DUP7 ADD PUSH2 0x3E76 JUMP JUMPDEST SWAP3 POP POP PUSH1 0x20 DUP4 ADD CALLDATALOAD PUSH8 0xFFFFFFFFFFFFFFFF DUP2 GT ISZERO PUSH2 0x3F06 JUMPI PUSH2 0x3F05 PUSH2 0x3612 JUMP JUMPDEST JUMPDEST PUSH2 0x3F12 DUP6 DUP3 DUP7 ADD PUSH2 0x3BBA JUMP JUMPDEST SWAP2 POP POP SWAP3 POP SWAP3 SWAP1 POP JUMP JUMPDEST PUSH1 0x0 DUP2 MLOAD SWAP1 POP SWAP2 SWAP1 POP JUMP JUMPDEST PUSH1 0x0 DUP3 DUP3 MSTORE PUSH1 0x20 DUP3 ADD SWAP1 POP SWAP3 SWAP2 POP POP JUMP JUMPDEST PUSH1 0x0 DUP2 SWAP1 POP PUSH1 0x20 DUP3 ADD SWAP1 POP SWAP2 SWAP1 POP JUMP JUMPDEST PUSH2 0x3F51 DUP2 PUSH2 0x3675 JUMP JUMPDEST DUP3 MSTORE POP POP JUMP JUMPDEST PUSH1 0x0 PUSH2 0x3F63 DUP4 DUP4 PUSH2 0x3F48 JUMP JUMPDEST PUSH1 0x20 DUP4 ADD SWAP1 POP SWAP3 SWAP2 POP POP JUMP JUMPDEST PUSH1 0x0 PUSH1 0x20 DUP3 ADD SWAP1 POP SWAP2 SWAP1 POP JUMP JUMPDEST PUSH1 0x0 PUSH2 0x3F87 DUP3 PUSH2 0x3F1C JUMP JUMPDEST PUSH2 0x3F91 DUP2 DUP6 PUSH2 0x3F27 JUMP JUMPDEST SWAP4 POP PUSH2 0x3F9C DUP4 PUSH2 0x3F38 JUMP JUMPDEST DUP1 PUSH1 0x0 JUMPDEST DUP4 DUP2 LT ISZERO PUSH2 0x3FCD JUMPI DUP2 MLOAD PUSH2 0x3FB4 DUP9 DUP3 PUSH2 0x3F57 JUMP JUMPDEST SWAP8 POP PUSH2 0x3FBF DUP4 PUSH2 0x3F6F JUMP JUMPDEST SWAP3 POP POP PUSH1 0x1 DUP2 ADD SWAP1 POP PUSH2 0x3FA0 JUMP JUMPDEST POP DUP6 SWAP4 POP POP POP POP SWAP3 SWAP2 POP POP JUMP JUMPDEST PUSH1 0x0 PUSH1 0x20 DUP3 ADD SWAP1 POP DUP2 DUP2 SUB PUSH1 0x0 DUP4 ADD MSTORE PUSH2 0x3FF4 DUP2 DUP5 PUSH2 0x3F7C JUMP JUMPDEST SWAP1 POP SWAP3 SWAP2 POP POP JUMP JUMPDEST PUSH1 0x0 PUSH1 0x20 DUP3 DUP5 SUB SLT ISZERO PUSH2 0x4012 JUMPI PUSH2 0x4011 PUSH2 0x360D JUMP JUMPDEST JUMPDEST PUSH1 0x0 PUSH2 0x4020 DUP5 DUP3 DUP6 ADD PUSH2 0x3660 JUMP JUMPDEST SWAP2 POP POP SWAP3 SWAP2 POP POP JUMP JUMPDEST PUSH1 0x0 DUP1 PUSH1 0x0 PUSH1 0x60 DUP5 DUP7 SUB SLT ISZERO PUSH2 0x4042 JUMPI PUSH2 0x4041 PUSH2 0x360D JUMP JUMPDEST JUMPDEST PUSH1 0x0 PUSH2 0x4050 DUP7 DUP3 DUP8 ADD PUSH2 0x3660 JUMP JUMPDEST SWAP4 POP POP PUSH1 0x20 DUP5 ADD CALLDATALOAD PUSH8 0xFFFFFFFFFFFFFFFF DUP2 GT ISZERO PUSH2 0x4071 JUMPI PUSH2 0x4070 PUSH2 0x3612 JUMP JUMPDEST JUMPDEST PUSH2 0x407D DUP7 DUP3 DUP8 ADD PUSH2 0x3BBA JUMP JUMPDEST SWAP3 POP POP PUSH1 0x40 DUP5 ADD CALLDATALOAD PUSH8 0xFFFFFFFFFFFFFFFF DUP2 GT ISZERO PUSH2 0x409E JUMPI PUSH2 0x409D PUSH2 0x3612 JUMP JUMPDEST JUMPDEST PUSH2 0x40AA DUP7 DUP3 DUP8 ADD PUSH2 0x3BBA JUMP JUMPDEST SWAP2 POP POP SWAP3 POP SWAP3 POP SWAP3 JUMP JUMPDEST PUSH2 0x40BD DUP2 PUSH2 0x3637 JUMP JUMPDEST DUP3 MSTORE POP POP JUMP JUMPDEST PUSH1 0x0 PUSH1 0x20 DUP3 ADD SWAP1 POP PUSH2 0x40D8 PUSH1 0x0 DUP4 ADD DUP5 PUSH2 0x40B4 JUMP JUMPDEST SWAP3 SWAP2 POP POP JUMP JUMPDEST PUSH2 0x40E7 DUP2 PUSH2 0x379A JUMP JUMPDEST DUP2 EQ PUSH2 0x40F2 JUMPI PUSH1 0x0 DUP1 REVERT JUMPDEST POP JUMP JUMPDEST PUSH1 0x0 DUP2 CALLDATALOAD SWAP1 POP PUSH2 0x4104 DUP2 PUSH2 0x40DE JUMP JUMPDEST SWAP3 SWAP2 POP POP JUMP JUMPDEST PUSH1 0x0 DUP1 PUSH1 0x40 DUP4 DUP6 SUB SLT ISZERO PUSH2 0x4121 JUMPI PUSH2 0x4120 PUSH2 0x360D JUMP JUMPDEST JUMPDEST PUSH1 0x0 PUSH2 0x412F DUP6 DUP3 DUP7 ADD PUSH2 0x3660 JUMP JUMPDEST SWAP3 POP POP PUSH1 0x20 PUSH2 0x4140 DUP6 DUP3 DUP7 ADD PUSH2 0x40F5 JUMP JUMPDEST SWAP2 POP POP SWAP3 POP SWAP3 SWAP1 POP JUMP JUMPDEST PUSH1 0x0 DUP1 REVERT JUMPDEST PUSH1 0x0 DUP1 DUP4 PUSH1 0x1F DUP5 ADD SLT PUSH2 0x4165 JUMPI PUSH2 0x4164 PUSH2 0x3902 JUMP JUMPDEST JUMPDEST DUP3 CALLDATALOAD SWAP1 POP PUSH8 0xFFFFFFFFFFFFFFFF DUP2 GT ISZERO PUSH2 0x4182 JUMPI PUSH2 0x4181 PUSH2 0x414A JUMP JUMPDEST JUMPDEST PUSH1 0x20 DUP4 ADD SWAP2 POP DUP4 PUSH1 0x20 DUP3 MUL DUP4 ADD GT ISZERO PUSH2 0x419E JUMPI PUSH2 0x419D PUSH2 0x3B4C JUMP JUMPDEST JUMPDEST SWAP3 POP SWAP3 SWAP1 POP JUMP JUMPDEST PUSH1 0x0 DUP1 PUSH1 0x0 DUP1 PUSH1 0x0 PUSH1 0x60 DUP7 DUP9 SUB SLT ISZERO PUSH2 0x41C1 JUMPI PUSH2 0x41C0 PUSH2 0x360D JUMP JUMPDEST JUMPDEST PUSH1 0x0 PUSH2 0x41CF DUP9 DUP3 DUP10 ADD PUSH2 0x3660 JUMP JUMPDEST SWAP6 POP POP PUSH1 0x20 DUP7 ADD CALLDATALOAD PUSH8 0xFFFFFFFFFFFFFFFF DUP2 GT ISZERO PUSH2 0x41F0 JUMPI PUSH2 0x41EF PUSH2 0x3612 JUMP JUMPDEST JUMPDEST PUSH2 0x41FC DUP9 DUP3 DUP10 ADD PUSH2 0x414F JUMP JUMPDEST SWAP5 POP SWAP5 POP POP PUSH1 0x40 DUP7 ADD CALLDATALOAD PUSH8 0xFFFFFFFFFFFFFFFF DUP2 GT ISZERO PUSH2 0x421F JUMPI PUSH2 0x421E PUSH2 0x3612 JUMP JUMPDEST JUMPDEST PUSH2 0x422B DUP9 DUP3 DUP10 ADD PUSH2 0x414F JUMP JUMPDEST SWAP3 POP SWAP3 POP POP SWAP3 SWAP6 POP SWAP3 SWAP6 SWAP1 SWAP4 POP JUMP JUMPDEST PUSH1 0x0 DUP1 PUSH1 0x40 DUP4 DUP6 SUB SLT ISZERO PUSH2 0x4251 JUMPI PUSH2 0x4250 PUSH2 0x360D JUMP JUMPDEST JUMPDEST PUSH1 0x0 PUSH2 0x425F DUP6 DUP3 DUP7 ADD PUSH2 0x3660 JUMP JUMPDEST SWAP3 POP POP PUSH1 0x20 PUSH2 0x4270 DUP6 DUP3 DUP7 ADD PUSH2 0x3660 JUMP JUMPDEST SWAP2 POP POP SWAP3 POP SWAP3 SWAP1 POP JUMP JUMPDEST PUSH1 0x0 DUP1 PUSH1 0x0 DUP1 PUSH1 0x0 PUSH1 0xA0 DUP7 DUP9 SUB SLT ISZERO PUSH2 0x4296 JUMPI PUSH2 0x4295 PUSH2 0x360D JUMP JUMPDEST JUMPDEST PUSH1 0x0 PUSH2 0x42A4 DUP9 DUP3 DUP10 ADD PUSH2 0x3660 JUMP JUMPDEST SWAP6 POP POP PUSH1 0x20 PUSH2 0x42B5 DUP9 DUP3 DUP10 ADD PUSH2 0x3660 JUMP JUMPDEST SWAP5 POP POP PUSH1 0x40 PUSH2 0x42C6 DUP9 DUP3 DUP10 ADD PUSH2 0x3696 JUMP JUMPDEST SWAP4 POP POP PUSH1 0x60 PUSH2 0x42D7 DUP9 DUP3 DUP10 ADD PUSH2 0x3696 JUMP JUMPDEST SWAP3 POP POP PUSH1 0x80 DUP7 ADD CALLDATALOAD PUSH8 0xFFFFFFFFFFFFFFFF DUP2 GT ISZERO PUSH2 0x42F8 JUMPI PUSH2 0x42F7 PUSH2 0x3612 JUMP JUMPDEST JUMPDEST PUSH2 0x4304 DUP9 DUP3 DUP10 ADD PUSH2 0x3C5B JUMP JUMPDEST SWAP2 POP POP SWAP3 SWAP6 POP SWAP3 SWAP6 SWAP1 SWAP4 POP JUMP JUMPDEST PUSH32 0x455243313135353A2061646472657373207A65726F206973206E6F7420612076 PUSH1 0x0 DUP3 ADD MSTORE PUSH32 0x616C6964206F776E657200000000000000000000000000000000000000000000 PUSH1 0x20 DUP3 ADD MSTORE POP JUMP JUMPDEST PUSH1 0x0 PUSH2 0x436D PUSH1 0x2A DUP4 PUSH2 0x385B JUMP JUMPDEST SWAP2 POP PUSH2 0x4378 DUP3 PUSH2 0x4311 JUMP JUMPDEST PUSH1 0x40 DUP3 ADD SWAP1 POP SWAP2 SWAP1 POP JUMP JUMPDEST PUSH1 0x0 PUSH1 0x20 DUP3 ADD SWAP1 POP DUP2 DUP2 SUB PUSH1 0x0 DUP4 ADD MSTORE PUSH2 0x439C DUP2 PUSH2 0x4360 JUMP JUMPDEST SWAP1 POP SWAP2 SWAP1 POP JUMP JUMPDEST PUSH1 0x0 PUSH1 0xA0 DUP3 ADD SWAP1 POP PUSH2 0x43B8 PUSH1 0x0 DUP4 ADD DUP9 PUSH2 0x40B4 JUMP JUMPDEST PUSH2 0x43C5 PUSH1 0x20 DUP4 ADD DUP8 PUSH2 0x40B4 JUMP JUMPDEST PUSH2 0x43D2 PUSH1 0x40 DUP4 ADD DUP7 PUSH2 0x40B4 JUMP JUMPDEST PUSH2 0x43DF PUSH1 0x60 DUP4 ADD DUP6 PUSH2 0x36EB JUMP JUMPDEST PUSH2 0x43EC PUSH1 0x80 DUP4 ADD DUP5 PUSH2 0x36EB JUMP JUMPDEST SWAP7 SWAP6 POP POP POP POP POP POP JUMP JUMPDEST PUSH32 0x4E487B7100000000000000000000000000000000000000000000000000000000 PUSH1 0x0 MSTORE PUSH1 0x22 PUSH1 0x4 MSTORE PUSH1 0x24 PUSH1 0x0 REVERT JUMPDEST PUSH1 0x0 PUSH1 0x2 DUP3 DIV SWAP1 POP PUSH1 0x1 DUP3 AND DUP1 PUSH2 0x443D JUMPI PUSH1 0x7F DUP3 AND SWAP2 POP JUMPDEST PUSH1 0x20 DUP3 LT DUP2 SUB PUSH2 0x4450 JUMPI PUSH2 0x444F PUSH2 0x43F6 JUMP JUMPDEST JUMPDEST POP SWAP2 SWAP1 POP JUMP JUMPDEST PUSH1 0x0 DUP2 SWAP1 POP SWAP3 SWAP2 POP POP JUMP JUMPDEST PUSH1 0x0 DUP2 SWAP1 POP DUP2 PUSH1 0x0 MSTORE PUSH1 0x20 PUSH1 0x0 KECCAK256 SWAP1 POP SWAP2 SWAP1 POP JUMP JUMPDEST PUSH1 0x0 DUP2 SLOAD PUSH2 0x4483 DUP2 PUSH2 0x4425 JUMP JUMPDEST PUSH2 0x448D DUP2 DUP7 PUSH2 0x4456 JUMP JUMPDEST SWAP5 POP PUSH1 0x1 DUP3 AND PUSH1 0x0 DUP2 EQ PUSH2 0x44A8 JUMPI PUSH1 0x1 DUP2 EQ PUSH2 0x44BD JUMPI PUSH2 0x44F0 JUMP JUMPDEST PUSH1 0xFF NOT DUP4 AND DUP7 MSTORE DUP2 ISZERO ISZERO DUP3 MUL DUP7 ADD SWAP4 POP PUSH2 0x44F0 JUMP JUMPDEST PUSH2 0x44C6 DUP6 PUSH2 0x4461 JUMP JUMPDEST PUSH1 0x0 JUMPDEST DUP4 DUP2 LT ISZERO PUSH2 0x44E8 JUMPI DUP2 SLOAD DUP2 DUP10 ADD MSTORE PUSH1 0x1 DUP3 ADD SWAP2 POP PUSH1 0x20 DUP2 ADD SWAP1 POP PUSH2 0x44C9 JUMP JUMPDEST DUP4 DUP9 ADD SWAP6 POP POP POP JUMPDEST POP POP POP SWAP3 SWAP2 POP POP JUMP JUMPDEST PUSH1 0x0 PUSH2 0x4504 DUP3 PUSH2 0x3850 JUMP JUMPDEST PUSH2 0x450E DUP2 DUP6 PUSH2 0x4456 JUMP JUMPDEST SWAP4 POP PUSH2 0x451E DUP2 DUP6 PUSH1 0x20 DUP7 ADD PUSH2 0x386C JUMP JUMPDEST DUP1 DUP5 ADD SWAP2 POP POP SWAP3 SWAP2 POP POP JUMP JUMPDEST PUSH1 0x0 PUSH2 0x4536 DUP3 DUP6 PUSH2 0x4476 JUMP JUMPDEST SWAP2 POP PUSH2 0x4542 DUP3 DUP5 PUSH2 0x44F9 JUMP JUMPDEST SWAP2 POP DUP2 SWAP1 POP SWAP4 SWAP3 POP POP POP JUMP JUMPDEST PUSH32 0x4D7573742068617665206D696E74657220726F6C6520746F206D696E74000000 PUSH1 0x0 DUP3 ADD MSTORE POP JUMP JUMPDEST PUSH1 0x0 PUSH2 0x4584 PUSH1 0x1D DUP4 PUSH2 0x385B JUMP JUMPDEST SWAP2 POP PUSH2 0x458F DUP3 PUSH2 0x454E JUMP JUMPDEST PUSH1 0x20 DUP3 ADD SWAP1 POP SWAP2 SWAP1 POP JUMP JUMPDEST PUSH1 0x0 PUSH1 0x20 DUP3 ADD SWAP1 POP DUP2 DUP2 SUB PUSH1 0x0 DUP4 ADD MSTORE PUSH2 0x45B3 DUP2 PUSH2 0x4577 JUMP JUMPDEST SWAP1 POP SWAP2 SWAP1 POP JUMP JUMPDEST PUSH1 0x0 PUSH1 0x80 DUP3 ADD SWAP1 POP PUSH2 0x45CF PUSH1 0x0 DUP4 ADD DUP8 PUSH2 0x40B4 JUMP JUMPDEST PUSH2 0x45DC PUSH1 0x20 DUP4 ADD DUP7 PUSH2 0x40B4 JUMP JUMPDEST PUSH2 0x45E9 PUSH1 0x40 DUP4 ADD DUP6 PUSH2 0x36EB JUMP JUMPDEST PUSH2 0x45F6 PUSH1 0x60 DUP4 ADD DUP5 PUSH2 0x36EB JUMP JUMPDEST SWAP6 SWAP5 POP POP POP POP POP JUMP JUMPDEST PUSH32 0x4D75737420686176652061646D696E20726F6C65000000000000000000000000 PUSH1 0x0 DUP3 ADD MSTORE POP JUMP JUMPDEST PUSH1 0x0 PUSH2 0x4635 PUSH1 0x14 DUP4 PUSH2 0x385B JUMP JUMPDEST SWAP2 POP PUSH2 0x4640 DUP3 PUSH2 0x45FF JUMP JUMPDEST PUSH1 0x20 DUP3 ADD SWAP1 POP SWAP2 SWAP1 POP JUMP JUMPDEST PUSH1 0x0 PUSH1 0x20 DUP3 ADD SWAP1 POP DUP2 DUP2 SUB PUSH1 0x0 DUP4 ADD MSTORE PUSH2 0x4664 DUP2 PUSH2 0x4628 JUMP JUMPDEST SWAP1 POP SWAP2 SWAP1 POP JUMP JUMPDEST PUSH32 0x455243313135353A2063616C6C6572206973206E6F7420746F6B656E206F776E PUSH1 0x0 DUP3 ADD MSTORE PUSH32 0x6572206F7220617070726F766564000000000000000000000000000000000000 PUSH1 0x20 DUP3 ADD MSTORE POP JUMP JUMPDEST PUSH1 0x0 PUSH2 0x46C7 PUSH1 0x2E DUP4 PUSH2 0x385B JUMP JUMPDEST SWAP2 POP PUSH2 0x46D2 DUP3 PUSH2 0x466B JUMP JUMPDEST PUSH1 0x40 DUP3 ADD SWAP1 POP SWAP2 SWAP1 POP JUMP JUMPDEST PUSH1 0x0 PUSH1 0x20 DUP3 ADD SWAP1 POP DUP2 DUP2 SUB PUSH1 0x0 DUP4 ADD MSTORE PUSH2 0x46F6 DUP2 PUSH2 0x46BA JUMP JUMPDEST SWAP1 POP SWAP2 SWAP1 POP JUMP JUMPDEST PUSH32 0x416363657373436F6E74726F6C3A2063616E206F6E6C792072656E6F756E6365 PUSH1 0x0 DUP3 ADD MSTORE PUSH32 0x20726F6C657320666F722073656C660000000000000000000000000000000000 PUSH1 0x20 DUP3 ADD MSTORE POP JUMP JUMPDEST PUSH1 0x0 PUSH2 0x4759 PUSH1 0x2F DUP4 PUSH2 0x385B JUMP JUMPDEST SWAP2 POP PUSH2 0x4764 DUP3 PUSH2 0x46FD JUMP JUMPDEST PUSH1 0x40 DUP3 ADD SWAP1 POP SWAP2 SWAP1 POP JUMP JUMPDEST PUSH1 0x0 PUSH1 0x20 DUP3 ADD SWAP1 POP DUP2 DUP2 SUB PUSH1 0x0 DUP4 ADD MSTORE PUSH2 0x4788 DUP2 PUSH2 0x474C JUMP JUMPDEST SWAP1 POP SWAP2 SWAP1 POP JUMP JUMPDEST PUSH32 0x455243313135353A206163636F756E747320616E6420696473206C656E677468 PUSH1 0x0 DUP3 ADD MSTORE PUSH32 0x206D69736D617463680000000000000000000000000000000000000000000000 PUSH1 0x20 DUP3 ADD MSTORE POP JUMP JUMPDEST PUSH1 0x0 PUSH2 0x47EB PUSH1 0x29 DUP4 PUSH2 0x385B JUMP JUMPDEST SWAP2 POP PUSH2 0x47F6 DUP3 PUSH2 0x478F JUMP JUMPDEST PUSH1 0x40 DUP3 ADD SWAP1 POP SWAP2 SWAP1 POP JUMP JUMPDEST PUSH1 0x0 PUSH1 0x20 DUP3 ADD SWAP1 POP DUP2 DUP2 SUB PUSH1 0x0 DUP4 ADD MSTORE PUSH2 0x481A DUP2 PUSH2 0x47DE JUMP JUMPDEST SWAP1 POP SWAP2 SWAP1 POP JUMP JUMPDEST PUSH32 0x4E487B7100000000000000000000000000000000000000000000000000000000 PUSH1 0x0 MSTORE PUSH1 0x32 PUSH1 0x4 MSTORE PUSH1 0x24 PUSH1 0x0 REVERT JUMPDEST PUSH32 0x4E487B7100000000000000000000000000000000000000000000000000000000 PUSH1 0x0 MSTORE PUSH1 0x11 PUSH1 0x4 MSTORE PUSH1 0x24 PUSH1 0x0 REVERT JUMPDEST PUSH1 0x0 PUSH2 0x488A DUP3 PUSH2 0x3675 JUMP JUMPDEST SWAP2 POP PUSH32 0xFFFFFFFFFFFFFFFFFFFFFFFFFFFFFFFFFFFFFFFFFFFFFFFFFFFFFFFFFFFFFFFF DUP3 SUB PUSH2 0x48BC JUMPI PUSH2 0x48BB PUSH2 0x4850 JUMP JUMPDEST JUMPDEST PUSH1 0x1 DUP3 ADD SWAP1 POP SWAP2 SWAP1 POP JUMP JUMPDEST PUSH32 0x4D7573742068617665206275726E657220726F6C650000000000000000000000 PUSH1 0x0 DUP3 ADD MSTORE POP JUMP JUMPDEST PUSH1 0x0 PUSH2 0x48FD PUSH1 0x15 DUP4 PUSH2 0x385B JUMP JUMPDEST SWAP2 POP PUSH2 0x4908 DUP3 PUSH2 0x48C7 JUMP JUMPDEST PUSH1 0x20 DUP3 ADD SWAP1 POP SWAP2 SWAP1 POP JUMP JUMPDEST PUSH1 0x0 PUSH1 0x20 DUP3 ADD SWAP1 POP DUP2 DUP2 SUB PUSH1 0x0 DUP4 ADD MSTORE PUSH2 0x492C DUP2 PUSH2 0x48F0 JUMP JUMPDEST SWAP1 POP SWAP2 SWAP1 POP JUMP JUMPDEST PUSH1 0x0 PUSH1 0x80 DUP3 ADD SWAP1 POP PUSH2 0x4948 PUSH1 0x0 DUP4 ADD DUP8 PUSH2 0x40B4 JUMP JUMPDEST PUSH2 0x4955 PUSH1 0x20 DUP4 ADD DUP7 PUSH2 0x40B4 JUMP JUMPDEST DUP2 DUP2 SUB PUSH1 0x40 DUP4 ADD MSTORE PUSH2 0x4967 DUP2 DUP6 PUSH2 0x3F7C JUMP JUMPDEST SWAP1 POP DUP2 DUP2 SUB PUSH1 0x60 DUP4 ADD MSTORE PUSH2 0x497B DUP2 DUP5 PUSH2 0x3F7C JUMP JUMPDEST SWAP1 POP SWAP6 SWAP5 POP POP POP POP POP JUMP JUMPDEST PUSH32 0x436F6E74726163742055524920776173206E6F74207365740000000000000000 PUSH1 0x0 DUP3 ADD MSTORE POP JUMP JUMPDEST PUSH1 0x0 PUSH2 0x49BC PUSH1 0x18 DUP4 PUSH2 0x385B JUMP JUMPDEST SWAP2 POP PUSH2 0x49C7 DUP3 PUSH2 0x4986 JUMP JUMPDEST PUSH1 0x20 DUP3 ADD SWAP1 POP SWAP2 SWAP1 POP JUMP JUMPDEST PUSH1 0x0 PUSH1 0x20 DUP3 ADD SWAP1 POP DUP2 DUP2 SUB PUSH1 0x0 DUP4 ADD MSTORE PUSH2 0x49EB DUP2 PUSH2 0x49AF JUMP JUMPDEST SWAP1 POP SWAP2 SWAP1 POP JUMP JUMPDEST PUSH1 0x0 PUSH1 0x20 PUSH1 0x1F DUP4 ADD DIV SWAP1 POP SWAP2 SWAP1 POP JUMP JUMPDEST PUSH1 0x0 DUP3 DUP3 SHL SWAP1 POP SWAP3 SWAP2 POP POP JUMP JUMPDEST PUSH1 0x0 PUSH1 0x8 DUP4 MUL PUSH2 0x4A3F PUSH32 0xFFFFFFFFFFFFFFFFFFFFFFFFFFFFFFFFFFFFFFFFFFFFFFFFFFFFFFFFFFFFFFFF DUP3 PUSH2 0x4A02 JUMP JUMPDEST PUSH2 0x4A49 DUP7 DUP4 PUSH2 0x4A02 JUMP JUMPDEST SWAP6 POP DUP1 NOT DUP5 AND SWAP4 POP DUP1 DUP7 AND DUP5 OR SWAP3 POP POP POP SWAP4 SWAP3 POP POP POP JUMP JUMPDEST PUSH1 0x0 DUP2 SWAP1 POP SWAP2 SWAP1 POP JUMP JUMPDEST PUSH1 0x0 PUSH2 0x4A86 PUSH2 0x4A81 PUSH2 0x4A7C DUP5 PUSH2 0x3675 JUMP JUMPDEST PUSH2 0x4A61 JUMP JUMPDEST PUSH2 0x3675 JUMP JUMPDEST SWAP1 POP SWAP2 SWAP1 POP JUMP JUMPDEST PUSH1 0x0 DUP2 SWAP1 POP SWAP2 SWAP1 POP JUMP JUMPDEST PUSH2 0x4AA0 DUP4 PUSH2 0x4A6B JUMP JUMPDEST PUSH2 0x4AB4 PUSH2 0x4AAC DUP3 PUSH2 0x4A8D JUMP JUMPDEST DUP5 DUP5 SLOAD PUSH2 0x4A0F JUMP JUMPDEST DUP3 SSTORE POP POP POP POP JUMP JUMPDEST PUSH1 0x0 SWAP1 JUMP JUMPDEST PUSH2 0x4AC9 PUSH2 0x4ABC JUMP JUMPDEST PUSH2 0x4AD4 DUP2 DUP5 DUP5 PUSH2 0x4A97 JUMP JUMPDEST POP POP POP JUMP JUMPDEST JUMPDEST DUP2 DUP2 LT ISZERO PUSH2 0x4AF8 JUMPI PUSH2 0x4AED PUSH1 0x0 DUP3 PUSH2 0x4AC1 JUMP JUMPDEST PUSH1 0x1 DUP2 ADD SWAP1 POP PUSH2 0x4ADA JUMP JUMPDEST POP POP JUMP JUMPDEST PUSH1 0x1F DUP3 GT ISZERO PUSH2 0x4B3D JUMPI PUSH2 0x4B0E DUP2 PUSH2 0x4461 JUMP JUMPDEST PUSH2 0x4B17 DUP5 PUSH2 0x49F2 JUMP JUMPDEST DUP2 ADD PUSH1 0x20 DUP6 LT ISZERO PUSH2 0x4B26 JUMPI DUP2 SWAP1 POP JUMPDEST PUSH2 0x4B3A PUSH2 0x4B32 DUP6 PUSH2 0x49F2 JUMP JUMPDEST DUP4 ADD DUP3 PUSH2 0x4AD9 JUMP JUMPDEST POP POP JUMPDEST POP POP POP JUMP JUMPDEST PUSH1 0x0 DUP3 DUP3 SHR SWAP1 POP SWAP3 SWAP2 POP POP JUMP JUMPDEST PUSH1 0x0 PUSH2 0x4B60 PUSH1 0x0 NOT DUP5 PUSH1 0x8 MUL PUSH2 0x4B42 JUMP JUMPDEST NOT DUP1 DUP4 AND SWAP2 POP POP SWAP3 SWAP2 POP POP JUMP JUMPDEST PUSH1 0x0 PUSH2 0x4B79 DUP4 DUP4 PUSH2 0x4B4F JUMP JUMPDEST SWAP2 POP DUP3 PUSH1 0x2 MUL DUP3 OR SWAP1 POP SWAP3 SWAP2 POP POP JUMP JUMPDEST PUSH2 0x4B92 DUP3 PUSH2 0x3850 JUMP JUMPDEST PUSH8 0xFFFFFFFFFFFFFFFF DUP2 GT ISZERO PUSH2 0x4BAB JUMPI PUSH2 0x4BAA PUSH2 0x390C JUMP JUMPDEST JUMPDEST PUSH2 0x4BB5 DUP3 SLOAD PUSH2 0x4425 JUMP JUMPDEST PUSH2 0x4BC0 DUP3 DUP3 DUP6 PUSH2 0x4AFC JUMP JUMPDEST PUSH1 0x0 PUSH1 0x20 SWAP1 POP PUSH1 0x1F DUP4 GT PUSH1 0x1 DUP2 EQ PUSH2 0x4BF3 JUMPI PUSH1 0x0 DUP5 ISZERO PUSH2 0x4BE1 JUMPI DUP3 DUP8 ADD MLOAD SWAP1 POP JUMPDEST PUSH2 0x4BEB DUP6 DUP3 PUSH2 0x4B6D JUMP JUMPDEST DUP7 SSTORE POP PUSH2 0x4C53 JUMP JUMPDEST PUSH1 0x1F NOT DUP5 AND PUSH2 0x4C01 DUP7 PUSH2 0x4461 JUMP JUMPDEST PUSH1 0x0 JUMPDEST DUP3 DUP2 LT ISZERO PUSH2 0x4C29 JUMPI DUP5 DUP10 ADD MLOAD DUP3 SSTORE PUSH1 0x1 DUP3 ADD SWAP2 POP PUSH1 0x20 DUP6 ADD SWAP5 POP PUSH1 0x20 DUP2 ADD SWAP1 POP PUSH2 0x4C04 JUMP JUMPDEST DUP7 DUP4 LT ISZERO PUSH2 0x4C46 JUMPI DUP5 DUP10 ADD MLOAD PUSH2 0x4C42 PUSH1 0x1F DUP10 AND DUP3 PUSH2 0x4B4F JUMP JUMPDEST DUP4 SSTORE POP JUMPDEST PUSH1 0x1 PUSH1 0x2 DUP9 MUL ADD DUP9 SSTORE POP POP POP JUMPDEST POP POP POP POP POP POP JUMP JUMPDEST PUSH32 0x4D7573742068617665206D696E74657220726F6C650000000000000000000000 PUSH1 0x0 DUP3 ADD MSTORE POP JUMP JUMPDEST PUSH1 0x0 PUSH2 0x4C91 PUSH1 0x15 DUP4 PUSH2 0x385B JUMP JUMPDEST SWAP2 POP PUSH2 0x4C9C DUP3 PUSH2 0x4C5B JUMP JUMPDEST PUSH1 0x20 DUP3 ADD SWAP1 POP SWAP2 SWAP1 POP JUMP JUMPDEST PUSH1 0x0 PUSH1 0x20 DUP3 ADD SWAP1 POP DUP2 DUP2 SUB PUSH1 0x0 DUP4 ADD MSTORE PUSH2 0x4CC0 DUP2 PUSH2 0x4C84 JUMP JUMPDEST SWAP1 POP SWAP2 SWAP1 POP JUMP JUMPDEST PUSH1 0x0 DUP1 REVERT JUMPDEST DUP3 DUP2 DUP4 CALLDATACOPY POP POP POP JUMP JUMPDEST PUSH1 0x0 PUSH2 0x4CE1 DUP4 DUP6 PUSH2 0x3F27 JUMP JUMPDEST SWAP4 POP PUSH32 0x7FFFFFFFFFFFFFFFFFFFFFFFFFFFFFFFFFFFFFFFFFFFFFFFFFFFFFFFFFFFFFF DUP4 GT ISZERO PUSH2 0x4D14 JUMPI PUSH2 0x4D13 PUSH2 0x4CC7 JUMP JUMPDEST JUMPDEST PUSH1 0x20 DUP4 MUL SWAP3 POP PUSH2 0x4D25 DUP4 DUP6 DUP5 PUSH2 0x4CCC JUMP JUMPDEST DUP3 DUP5 ADD SWAP1 POP SWAP4 SWAP3 POP POP POP JUMP JUMPDEST PUSH1 0x0 PUSH1 0x80 DUP3 ADD SWAP1 POP PUSH2 0x4D46 PUSH1 0x0 DUP4 ADD DUP10 PUSH2 0x40B4 JUMP JUMPDEST PUSH2 0x4D53 PUSH1 0x20 DUP4 ADD DUP9 PUSH2 0x40B4 JUMP JUMPDEST DUP2 DUP2 SUB PUSH1 0x40 DUP4 ADD MSTORE PUSH2 0x4D66 DUP2 DUP7 DUP9 PUSH2 0x4CD5 JUMP JUMPDEST SWAP1 POP DUP2 DUP2 SUB PUSH1 0x60 DUP4 ADD MSTORE PUSH2 0x4D7B DUP2 DUP5 DUP7 PUSH2 0x4CD5 JUMP JUMPDEST SWAP1 POP SWAP8 SWAP7 POP POP POP POP POP POP POP JUMP JUMPDEST PUSH32 0x4F776E61626C653A206E6577206F776E657220697320746865207A65726F2061 PUSH1 0x0 DUP3 ADD MSTORE PUSH32 0x6464726573730000000000000000000000000000000000000000000000000000 PUSH1 0x20 DUP3 ADD MSTORE POP JUMP JUMPDEST PUSH1 0x0 PUSH2 0x4DE4 PUSH1 0x26 DUP4 PUSH2 0x385B JUMP JUMPDEST SWAP2 POP PUSH2 0x4DEF DUP3 PUSH2 0x4D88 JUMP JUMPDEST PUSH1 0x40 DUP3 ADD SWAP1 POP SWAP2 SWAP1 POP JUMP JUMPDEST PUSH1 0x0 PUSH1 0x20 DUP3 ADD SWAP1 POP DUP2 DUP2 SUB PUSH1 0x0 DUP4 ADD MSTORE PUSH2 0x4E13 DUP2 PUSH2 0x4DD7 JUMP JUMPDEST SWAP1 POP SWAP2 SWAP1 POP JUMP JUMPDEST PUSH32 0x4D7573742068617665206275726E657220726F6C6520746F206275726E000000 PUSH1 0x0 DUP3 ADD MSTORE POP JUMP JUMPDEST PUSH1 0x0 PUSH2 0x4E50 PUSH1 0x1D DUP4 PUSH2 0x385B JUMP JUMPDEST SWAP2 POP PUSH2 0x4E5B DUP3 PUSH2 0x4E1A JUMP JUMPDEST PUSH1 0x20 DUP3 ADD SWAP1 POP SWAP2 SWAP1 POP JUMP JUMPDEST PUSH1 0x0 PUSH1 0x20 DUP3 ADD SWAP1 POP DUP2 DUP2 SUB PUSH1 0x0 DUP4 ADD MSTORE PUSH2 0x4E7F DUP2 PUSH2 0x4E43 JUMP JUMPDEST SWAP1 POP SWAP2 SWAP1 POP JUMP JUMPDEST PUSH32 0x455243313135353A207472616E7366657220746F20746865207A65726F206164 PUSH1 0x0 DUP3 ADD MSTORE PUSH32 0x6472657373000000000000000000000000000000000000000000000000000000 PUSH1 0x20 DUP3 ADD MSTORE POP JUMP JUMPDEST PUSH1 0x0 PUSH2 0x4EE2 PUSH1 0x25 DUP4 PUSH2 0x385B JUMP JUMPDEST SWAP2 POP PUSH2 0x4EED DUP3 PUSH2 0x4E86 JUMP JUMPDEST PUSH1 0x40 DUP3 ADD SWAP1 POP SWAP2 SWAP1 POP JUMP JUMPDEST PUSH1 0x0 PUSH1 0x20 DUP3 ADD SWAP1 POP DUP2 DUP2 SUB PUSH1 0x0 DUP4 ADD MSTORE PUSH2 0x4F11 DUP2 PUSH2 0x4ED5 JUMP JUMPDEST SWAP1 POP SWAP2 SWAP1 POP JUMP JUMPDEST PUSH32 0x455243313135353A20696E73756666696369656E742062616C616E636520666F PUSH1 0x0 DUP3 ADD MSTORE PUSH32 0x72207472616E7366657200000000000000000000000000000000000000000000 PUSH1 0x20 DUP3 ADD MSTORE POP JUMP JUMPDEST PUSH1 0x0 PUSH2 0x4F74 PUSH1 0x2A DUP4 PUSH2 0x385B JUMP JUMPDEST SWAP2 POP PUSH2 0x4F7F DUP3 PUSH2 0x4F18 JUMP JUMPDEST PUSH1 0x40 DUP3 ADD SWAP1 POP SWAP2 SWAP1 POP JUMP JUMPDEST PUSH1 0x0 PUSH1 0x20 DUP3 ADD SWAP1 POP DUP2 DUP2 SUB PUSH1 0x0 DUP4 ADD MSTORE PUSH2 0x4FA3 DUP2 PUSH2 0x4F67 JUMP JUMPDEST SWAP1 POP SWAP2 SWAP1 POP JUMP JUMPDEST PUSH1 0x0 PUSH2 0x4FB5 DUP3 PUSH2 0x3675 JUMP JUMPDEST SWAP2 POP PUSH2 0x4FC0 DUP4 PUSH2 0x3675 JUMP JUMPDEST SWAP3 POP DUP3 DUP3 ADD SWAP1 POP DUP1 DUP3 GT ISZERO PUSH2 0x4FD8 JUMPI PUSH2 0x4FD7 PUSH2 0x4850 JUMP JUMPDEST JUMPDEST SWAP3 SWAP2 POP POP JUMP JUMPDEST PUSH1 0x0 PUSH1 0x40 DUP3 ADD SWAP1 POP PUSH2 0x4FF3 PUSH1 0x0 DUP4 ADD DUP6 PUSH2 0x36EB JUMP JUMPDEST PUSH2 0x5000 PUSH1 0x20 DUP4 ADD DUP5 PUSH2 0x36EB JUMP JUMPDEST SWAP4 SWAP3 POP POP POP JUMP JUMPDEST PUSH32 0x5061757361626C653A2070617573656400000000000000000000000000000000 PUSH1 0x0 DUP3 ADD MSTORE POP JUMP JUMPDEST PUSH1 0x0 PUSH2 0x503D PUSH1 0x10 DUP4 PUSH2 0x385B JUMP JUMPDEST SWAP2 POP PUSH2 0x5048 DUP3 PUSH2 0x5007 JUMP JUMPDEST PUSH1 0x20 DUP3 ADD SWAP1 POP SWAP2 SWAP1 POP JUMP JUMPDEST PUSH1 0x0 PUSH1 0x20 DUP3 ADD SWAP1 POP DUP2 DUP2 SUB PUSH1 0x0 DUP4 ADD MSTORE PUSH2 0x506C DUP2 PUSH2 0x5030 JUMP JUMPDEST SWAP1 POP SWAP2 SWAP1 POP JUMP JUMPDEST PUSH32 0x455243313135353A206D696E7420746F20746865207A65726F20616464726573 PUSH1 0x0 DUP3 ADD MSTORE PUSH32 0x7300000000000000000000000000000000000000000000000000000000000000 PUSH1 0x20 DUP3 ADD MSTORE POP JUMP JUMPDEST PUSH1 0x0 PUSH2 0x50CF PUSH1 0x21 DUP4 PUSH2 0x385B JUMP JUMPDEST SWAP2 POP PUSH2 0x50DA DUP3 PUSH2 0x5073 JUMP JUMPDEST PUSH1 0x40 DUP3 ADD SWAP1 POP SWAP2 SWAP1 POP JUMP JUMPDEST PUSH1 0x0 PUSH1 0x20 DUP3 ADD SWAP1 POP DUP2 DUP2 SUB PUSH1 0x0 DUP4 ADD MSTORE PUSH2 0x50FE DUP2 PUSH2 0x50C2 JUMP JUMPDEST SWAP1 POP SWAP2 SWAP1 POP JUMP JUMPDEST PUSH32 0x455243313135353A2069647320616E6420616D6F756E7473206C656E67746820 PUSH1 0x0 DUP3 ADD MSTORE PUSH32 0x6D69736D61746368000000000000000000000000000000000000000000000000 PUSH1 0x20 DUP3 ADD MSTORE POP JUMP JUMPDEST PUSH1 0x0 PUSH2 0x5161 PUSH1 0x28 DUP4 PUSH2 0x385B JUMP JUMPDEST SWAP2 POP PUSH2 0x516C DUP3 PUSH2 0x5105 JUMP JUMPDEST PUSH1 0x40 DUP3 ADD SWAP1 POP SWAP2 SWAP1 POP JUMP JUMPDEST PUSH1 0x0 PUSH1 0x20 DUP3 ADD SWAP1 POP DUP2 DUP2 SUB PUSH1 0x0 DUP4 ADD MSTORE PUSH2 0x5190 DUP2 PUSH2 0x5154 JUMP JUMPDEST SWAP1 POP SWAP2 SWAP1 POP JUMP JUMPDEST PUSH1 0x0 PUSH1 0x40 DUP3 ADD SWAP1 POP DUP2 DUP2 SUB PUSH1 0x0 DUP4 ADD MSTORE PUSH2 0x51B1 DUP2 DUP6 PUSH2 0x3F7C JUMP JUMPDEST SWAP1 POP DUP2 DUP2 SUB PUSH1 0x20 DUP4 ADD MSTORE PUSH2 0x51C5 DUP2 DUP5 PUSH2 0x3F7C JUMP JUMPDEST SWAP1 POP SWAP4 SWAP3 POP POP POP JUMP JUMPDEST PUSH32 0x5061757361626C653A206E6F7420706175736564000000000000000000000000 PUSH1 0x0 DUP3 ADD MSTORE POP JUMP JUMPDEST PUSH1 0x0 PUSH2 0x5204 PUSH1 0x14 DUP4 PUSH2 0x385B JUMP JUMPDEST SWAP2 POP PUSH2 0x520F DUP3 PUSH2 0x51CE JUMP JUMPDEST PUSH1 0x20 DUP3 ADD SWAP1 POP SWAP2 SWAP1 POP JUMP JUMPDEST PUSH1 0x0 PUSH1 0x20 DUP3 ADD SWAP1 POP DUP2 DUP2 SUB PUSH1 0x0 DUP4 ADD MSTORE PUSH2 0x5233 DUP2 PUSH2 0x51F7 JUMP JUMPDEST SWAP1 POP SWAP2 SWAP1 POP JUMP JUMPDEST PUSH32 0x455243313135353A206275726E2066726F6D20746865207A65726F2061646472 PUSH1 0x0 DUP3 ADD MSTORE PUSH32 0x6573730000000000000000000000000000000000000000000000000000000000 PUSH1 0x20 DUP3 ADD MSTORE POP JUMP JUMPDEST PUSH1 0x0 PUSH2 0x5296 PUSH1 0x23 DUP4 PUSH2 0x385B JUMP JUMPDEST SWAP2 POP PUSH2 0x52A1 DUP3 PUSH2 0x523A JUMP JUMPDEST PUSH1 0x40 DUP3 ADD SWAP1 POP SWAP2 SWAP1 POP JUMP JUMPDEST PUSH1 0x0 PUSH1 0x20 DUP3 ADD SWAP1 POP DUP2 DUP2 SUB PUSH1 0x0 DUP4 ADD MSTORE PUSH2 0x52C5 DUP2 PUSH2 0x5289 JUMP JUMPDEST SWAP1 POP SWAP2 SWAP1 POP JUMP JUMPDEST PUSH32 0x455243313135353A206275726E20616D6F756E7420657863656564732062616C PUSH1 0x0 DUP3 ADD MSTORE PUSH32 0x616E636500000000000000000000000000000000000000000000000000000000 PUSH1 0x20 DUP3 ADD MSTORE POP JUMP JUMPDEST PUSH1 0x0 PUSH2 0x5328 PUSH1 0x24 DUP4 PUSH2 0x385B JUMP JUMPDEST SWAP2 POP PUSH2 0x5333 DUP3 PUSH2 0x52CC JUMP JUMPDEST PUSH1 0x40 DUP3 ADD SWAP1 POP SWAP2 SWAP1 POP JUMP JUMPDEST PUSH1 0x0 PUSH1 0x20 DUP3 ADD SWAP1 POP DUP2 DUP2 SUB PUSH1 0x0 DUP4 ADD MSTORE PUSH2 0x5357 DUP2 PUSH2 0x531B JUMP JUMPDEST SWAP1 POP SWAP2 SWAP1 POP JUMP JUMPDEST PUSH32 0x4F776E61626C653A2063616C6C6572206973206E6F7420746865206F776E6572 PUSH1 0x0 DUP3 ADD MSTORE POP JUMP JUMPDEST PUSH1 0x0 PUSH2 0x5394 PUSH1 0x20 DUP4 PUSH2 0x385B JUMP JUMPDEST SWAP2 POP PUSH2 0x539F DUP3 PUSH2 0x535E JUMP JUMPDEST PUSH1 0x20 DUP3 ADD SWAP1 POP SWAP2 SWAP1 POP JUMP JUMPDEST PUSH1 0x0 PUSH1 0x20 DUP3 ADD SWAP1 POP DUP2 DUP2 SUB PUSH1 0x0 DUP4 ADD MSTORE PUSH2 0x53C3 DUP2 PUSH2 0x5387 JUMP JUMPDEST SWAP1 POP SWAP2 SWAP1 POP JUMP JUMPDEST PUSH32 0x455243313135353A2073657474696E6720617070726F76616C20737461747573 PUSH1 0x0 DUP3 ADD MSTORE PUSH32 0x20666F722073656C660000000000000000000000000000000000000000000000 PUSH1 0x20 DUP3 ADD MSTORE POP JUMP JUMPDEST PUSH1 0x0 PUSH2 0x5426 PUSH1 0x29 DUP4 PUSH2 0x385B JUMP JUMPDEST SWAP2 POP PUSH2 0x5431 DUP3 PUSH2 0x53CA JUMP JUMPDEST PUSH1 0x40 DUP3 ADD SWAP1 POP SWAP2 SWAP1 POP JUMP JUMPDEST PUSH1 0x0 PUSH1 0x20 DUP3 ADD SWAP1 POP DUP2 DUP2 SUB PUSH1 0x0 DUP4 ADD MSTORE PUSH2 0x5455 DUP2 PUSH2 0x5419 JUMP JUMPDEST SWAP1 POP SWAP2 SWAP1 POP JUMP JUMPDEST PUSH32 0x455243313135353A206578636565647320746F74616C537570706C7900000000 PUSH1 0x0 DUP3 ADD MSTORE POP JUMP JUMPDEST PUSH1 0x0 PUSH2 0x5492 PUSH1 0x1C DUP4 PUSH2 0x385B JUMP JUMPDEST SWAP2 POP PUSH2 0x549D DUP3 PUSH2 0x545C JUMP JUMPDEST PUSH1 0x20 DUP3 ADD SWAP1 POP SWAP2 SWAP1 POP JUMP JUMPDEST PUSH1 0x0 PUSH1 0x20 DUP3 ADD SWAP1 POP DUP2 DUP2 SUB PUSH1 0x0 DUP4 ADD MSTORE PUSH2 0x54C1 DUP2 PUSH2 0x5485 JUMP JUMPDEST SWAP1 POP SWAP2 SWAP1 POP JUMP JUMPDEST PUSH1 0x0 DUP2 MLOAD SWAP1 POP SWAP2 SWAP1 POP JUMP JUMPDEST PUSH1 0x0 DUP3 DUP3 MSTORE PUSH1 0x20 DUP3 ADD SWAP1 POP SWAP3 SWAP2 POP POP JUMP JUMPDEST PUSH1 0x0 PUSH2 0x54EF DUP3 PUSH2 0x54C8 JUMP JUMPDEST PUSH2 0x54F9 DUP2 DUP6 PUSH2 0x54D3 JUMP JUMPDEST SWAP4 POP PUSH2 0x5509 DUP2 DUP6 PUSH1 0x20 DUP7 ADD PUSH2 0x386C JUMP JUMPDEST PUSH2 0x5512 DUP2 PUSH2 0x3896 JUMP JUMPDEST DUP5 ADD SWAP2 POP POP SWAP3 SWAP2 POP POP JUMP JUMPDEST PUSH1 0x0 PUSH1 0xA0 DUP3 ADD SWAP1 POP PUSH2 0x5532 PUSH1 0x0 DUP4 ADD DUP9 PUSH2 0x40B4 JUMP JUMPDEST PUSH2 0x553F PUSH1 0x20 DUP4 ADD DUP8 PUSH2 0x40B4 JUMP JUMPDEST PUSH2 0x554C PUSH1 0x40 DUP4 ADD DUP7 PUSH2 0x36EB JUMP JUMPDEST PUSH2 0x5559 PUSH1 0x60 DUP4 ADD DUP6 PUSH2 0x36EB JUMP JUMPDEST DUP2 DUP2 SUB PUSH1 0x80 DUP4 ADD MSTORE PUSH2 0x556B DUP2 DUP5 PUSH2 0x54E4 JUMP JUMPDEST SWAP1 POP SWAP7 SWAP6 POP POP POP POP POP POP JUMP JUMPDEST PUSH1 0x0 DUP2 MLOAD SWAP1 POP PUSH2 0x5586 DUP2 PUSH2 0x3741 JUMP JUMPDEST SWAP3 SWAP2 POP POP JUMP JUMPDEST PUSH1 0x0 PUSH1 0x20 DUP3 DUP5 SUB SLT ISZERO PUSH2 0x55A2 JUMPI PUSH2 0x55A1 PUSH2 0x360D JUMP JUMPDEST JUMPDEST PUSH1 0x0 PUSH2 0x55B0 DUP5 DUP3 DUP6 ADD PUSH2 0x5577 JUMP JUMPDEST SWAP2 POP POP SWAP3 SWAP2 POP POP JUMP JUMPDEST PUSH1 0x0 DUP2 PUSH1 0xE0 SHR SWAP1 POP SWAP2 SWAP1 POP JUMP JUMPDEST PUSH1 0x0 PUSH1 0x3 RETURNDATASIZE GT ISZERO PUSH2 0x55E5 JUMPI PUSH1 0x4 PUSH1 0x0 DUP1 RETURNDATACOPY PUSH2 0x55E2 PUSH1 0x0 MLOAD PUSH2 0x55B9 JUMP JUMPDEST SWAP1 POP JUMPDEST SWAP1 JUMP JUMPDEST PUSH1 0x0 PUSH1 0x44 RETURNDATASIZE LT PUSH2 0x5675 JUMPI PUSH2 0x55FA PUSH2 0x3603 JUMP JUMPDEST PUSH1 0x4 RETURNDATASIZE SUB PUSH1 0x4 DUP3 RETURNDATACOPY DUP1 MLOAD RETURNDATASIZE PUSH1 0x24 DUP3 ADD GT PUSH8 0xFFFFFFFFFFFFFFFF DUP3 GT OR ISZERO PUSH2 0x5622 JUMPI POP POP PUSH2 0x5675 JUMP JUMPDEST DUP1 DUP3 ADD DUP1 MLOAD PUSH8 0xFFFFFFFFFFFFFFFF DUP2 GT ISZERO PUSH2 0x5640 JUMPI POP POP POP POP PUSH2 0x5675 JUMP JUMPDEST DUP1 PUSH1 0x20 DUP4 ADD ADD PUSH1 0x4 RETURNDATASIZE SUB DUP6 ADD DUP2 GT ISZERO PUSH2 0x565D JUMPI POP POP POP POP POP PUSH2 0x5675 JUMP JUMPDEST PUSH2 0x566C DUP3 PUSH1 0x20 ADD DUP6 ADD DUP7 PUSH2 0x393B JUMP JUMPDEST DUP3 SWAP6 POP POP POP POP POP POP JUMPDEST SWAP1 JUMP JUMPDEST PUSH32 0x455243313135353A207472616E7366657220746F206E6F6E2D45524331313535 PUSH1 0x0 DUP3 ADD MSTORE PUSH32 0x526563656976657220696D706C656D656E746572000000000000000000000000 PUSH1 0x20 DUP3 ADD MSTORE POP JUMP JUMPDEST PUSH1 0x0 PUSH2 0x56D4 PUSH1 0x34 DUP4 PUSH2 0x385B JUMP JUMPDEST SWAP2 POP PUSH2 0x56DF DUP3 PUSH2 0x5678 JUMP JUMPDEST PUSH1 0x40 DUP3 ADD SWAP1 POP SWAP2 SWAP1 POP JUMP JUMPDEST PUSH1 0x0 PUSH1 0x20 DUP3 ADD SWAP1 POP DUP2 DUP2 SUB PUSH1 0x0 DUP4 ADD MSTORE PUSH2 0x5703 DUP2 PUSH2 0x56C7 JUMP JUMPDEST SWAP1 POP SWAP2 SWAP1 POP JUMP JUMPDEST PUSH32 0x455243313135353A204552433131353552656365697665722072656A65637465 PUSH1 0x0 DUP3 ADD MSTORE PUSH32 0x6420746F6B656E73000000000000000000000000000000000000000000000000 PUSH1 0x20 DUP3 ADD MSTORE POP JUMP JUMPDEST PUSH1 0x0 PUSH2 0x5766 PUSH1 0x28 DUP4 PUSH2 0x385B JUMP JUMPDEST SWAP2 POP PUSH2 0x5771 DUP3 PUSH2 0x570A JUMP JUMPDEST PUSH1 0x40 DUP3 ADD SWAP1 POP SWAP2 SWAP1 POP JUMP JUMPDEST PUSH1 0x0 PUSH1 0x20 DUP3 ADD SWAP1 POP DUP2 DUP2 SUB PUSH1 0x0 DUP4 ADD MSTORE PUSH2 0x5795 DUP2 PUSH2 0x5759 JUMP JUMPDEST SWAP1 POP SWAP2 SWAP1 POP JUMP JUMPDEST PUSH1 0x0 PUSH1 0xA0 DUP3 ADD SWAP1 POP PUSH2 0x57B1 PUSH1 0x0 DUP4 ADD DUP9 PUSH2 0x40B4 JUMP JUMPDEST PUSH2 0x57BE PUSH1 0x20 DUP4 ADD DUP8 PUSH2 0x40B4 JUMP JUMPDEST DUP2 DUP2 SUB PUSH1 0x40 DUP4 ADD MSTORE PUSH2 0x57D0 DUP2 DUP7 PUSH2 0x3F7C JUMP JUMPDEST SWAP1 POP DUP2 DUP2 SUB PUSH1 0x60 DUP4 ADD MSTORE PUSH2 0x57E4 DUP2 DUP6 PUSH2 0x3F7C JUMP JUMPDEST SWAP1 POP DUP2 DUP2 SUB PUSH1 0x80 DUP4 ADD MSTORE PUSH2 0x57F8 DUP2 DUP5 PUSH2 0x54E4 JUMP JUMPDEST SWAP1 POP SWAP7 SWAP6 POP POP POP POP POP POP JUMP JUMPDEST PUSH32 0x416363657373436F6E74726F6C3A206163636F756E7420000000000000000000 PUSH1 0x0 DUP3 ADD MSTORE POP JUMP JUMPDEST PUSH1 0x0 PUSH2 0x583A PUSH1 0x17 DUP4 PUSH2 0x4456 JUMP JUMPDEST SWAP2 POP PUSH2 0x5845 DUP3 PUSH2 0x5804 JUMP JUMPDEST PUSH1 0x17 DUP3 ADD SWAP1 POP SWAP2 SWAP1 POP JUMP JUMPDEST PUSH32 0x206973206D697373696E6720726F6C6520000000000000000000000000000000 PUSH1 0x0 DUP3 ADD MSTORE POP JUMP JUMPDEST PUSH1 0x0 PUSH2 0x5886 PUSH1 0x11 DUP4 PUSH2 0x4456 JUMP JUMPDEST SWAP2 POP PUSH2 0x5891 DUP3 PUSH2 0x5850 JUMP JUMPDEST PUSH1 0x11 DUP3 ADD SWAP1 POP SWAP2 SWAP1 POP JUMP JUMPDEST PUSH1 0x0 PUSH2 0x58A7 DUP3 PUSH2 0x582D JUMP JUMPDEST SWAP2 POP PUSH2 0x58B3 DUP3 DUP6 PUSH2 0x44F9 JUMP JUMPDEST SWAP2 POP PUSH2 0x58BE DUP3 PUSH2 0x5879 JUMP JUMPDEST SWAP2 POP PUSH2 0x58CA DUP3 DUP5 PUSH2 0x44F9 JUMP JUMPDEST SWAP2 POP DUP2 SWAP1 POP SWAP4 SWAP3 POP POP POP JUMP JUMPDEST PUSH1 0x0 PUSH2 0x58E1 DUP3 PUSH2 0x3675 JUMP JUMPDEST SWAP2 POP PUSH2 0x58EC DUP4 PUSH2 0x3675 JUMP JUMPDEST SWAP3 POP DUP3 DUP3 MUL PUSH2 0x58FA DUP2 PUSH2 0x3675 JUMP JUMPDEST SWAP2 POP DUP3 DUP3 DIV DUP5 EQ DUP4 ISZERO OR PUSH2 0x5911 JUMPI PUSH2 0x5910 PUSH2 0x4850 JUMP JUMPDEST JUMPDEST POP SWAP3 SWAP2 POP POP JUMP JUMPDEST PUSH1 0x0 PUSH2 0x5923 DUP3 PUSH2 0x3675 JUMP JUMPDEST SWAP2 POP PUSH1 0x0 DUP3 SUB PUSH2 0x5936 JUMPI PUSH2 0x5935 PUSH2 0x4850 JUMP JUMPDEST JUMPDEST PUSH1 0x1 DUP3 SUB SWAP1 POP SWAP2 SWAP1 POP JUMP JUMPDEST PUSH32 0x537472696E67733A20686578206C656E67746820696E73756666696369656E74 PUSH1 0x0 DUP3 ADD MSTORE POP JUMP JUMPDEST PUSH1 0x0 PUSH2 0x5977 PUSH1 0x20 DUP4 PUSH2 0x385B JUMP JUMPDEST SWAP2 POP PUSH2 0x5982 DUP3 PUSH2 0x5941 JUMP JUMPDEST PUSH1 0x20 DUP3 ADD SWAP1 POP SWAP2 SWAP1 POP JUMP JUMPDEST PUSH1 0x0 PUSH1 0x20 DUP3 ADD SWAP1 POP DUP2 DUP2 SUB PUSH1 0x0 DUP4 ADD MSTORE PUSH2 0x59A6 DUP2 PUSH2 0x596A JUMP JUMPDEST SWAP1 POP SWAP2 SWAP1 POP JUMP INVALID LOG2 PUSH5 0x6970667358 0x22 SLT KECCAK256 PUSH22 0xB3ACA34FAD5E2798B252B074F37ABAD7E5C5F8582A39 SLOAD 0xB2 SWAP2 0xC1 PUSH18 0x9B48EC5564736F6C63430008130033000000 "},"methodIdentifiers":{"BURNER_ROLE()":"282c51f3","DEFAULT_ADMIN_ROLE()":"a217fddf","MINTER_ROLE()":"d5391393","balanceOf(address,uint256)":"00fdd58e","balanceOfBatch(address[],uint256[])":"4e1273f4","burn(address,uint256,uint256)":"f5298aca","burnBatch(address,uint256[],uint256[])":"6b20c454","contractURI()":"e8a3d485","exists(uint256)":"4f558e79","getRoleAdmin(bytes32)":"248a9ca3","getTrustedForwarder()":"ce1b815f","grantRole(bytes32,address)":"2f2ff15d","hasRole(bytes32,address)":"91d14854","isApprovedForAll(address,address)":"e985e9c5","isTrustedForwarder(address)":"572b6c05","mint(address,uint256,uint256)":"156e29f6","mintBatch(address,uint256[],uint256[])":"d81d0a15","owner()":"8da5cb5b","pause()":"8456cb59","paused()":"5c975abb","renounceOwnership()":"715018a6","renounceRole(bytes32,address)":"36568abe","revokeRole(bytes32,address)":"d547741f","safeBatchTransferFrom(address,address,uint256[],uint256[],bytes)":"2eb2c2d6","safeTransferFrom(address,address,uint256,uint256,bytes)":"f242432a","setApprovalForAll(address,bool)":"a22cb465","setBaseTokenURI(string)":"30176e13","setContractURI(string)":"938e3d7b","setTokenURI(uint256,string)":"162094c4","supportsInterface(bytes4)":"01ffc9a7","totalSupply(uint256)":"bd85b039","transfer(address,uint256,uint256)":"095bcdb6","transferOwnership(address)":"f2fde38b","unpause()":"3f4ba83a","uri(uint256)":"0e89341c"}}}}}