{
  "_format": "hh-sol-artifact-1",
  "contractName": "PocToken",
  "sourceName": "contracts/PocToken.sol",
  "abi": [
    {
      "inputs": [
        {
          "internalType": "string",
          "name": "_uri",
          "type": "string"
        },
        {
          "internalType": "address",
          "name": "_forwarder",
          "type": "address"
        }
      ],
      "stateMutability": "nonpayable",
      "type": "constructor"
    },
    {
      "anonymous": false,
      "inputs": [
        {
          "indexed": false,
          "internalType": "address",
          "name": "sender",
          "type": "address"
        },
        {
          "indexed": false,
          "internalType": "address",
          "name": "from",
          "type": "address"
        },
        {
          "indexed": false,
          "internalType": "address",
          "name": "to",
          "type": "address"
        },
        {
          "indexed": false,
          "internalType": "uint256",
          "name": "id",
          "type": "uint256"
        },
        {
          "indexed": false,
          "internalType": "uint256",
          "name": "amount",
          "type": "uint256"
        }
      ],
      "name": "AdminTransferred",
      "type": "event"
    },
    {
      "anonymous": false,
      "inputs": [
        {
          "indexed": true,
          "internalType": "address",
          "name": "account",
          "type": "address"
        },
        {
          "indexed": true,
          "internalType": "address",
          "name": "operator",
          "type": "address"
        },
        {
          "indexed": false,
          "internalType": "bool",
          "name": "approved",
          "type": "bool"
        }
      ],
      "name": "ApprovalForAll",
      "type": "event"
    },
    {
      "anonymous": false,
      "inputs": [
        {
          "indexed": false,
          "internalType": "address",
          "name": "sender",
          "type": "address"
        },
        {
          "indexed": false,
          "internalType": "address",
          "name": "account",
          "type": "address"
        },
        {
          "indexed": false,
          "internalType": "uint256[]",
          "name": "ids",
          "type": "uint256[]"
        },
        {
          "indexed": false,
          "internalType": "uint256[]",
          "name": "amounts",
          "type": "uint256[]"
        }
      ],
      "name": "BurnBatched",
      "type": "event"
    },
    {
      "anonymous": false,
      "inputs": [
        {
          "indexed": false,
          "internalType": "address",
          "name": "sender",
          "type": "address"
        },
        {
          "indexed": false,
          "internalType": "address",
          "name": "account",
          "type": "address"
        },
        {
          "indexed": false,
          "internalType": "uint256",
          "name": "id",
          "type": "uint256"
        },
        {
          "indexed": false,
          "internalType": "uint256",
          "name": "amount",
          "type": "uint256"
        }
      ],
      "name": "Burned",
      "type": "event"
    },
    {
      "anonymous": false,
      "inputs": [
        {
          "indexed": false,
          "internalType": "address",
          "name": "sender",
          "type": "address"
        },
        {
          "indexed": false,
          "internalType": "address",
          "name": "account",
          "type": "address"
        },
        {
          "indexed": false,
          "internalType": "uint256[]",
          "name": "ids",
          "type": "uint256[]"
        },
        {
          "indexed": false,
          "internalType": "uint256[]",
          "name": "amounts",
          "type": "uint256[]"
        }
      ],
      "name": "MintBatched",
      "type": "event"
    },
    {
      "anonymous": false,
      "inputs": [
        {
          "indexed": false,
          "internalType": "address",
          "name": "sender",
          "type": "address"
        },
        {
          "indexed": false,
          "internalType": "address",
          "name": "account",
          "type": "address"
        },
        {
          "indexed": false,
          "internalType": "uint256",
          "name": "id",
          "type": "uint256"
        },
        {
          "indexed": false,
          "internalType": "uint256",
          "name": "amount",
          "type": "uint256"
        }
      ],
      "name": "Minted",
      "type": "event"
    },
    {
      "anonymous": false,
      "inputs": [
        {
          "indexed": true,
          "internalType": "address",
          "name": "previousOwner",
          "type": "address"
        },
        {
          "indexed": true,
          "internalType": "address",
          "name": "newOwner",
          "type": "address"
        }
      ],
      "name": "OwnershipTransferred",
      "type": "event"
    },
    {
      "anonymous": false,
      "inputs": [
        {
          "indexed": false,
          "internalType": "address",
          "name": "account",
          "type": "address"
        }
      ],
      "name": "Paused",
      "type": "event"
    },
    {
      "anonymous": false,
      "inputs": [
        {
          "indexed": true,
          "internalType": "bytes32",
          "name": "role",
          "type": "bytes32"
        },
        {
          "indexed": true,
          "internalType": "bytes32",
          "name": "previousAdminRole",
          "type": "bytes32"
        },
        {
          "indexed": true,
          "internalType": "bytes32",
          "name": "newAdminRole",
          "type": "bytes32"
        }
      ],
      "name": "RoleAdminChanged",
      "type": "event"
    },
    {
      "anonymous": false,
      "inputs": [
        {
          "indexed": true,
          "internalType": "bytes32",
          "name": "role",
          "type": "bytes32"
        },
        {
          "indexed": true,
          "internalType": "address",
          "name": "account",
          "type": "address"
        },
        {
          "indexed": true,
          "internalType": "address",
          "name": "sender",
          "type": "address"
        }
      ],
      "name": "RoleGranted",
      "type": "event"
    },
    {
      "anonymous": false,
      "inputs": [
        {
          "indexed": true,
          "internalType": "bytes32",
          "name": "role",
          "type": "bytes32"
        },
        {
          "indexed": true,
          "internalType": "address",
          "name": "account",
          "type": "address"
        },
        {
          "indexed": true,
          "internalType": "address",
          "name": "sender",
          "type": "address"
        }
      ],
      "name": "RoleRevoked",
      "type": "event"
    },
    {
      "anonymous": false,
      "inputs": [
        {
          "indexed": true,
          "internalType": "address",
          "name": "operator",
          "type": "address"
        },
        {
          "indexed": true,
          "internalType": "address",
          "name": "from",
          "type": "address"
        },
        {
          "indexed": true,
          "internalType": "address",
          "name": "to",
          "type": "address"
        },
        {
          "indexed": false,
          "internalType": "uint256[]",
          "name": "ids",
          "type": "uint256[]"
        },
        {
          "indexed": false,
          "internalType": "uint256[]",
          "name": "values",
          "type": "uint256[]"
        }
      ],
      "name": "TransferBatch",
      "type": "event"
    },
    {
      "anonymous": false,
      "inputs": [
        {
          "indexed": true,
          "internalType": "address",
          "name": "operator",
          "type": "address"
        },
        {
          "indexed": true,
          "internalType": "address",
          "name": "from",
          "type": "address"
        },
        {
          "indexed": true,
          "internalType": "address",
          "name": "to",
          "type": "address"
        },
        {
          "indexed": false,
          "internalType": "uint256",
          "name": "id",
          "type": "uint256"
        },
        {
          "indexed": false,
          "internalType": "uint256",
          "name": "value",
          "type": "uint256"
        }
      ],
      "name": "TransferSingle",
      "type": "event"
    },
    {
      "anonymous": false,
      "inputs": [
        {
          "indexed": false,
          "internalType": "string",
          "name": "value",
          "type": "string"
        },
        {
          "indexed": true,
          "internalType": "uint256",
          "name": "id",
          "type": "uint256"
        }
      ],
      "name": "URI",
      "type": "event"
    },
    {
      "anonymous": false,
      "inputs": [
        {
          "indexed": false,
          "internalType": "address",
          "name": "account",
          "type": "address"
        }
      ],
      "name": "Unpaused",
      "type": "event"
    },
    {
      "inputs": [],
      "name": "BURNER_ROLE",
      "outputs": [
        {
          "internalType": "bytes32",
          "name": "",
          "type": "bytes32"
        }
      ],
      "stateMutability": "view",
      "type": "function"
    },
    {
      "inputs": [],
      "name": "DEFAULT_ADMIN_ROLE",
      "outputs": [
        {
          "internalType": "bytes32",
          "name": "",
          "type": "bytes32"
        }
      ],
      "stateMutability": "view",
      "type": "function"
    },
    {
      "inputs": [],
      "name": "MINTER_ROLE",
      "outputs": [
        {
          "internalType": "bytes32",
          "name": "",
          "type": "bytes32"
        }
      ],
      "stateMutability": "view",
      "type": "function"
    },
    {
      "inputs": [
        {
          "internalType": "address",
          "name": "account",
          "type": "address"
        },
        {
          "internalType": "uint256",
          "name": "id",
          "type": "uint256"
        }
      ],
      "name": "balanceOf",
      "outputs": [
        {
          "internalType": "uint256",
          "name": "",
          "type": "uint256"
        }
      ],
      "stateMutability": "view",
      "type": "function"
    },
    {
      "inputs": [
        {
          "internalType": "address[]",
          "name": "accounts",
          "type": "address[]"
        },
        {
          "internalType": "uint256[]",
          "name": "ids",
          "type": "uint256[]"
        }
      ],
      "name": "balanceOfBatch",
      "outputs": [
        {
          "internalType": "uint256[]",
          "name": "",
          "type": "uint256[]"
        }
      ],
      "stateMutability": "view",
      "type": "function"
    },
    {
      "inputs": [
        {
          "internalType": "address",
          "name": "_account",
          "type": "address"
        },
        {
          "internalType": "uint256",
          "name": "_id",
          "type": "uint256"
        },
        {
          "internalType": "uint256",
          "name": "_amount",
          "type": "uint256"
        }
      ],
      "name": "burn",
      "outputs": [],
      "stateMutability": "nonpayable",
      "type": "function"
    },
    {
      "inputs": [
        {
          "internalType": "address",
          "name": "_account",
          "type": "address"
        },
        {
          "internalType": "uint256[]",
          "name": "_ids",
          "type": "uint256[]"
        },
        {
          "internalType": "uint256[]",
          "name": "_amounts",
          "type": "uint256[]"
        }
      ],
      "name": "burnBatch",
      "outputs": [],
      "stateMutability": "nonpayable",
      "type": "function"
    },
    {
      "inputs": [],
      "name": "contractURI",
      "outputs": [
        {
          "internalType": "string",
          "name": "",
          "type": "string"
        }
      ],
      "stateMutability": "view",
      "type": "function"
    },
    {
      "inputs": [
        {
          "internalType": "uint256",
          "name": "_id",
          "type": "uint256"
        }
      ],
      "name": "exists",
      "outputs": [
        {
          "internalType": "bool",
          "name": "",
          "type": "bool"
        }
      ],
      "stateMutability": "view",
      "type": "function"
    },
    {
      "inputs": [
        {
          "internalType": "bytes32",
          "name": "role",
          "type": "bytes32"
        }
      ],
      "name": "getRoleAdmin",
      "outputs": [
        {
          "internalType": "bytes32",
          "name": "",
          "type": "bytes32"
        }
      ],
      "stateMutability": "view",
      "type": "function"
    },
    {
      "inputs": [],
      "name": "getTrustedForwarder",
      "outputs": [
        {
          "internalType": "address",
          "name": "forwarder",
          "type": "address"
        }
      ],
      "stateMutability": "view",
      "type": "function"
    },
    {
      "inputs": [
        {
          "internalType": "bytes32",
          "name": "role",
          "type": "bytes32"
        },
        {
          "internalType": "address",
          "name": "account",
          "type": "address"
        }
      ],
      "name": "grantRole",
      "outputs": [],
      "stateMutability": "nonpayable",
      "type": "function"
    },
    {
      "inputs": [
        {
          "internalType": "bytes32",
          "name": "role",
          "type": "bytes32"
        },
        {
          "internalType": "address",
          "name": "account",
          "type": "address"
        }
      ],
      "name": "hasRole",
      "outputs": [
        {
          "internalType": "bool",
          "name": "",
          "type": "bool"
        }
      ],
      "stateMutability": "view",
      "type": "function"
    },
    {
      "inputs": [
        {
          "internalType": "address",
          "name": "account",
          "type": "address"
        },
        {
          "internalType": "address",
          "name": "operator",
          "type": "address"
        }
      ],
      "name": "isApprovedForAll",
      "outputs": [
        {
          "internalType": "bool",
          "name": "",
          "type": "bool"
        }
      ],
      "stateMutability": "view",
      "type": "function"
    },
    {
      "inputs": [
        {
          "internalType": "address",
          "name": "forwarder",
          "type": "address"
        }
      ],
      "name": "isTrustedForwarder",
      "outputs": [
        {
          "internalType": "bool",
          "name": "",
          "type": "bool"
        }
      ],
      "stateMutability": "view",
      "type": "function"
    },
    {
      "inputs": [
        {
          "internalType": "address",
          "name": "_account",
          "type": "address"
        },
        {
          "internalType": "uint256",
          "name": "_id",
          "type": "uint256"
        },
        {
          "internalType": "uint256",
          "name": "_amount",
          "type": "uint256"
        }
      ],
      "name": "mint",
      "outputs": [],
      "stateMutability": "nonpayable",
      "type": "function"
    },
    {
      "inputs": [
        {
          "internalType": "address",
          "name": "_account",
          "type": "address"
        },
        {
          "internalType": "uint256[]",
          "name": "_ids",
          "type": "uint256[]"
        },
        {
          "internalType": "uint256[]",
          "name": "_amounts",
          "type": "uint256[]"
        }
      ],
      "name": "mintBatch",
      "outputs": [],
      "stateMutability": "nonpayable",
      "type": "function"
    },
    {
      "inputs": [],
      "name": "owner",
      "outputs": [
        {
          "internalType": "address",
          "name": "",
          "type": "address"
        }
      ],
      "stateMutability": "view",
      "type": "function"
    },
    {
      "inputs": [],
      "name": "pause",
      "outputs": [],
      "stateMutability": "nonpayable",
      "type": "function"
    },
    {
      "inputs": [],
      "name": "paused",
      "outputs": [
        {
          "internalType": "bool",
          "name": "",
          "type": "bool"
        }
      ],
      "stateMutability": "view",
      "type": "function"
    },
    {
      "inputs": [],
      "name": "renounceOwnership",
      "outputs": [],
      "stateMutability": "nonpayable",
      "type": "function"
    },
    {
      "inputs": [
        {
          "internalType": "bytes32",
          "name": "role",
          "type": "bytes32"
        },
        {
          "internalType": "address",
          "name": "account",
          "type": "address"
        }
      ],
      "name": "renounceRole",
      "outputs": [],
      "stateMutability": "nonpayable",
      "type": "function"
    },
    {
      "inputs": [
        {
          "internalType": "bytes32",
          "name": "role",
          "type": "bytes32"
        },
        {
          "internalType": "address",
          "name": "account",
          "type": "address"
        }
      ],
      "name": "revokeRole",
      "outputs": [],
      "stateMutability": "nonpayable",
      "type": "function"
    },
    {
      "inputs": [
        {
          "internalType": "address",
          "name": "from",
          "type": "address"
        },
        {
          "internalType": "address",
          "name": "to",
          "type": "address"
        },
        {
          "internalType": "uint256[]",
          "name": "ids",
          "type": "uint256[]"
        },
        {
          "internalType": "uint256[]",
          "name": "amounts",
          "type": "uint256[]"
        },
        {
          "internalType": "bytes",
          "name": "data",
          "type": "bytes"
        }
      ],
      "name": "safeBatchTransferFrom",
      "outputs": [],
      "stateMutability": "nonpayable",
      "type": "function"
    },
    {
      "inputs": [
        {
          "internalType": "address",
          "name": "from",
          "type": "address"
        },
        {
          "internalType": "address",
          "name": "to",
          "type": "address"
        },
        {
          "internalType": "uint256",
          "name": "id",
          "type": "uint256"
        },
        {
          "internalType": "uint256",
          "name": "amount",
          "type": "uint256"
        },
        {
          "internalType": "bytes",
          "name": "data",
          "type": "bytes"
        }
      ],
      "name": "safeTransferFrom",
      "outputs": [],
      "stateMutability": "nonpayable",
      "type": "function"
    },
    {
      "inputs": [
        {
          "internalType": "address",
          "name": "operator",
          "type": "address"
        },
        {
          "internalType": "bool",
          "name": "approved",
          "type": "bool"
        }
      ],
      "name": "setApprovalForAll",
      "outputs": [],
      "stateMutability": "nonpayable",
      "type": "function"
    },
    {
      "inputs": [
        {
          "internalType": "string",
          "name": "_baseURI",
          "type": "string"
        }
      ],
      "name": "setBaseTokenURI",
      "outputs": [],
      "stateMutability": "nonpayable",
      "type": "function"
    },
    {
      "inputs": [
        {
          "internalType": "string",
          "name": "_contractUri",
          "type": "string"
        }
      ],
      "name": "setContractURI",
      "outputs": [],
      "stateMutability": "nonpayable",
      "type": "function"
    },
    {
      "inputs": [
        {
          "internalType": "uint256",
          "name": "_tokenId",
          "type": "uint256"
        },
        {
          "internalType": "string",
          "name": "_tokenURI",
          "type": "string"
        }
      ],
      "name": "setTokenURI",
      "outputs": [],
      "stateMutability": "nonpayable",
      "type": "function"
    },
    {
      "inputs": [
        {
          "internalType": "bytes4",
          "name": "_interfaceId",
          "type": "bytes4"
        }
      ],
      "name": "supportsInterface",
      "outputs": [
        {
          "internalType": "bool",
          "name": "",
          "type": "bool"
        }
      ],
      "stateMutability": "view",
      "type": "function"
    },
    {
      "inputs": [
        {
          "internalType": "uint256",
          "name": "_id",
          "type": "uint256"
        }
      ],
      "name": "totalSupply",
      "outputs": [
        {
          "internalType": "uint256",
          "name": "",
          "type": "uint256"
        }
      ],
      "stateMutability": "view",
      "type": "function"
    },
    {
      "inputs": [
        {
          "internalType": "address",
          "name": "_to",
          "type": "address"
        },
        {
          "internalType": "uint256",
          "name": "_id",
          "type": "uint256"
        },
        {
          "internalType": "uint256",
          "name": "_amount",
          "type": "uint256"
        }
      ],
      "name": "transfer",
      "outputs": [],
      "stateMutability": "nonpayable",
      "type": "function"
    },
    {
      "inputs": [
        {
          "internalType": "address",
          "name": "newOwner",
          "type": "address"
        }
      ],
      "name": "transferOwnership",
      "outputs": [],
      "stateMutability": "nonpayable",
      "type": "function"
    },
    {
      "inputs": [],
      "name": "unpause",
      "outputs": [],
      "stateMutability": "nonpayable",
      "type": "function"
    },
    {
      "inputs": [
        {
          "internalType": "uint256",
          "name": "tokenId",
          "type": "uint256"
        }
      ],
      "name": "uri",
      "outputs": [
        {
          "internalType": "string",
          "name": "",
          "type": "string"
        }
      ],
      "stateMutability": "view",
      "type": "function"
    }
  ],
  "bytecode": "0x6080604052604051806020016040528060008152506004908162000024919062000722565b503480156200003257600080fd5b506040516200642b3803806200642b8339818101604052810190620000589190620009d2565b816200006a816200016560201b60201c565b506000600660006101000a81548160ff021916908315150217905550620000a66200009a6200017a60201b60201c565b6200019160201b60201c565b620000ca6000801b620000be6200017a60201b60201c565b6200025760201b60201c565b6200010b7f3c11d16cbaffd01df69ce1c404f6340ee057498f5f00246190ea54220576a848620000ff6200017a60201b60201c565b6200025760201b60201c565b6200014c7f9f2df0fed2c77648de5860a4cc508cd0818c85b8b8a1ab4ceeef8d981c8956a6620001406200017a60201b60201c565b6200025760201b60201c565b6200015d816200026d60201b60201c565b505062000a38565b806003908162000176919062000722565b5050565b60006200018c620002b060201b60201c565b905090565b6000600860009054906101000a900473ffffffffffffffffffffffffffffffffffffffff16905081600860006101000a81548173ffffffffffffffffffffffffffffffffffffffff021916908373ffffffffffffffffffffffffffffffffffffffff1602179055508173ffffffffffffffffffffffffffffffffffffffff168173ffffffffffffffffffffffffffffffffffffffff167f8be0079c531659141344cd1fd0a4f28419497f9722a3daafe3b4186f6b6457e060405160405180910390a35050565b620002698282620002f260201b60201c565b5050565b806000806101000a81548173ffffffffffffffffffffffffffffffffffffffff021916908373ffffffffffffffffffffffffffffffffffffffff16021790555050565b60006014600036905010158015620002d55750620002d433620003e460201b60201c565b5b15620002eb57601436033560601c9050620002ef565b3390505b90565b6200030482826200043d60201b60201c565b620003e05760016007600084815260200190815260200160002060000160008373ffffffffffffffffffffffffffffffffffffffff1673ffffffffffffffffffffffffffffffffffffffff16815260200190815260200160002060006101000a81548160ff021916908315150217905550620003856200017a60201b60201c565b73ffffffffffffffffffffffffffffffffffffffff168173ffffffffffffffffffffffffffffffffffffffff16837f2f8788117e7eff1d82e926ec794901d17c78024a50270940304540a733656f0d60405160405180910390a45b5050565b60008060009054906101000a900473ffffffffffffffffffffffffffffffffffffffff1673ffffffffffffffffffffffffffffffffffffffff168273ffffffffffffffffffffffffffffffffffffffff16149050919050565b60006007600084815260200190815260200160002060000160008373ffffffffffffffffffffffffffffffffffffffff1673ffffffffffffffffffffffffffffffffffffffff16815260200190815260200160002060009054906101000a900460ff16905092915050565b600081519050919050565b7f4e487b7100000000000000000000000000000000000000000000000000000000600052604160045260246000fd5b7f4e487b7100000000000000000000000000000000000000000000000000000000600052602260045260246000fd5b600060028204905060018216806200052a57607f821691505b60208210810362000540576200053f620004e2565b5b50919050565b60008190508160005260206000209050919050565b60006020601f8301049050919050565b600082821b905092915050565b600060088302620005aa7fffffffffffffffffffffffffffffffffffffffffffffffffffffffffffffffff826200056b565b620005b686836200056b565b95508019841693508086168417925050509392505050565b6000819050919050565b6000819050919050565b600062000603620005fd620005f784620005ce565b620005d8565b620005ce565b9050919050565b6000819050919050565b6200061f83620005e2565b620006376200062e826200060a565b84845462000578565b825550505050565b600090565b6200064e6200063f565b6200065b81848462000614565b505050565b5b8181101562000683576200067760008262000644565b60018101905062000661565b5050565b601f821115620006d2576200069c8162000546565b620006a7846200055b565b81016020851015620006b7578190505b620006cf620006c6856200055b565b83018262000660565b50505b505050565b600082821c905092915050565b6000620006f760001984600802620006d7565b1980831691505092915050565b6000620007128383620006e4565b9150826002028217905092915050565b6200072d82620004a8565b67ffffffffffffffff811115620007495762000748620004b3565b5b62000755825462000511565b6200076282828562000687565b600060209050601f8311600181146200079a576000841562000785578287015190505b62000791858262000704565b86555062000801565b601f198416620007aa8662000546565b60005b82811015620007d457848901518255600182019150602085019450602081019050620007ad565b86831015620007f45784890151620007f0601f891682620006e4565b8355505b6001600288020188555050505b505050505050565b6000604051905090565b600080fd5b600080fd5b600080fd5b600080fd5b6000601f19601f8301169050919050565b620008438262000827565b810181811067ffffffffffffffff82111715620008655762000864620004b3565b5b80604052505050565b60006200087a62000809565b905062000888828262000838565b919050565b600067ffffffffffffffff821115620008ab57620008aa620004b3565b5b620008b68262000827565b9050602081019050919050565b60005b83811015620008e3578082015181840152602081019050620008c6565b60008484015250505050565b60006200090662000900846200088d565b6200086e565b90508281526020810184848401111562000925576200092462000822565b5b62000932848285620008c3565b509392505050565b600082601f8301126200095257620009516200081d565b5b815162000964848260208601620008ef565b91505092915050565b600073ffffffffffffffffffffffffffffffffffffffff82169050919050565b60006200099a826200096d565b9050919050565b620009ac816200098d565b8114620009b857600080fd5b50565b600081519050620009cc81620009a1565b92915050565b60008060408385031215620009ec57620009eb62000813565b5b600083015167ffffffffffffffff81111562000a0d5762000a0c62000818565b5b62000a1b858286016200093a565b925050602062000a2e85828601620009bb565b9150509250929050565b6159e38062000a486000396000f3fe608060405234801561001057600080fd5b50600436106102105760003560e01c80636b20c45411610125578063ce1b815f116100ad578063e8a3d4851161007c578063e8a3d485146105e7578063e985e9c514610605578063f242432a14610635578063f2fde38b14610651578063f5298aca1461066d57610210565b8063ce1b815f14610573578063d539139314610591578063d547741f146105af578063d81d0a15146105cb57610210565b806391d14854116100f457806391d14854146104bd578063938e3d7b146104ed578063a217fddf14610509578063a22cb46514610527578063bd85b0391461054357610210565b80636b20c4541461046f578063715018a61461048b5780638456cb59146104955780638da5cb5b1461049f57610210565b80632eb2c2d6116101a85780633f4ba83a116101775780633f4ba83a146103b75780634e1273f4146103c15780634f558e79146103f1578063572b6c05146104215780635c975abb1461045157610210565b80632eb2c2d6146103475780632f2ff15d1461036357806330176e131461037f57806336568abe1461039b57610210565b8063156e29f6116101e4578063156e29f6146102c1578063162094c4146102dd578063248a9ca3146102f9578063282c51f31461032957610210565b8062fdd58e1461021557806301ffc9a714610245578063095bcdb6146102755780630e89341c14610291575b600080fd5b61022f600480360381019061022a91906136ab565b610689565b60405161023c91906136fa565b60405180910390f35b61025f600480360381019061025a919061376d565b610752565b60405161026c91906137b5565b60405180910390f35b61028f600480360381019061028a91906137d0565b610764565b005b6102ab60048036038101906102a69190613823565b6107cd565b6040516102b891906138e0565b60405180910390f35b6102db60048036038101906102d691906137d0565b6108b2565b005b6102f760048036038101906102f29190613a37565b61098e565b005b610313600480360381019061030e9190613ac9565b6109ef565b6040516103209190613b05565b60405180910390f35b610331610a0f565b60405161033e9190613b05565b60405180910390f35b610361600480360381019061035c9190613c89565b610a33565b005b61037d60048036038101906103789190613d58565b610ad4565b005b61039960048036038101906103949190613d98565b610af5565b005b6103b560048036038101906103b09190613d58565b610b54565b005b6103bf610bd7565b005b6103db60048036038101906103d69190613ea4565b610c3c565b6040516103e89190613fda565b60405180910390f35b61040b60048036038101906104069190613823565b610d55565b60405161041891906137b5565b60405180910390f35b61043b60048036038101906104369190613ffc565b610d69565b60405161044891906137b5565b60405180910390f35b610459610dc2565b60405161046691906137b5565b60405180910390f35b61048960048036038101906104849190614029565b610dd9565b005b610493610ea5565b005b61049d610eb9565b005b6104a7610f1e565b6040516104b491906140c3565b60405180910390f35b6104d760048036038101906104d29190613d58565b610f48565b6040516104e491906137b5565b60405180910390f35b61050760048036038101906105029190613d98565b610fb3565b005b610511611018565b60405161051e9190613b05565b60405180910390f35b610541600480360381019061053c919061410a565b61101f565b005b61055d60048036038101906105589190613823565b611035565b60405161056a91906136fa565b60405180910390f35b61057b611052565b60405161058891906140c3565b60405180910390f35b61059961107b565b6040516105a69190613b05565b60405180910390f35b6105c960048036038101906105c49190613d58565b61109f565b005b6105e560048036038101906105e091906141a5565b6110c0565b005b6105ef611224565b6040516105fc91906138e0565b60405180910390f35b61061f600480360381019061061a919061423a565b6112b6565b60405161062c91906137b5565b60405180910390f35b61064f600480360381019061064a919061427a565b61134a565b005b61066b60048036038101906106669190613ffc565b6113eb565b005b610687600480360381019061068291906137d0565b61146e565b005b60008073ffffffffffffffffffffffffffffffffffffffff168373ffffffffffffffffffffffffffffffffffffffff16036106f9576040517f08c379a00000000000000000000000000000000000000000000000000000000081526004016106f090614383565b60405180910390fd5b6001600083815260200190815260200160002060008473ffffffffffffffffffffffffffffffffffffffff1673ffffffffffffffffffffffffffffffffffffffff16815260200190815260200160002054905092915050565b600061075d8261153a565b9050919050565b606061077a6107716115b4565b858585856115c3565b7f77f47dd954d0ce02fc992a77a1808ac0a8de2fe04e61a44d8136adad2d11b7ec6107a36115b4565b6107ab6115b4565b8686866040516107bf9594939291906143a3565b60405180910390a150505050565b606060006005600084815260200190815260200160002080546107ef90614425565b80601f016020809104026020016040519081016040528092919081815260200182805461081b90614425565b80156108685780601f1061083d57610100808354040283529160200191610868565b820191906000526020600020905b81548152906001019060200180831161084b57829003601f168201915b5050505050905060008151116108865761088183611861565b6108aa565b60048160405160200161089a92919061452a565b6040516020818303038152906040525b915050919050565b6108ba6118f5565b6108eb7f9f2df0fed2c77648de5860a4cc508cd0818c85b8b8a1ab4ceeef8d981c8956a66108e66115b4565b610f48565b61092a576040517f08c379a00000000000000000000000000000000000000000000000000000000081526004016109219061459a565b60405180910390fd5b6109458383836040518060200160405280600081525061193f565b7f03f17d66ad3bf18e9412eb06582908831508cdb9b8da9cddb1431f645a5b863261096e6115b4565b84848460405161098194939291906145ba565b60405180910390a1505050565b6109a26000801b61099d6115b4565b610f48565b6109e1576040517f08c379a00000000000000000000000000000000000000000000000000000000081526004016109d89061464b565b60405180910390fd5b6109eb8282611af0565b5050565b600060076000838152602001908152602001600020600101549050919050565b7f3c11d16cbaffd01df69ce1c404f6340ee057498f5f00246190ea54220576a84881565b610a3b6115b4565b73ffffffffffffffffffffffffffffffffffffffff168573ffffffffffffffffffffffffffffffffffffffff161480610a815750610a8085610a7b6115b4565b6112b6565b5b610ac0576040517f08c379a0000000000000000000000000000000000000000000000000000000008152600401610ab7906146dd565b60405180910390fd5b610acd8585858585611b55565b5050505050565b610add826109ef565b610ae681611e79565b610af08383611e8d565b505050565b610b096000801b610b046115b4565b610f48565b610b48576040517f08c379a0000000000000000000000000000000000000000000000000000000008152600401610b3f9061464b565b60405180910390fd5b610b5181611f6e565b50565b610b5c6115b4565b73ffffffffffffffffffffffffffffffffffffffff168173ffffffffffffffffffffffffffffffffffffffff1614610bc9576040517f08c379a0000000000000000000000000000000000000000000000000000000008152600401610bc09061476f565b60405180910390fd5b610bd38282611f81565b5050565b610bdf612063565b610bf36000801b610bee6115b4565b610f48565b610c32576040517f08c379a0000000000000000000000000000000000000000000000000000000008152600401610c299061464b565b60405180910390fd5b610c3a6120ac565b565b60608151835114610c82576040517f08c379a0000000000000000000000000000000000000000000000000000000008152600401610c7990614801565b60405180910390fd5b6000835167ffffffffffffffff811115610c9f57610c9e61390c565b5b604051908082528060200260200182016040528015610ccd5781602001602082028036833780820191505090505b50905060005b8451811015610d4a57610d1a858281518110610cf257610cf1614821565b5b6020026020010151858381518110610d0d57610d0c614821565b5b6020026020010151610689565b828281518110610d2d57610d2c614821565b5b60200260200101818152505080610d439061487f565b9050610cd3565b508091505092915050565b600080610d6183611035565b119050919050565b60008060009054906101000a900473ffffffffffffffffffffffffffffffffffffffff1673ffffffffffffffffffffffffffffffffffffffff168273ffffffffffffffffffffffffffffffffffffffff16149050919050565b6000600660009054906101000a900460ff16905090565b610de16118f5565b610e127f3c11d16cbaffd01df69ce1c404f6340ee057498f5f00246190ea54220576a848610e0d6115b4565b610f48565b610e51576040517f08c379a0000000000000000000000000000000000000000000000000000000008152600401610e4890614913565b60405180910390fd5b610e5c83838361210f565b7f2d733e8161fe4ccd0a3d4047a11a32419a7b2583ee907a5f5eeb06db08a2aec4610e856115b4565b848484604051610e989493929190614933565b60405180910390a1505050565b610ead6123df565b610eb7600061245d565b565b610ec16118f5565b610ed56000801b610ed06115b4565b610f48565b610f14576040517f08c379a0000000000000000000000000000000000000000000000000000000008152600401610f0b9061464b565b60405180910390fd5b610f1c612523565b565b6000600860009054906101000a900473ffffffffffffffffffffffffffffffffffffffff16905090565b60006007600084815260200190815260200160002060000160008373ffffffffffffffffffffffffffffffffffffffff1673ffffffffffffffffffffffffffffffffffffffff16815260200190815260200160002060009054906101000a900460ff16905092915050565b6000801b610fc081611e79565b6000825111611004576040517f08c379a0000000000000000000000000000000000000000000000000000000008152600401610ffb906149d2565b60405180910390fd5b81600a90816110139190614b89565b505050565b6000801b81565b61103161102a6115b4565b8383612586565b5050565b600060096000838152602001908152602001600020549050919050565b60008060009054906101000a900473ffffffffffffffffffffffffffffffffffffffff16905090565b7f9f2df0fed2c77648de5860a4cc508cd0818c85b8b8a1ab4ceeef8d981c8956a681565b6110a8826109ef565b6110b181611e79565b6110bb8383611f81565b505050565b6110c86118f5565b6110f97f9f2df0fed2c77648de5860a4cc508cd0818c85b8b8a1ab4ceeef8d981c8956a66110f46115b4565b610f48565b611138576040517f08c379a000000000000000000000000000000000000000000000000000000000815260040161112f90614ca7565b60405180910390fd5b6111d585858580806020026020016040519081016040528093929190818152602001838360200280828437600081840152601f19601f82011690508083019250505050505050848480806020026020016040519081016040528093929190818152602001838360200280828437600081840152601f19601f82011690508083019250505050505050604051806020016040528060008152506126f2565b7f2d85368ce5d64f46c151c0714668c85530f639e57e2fd309337867467c5cdeb86111fe6115b4565b868686868660405161121596959493929190614d31565b60405180910390a15050505050565b6060600a805461123390614425565b80601f016020809104026020016040519081016040528092919081815260200182805461125f90614425565b80156112ac5780601f10611281576101008083540402835291602001916112ac565b820191906000526020600020905b81548152906001019060200180831161128f57829003601f168201915b5050505050905090565b6000600260008473ffffffffffffffffffffffffffffffffffffffff1673ffffffffffffffffffffffffffffffffffffffff16815260200190815260200160002060008373ffffffffffffffffffffffffffffffffffffffff1673ffffffffffffffffffffffffffffffffffffffff16815260200190815260200160002060009054906101000a900460ff16905092915050565b6113526115b4565b73ffffffffffffffffffffffffffffffffffffffff168573ffffffffffffffffffffffffffffffffffffffff1614806113985750611397856113926115b4565b6112b6565b5b6113d7576040517f08c379a00000000000000000000000000000000000000000000000000000000081526004016113ce906146dd565b60405180910390fd5b6113e485858585856115c3565b5050505050565b6113f36123df565b600073ffffffffffffffffffffffffffffffffffffffff168173ffffffffffffffffffffffffffffffffffffffff1603611462576040517f08c379a000000000000000000000000000000000000000000000000000000000815260040161145990614dfa565b60405180910390fd5b61146b8161245d565b50565b6114766118f5565b6114a77f3c11d16cbaffd01df69ce1c404f6340ee057498f5f00246190ea54220576a8486114a26115b4565b610f48565b6114e6576040517f08c379a00000000000000000000000000000000000000000000000000000000081526004016114dd90614e66565b60405180910390fd5b6114f183838361291f565b7f8cbfdd0f15f678ea4039ef0f30ce1494d591556082bee7c244bfd664efad36c761151a6115b4565b84848460405161152d94939291906145ba565b60405180910390a1505050565b60007f7965db0b000000000000000000000000000000000000000000000000000000007bffffffffffffffffffffffffffffffffffffffffffffffffffffffff1916827bffffffffffffffffffffffffffffffffffffffffffffffffffffffff191614806115ad57506115ac82612b67565b5b9050919050565b60006115be612c49565b905090565b600073ffffffffffffffffffffffffffffffffffffffff168473ffffffffffffffffffffffffffffffffffffffff1603611632576040517f08c379a000000000000000000000000000000000000000000000000000000000815260040161162990614ef8565b60405180910390fd5b600061163c6115b4565b9050600061164985612c80565b9050600061165685612c80565b9050611666838989858589612cfa565b60006001600088815260200190815260200160002060008a73ffffffffffffffffffffffffffffffffffffffff1673ffffffffffffffffffffffffffffffffffffffff168152602001908152602001600020549050858110156116fe576040517f08c379a00000000000000000000000000000000000000000000000000000000081526004016116f590614f8a565b60405180910390fd5b8581036001600089815260200190815260200160002060008b73ffffffffffffffffffffffffffffffffffffffff1673ffffffffffffffffffffffffffffffffffffffff16815260200190815260200160002081905550856001600089815260200190815260200160002060008a73ffffffffffffffffffffffffffffffffffffffff1673ffffffffffffffffffffffffffffffffffffffff16815260200190815260200160002060008282546117b59190614faa565b925050819055508773ffffffffffffffffffffffffffffffffffffffff168973ffffffffffffffffffffffffffffffffffffffff168573ffffffffffffffffffffffffffffffffffffffff167fc3d58168c5ae7397731d063d5bbf3d657854427343f4c083240f7aacaa2d0f628a8a604051611832929190614fde565b60405180910390a4611848848a8a86868a612eca565b611856848a8a8a8a8a612ed2565b505050505050505050565b60606003805461187090614425565b80601f016020809104026020016040519081016040528092919081815260200182805461189c90614425565b80156118e95780601f106118be576101008083540402835291602001916118e9565b820191906000526020600020905b8154815290600101906020018083116118cc57829003601f168201915b50505050509050919050565b6118fd610dc2565b1561193d576040517f08c379a000000000000000000000000000000000000000000000000000000000815260040161193490615053565b60405180910390fd5b565b600073ffffffffffffffffffffffffffffffffffffffff168473ffffffffffffffffffffffffffffffffffffffff16036119ae576040517f08c379a00000000000000000000000000000000000000000000000000000000081526004016119a5906150e5565b60405180910390fd5b60006119b86115b4565b905060006119c585612c80565b905060006119d285612c80565b90506119e383600089858589612cfa565b846001600088815260200190815260200160002060008973ffffffffffffffffffffffffffffffffffffffff1673ffffffffffffffffffffffffffffffffffffffff1681526020019081526020016000206000828254611a439190614faa565b925050819055508673ffffffffffffffffffffffffffffffffffffffff16600073ffffffffffffffffffffffffffffffffffffffff168473ffffffffffffffffffffffffffffffffffffffff167fc3d58168c5ae7397731d063d5bbf3d657854427343f4c083240f7aacaa2d0f628989604051611ac1929190614fde565b60405180910390a4611ad883600089858589612eca565b611ae783600089898989612ed2565b50505050505050565b80600560008481526020019081526020016000209081611b109190614b89565b50817f6bb7ff708619ba0610cba295a58592e0451dee2622938c8755667688daf3529b611b3c846107cd565b604051611b4991906138e0565b60405180910390a25050565b8151835114611b99576040517f08c379a0000000000000000000000000000000000000000000000000000000008152600401611b9090615177565b60405180910390fd5b600073ffffffffffffffffffffffffffffffffffffffff168473ffffffffffffffffffffffffffffffffffffffff1603611c08576040517f08c379a0000000000000000000000000000000000000000000000000000000008152600401611bff90614ef8565b60405180910390fd5b6000611c126115b4565b9050611c22818787878787612cfa565b60005b8451811015611dd6576000858281518110611c4357611c42614821565b5b602002602001015190506000858381518110611c6257611c61614821565b5b6020026020010151905060006001600084815260200190815260200160002060008b73ffffffffffffffffffffffffffffffffffffffff1673ffffffffffffffffffffffffffffffffffffffff16815260200190815260200160002054905081811015611d04576040517f08c379a0000000000000000000000000000000000000000000000000000000008152600401611cfb90614f8a565b60405180910390fd5b8181036001600085815260200190815260200160002060008c73ffffffffffffffffffffffffffffffffffffffff1673ffffffffffffffffffffffffffffffffffffffff16815260200190815260200160002081905550816001600085815260200190815260200160002060008b73ffffffffffffffffffffffffffffffffffffffff1673ffffffffffffffffffffffffffffffffffffffff1681526020019081526020016000206000828254611dbb9190614faa565b9250508190555050505080611dcf9061487f565b9050611c25565b508473ffffffffffffffffffffffffffffffffffffffff168673ffffffffffffffffffffffffffffffffffffffff168273ffffffffffffffffffffffffffffffffffffffff167f4a39dc06d4c0dbc64b70af90fd698a233a518aa5d07e595d983b8c0526c8f7fb8787604051611e4d929190615197565b60405180910390a4611e63818787878787612eca565b611e718187878787876130a9565b505050505050565b611e8a81611e856115b4565b613280565b50565b611e978282610f48565b611f6a5760016007600084815260200190815260200160002060000160008373ffffffffffffffffffffffffffffffffffffffff1673ffffffffffffffffffffffffffffffffffffffff16815260200190815260200160002060006101000a81548160ff021916908315150217905550611f0f6115b4565b73ffffffffffffffffffffffffffffffffffffffff168173ffffffffffffffffffffffffffffffffffffffff16837f2f8788117e7eff1d82e926ec794901d17c78024a50270940304540a733656f0d60405160405180910390a45b5050565b8060049081611f7d9190614b89565b5050565b611f8b8282610f48565b1561205f5760006007600084815260200190815260200160002060000160008373ffffffffffffffffffffffffffffffffffffffff1673ffffffffffffffffffffffffffffffffffffffff16815260200190815260200160002060006101000a81548160ff0219169083151502179055506120046115b4565b73ffffffffffffffffffffffffffffffffffffffff168173ffffffffffffffffffffffffffffffffffffffff16837ff6391f5c32d9c69d2a47ea670b442974b53935d1edc7fd64eb21e047a839171b60405160405180910390a45b5050565b61206b610dc2565b6120aa576040517f08c379a00000000000000000000000000000000000000000000000000000000081526004016120a19061521a565b60405180910390fd5b565b6120b4612063565b6000600660006101000a81548160ff0219169083151502179055507f5db9ee0a495bf2e6ff9c91a7834c1ba4fdd244a5e8aa4e537bd38aeae4b073aa6120f86115b4565b60405161210591906140c3565b60405180910390a1565b600073ffffffffffffffffffffffffffffffffffffffff168373ffffffffffffffffffffffffffffffffffffffff160361217e576040517f08c379a0000000000000000000000000000000000000000000000000000000008152600401612175906152ac565b60405180910390fd5b80518251146121c2576040517f08c379a00000000000000000000000000000000000000000000000000000000081526004016121b990615177565b60405180910390fd5b60006121cc6115b4565b90506121ec81856000868660405180602001604052806000815250612cfa565b60005b835181101561233b57600084828151811061220d5761220c614821565b5b60200260200101519050600084838151811061222c5761222b614821565b5b6020026020010151905060006001600084815260200190815260200160002060008973ffffffffffffffffffffffffffffffffffffffff1673ffffffffffffffffffffffffffffffffffffffff168152602001908152602001600020549050818110156122ce576040517f08c379a00000000000000000000000000000000000000000000000000000000081526004016122c59061533e565b60405180910390fd5b8181036001600085815260200190815260200160002060008a73ffffffffffffffffffffffffffffffffffffffff1673ffffffffffffffffffffffffffffffffffffffff1681526020019081526020016000208190555050505080806123339061487f565b9150506121ef565b50600073ffffffffffffffffffffffffffffffffffffffff168473ffffffffffffffffffffffffffffffffffffffff168273ffffffffffffffffffffffffffffffffffffffff167f4a39dc06d4c0dbc64b70af90fd698a233a518aa5d07e595d983b8c0526c8f7fb86866040516123b3929190615197565b60405180910390a46123d981856000868660405180602001604052806000815250612eca565b50505050565b6123e76115b4565b73ffffffffffffffffffffffffffffffffffffffff16612405610f1e565b73ffffffffffffffffffffffffffffffffffffffff161461245b576040517f08c379a0000000000000000000000000000000000000000000000000000000008152600401612452906153aa565b60405180910390fd5b565b6000600860009054906101000a900473ffffffffffffffffffffffffffffffffffffffff16905081600860006101000a81548173ffffffffffffffffffffffffffffffffffffffff021916908373ffffffffffffffffffffffffffffffffffffffff1602179055508173ffffffffffffffffffffffffffffffffffffffff168173ffffffffffffffffffffffffffffffffffffffff167f8be0079c531659141344cd1fd0a4f28419497f9722a3daafe3b4186f6b6457e060405160405180910390a35050565b61252b6118f5565b6001600660006101000a81548160ff0219169083151502179055507f62e78cea01bee320cd4e420270b5ea74000d11b0c9f74754ebdbfc544b05a25861256f6115b4565b60405161257c91906140c3565b60405180910390a1565b8173ffffffffffffffffffffffffffffffffffffffff168373ffffffffffffffffffffffffffffffffffffffff16036125f4576040517f08c379a00000000000000000000000000000000000000000000000000000000081526004016125eb9061543c565b60405180910390fd5b80600260008573ffffffffffffffffffffffffffffffffffffffff1673ffffffffffffffffffffffffffffffffffffffff16815260200190815260200160002060008473ffffffffffffffffffffffffffffffffffffffff1673ffffffffffffffffffffffffffffffffffffffff16815260200190815260200160002060006101000a81548160ff0219169083151502179055508173ffffffffffffffffffffffffffffffffffffffff168373ffffffffffffffffffffffffffffffffffffffff167f17307eab39ab6107e8899845ad3d59bd9653f200f220920489ca2b5937696c31836040516126e591906137b5565b60405180910390a3505050565b600073ffffffffffffffffffffffffffffffffffffffff168473ffffffffffffffffffffffffffffffffffffffff1603612761576040517f08c379a0000000000000000000000000000000000000000000000000000000008152600401612758906150e5565b60405180910390fd5b81518351146127a5576040517f08c379a000000000000000000000000000000000000000000000000000000000815260040161279c90615177565b60405180910390fd5b60006127af6115b4565b90506127c081600087878787612cfa565b60005b845181101561287a578381815181106127df576127de614821565b5b6020026020010151600160008784815181106127fe576127fd614821565b5b6020026020010151815260200190815260200160002060008873ffffffffffffffffffffffffffffffffffffffff1673ffffffffffffffffffffffffffffffffffffffff16815260200190815260200160002060008282546128609190614faa565b9250508190555080806128729061487f565b9150506127c3565b508473ffffffffffffffffffffffffffffffffffffffff16600073ffffffffffffffffffffffffffffffffffffffff168273ffffffffffffffffffffffffffffffffffffffff167f4a39dc06d4c0dbc64b70af90fd698a233a518aa5d07e595d983b8c0526c8f7fb87876040516128f2929190615197565b60405180910390a461290981600087878787612eca565b612918816000878787876130a9565b5050505050565b600073ffffffffffffffffffffffffffffffffffffffff168373ffffffffffffffffffffffffffffffffffffffff160361298e576040517f08c379a0000000000000000000000000000000000000000000000000000000008152600401612985906152ac565b60405180910390fd5b60006129986115b4565b905060006129a584612c80565b905060006129b284612c80565b90506129d283876000858560405180602001604052806000815250612cfa565b60006001600087815260200190815260200160002060008873ffffffffffffffffffffffffffffffffffffffff1673ffffffffffffffffffffffffffffffffffffffff16815260200190815260200160002054905084811015612a6a576040517f08c379a0000000000000000000000000000000000000000000000000000000008152600401612a619061533e565b60405180910390fd5b8481036001600088815260200190815260200160002060008973ffffffffffffffffffffffffffffffffffffffff1673ffffffffffffffffffffffffffffffffffffffff16815260200190815260200160002081905550600073ffffffffffffffffffffffffffffffffffffffff168773ffffffffffffffffffffffffffffffffffffffff168573ffffffffffffffffffffffffffffffffffffffff167fc3d58168c5ae7397731d063d5bbf3d657854427343f4c083240f7aacaa2d0f628989604051612b38929190614fde565b60405180910390a4612b5e84886000868660405180602001604052806000815250612eca565b50505050505050565b60007fd9b67a26000000000000000000000000000000000000000000000000000000007bffffffffffffffffffffffffffffffffffffffffffffffffffffffff1916827bffffffffffffffffffffffffffffffffffffffffffffffffffffffff19161480612c3257507f0e89341c000000000000000000000000000000000000000000000000000000007bffffffffffffffffffffffffffffffffffffffffffffffffffffffff1916827bffffffffffffffffffffffffffffffffffffffffffffffffffffffff1916145b80612c425750612c4182613305565b5b9050919050565b60006014600036905010158015612c655750612c6433610d69565b5b15612c7957601436033560601c9050612c7d565b3390505b90565b60606000600167ffffffffffffffff811115612c9f57612c9e61390c565b5b604051908082528060200260200182016040528015612ccd5781602001602082028036833780820191505090505b5090508281600081518110612ce557612ce4614821565b5b60200260200101818152505080915050919050565b612d0886868686868661336f565b600073ffffffffffffffffffffffffffffffffffffffff168573ffffffffffffffffffffffffffffffffffffffff1603612db95760005b8351811015612db757828181518110612d5b57612d5a614821565b5b602002602001015160096000868481518110612d7a57612d79614821565b5b602002602001015181526020019081526020016000206000828254612d9f9190614faa565b9250508190555080612db09061487f565b9050612d3f565b505b600073ffffffffffffffffffffffffffffffffffffffff168473ffffffffffffffffffffffffffffffffffffffff1603612ec25760005b8351811015612ec0576000848281518110612e0e57612e0d614821565b5b602002602001015190506000848381518110612e2d57612e2c614821565b5b6020026020010151905060006009600084815260200190815260200160002054905081811015612e92576040517f08c379a0000000000000000000000000000000000000000000000000000000008152600401612e89906154a8565b60405180910390fd5b818103600960008581526020019081526020016000208190555050505080612eb99061487f565b9050612df0565b505b505050505050565b505050505050565b612ef18473ffffffffffffffffffffffffffffffffffffffff16613377565b156130a1578373ffffffffffffffffffffffffffffffffffffffff1663f23a6e6187878686866040518663ffffffff1660e01b8152600401612f3795949392919061551d565b6020604051808303816000875af1925050508015612f7357506040513d601f19601f82011682018060405250810190612f70919061558c565b60015b61301857612f7f6155c6565b806308c379a003612fdb5750612f936155e8565b80612f9e5750612fdd565b806040517f08c379a0000000000000000000000000000000000000000000000000000000008152600401612fd291906138e0565b60405180910390fd5b505b6040517f08c379a000000000000000000000000000000000000000000000000000000000815260040161300f906156ea565b60405180910390fd5b63f23a6e6160e01b7bffffffffffffffffffffffffffffffffffffffffffffffffffffffff1916817bffffffffffffffffffffffffffffffffffffffffffffffffffffffff19161461309f576040517f08c379a00000000000000000000000000000000000000000000000000000000081526004016130969061577c565b60405180910390fd5b505b505050505050565b6130c88473ffffffffffffffffffffffffffffffffffffffff16613377565b15613278578373ffffffffffffffffffffffffffffffffffffffff1663bc197c8187878686866040518663ffffffff1660e01b815260040161310e95949392919061579c565b6020604051808303816000875af192505050801561314a57506040513d601f19601f82011682018060405250810190613147919061558c565b60015b6131ef576131566155c6565b806308c379a0036131b2575061316a6155e8565b8061317557506131b4565b806040517f08c379a00000000000000000000000000000000000000000000000000000000081526004016131a991906138e0565b60405180910390fd5b505b6040517f08c379a00000000000000000000000000000000000000000000000000000000081526004016131e6906156ea565b60405180910390fd5b63bc197c8160e01b7bffffffffffffffffffffffffffffffffffffffffffffffffffffffff1916817bffffffffffffffffffffffffffffffffffffffffffffffffffffffff191614613276576040517f08c379a000000000000000000000000000000000000000000000000000000000815260040161326d9061577c565b60405180910390fd5b505b505050505050565b61328a8282610f48565b613301576132978161339a565b6132a58360001c60206133c7565b6040516020016132b692919061589c565b6040516020818303038152906040526040517f08c379a00000000000000000000000000000000000000000000000000000000081526004016132f891906138e0565b60405180910390fd5b5050565b60007f01ffc9a7000000000000000000000000000000000000000000000000000000007bffffffffffffffffffffffffffffffffffffffffffffffffffffffff1916827bffffffffffffffffffffffffffffffffffffffffffffffffffffffff1916149050919050565b505050505050565b6000808273ffffffffffffffffffffffffffffffffffffffff163b119050919050565b60606133c08273ffffffffffffffffffffffffffffffffffffffff16601460ff166133c7565b9050919050565b6060600060028360026133da91906158d6565b6133e49190614faa565b67ffffffffffffffff8111156133fd576133fc61390c565b5b6040519080825280601f01601f19166020018201604052801561342f5781602001600182028036833780820191505090505b5090507f30000000000000000000000000000000000000000000000000000000000000008160008151811061346757613466614821565b5b60200101907effffffffffffffffffffffffffffffffffffffffffffffffffffffffffffff1916908160001a9053507f7800000000000000000000000000000000000000000000000000000000000000816001815181106134cb576134ca614821565b5b60200101907effffffffffffffffffffffffffffffffffffffffffffffffffffffffffffff1916908160001a9053506000600184600261350b91906158d6565b6135159190614faa565b90505b60018111156135b5577f3031323334353637383961626364656600000000000000000000000000000000600f86166010811061355757613556614821565b5b1a60f81b82828151811061356e5761356d614821565b5b60200101907effffffffffffffffffffffffffffffffffffffffffffffffffffffffffffff1916908160001a905350600485901c9450806135ae90615918565b9050613518565b50600084146135f9576040517f08c379a00000000000000000000000000000000000000000000000000000000081526004016135f09061598d565b60405180910390fd5b8091505092915050565b6000604051905090565b600080fd5b600080fd5b600073ffffffffffffffffffffffffffffffffffffffff82169050919050565b600061364282613617565b9050919050565b61365281613637565b811461365d57600080fd5b50565b60008135905061366f81613649565b92915050565b6000819050919050565b61368881613675565b811461369357600080fd5b50565b6000813590506136a58161367f565b92915050565b600080604083850312156136c2576136c161360d565b5b60006136d085828601613660565b92505060206136e185828601613696565b9150509250929050565b6136f481613675565b82525050565b600060208201905061370f60008301846136eb565b92915050565b60007fffffffff0000000000000000000000000000000000000000000000000000000082169050919050565b61374a81613715565b811461375557600080fd5b50565b60008135905061376781613741565b92915050565b6000602082840312156137835761378261360d565b5b600061379184828501613758565b91505092915050565b60008115159050919050565b6137af8161379a565b82525050565b60006020820190506137ca60008301846137a6565b92915050565b6000806000606084860312156137e9576137e861360d565b5b60006137f786828701613660565b935050602061380886828701613696565b925050604061381986828701613696565b9150509250925092565b6000602082840312156138395761383861360d565b5b600061384784828501613696565b91505092915050565b600081519050919050565b600082825260208201905092915050565b60005b8381101561388a57808201518184015260208101905061386f565b60008484015250505050565b6000601f19601f8301169050919050565b60006138b282613850565b6138bc818561385b565b93506138cc81856020860161386c565b6138d581613896565b840191505092915050565b600060208201905081810360008301526138fa81846138a7565b905092915050565b600080fd5b600080fd5b7f4e487b7100000000000000000000000000000000000000000000000000000000600052604160045260246000fd5b61394482613896565b810181811067ffffffffffffffff821117156139635761396261390c565b5b80604052505050565b6000613976613603565b9050613982828261393b565b919050565b600067ffffffffffffffff8211156139a2576139a161390c565b5b6139ab82613896565b9050602081019050919050565b82818337600083830152505050565b60006139da6139d584613987565b61396c565b9050828152602081018484840111156139f6576139f5613907565b5b613a018482856139b8565b509392505050565b600082601f830112613a1e57613a1d613902565b5b8135613a2e8482602086016139c7565b91505092915050565b60008060408385031215613a4e57613a4d61360d565b5b6000613a5c85828601613696565b925050602083013567ffffffffffffffff811115613a7d57613a7c613612565b5b613a8985828601613a09565b9150509250929050565b6000819050919050565b613aa681613a93565b8114613ab157600080fd5b50565b600081359050613ac381613a9d565b92915050565b600060208284031215613adf57613ade61360d565b5b6000613aed84828501613ab4565b91505092915050565b613aff81613a93565b82525050565b6000602082019050613b1a6000830184613af6565b92915050565b600067ffffffffffffffff821115613b3b57613b3a61390c565b5b602082029050602081019050919050565b600080fd5b6000613b64613b5f84613b20565b61396c565b90508083825260208201905060208402830185811115613b8757613b86613b4c565b5b835b81811015613bb05780613b9c8882613696565b845260208401935050602081019050613b89565b5050509392505050565b600082601f830112613bcf57613bce613902565b5b8135613bdf848260208601613b51565b91505092915050565b600067ffffffffffffffff821115613c0357613c0261390c565b5b613c0c82613896565b9050602081019050919050565b6000613c2c613c2784613be8565b61396c565b905082815260208101848484011115613c4857613c47613907565b5b613c538482856139b8565b509392505050565b600082601f830112613c7057613c6f613902565b5b8135613c80848260208601613c19565b91505092915050565b600080600080600060a08688031215613ca557613ca461360d565b5b6000613cb388828901613660565b9550506020613cc488828901613660565b945050604086013567ffffffffffffffff811115613ce557613ce4613612565b5b613cf188828901613bba565b935050606086013567ffffffffffffffff811115613d1257613d11613612565b5b613d1e88828901613bba565b925050608086013567ffffffffffffffff811115613d3f57613d3e613612565b5b613d4b88828901613c5b565b9150509295509295909350565b60008060408385031215613d6f57613d6e61360d565b5b6000613d7d85828601613ab4565b9250506020613d8e85828601613660565b9150509250929050565b600060208284031215613dae57613dad61360d565b5b600082013567ffffffffffffffff811115613dcc57613dcb613612565b5b613dd884828501613a09565b91505092915050565b600067ffffffffffffffff821115613dfc57613dfb61390c565b5b602082029050602081019050919050565b6000613e20613e1b84613de1565b61396c565b90508083825260208201905060208402830185811115613e4357613e42613b4c565b5b835b81811015613e6c5780613e588882613660565b845260208401935050602081019050613e45565b5050509392505050565b600082601f830112613e8b57613e8a613902565b5b8135613e9b848260208601613e0d565b91505092915050565b60008060408385031215613ebb57613eba61360d565b5b600083013567ffffffffffffffff811115613ed957613ed8613612565b5b613ee585828601613e76565b925050602083013567ffffffffffffffff811115613f0657613f05613612565b5b613f1285828601613bba565b9150509250929050565b600081519050919050565b600082825260208201905092915050565b6000819050602082019050919050565b613f5181613675565b82525050565b6000613f638383613f48565b60208301905092915050565b6000602082019050919050565b6000613f8782613f1c565b613f918185613f27565b9350613f9c83613f38565b8060005b83811015613fcd578151613fb48882613f57565b9750613fbf83613f6f565b925050600181019050613fa0565b5085935050505092915050565b60006020820190508181036000830152613ff48184613f7c565b905092915050565b6000602082840312156140125761401161360d565b5b600061402084828501613660565b91505092915050565b6000806000606084860312156140425761404161360d565b5b600061405086828701613660565b935050602084013567ffffffffffffffff81111561407157614070613612565b5b61407d86828701613bba565b925050604084013567ffffffffffffffff81111561409e5761409d613612565b5b6140aa86828701613bba565b9150509250925092565b6140bd81613637565b82525050565b60006020820190506140d860008301846140b4565b92915050565b6140e78161379a565b81146140f257600080fd5b50565b600081359050614104816140de565b92915050565b600080604083850312156141215761412061360d565b5b600061412f85828601613660565b9250506020614140858286016140f5565b9150509250929050565b600080fd5b60008083601f84011261416557614164613902565b5b8235905067ffffffffffffffff8111156141825761418161414a565b5b60208301915083602082028301111561419e5761419d613b4c565b5b9250929050565b6000806000806000606086880312156141c1576141c061360d565b5b60006141cf88828901613660565b955050602086013567ffffffffffffffff8111156141f0576141ef613612565b5b6141fc8882890161414f565b9450945050604086013567ffffffffffffffff81111561421f5761421e613612565b5b61422b8882890161414f565b92509250509295509295909350565b600080604083850312156142515761425061360d565b5b600061425f85828601613660565b925050602061427085828601613660565b9150509250929050565b600080600080600060a086880312156142965761429561360d565b5b60006142a488828901613660565b95505060206142b588828901613660565b94505060406142c688828901613696565b93505060606142d788828901613696565b925050608086013567ffffffffffffffff8111156142f8576142f7613612565b5b61430488828901613c5b565b9150509295509295909350565b7f455243313135353a2061646472657373207a65726f206973206e6f742061207660008201527f616c6964206f776e657200000000000000000000000000000000000000000000602082015250565b600061436d602a8361385b565b915061437882614311565b604082019050919050565b6000602082019050818103600083015261439c81614360565b9050919050565b600060a0820190506143b860008301886140b4565b6143c560208301876140b4565b6143d260408301866140b4565b6143df60608301856136eb565b6143ec60808301846136eb565b9695505050505050565b7f4e487b7100000000000000000000000000000000000000000000000000000000600052602260045260246000fd5b6000600282049050600182168061443d57607f821691505b6020821081036144505761444f6143f6565b5b50919050565b600081905092915050565b60008190508160005260206000209050919050565b6000815461448381614425565b61448d8186614456565b945060018216600081146144a857600181146144bd576144f0565b60ff19831686528115158202860193506144f0565b6144c685614461565b60005b838110156144e8578154818901526001820191506020810190506144c9565b838801955050505b50505092915050565b600061450482613850565b61450e8185614456565b935061451e81856020860161386c565b80840191505092915050565b60006145368285614476565b915061454282846144f9565b91508190509392505050565b7f4d7573742068617665206d696e74657220726f6c6520746f206d696e74000000600082015250565b6000614584601d8361385b565b915061458f8261454e565b602082019050919050565b600060208201905081810360008301526145b381614577565b9050919050565b60006080820190506145cf60008301876140b4565b6145dc60208301866140b4565b6145e960408301856136eb565b6145f660608301846136eb565b95945050505050565b7f4d75737420686176652061646d696e20726f6c65000000000000000000000000600082015250565b600061463560148361385b565b9150614640826145ff565b602082019050919050565b6000602082019050818103600083015261466481614628565b9050919050565b7f455243313135353a2063616c6c6572206973206e6f7420746f6b656e206f776e60008201527f6572206f7220617070726f766564000000000000000000000000000000000000602082015250565b60006146c7602e8361385b565b91506146d28261466b565b604082019050919050565b600060208201905081810360008301526146f6816146ba565b9050919050565b7f416363657373436f6e74726f6c3a2063616e206f6e6c792072656e6f756e636560008201527f20726f6c657320666f722073656c660000000000000000000000000000000000602082015250565b6000614759602f8361385b565b9150614764826146fd565b604082019050919050565b600060208201905081810360008301526147888161474c565b9050919050565b7f455243313135353a206163636f756e747320616e6420696473206c656e67746860008201527f206d69736d617463680000000000000000000000000000000000000000000000602082015250565b60006147eb60298361385b565b91506147f68261478f565b604082019050919050565b6000602082019050818103600083015261481a816147de565b9050919050565b7f4e487b7100000000000000000000000000000000000000000000000000000000600052603260045260246000fd5b7f4e487b7100000000000000000000000000000000000000000000000000000000600052601160045260246000fd5b600061488a82613675565b91507fffffffffffffffffffffffffffffffffffffffffffffffffffffffffffffffff82036148bc576148bb614850565b5b600182019050919050565b7f4d7573742068617665206275726e657220726f6c650000000000000000000000600082015250565b60006148fd60158361385b565b9150614908826148c7565b602082019050919050565b6000602082019050818103600083015261492c816148f0565b9050919050565b600060808201905061494860008301876140b4565b61495560208301866140b4565b81810360408301526149678185613f7c565b9050818103606083015261497b8184613f7c565b905095945050505050565b7f436f6e74726163742055524920776173206e6f74207365740000000000000000600082015250565b60006149bc60188361385b565b91506149c782614986565b602082019050919050565b600060208201905081810360008301526149eb816149af565b9050919050565b60006020601f8301049050919050565b600082821b905092915050565b600060088302614a3f7fffffffffffffffffffffffffffffffffffffffffffffffffffffffffffffffff82614a02565b614a498683614a02565b95508019841693508086168417925050509392505050565b6000819050919050565b6000614a86614a81614a7c84613675565b614a61565b613675565b9050919050565b6000819050919050565b614aa083614a6b565b614ab4614aac82614a8d565b848454614a0f565b825550505050565b600090565b614ac9614abc565b614ad4818484614a97565b505050565b5b81811015614af857614aed600082614ac1565b600181019050614ada565b5050565b601f821115614b3d57614b0e81614461565b614b17846149f2565b81016020851015614b26578190505b614b3a614b32856149f2565b830182614ad9565b50505b505050565b600082821c905092915050565b6000614b6060001984600802614b42565b1980831691505092915050565b6000614b798383614b4f565b9150826002028217905092915050565b614b9282613850565b67ffffffffffffffff811115614bab57614baa61390c565b5b614bb58254614425565b614bc0828285614afc565b600060209050601f831160018114614bf35760008415614be1578287015190505b614beb8582614b6d565b865550614c53565b601f198416614c0186614461565b60005b82811015614c2957848901518255600182019150602085019450602081019050614c04565b86831015614c465784890151614c42601f891682614b4f565b8355505b6001600288020188555050505b505050505050565b7f4d7573742068617665206d696e74657220726f6c650000000000000000000000600082015250565b6000614c9160158361385b565b9150614c9c82614c5b565b602082019050919050565b60006020820190508181036000830152614cc081614c84565b9050919050565b600080fd5b82818337505050565b6000614ce18385613f27565b93507f07ffffffffffffffffffffffffffffffffffffffffffffffffffffffffffffff831115614d1457614d13614cc7565b5b602083029250614d25838584614ccc565b82840190509392505050565b6000608082019050614d4660008301896140b4565b614d5360208301886140b4565b8181036040830152614d66818688614cd5565b90508181036060830152614d7b818486614cd5565b9050979650505050505050565b7f4f776e61626c653a206e6577206f776e657220697320746865207a65726f206160008201527f6464726573730000000000000000000000000000000000000000000000000000602082015250565b6000614de460268361385b565b9150614def82614d88565b604082019050919050565b60006020820190508181036000830152614e1381614dd7565b9050919050565b7f4d7573742068617665206275726e657220726f6c6520746f206275726e000000600082015250565b6000614e50601d8361385b565b9150614e5b82614e1a565b602082019050919050565b60006020820190508181036000830152614e7f81614e43565b9050919050565b7f455243313135353a207472616e7366657220746f20746865207a65726f20616460008201527f6472657373000000000000000000000000000000000000000000000000000000602082015250565b6000614ee260258361385b565b9150614eed82614e86565b604082019050919050565b60006020820190508181036000830152614f1181614ed5565b9050919050565b7f455243313135353a20696e73756666696369656e742062616c616e636520666f60008201527f72207472616e7366657200000000000000000000000000000000000000000000602082015250565b6000614f74602a8361385b565b9150614f7f82614f18565b604082019050919050565b60006020820190508181036000830152614fa381614f67565b9050919050565b6000614fb582613675565b9150614fc083613675565b9250828201905080821115614fd857614fd7614850565b5b92915050565b6000604082019050614ff360008301856136eb565b61500060208301846136eb565b9392505050565b7f5061757361626c653a2070617573656400000000000000000000000000000000600082015250565b600061503d60108361385b565b915061504882615007565b602082019050919050565b6000602082019050818103600083015261506c81615030565b9050919050565b7f455243313135353a206d696e7420746f20746865207a65726f2061646472657360008201527f7300000000000000000000000000000000000000000000000000000000000000602082015250565b60006150cf60218361385b565b91506150da82615073565b604082019050919050565b600060208201905081810360008301526150fe816150c2565b9050919050565b7f455243313135353a2069647320616e6420616d6f756e7473206c656e6774682060008201527f6d69736d61746368000000000000000000000000000000000000000000000000602082015250565b600061516160288361385b565b915061516c82615105565b604082019050919050565b6000602082019050818103600083015261519081615154565b9050919050565b600060408201905081810360008301526151b18185613f7c565b905081810360208301526151c58184613f7c565b90509392505050565b7f5061757361626c653a206e6f7420706175736564000000000000000000000000600082015250565b600061520460148361385b565b915061520f826151ce565b602082019050919050565b60006020820190508181036000830152615233816151f7565b9050919050565b7f455243313135353a206275726e2066726f6d20746865207a65726f206164647260008201527f6573730000000000000000000000000000000000000000000000000000000000602082015250565b600061529660238361385b565b91506152a18261523a565b604082019050919050565b600060208201905081810360008301526152c581615289565b9050919050565b7f455243313135353a206275726e20616d6f756e7420657863656564732062616c60008201527f616e636500000000000000000000000000000000000000000000000000000000602082015250565b600061532860248361385b565b9150615333826152cc565b604082019050919050565b600060208201905081810360008301526153578161531b565b9050919050565b7f4f776e61626c653a2063616c6c6572206973206e6f7420746865206f776e6572600082015250565b600061539460208361385b565b915061539f8261535e565b602082019050919050565b600060208201905081810360008301526153c381615387565b9050919050565b7f455243313135353a2073657474696e6720617070726f76616c2073746174757360008201527f20666f722073656c660000000000000000000000000000000000000000000000602082015250565b600061542660298361385b565b9150615431826153ca565b604082019050919050565b6000602082019050818103600083015261545581615419565b9050919050565b7f455243313135353a206578636565647320746f74616c537570706c7900000000600082015250565b6000615492601c8361385b565b915061549d8261545c565b602082019050919050565b600060208201905081810360008301526154c181615485565b9050919050565b600081519050919050565b600082825260208201905092915050565b60006154ef826154c8565b6154f981856154d3565b935061550981856020860161386c565b61551281613896565b840191505092915050565b600060a08201905061553260008301886140b4565b61553f60208301876140b4565b61554c60408301866136eb565b61555960608301856136eb565b818103608083015261556b81846154e4565b90509695505050505050565b60008151905061558681613741565b92915050565b6000602082840312156155a2576155a161360d565b5b60006155b084828501615577565b91505092915050565b60008160e01c9050919050565b600060033d11156155e55760046000803e6155e26000516155b9565b90505b90565b600060443d10615675576155fa613603565b60043d036004823e80513d602482011167ffffffffffffffff82111715615622575050615675565b808201805167ffffffffffffffff8111156156405750505050615675565b80602083010160043d03850181111561565d575050505050615675565b61566c8260200185018661393b565b82955050505050505b90565b7f455243313135353a207472616e7366657220746f206e6f6e2d4552433131353560008201527f526563656976657220696d706c656d656e746572000000000000000000000000602082015250565b60006156d460348361385b565b91506156df82615678565b604082019050919050565b60006020820190508181036000830152615703816156c7565b9050919050565b7f455243313135353a204552433131353552656365697665722072656a6563746560008201527f6420746f6b656e73000000000000000000000000000000000000000000000000602082015250565b600061576660288361385b565b91506157718261570a565b604082019050919050565b6000602082019050818103600083015261579581615759565b9050919050565b600060a0820190506157b160008301886140b4565b6157be60208301876140b4565b81810360408301526157d08186613f7c565b905081810360608301526157e48185613f7c565b905081810360808301526157f881846154e4565b90509695505050505050565b7f416363657373436f6e74726f6c3a206163636f756e7420000000000000000000600082015250565b600061583a601783614456565b915061584582615804565b601782019050919050565b7f206973206d697373696e6720726f6c6520000000000000000000000000000000600082015250565b6000615886601183614456565b915061589182615850565b601182019050919050565b60006158a78261582d565b91506158b382856144f9565b91506158be82615879565b91506158ca82846144f9565b91508190509392505050565b60006158e182613675565b91506158ec83613675565b92508282026158fa81613675565b9150828204841483151761591157615910614850565b5b5092915050565b600061592382613675565b91506000820361593657615935614850565b5b600182039050919050565b7f537472696e67733a20686578206c656e67746820696e73756666696369656e74600082015250565b600061597760208361385b565b915061598282615941565b602082019050919050565b600060208201905081810360008301526159a68161596a565b905091905056fea264697066735822122075b3aca34fad5e2798b252b074f37abad7e5c5f8582a3954b291c1719b48ec5564736f6c63430008130033",
  "linkReferences": {},
  "deployedLinkReferences": {}
}