{
  "_format": "hh-sol-artifact-1",
  "contractName": "PocPaymaster",
  "sourceName": "contracts/PocPaymaster.sol",
  "abi": [
    {
      "anonymous": false,
      "inputs": [
        {
          "indexed": true,
          "internalType": "address",
          "name": "previousOwner",
          "type": "address"
        },
        {
          "indexed": true,
          "internalType": "address",
          "name": "newOwner",
          "type": "address"
        }
      ],
      "name": "OwnershipTransferred",
      "type": "event"
    },
    {
      "anonymous": false,
      "inputs": [
        {
          "indexed": false,
          "internalType": "address",
          "name": "oldTarget",
          "type": "address"
        },
        {
          "indexed": false,
          "internalType": "address",
          "name": "newTarget",
          "type": "address"
        }
      ],
      "name": "TargetChanged",
      "type": "event"
    },
    {
      "inputs": [],
      "name": "CALLDATA_SIZE_LIMIT",
      "outputs": [
        {
          "internalType": "uint256",
          "name": "",
          "type": "uint256"
        }
      ],
      "stateMutability": "view",
      "type": "function"
    },
    {
      "inputs": [],
      "name": "FORWARDER_HUB_OVERHEAD",
      "outputs": [
        {
          "internalType": "uint256",
          "name": "",
          "type": "uint256"
        }
      ],
      "stateMutability": "view",
      "type": "function"
    },
    {
      "inputs": [],
      "name": "PAYMASTER_ACCEPTANCE_BUDGET",
      "outputs": [
        {
          "internalType": "uint256",
          "name": "",
          "type": "uint256"
        }
      ],
      "stateMutability": "view",
      "type": "function"
    },
    {
      "inputs": [],
      "name": "POST_RELAYED_CALL_GAS_LIMIT",
      "outputs": [
        {
          "internalType": "uint256",
          "name": "",
          "type": "uint256"
        }
      ],
      "stateMutability": "view",
      "type": "function"
    },
    {
      "inputs": [],
      "name": "PRE_RELAYED_CALL_GAS_LIMIT",
      "outputs": [
        {
          "internalType": "uint256",
          "name": "",
          "type": "uint256"
        }
      ],
      "stateMutability": "view",
      "type": "function"
    },
    {
      "inputs": [],
      "name": "getGasAndDataLimits",
      "outputs": [
        {
          "components": [
            {
              "internalType": "uint256",
              "name": "acceptanceBudget",
              "type": "uint256"
            },
            {
              "internalType": "uint256",
              "name": "preRelayedCallGasLimit",
              "type": "uint256"
            },
            {
              "internalType": "uint256",
              "name": "postRelayedCallGasLimit",
              "type": "uint256"
            },
            {
              "internalType": "uint256",
              "name": "calldataSizeLimit",
              "type": "uint256"
            }
          ],
          "internalType": "struct IPaymaster.GasAndDataLimits",
          "name": "limits",
          "type": "tuple"
        }
      ],
      "stateMutability": "view",
      "type": "function"
    },
    {
      "inputs": [],
      "name": "getRelayHub",
      "outputs": [
        {
          "internalType": "address",
          "name": "",
          "type": "address"
        }
      ],
      "stateMutability": "view",
      "type": "function"
    },
    {
      "inputs": [],
      "name": "getTrustedForwarder",
      "outputs": [
        {
          "internalType": "address",
          "name": "",
          "type": "address"
        }
      ],
      "stateMutability": "view",
      "type": "function"
    },
    {
      "inputs": [],
      "name": "owner",
      "outputs": [
        {
          "internalType": "address",
          "name": "",
          "type": "address"
        }
      ],
      "stateMutability": "view",
      "type": "function"
    },
    {
      "inputs": [
        {
          "internalType": "bytes",
          "name": "context",
          "type": "bytes"
        },
        {
          "internalType": "bool",
          "name": "success",
          "type": "bool"
        },
        {
          "internalType": "uint256",
          "name": "gasUseWithoutPost",
          "type": "uint256"
        },
        {
          "components": [
            {
              "internalType": "uint256",
              "name": "maxFeePerGas",
              "type": "uint256"
            },
            {
              "internalType": "uint256",
              "name": "maxPriorityFeePerGas",
              "type": "uint256"
            },
            {
              "internalType": "uint256",
              "name": "transactionCalldataGasUsed",
              "type": "uint256"
            },
            {
              "internalType": "address",
              "name": "relayWorker",
              "type": "address"
            },
            {
              "internalType": "address",
              "name": "paymaster",
              "type": "address"
            },
            {
              "internalType": "address",
              "name": "forwarder",
              "type": "address"
            },
            {
              "internalType": "bytes",
              "name": "paymasterData",
              "type": "bytes"
            },
            {
              "internalType": "uint256",
              "name": "clientId",
              "type": "uint256"
            }
          ],
          "internalType": "struct GsnTypes.RelayData",
          "name": "relayData",
          "type": "tuple"
        }
      ],
      "name": "postRelayedCall",
      "outputs": [],
      "stateMutability": "nonpayable",
      "type": "function"
    },
    {
      "inputs": [
        {
          "components": [
            {
              "components": [
                {
                  "internalType": "address",
                  "name": "from",
                  "type": "address"
                },
                {
                  "internalType": "address",
                  "name": "to",
                  "type": "address"
                },
                {
                  "internalType": "uint256",
                  "name": "value",
                  "type": "uint256"
                },
                {
                  "internalType": "uint256",
                  "name": "gas",
                  "type": "uint256"
                },
                {
                  "internalType": "uint256",
                  "name": "nonce",
                  "type": "uint256"
                },
                {
                  "internalType": "bytes",
                  "name": "data",
                  "type": "bytes"
                },
                {
                  "internalType": "uint256",
                  "name": "validUntilTime",
                  "type": "uint256"
                }
              ],
              "internalType": "struct IForwarder.ForwardRequest",
              "name": "request",
              "type": "tuple"
            },
            {
              "components": [
                {
                  "internalType": "uint256",
                  "name": "maxFeePerGas",
                  "type": "uint256"
                },
                {
                  "internalType": "uint256",
                  "name": "maxPriorityFeePerGas",
                  "type": "uint256"
                },
                {
                  "internalType": "uint256",
                  "name": "transactionCalldataGasUsed",
                  "type": "uint256"
                },
                {
                  "internalType": "address",
                  "name": "relayWorker",
                  "type": "address"
                },
                {
                  "internalType": "address",
                  "name": "paymaster",
                  "type": "address"
                },
                {
                  "internalType": "address",
                  "name": "forwarder",
                  "type": "address"
                },
                {
                  "internalType": "bytes",
                  "name": "paymasterData",
                  "type": "bytes"
                },
                {
                  "internalType": "uint256",
                  "name": "clientId",
                  "type": "uint256"
                }
              ],
              "internalType": "struct GsnTypes.RelayData",
              "name": "relayData",
              "type": "tuple"
            }
          ],
          "internalType": "struct GsnTypes.RelayRequest",
          "name": "relayRequest",
          "type": "tuple"
        },
        {
          "internalType": "bytes",
          "name": "signature",
          "type": "bytes"
        },
        {
          "internalType": "bytes",
          "name": "approvalData",
          "type": "bytes"
        },
        {
          "internalType": "uint256",
          "name": "maxPossibleGas",
          "type": "uint256"
        }
      ],
      "name": "preRelayedCall",
      "outputs": [
        {
          "internalType": "bytes",
          "name": "",
          "type": "bytes"
        },
        {
          "internalType": "bool",
          "name": "",
          "type": "bool"
        }
      ],
      "stateMutability": "nonpayable",
      "type": "function"
    },
    {
      "inputs": [],
      "name": "renounceOwnership",
      "outputs": [],
      "stateMutability": "nonpayable",
      "type": "function"
    },
    {
      "inputs": [
        {
          "internalType": "contract IRelayHub",
          "name": "hub",
          "type": "address"
        }
      ],
      "name": "setRelayHub",
      "outputs": [],
      "stateMutability": "nonpayable",
      "type": "function"
    },
    {
      "inputs": [
        {
          "internalType": "address",
          "name": "_target",
          "type": "address"
        }
      ],
      "name": "setTarget",
      "outputs": [],
      "stateMutability": "nonpayable",
      "type": "function"
    },
    {
      "inputs": [
        {
          "internalType": "address",
          "name": "forwarder",
          "type": "address"
        }
      ],
      "name": "setTrustedForwarder",
      "outputs": [],
      "stateMutability": "nonpayable",
      "type": "function"
    },
    {
      "inputs": [
        {
          "internalType": "bytes4",
          "name": "interfaceId",
          "type": "bytes4"
        }
      ],
      "name": "supportsInterface",
      "outputs": [
        {
          "internalType": "bool",
          "name": "",
          "type": "bool"
        }
      ],
      "stateMutability": "view",
      "type": "function"
    },
    {
      "inputs": [],
      "name": "target",
      "outputs": [
        {
          "internalType": "address",
          "name": "",
          "type": "address"
        }
      ],
      "stateMutability": "view",
      "type": "function"
    },
    {
      "inputs": [
        {
          "internalType": "address",
          "name": "newOwner",
          "type": "address"
        }
      ],
      "name": "transferOwnership",
      "outputs": [],
      "stateMutability": "nonpayable",
      "type": "function"
    },
    {
      "inputs": [],
      "name": "versionPaymaster",
      "outputs": [
        {
          "internalType": "string",
          "name": "",
          "type": "string"
        }
      ],
      "stateMutability": "view",
      "type": "function"
    },
    {
      "inputs": [
        {
          "internalType": "uint256",
          "name": "amount",
          "type": "uint256"
        },
        {
          "internalType": "address payable",
          "name": "target",
          "type": "address"
        }
      ],
      "name": "withdrawRelayHubDepositTo",
      "outputs": [],
      "stateMutability": "nonpayable",
      "type": "function"
    },
    {
      "stateMutability": "payable",
      "type": "receive"
    }
  ],
  "bytecode": "0x608060405234801561001057600080fd5b5061002d61002261003260201b60201c565b61003a60201b60201c565b6100fe565b600033905090565b60008060009054906101000a900473ffffffffffffffffffffffffffffffffffffffff169050816000806101000a81548173ffffffffffffffffffffffffffffffffffffffff021916908373ffffffffffffffffffffffffffffffffffffffff1602179055508173ffffffffffffffffffffffffffffffffffffffff168173ffffffffffffffffffffffffffffffffffffffff167f8be0079c531659141344cd1fd0a4f28419497f9722a3daafe3b4186f6b6457e060405160405180910390a35050565b612322806200010e6000396000f3fe6080604052600436106101225760003560e01c8063921276ea116100a0578063d4b8399211610064578063d4b83992146104d6578063da74222814610501578063df463a661461052a578063f2fde38b14610555578063f9c002f71461057e57610243565b8063921276ea146103ff578063b039a88f1461042a578063b90b41cf14610455578063bbdaa3c914610480578063ce1b815f146104ab57610243565b806376fa01c3116100e757806376fa01c31461032e578063776d1a01146103575780637bb05264146103805780637bdf2ec7146103a95780638da5cb5b146103d457610243565b8062be5dd41461024857806301ffc9a7146102865780632d14c4b7146102c35780635c5e3db1146102ec578063715018a61461031757610243565b3661024357600073ffffffffffffffffffffffffffffffffffffffff16600160009054906101000a900473ffffffffffffffffffffffffffffffffffffffff1673ffffffffffffffffffffffffffffffffffffffff16036101b8576040517f08c379a00000000000000000000000000000000000000000000000000000000081526004016101af90611417565b60405180910390fd5b600160009054906101000a900473ffffffffffffffffffffffffffffffffffffffff1673ffffffffffffffffffffffffffffffffffffffff1663aa67c91934306040518363ffffffff1660e01b81526004016102149190611478565b6000604051808303818588803b15801561022d57600080fd5b505af1158015610241573d6000803e3d6000fd5b005b600080fd5b34801561025457600080fd5b5061026f600480360381019061026a919061155c565b6105a9565b60405161027d9291906116ca565b60405180910390f35b34801561029257600080fd5b506102ad60048036038101906102a89190611752565b6105f7565b6040516102ba919061177f565b60405180910390f35b3480156102cf57600080fd5b506102ea60048036038101906102e591906117d8565b6106d9565b005b3480156102f857600080fd5b50610301610774565b60405161030e9190611827565b60405180910390f35b34801561032357600080fd5b5061032c61077a565b005b34801561033a57600080fd5b506103556004803603810190610350919061188e565b61078e565b005b34801561036357600080fd5b5061037e6004803603810190610379919061195e565b6107aa565b005b34801561038c57600080fd5b506103a760048036038101906103a291906119c9565b610851565b005b3480156103b557600080fd5b506103be610925565b6040516103cb9190611478565b60405180910390f35b3480156103e057600080fd5b506103e961094f565b6040516103f69190611478565b60405180910390f35b34801561040b57600080fd5b50610414610978565b6040516104219190611a3a565b60405180910390f35b34801561043657600080fd5b5061043f610998565b60405161044c9190611ac0565b60405180910390f35b34801561046157600080fd5b5061046a6109de565b6040516104779190611827565b60405180910390f35b34801561048c57600080fd5b506104956109e4565b6040516104a29190611827565b60405180910390f35b3480156104b757600080fd5b506104c06109eb565b6040516104cd9190611478565b60405180910390f35b3480156104e257600080fd5b506104eb610a15565b6040516104f89190611478565b60405180910390f35b34801561050d57600080fd5b506105286004803603810190610523919061195e565b610a3b565b005b34801561053657600080fd5b5061053f610b0f565b60405161054c9190611827565b60405180910390f35b34801561056157600080fd5b5061057c6004803603810190610577919061195e565b610b23565b005b34801561058a57600080fd5b50610593610ba6565b6040516105a09190611827565b60405180910390f35b606060006105b5610bad565b6105be88610c24565b6105c788610cc6565b6105d088610d1f565b6105da8585610d85565b6105e8888888888888610dcf565b91509150965096945050505050565b60007fe1ab2dea000000000000000000000000000000000000000000000000000000007bffffffffffffffffffffffffffffffffffffffffffffffffffffffff1916827bffffffffffffffffffffffffffffffffffffffffffffffffffffffff191614806106c257507f0e083076000000000000000000000000000000000000000000000000000000007bffffffffffffffffffffffffffffffffffffffffffffffffffffffff1916827bffffffffffffffffffffffffffffffffffffffffffffffffffffffff1916145b806106d257506106d182610ea6565b5b9050919050565b6106e1610f10565b600160009054906101000a900473ffffffffffffffffffffffffffffffffffffffff1673ffffffffffffffffffffffffffffffffffffffff1663f3fef3a382846040518363ffffffff1660e01b815260040161073e929190611aea565b600060405180830381600087803b15801561075857600080fd5b505af115801561076c573d6000803e3d6000fd5b505050505050565b61290481565b610782610f10565b61078c6000610f8e565b565b610796610bad565b6107a38585858585611052565b5050505050565b6107b2610f10565b7f4d11d6210a5e807da812a693b5d341a870571b5fc31158172207a3d99c911ccd600360009054906101000a900473ffffffffffffffffffffffffffffffffffffffff1682604051610805929190611b13565b60405180910390a180600360006101000a81548173ffffffffffffffffffffffffffffffffffffffff021916908373ffffffffffffffffffffffffffffffffffffffff16021790555050565b610859610f10565b6108a27fe9fb30f7000000000000000000000000000000000000000000000000000000008273ffffffffffffffffffffffffffffffffffffffff1661105990919063ffffffff16565b6108e1576040517f08c379a00000000000000000000000000000000000000000000000000000000081526004016108d890611b88565b60405180910390fd5b80600160006101000a81548173ffffffffffffffffffffffffffffffffffffffff021916908373ffffffffffffffffffffffffffffffffffffffff16021790555050565b6000600160009054906101000a900473ffffffffffffffffffffffffffffffffffffffff16905090565b60008060009054906101000a900473ffffffffffffffffffffffffffffffffffffffff16905090565b60606040518060600160405280602981526020016122c460299139905090565b6109a0611392565b604051806080016040528061c350620186a06109bc9190611bd7565b8152602001620186a081526020016201adb08152602001612904815250905090565b61c35081565b6201adb081565b6000600260009054906101000a900473ffffffffffffffffffffffffffffffffffffffff16905090565b600360009054906101000a900473ffffffffffffffffffffffffffffffffffffffff1681565b610a43610f10565b610a8c7f25e23e64000000000000000000000000000000000000000000000000000000008273ffffffffffffffffffffffffffffffffffffffff1661105990919063ffffffff16565b610acb576040517f08c379a0000000000000000000000000000000000000000000000000000000008152600401610ac290611c57565b60405180910390fd5b80600260006101000a81548173ffffffffffffffffffffffffffffffffffffffff021916908373ffffffffffffffffffffffffffffffffffffffff16021790555050565b61c350620186a0610b209190611bd7565b81565b610b2b610f10565b600073ffffffffffffffffffffffffffffffffffffffff168173ffffffffffffffffffffffffffffffffffffffff1603610b9a576040517f08c379a0000000000000000000000000000000000000000000000000000000008152600401610b9190611ce9565b60405180910390fd5b610ba381610f8e565b50565b620186a081565b610bb5610925565b73ffffffffffffffffffffffffffffffffffffffff163373ffffffffffffffffffffffffffffffffffffffff1614610c22576040517f08c379a0000000000000000000000000000000000000000000000000000000008152600401610c1990611d55565b60405180910390fd5b565b808060200190610c349190611d84565b60a0016020810190610c46919061195e565b73ffffffffffffffffffffffffffffffffffffffff16610c646109eb565b73ffffffffffffffffffffffffffffffffffffffff1614610cba576040517f08c379a0000000000000000000000000000000000000000000000000000000008152600401610cb190611df9565b60405180910390fd5b610cc38161107e565b50565b6000818060000190610cd89190611e19565b6040013514610d1c576040517f08c379a0000000000000000000000000000000000000000000000000000000008152600401610d1390611e8d565b60405180910390fd5b50565b6000818060200190610d319190611d84565b8060c00190610d409190611ead565b905014610d82576040517f08c379a0000000000000000000000000000000000000000000000000000000008152600401610d7990611f5c565b60405180910390fd5b50565b60008282905014610dcb576040517f08c379a0000000000000000000000000000000000000000000000000000000008152600401610dc290611fc8565b60405180910390fd5b5050565b60606000600360009054906101000a900473ffffffffffffffffffffffffffffffffffffffff1673ffffffffffffffffffffffffffffffffffffffff16888060000190610e1c9190611e19565b6020016020810190610e2e919061195e565b73ffffffffffffffffffffffffffffffffffffffff1614610e84576040517f08c379a0000000000000000000000000000000000000000000000000000000008152600401610e7b90612034565b60405180910390fd5b6001604051806020016040528060008152509091509150965096945050505050565b60007f01ffc9a7000000000000000000000000000000000000000000000000000000007bffffffffffffffffffffffffffffffffffffffffffffffffffffffff1916827bffffffffffffffffffffffffffffffffffffffffffffffffffffffff1916149050919050565b610f1861127e565b73ffffffffffffffffffffffffffffffffffffffff16610f3661094f565b73ffffffffffffffffffffffffffffffffffffffff1614610f8c576040517f08c379a0000000000000000000000000000000000000000000000000000000008152600401610f83906120a0565b60405180910390fd5b565b60008060009054906101000a900473ffffffffffffffffffffffffffffffffffffffff169050816000806101000a81548173ffffffffffffffffffffffffffffffffffffffff021916908373ffffffffffffffffffffffffffffffffffffffff1602179055508173ffffffffffffffffffffffffffffffffffffffff168173ffffffffffffffffffffffffffffffffffffffff167f8be0079c531659141344cd1fd0a4f28419497f9722a3daafe3b4186f6b6457e060405160405180910390a35050565b5050505050565b600061106483611286565b8015611076575061107583836112d3565b5b905092915050565b6000808280600001906110919190611e19565b60200160208101906110a3919061195e565b73ffffffffffffffffffffffffffffffffffffffff1663572b6c0560e01b8480602001906110d19190611d84565b60a00160208101906110e3919061195e565b6040516024016110f39190611478565b604051602081830303815290604052907bffffffffffffffffffffffffffffffffffffffffffffffffffffffff19166020820180517bffffffffffffffffffffffffffffffffffffffffffffffffffffffff838183161783525050505060405161115d91906120fc565b600060405180830381855afa9150503d8060008114611198576040519150601f19603f3d011682016040523d82523d6000602084013e61119d565b606091505b5091509150816111e2576040517f08c379a00000000000000000000000000000000000000000000000000000000081526004016111d99061215f565b60405180910390fd5b6020815114611226576040517f08c379a000000000000000000000000000000000000000000000000000000000815260040161121d906121cb565b60405180910390fd5b8080602001905181019061123a9190612200565b611279576040517f08c379a000000000000000000000000000000000000000000000000000000000815260040161127090612279565b60405180910390fd5b505050565b600033905090565b60006112b2827f01ffc9a7000000000000000000000000000000000000000000000000000000006112d3565b80156112cc57506112ca8263ffffffff60e01b6112d3565b155b9050919050565b6000806301ffc9a760e01b836040516024016112ef91906122a8565b604051602081830303815290604052907bffffffffffffffffffffffffffffffffffffffffffffffffffffffff19166020820180517bffffffffffffffffffffffffffffffffffffffffffffffffffffffff838183161783525050505090506000806000602060008551602087018a617530fa92503d9150600051905082801561137a575060208210155b80156113865750600081115b94505050505092915050565b6040518060800160405280600081526020016000815260200160008152602001600081525090565b600082825260208201905092915050565b7f72656c6179206875622061646472657373206e6f742073657400000000000000600082015250565b60006114016019836113ba565b915061140c826113cb565b602082019050919050565b60006020820190508181036000830152611430816113f4565b9050919050565b600073ffffffffffffffffffffffffffffffffffffffff82169050919050565b600061146282611437565b9050919050565b61147281611457565b82525050565b600060208201905061148d6000830184611469565b92915050565b600080fd5b600080fd5b600080fd5b6000604082840312156114b8576114b761149d565b5b81905092915050565b600080fd5b600080fd5b600080fd5b60008083601f8401126114e6576114e56114c1565b5b8235905067ffffffffffffffff811115611503576115026114c6565b5b60208301915083600182028301111561151f5761151e6114cb565b5b9250929050565b6000819050919050565b61153981611526565b811461154457600080fd5b50565b60008135905061155681611530565b92915050565b6000806000806000806080878903121561157957611578611493565b5b600087013567ffffffffffffffff81111561159757611596611498565b5b6115a389828a016114a2565b965050602087013567ffffffffffffffff8111156115c4576115c3611498565b5b6115d089828a016114d0565b9550955050604087013567ffffffffffffffff8111156115f3576115f2611498565b5b6115ff89828a016114d0565b9350935050606061161289828a01611547565b9150509295509295509295565b600081519050919050565b600082825260208201905092915050565b60005b8381101561165957808201518184015260208101905061163e565b60008484015250505050565b6000601f19601f8301169050919050565b60006116818261161f565b61168b818561162a565b935061169b81856020860161163b565b6116a481611665565b840191505092915050565b60008115159050919050565b6116c4816116af565b82525050565b600060408201905081810360008301526116e48185611676565b90506116f360208301846116bb565b9392505050565b60007fffffffff0000000000000000000000000000000000000000000000000000000082169050919050565b61172f816116fa565b811461173a57600080fd5b50565b60008135905061174c81611726565b92915050565b60006020828403121561176857611767611493565b5b60006117768482850161173d565b91505092915050565b600060208201905061179460008301846116bb565b92915050565b60006117a582611437565b9050919050565b6117b58161179a565b81146117c057600080fd5b50565b6000813590506117d2816117ac565b92915050565b600080604083850312156117ef576117ee611493565b5b60006117fd85828601611547565b925050602061180e858286016117c3565b9150509250929050565b61182181611526565b82525050565b600060208201905061183c6000830184611818565b92915050565b61184b816116af565b811461185657600080fd5b50565b60008135905061186881611842565b92915050565b600061010082840312156118855761188461149d565b5b81905092915050565b6000806000806000608086880312156118aa576118a9611493565b5b600086013567ffffffffffffffff8111156118c8576118c7611498565b5b6118d4888289016114d0565b955095505060206118e788828901611859565b93505060406118f888828901611547565b925050606086013567ffffffffffffffff81111561191957611918611498565b5b6119258882890161186e565b9150509295509295909350565b61193b81611457565b811461194657600080fd5b50565b60008135905061195881611932565b92915050565b60006020828403121561197457611973611493565b5b600061198284828501611949565b91505092915050565b600061199682611457565b9050919050565b6119a68161198b565b81146119b157600080fd5b50565b6000813590506119c38161199d565b92915050565b6000602082840312156119df576119de611493565b5b60006119ed848285016119b4565b91505092915050565b600081519050919050565b6000611a0c826119f6565b611a1681856113ba565b9350611a2681856020860161163b565b611a2f81611665565b840191505092915050565b60006020820190508181036000830152611a548184611a01565b905092915050565b611a6581611526565b82525050565b608082016000820151611a816000850182611a5c565b506020820151611a946020850182611a5c565b506040820151611aa76040850182611a5c565b506060820151611aba6060850182611a5c565b50505050565b6000608082019050611ad56000830184611a6b565b92915050565b611ae48161179a565b82525050565b6000604082019050611aff6000830185611adb565b611b0c6020830184611818565b9392505050565b6000604082019050611b286000830185611469565b611b356020830184611469565b9392505050565b7f746172676574206973206e6f7420612076616c6964204952656c617948756200600082015250565b6000611b72601f836113ba565b9150611b7d82611b3c565b602082019050919050565b60006020820190508181036000830152611ba181611b65565b9050919050565b7f4e487b7100000000000000000000000000000000000000000000000000000000600052601160045260246000fd5b6000611be282611526565b9150611bed83611526565b9250828201905080821115611c0557611c04611ba8565b5b92915050565b7f746172676574206973206e6f7420612076616c69642049466f72776172646572600082015250565b6000611c416020836113ba565b9150611c4c82611c0b565b602082019050919050565b60006020820190508181036000830152611c7081611c34565b9050919050565b7f4f776e61626c653a206e6577206f776e657220697320746865207a65726f206160008201527f6464726573730000000000000000000000000000000000000000000000000000602082015250565b6000611cd36026836113ba565b9150611cde82611c77565b604082019050919050565b60006020820190508181036000830152611d0281611cc6565b9050919050565b7f63616e206f6e6c792062652063616c6c65642062792052656c61794875620000600082015250565b6000611d3f601e836113ba565b9150611d4a82611d09565b602082019050919050565b60006020820190508181036000830152611d6e81611d32565b9050919050565b600080fd5b600080fd5b600080fd5b60008235600161010003833603038112611da157611da0611d75565b5b80830191505092915050565b7f466f72776172646572206973206e6f7420747275737465640000000000000000600082015250565b6000611de36018836113ba565b9150611dee82611dad565b602082019050919050565b60006020820190508181036000830152611e1281611dd6565b9050919050565b60008235600160e003833603038112611e3557611e34611d75565b5b80830191505092915050565b7f76616c7565207472616e73666572206e6f7420737570706f7274656400000000600082015250565b6000611e77601c836113ba565b9150611e8282611e41565b602082019050919050565b60006020820190508181036000830152611ea681611e6a565b9050919050565b60008083356001602003843603038112611eca57611ec9611d75565b5b80840192508235915067ffffffffffffffff821115611eec57611eeb611d7a565b5b602083019250600182023603831315611f0857611f07611d7f565b5b509250929050565b7f73686f756c642068617665206e6f207061796d61737465724461746100000000600082015250565b6000611f46601c836113ba565b9150611f5182611f10565b602082019050919050565b60006020820190508181036000830152611f7581611f39565b9050919050565b7f73686f756c642068617665206e6f20617070726f76616c446174610000000000600082015250565b6000611fb2601b836113ba565b9150611fbd82611f7c565b602082019050919050565b60006020820190508181036000830152611fe181611fa5565b9050919050565b7f77726f6e67207461726765740000000000000000000000000000000000000000600082015250565b600061201e600c836113ba565b915061202982611fe8565b602082019050919050565b6000602082019050818103600083015261204d81612011565b9050919050565b7f4f776e61626c653a2063616c6c6572206973206e6f7420746865206f776e6572600082015250565b600061208a6020836113ba565b915061209582612054565b602082019050919050565b600060208201905081810360008301526120b98161207d565b9050919050565b600081905092915050565b60006120d68261161f565b6120e081856120c0565b93506120f081856020860161163b565b80840191505092915050565b600061210882846120cb565b915081905092915050565b7f697354727573746564466f727761726465723a20726576657274656400000000600082015250565b6000612149601c836113ba565b915061215482612113565b602082019050919050565b600060208201905081810360008301526121788161213c565b9050919050565b7f697354727573746564466f727761726465723a2062616420726573706f6e7365600082015250565b60006121b56020836113ba565b91506121c08261217f565b602082019050919050565b600060208201905081810360008301526121e4816121a8565b9050919050565b6000815190506121fa81611842565b92915050565b60006020828403121561221657612215611493565b5b6000612224848285016121eb565b91505092915050565b7f696e76616c696420666f7277617264657220666f7220726563697069656e7400600082015250565b6000612263601f836113ba565b915061226e8261222d565b602082019050919050565b6000602082019050818103600083015261229281612256565b9050919050565b6122a2816116fa565b82525050565b60006020820190506122bd6000830184612299565b9291505056fe332e302e302d626574612e332b6f70656e67736e2e726563697069656e742e697061796d6173746572a2646970667358221220577fbb94c0ebcf122d3aa2e6e565e776648e66b10257df5edf04a68efd8a1b5a64736f6c63430008130033",
  "linkReferences": {},
  "deployedLinkReferences": {}
}